{
  "_format": "hh-sol-artifact-1",
  "contractName": "AssetPool",
  "sourceName": "contracts/AssetPool.sol",
  "abi": [
    {
      "inputs": [
        {
          "internalType": "address",
          "name": "_usdcAddress",
          "type": "address"
        },
        {
          "internalType": "address",
          "name": "_manager",
          "type": "address"
        }
      ],
      "stateMutability": "nonpayable",
      "type": "constructor"
    },
    {
      "anonymous": false,
      "inputs": [
        {
          "indexed": true,
          "internalType": "address",
          "name": "sender",
          "type": "address"
        },
        {
          "indexed": false,
          "internalType": "uint256",
          "name": "amount",
          "type": "uint256"
        }
      ],
      "name": "Deposit",
      "type": "event"
    },
    {
      "anonymous": false,
      "inputs": [
        {
          "indexed": true,
          "internalType": "address",
          "name": "previousOwner",
          "type": "address"
        },
        {
          "indexed": true,
          "internalType": "address",
          "name": "newOwner",
          "type": "address"
        }
      ],
      "name": "OwnershipTransferred",
      "type": "event"
    },
    {
      "anonymous": false,
      "inputs": [
        {
          "indexed": true,
          "internalType": "address",
          "name": "recipient",
          "type": "address"
        },
        {
          "indexed": false,
          "internalType": "uint256",
          "name": "amount",
          "type": "uint256"
        }
      ],
      "name": "Withdrawal",
      "type": "event"
    },
    {
      "inputs": [],
      "name": "USDC",
      "outputs": [
        {
          "internalType": "contract ERC20",
          "name": "",
          "type": "address"
        }
      ],
      "stateMutability": "view",
      "type": "function"
    },
    {
      "inputs": [],
      "name": "artist",
      "outputs": [
        {
          "internalType": "address",
          "name": "",
          "type": "address"
        }
      ],
      "stateMutability": "view",
      "type": "function"
    },
    {
      "inputs": [],
      "name": "bondValue",
      "outputs": [
        {
          "internalType": "uint256",
          "name": "",
          "type": "uint256"
        }
      ],
      "stateMutability": "view",
      "type": "function"
    },
    {
      "inputs": [],
      "name": "currentQuarter",
      "outputs": [
        {
          "internalType": "uint256",
          "name": "",
          "type": "uint256"
        }
      ],
      "stateMutability": "view",
      "type": "function"
    },
    {
      "inputs": [
        {
          "internalType": "uint256",
          "name": "_amount",
          "type": "uint256"
        }
      ],
      "name": "depositFunds",
      "outputs": [],
      "stateMutability": "payable",
      "type": "function"
    },
    {
      "inputs": [],
      "name": "expectedNextPaymentBlock",
      "outputs": [
        {
          "internalType": "uint256",
          "name": "",
          "type": "uint256"
        }
      ],
      "stateMutability": "view",
      "type": "function"
    },
    {
      "inputs": [
        {
          "internalType": "address",
          "name": "_artist",
          "type": "address"
        },
        {
          "internalType": "uint256",
          "name": "_bondValue",
          "type": "uint256"
        }
      ],
      "name": "initialize",
      "outputs": [],
      "stateMutability": "nonpayable",
      "type": "function"
    },
    {
      "inputs": [
        {
          "internalType": "uint256",
          "name": "_numberOfYears",
          "type": "uint256"
        },
        {
          "internalType": "address",
          "name": "_nftAddress",
          "type": "address"
        }
      ],
      "name": "initializeBondInfo",
      "outputs": [],
      "stateMutability": "nonpayable",
      "type": "function"
    },
    {
      "inputs": [],
      "name": "manager",
      "outputs": [
        {
          "internalType": "address",
          "name": "",
          "type": "address"
        }
      ],
      "stateMutability": "view",
      "type": "function"
    },
    {
      "inputs": [],
      "name": "nftAddress",
      "outputs": [
        {
          "internalType": "address",
          "name": "",
          "type": "address"
        }
      ],
      "stateMutability": "view",
      "type": "function"
    },
    {
      "inputs": [],
      "name": "numberOfQuarters",
      "outputs": [
        {
          "internalType": "uint256",
          "name": "",
          "type": "uint256"
        }
      ],
      "stateMutability": "view",
      "type": "function"
    },
    {
      "inputs": [],
      "name": "numberOfYears",
      "outputs": [
        {
          "internalType": "uint256",
          "name": "",
          "type": "uint256"
        }
      ],
      "stateMutability": "view",
      "type": "function"
    },
    {
      "inputs": [],
      "name": "owner",
      "outputs": [
        {
          "internalType": "address",
          "name": "",
          "type": "address"
        }
      ],
      "stateMutability": "view",
      "type": "function"
    },
    {
      "inputs": [
        {
          "internalType": "uint256",
          "name": "",
          "type": "uint256"
        }
      ],
      "name": "quarterCheckPoints",
      "outputs": [
        {
          "internalType": "uint256",
          "name": "fromBlock",
          "type": "uint256"
        },
        {
          "internalType": "uint256",
          "name": "amount",
          "type": "uint256"
        },
        {
          "internalType": "uint256",
          "name": "timestamp",
          "type": "uint256"
        },
        {
          "internalType": "uint256",
          "name": "quarterNumber",
          "type": "uint256"
        },
        {
          "internalType": "uint256",
          "name": "expectedNextPaymentBlock",
          "type": "uint256"
        }
      ],
      "stateMutability": "view",
      "type": "function"
    },
    {
      "inputs": [],
      "name": "quarterCheckPointsLength",
      "outputs": [
        {
          "internalType": "uint256",
          "name": "",
          "type": "uint256"
        }
      ],
      "stateMutability": "view",
      "type": "function"
    },
    {
      "inputs": [],
      "name": "quarterlyBlocks",
      "outputs": [
        {
          "internalType": "uint256",
          "name": "",
          "type": "uint256"
        }
      ],
      "stateMutability": "view",
      "type": "function"
    },
    {
      "inputs": [],
      "name": "renounceOwnership",
      "outputs": [],
      "stateMutability": "nonpayable",
      "type": "function"
    },
    {
      "inputs": [
        {
          "internalType": "address",
          "name": "_manager",
          "type": "address"
        }
      ],
      "name": "setManager",
      "outputs": [],
      "stateMutability": "nonpayable",
      "type": "function"
    },
    {
      "inputs": [
        {
          "internalType": "uint256",
          "name": "_quarterlyBlocks",
          "type": "uint256"
        }
      ],
      "name": "setQuarterlyBlocks",
      "outputs": [],
      "stateMutability": "nonpayable",
      "type": "function"
    },
    {
      "inputs": [
        {
          "internalType": "address",
          "name": "newOwner",
          "type": "address"
        }
      ],
      "name": "transferOwnership",
      "outputs": [],
      "stateMutability": "nonpayable",
      "type": "function"
    },
    {
      "inputs": [
        {
          "internalType": "uint256",
          "name": "_bondValue",
          "type": "uint256"
        },
        {
          "internalType": "uint256",
          "name": "_numberOfYears",
          "type": "uint256"
        },
        {
          "internalType": "address",
          "name": "_nftAddress",
          "type": "address"
        }
      ],
      "name": "updateBondInfo",
      "outputs": [],
      "stateMutability": "nonpayable",
      "type": "function"
    }
  ],
  "bytecode": "0x60806040526209e34060085534801561001757600080fd5b5060405161103f38038061103f833981016040819052610036916100dc565b61003f33610070565b600a80546001600160a01b039384166001600160a01b0319918216179091556009805492909316911617905561010f565b600080546001600160a01b038381166001600160a01b0319831681178455604051919092169283917f8be0079c531659141344cd1fd0a4f28419497f9722a3daafe3b4186f6b6457e09190a35050565b80516001600160a01b03811681146100d757600080fd5b919050565b600080604083850312156100ef57600080fd5b6100f8836100c0565b9150610106602084016100c0565b90509250929050565b610f218061011e6000396000f3fe60806040526004361061016a5760003560e01c80639b9bf60a116100cb578063d0ebdbe71161007f578063d5fb191b11610059578063d5fb191b146103b8578063f2fde38b146103ce578063fe2b34c7146103ee57600080fd5b8063d0ebdbe71461036c578063d25908aa1461038c578063d2d5862c146103a257600080fd5b8063c45771bc116100b0578063c45771bc146102e4578063cba9ff8c1461032c578063cd6dc6871461034c57600080fd5b80639b9bf60a146102ae578063a0ed94e5146102c457600080fd5b80635fd94a371161012257806389a302711161010757806389a302711461025a5780638b97a6121461027a5780638da5cb5b1461029057600080fd5b80635fd94a3714610225578063715018a61461024557600080fd5b806343bc16121161015357806343bc1612146101ad578063481c6a75146101e55780635bf8633a1461020557600080fd5b8063131409771461016f5780633b76594d14610198575b600080fd5b34801561017b57600080fd5b5061018560065481565b6040519081526020015b60405180910390f35b6101ab6101a6366004610dd7565b610403565b005b3480156101b957600080fd5b506001546101cd906001600160a01b031681565b6040516001600160a01b03909116815260200161018f565b3480156101f157600080fd5b506009546101cd906001600160a01b031681565b34801561021157600080fd5b506002546101cd906001600160a01b031681565b34801561023157600080fd5b506101ab610240366004610e09565b6107c3565b34801561025157600080fd5b506101ab6108f1565b34801561026657600080fd5b50600a546101cd906001600160a01b031681565b34801561028657600080fd5b5061018560085481565b34801561029c57600080fd5b506000546001600160a01b03166101cd565b3480156102ba57600080fd5b5061018560055481565b3480156102d057600080fd5b506101ab6102df366004610e35565b610905565b3480156102f057600080fd5b506103046102ff366004610dd7565b6109e3565b604080519586526020860194909452928401919091526060830152608082015260a00161018f565b34801561033857600080fd5b506101ab610347366004610dd7565b610a24565b34801561035857600080fd5b506101ab610367366004610d8b565b610aa7565b34801561037857600080fd5b506101ab610387366004610d69565b610b73565b34801561039857600080fd5b5061018560045481565b3480156103ae57600080fd5b5061018560035481565b3480156103c457600080fd5b5061018560075481565b3480156103da57600080fd5b506101ab6103e9366004610d69565b610c13565b3480156103fa57600080fd5b50600b54610185565b336104166000546001600160a01b031690565b6001600160a01b0316148061043557506009546001600160a01b031633145b8061044a57506001546001600160a01b031633145b6104ae5760405162461bcd60e51b815260206004820152602a60248201527f43616c6c6572206e6565647320746f204f776e6572206f72204d616e61676572604482015269081bdc88105c9d1a5cdd60b21b60648201526084015b60405180910390fd5b600a546040517fdd62ed3e0000000000000000000000000000000000000000000000000000000081523360048201523060248201526000916001600160a01b03169063dd62ed3e9060440160206040518083038186803b15801561051157600080fd5b505afa158015610525573d6000803e3d6000fd5b505050506040513d601f19601f820116820180604052508101906105499190610df0565b90508181101561059b5760405162461bcd60e51b815260206004820152601f60248201527f496e73756666696369656e7420617070726f76616c20666f722066756e64730060448201526064016104a5565b600a546040517f23b872dd000000000000000000000000000000000000000000000000000000008152336004820152306024820152604481018490526001600160a01b03909116906323b872dd90606401602060405180830381600087803b15801561060657600080fd5b505af115801561061a573d6000803e3d6000fd5b505050506040513d601f19601f8201168201806040525081019061063e9190610db5565b506006541561065c576008546007546106579190610e6a565b610669565b6008546106699043610e6a565b6007556006805490600061067c83610ea1565b90915550506040805160a08101825243815260208101848152428284019081526006546060840190815260075460808501908152600b8054600181018255600091909152945160059095027f0175b7a638427703f0dbe7bb9bbf987a2551717b34e79f33b5b1008d1fa01db981019590955592517f0175b7a638427703f0dbe7bb9bbf987a2551717b34e79f33b5b1008d1fa01dba85015590517f0175b7a638427703f0dbe7bb9bbf987a2551717b34e79f33b5b1008d1fa01dbb840155517f0175b7a638427703f0dbe7bb9bbf987a2551717b34e79f33b5b1008d1fa01dbc830155517f0175b7a638427703f0dbe7bb9bbf987a2551717b34e79f33b5b1008d1fa01dbd909101555133907fe1fffcc4923d04b559f4d29a8bfc6cda04eb5b0d3c460751c2402c5c5cc9109c906107b79085815260200190565b60405180910390a25050565b336107d66000546001600160a01b031690565b6001600160a01b031614806107f557506009546001600160a01b031633145b8061080a57506001546001600160a01b031633145b6108695760405162461bcd60e51b815260206004820152602a60248201527f43616c6c6572206e6565647320746f204f776e6572206f72204d616e61676572604482015269081bdc88105c9d1a5cdd60b21b60648201526084016104a5565b6001600160a01b0381166108bf5760405162461bcd60e51b815260206004820152600f60248201527f496e76616c69642041646472657373000000000000000000000000000000000060448201526064016104a5565b600280546001600160a01b0319166001600160a01b03831617905560048281556108ea908390610e82565b6005555050565b6108f9610ca3565b6109036000610cfd565b565b336109186000546001600160a01b031690565b6001600160a01b0316148061093757506009546001600160a01b031633145b8061094c57506001546001600160a01b031633145b6109ab5760405162461bcd60e51b815260206004820152602a60248201527f43616c6c6572206e6565647320746f204f776e6572206f72204d616e61676572604482015269081bdc88105c9d1a5cdd60b21b60648201526084016104a5565b600280546001600160a01b0319166001600160a01b038316179055600383905560048281556109db908390610e82565b600555505050565b600b81815481106109f357600080fd5b6000918252602090912060059091020180546001820154600283015460038401546004909401549294509092909185565b33610a376000546001600160a01b031690565b6001600160a01b03161480610a5657506009546001600160a01b031633145b610aa25760405162461bcd60e51b815260206004820181905260248201527f43616c6c6572206e6565647320746f204f776e6572206f72204d616e6167657260448201526064016104a5565b600855565b33610aba6000546001600160a01b031690565b6001600160a01b03161480610ad957506009546001600160a01b031633145b80610aee57506001546001600160a01b031633145b610b4d5760405162461bcd60e51b815260206004820152602a60248201527f43616c6c6572206e6565647320746f204f776e6572206f72204d616e61676572604482015269081bdc88105c9d1a5cdd60b21b60648201526084016104a5565b600180546001600160a01b0319166001600160a01b039390931692909217909155600355565b33610b866000546001600160a01b031690565b6001600160a01b03161480610ba557506009546001600160a01b031633145b610bf15760405162461bcd60e51b815260206004820181905260248201527f43616c6c6572206e6565647320746f204f776e6572206f72204d616e6167657260448201526064016104a5565b600980546001600160a01b0319166001600160a01b0392909216919091179055565b610c1b610ca3565b6001600160a01b038116610c975760405162461bcd60e51b815260206004820152602660248201527f4f776e61626c653a206e6577206f776e657220697320746865207a65726f206160448201527f646472657373000000000000000000000000000000000000000000000000000060648201526084016104a5565b610ca081610cfd565b50565b6000546001600160a01b031633146109035760405162461bcd60e51b815260206004820181905260248201527f4f776e61626c653a2063616c6c6572206973206e6f7420746865206f776e657260448201526064016104a5565b600080546001600160a01b038381166001600160a01b0319831681178455604051919092169283917f8be0079c531659141344cd1fd0a4f28419497f9722a3daafe3b4186f6b6457e09190a35050565b80356001600160a01b0381168114610d6457600080fd5b919050565b600060208284031215610d7b57600080fd5b610d8482610d4d565b9392505050565b60008060408385031215610d9e57600080fd5b610da783610d4d565b946020939093013593505050565b600060208284031215610dc757600080fd5b81518015158114610d8457600080fd5b600060208284031215610de957600080fd5b5035919050565b600060208284031215610e0257600080fd5b5051919050565b60008060408385031215610e1c57600080fd5b82359150610e2c60208401610d4d565b90509250929050565b600080600060608486031215610e4a57600080fd5b8335925060208401359150610e6160408501610d4d565b90509250925092565b60008219821115610e7d57610e7d610ebc565b500190565b6000816000190483118215151615610e9c57610e9c610ebc565b500290565b6000600019821415610eb557610eb5610ebc565b5060010190565b7f4e487b7100000000000000000000000000000000000000000000000000000000600052601160045260246000fdfea26469706673582212208510978ef945aba178331e7fcc732791c3e5e1cdc4927d247664769ad49b418664736f6c63430008070033",
  "linkReferences": {},
  "deployedLinkReferences": {}
}