{
  "_format": "hh-sol-artifact-1",
  "contractName": "AssetPool",
  "sourceName": "contracts/AssetPool.sol",
  "abi": [
    {
      "anonymous": false,
      "inputs": [
        {
          "indexed": true,
          "internalType": "address",
          "name": "sender",
          "type": "address"
        },
        {
          "indexed": false,
          "internalType": "uint256",
          "name": "amount",
          "type": "uint256"
        }
      ],
      "name": "Deposit",
      "type": "event"
    },
    {
      "anonymous": false,
      "inputs": [
        {
          "indexed": true,
          "internalType": "address",
          "name": "previousOwner",
          "type": "address"
        },
        {
          "indexed": true,
          "internalType": "address",
          "name": "newOwner",
          "type": "address"
        }
      ],
      "name": "OwnershipTransferred",
      "type": "event"
    },
    {
      "anonymous": false,
      "inputs": [
        {
          "indexed": true,
          "internalType": "address",
          "name": "recipient",
          "type": "address"
        },
        {
          "indexed": false,
          "internalType": "uint256",
          "name": "amount",
          "type": "uint256"
        }
      ],
      "name": "Withdrawal",
      "type": "event"
    },
    {
      "inputs": [],
      "name": "artist",
      "outputs": [
        {
          "internalType": "address",
          "name": "",
          "type": "address"
        }
      ],
      "stateMutability": "view",
      "type": "function"
    },
    {
      "inputs": [],
      "name": "bondValue",
      "outputs": [
        {
          "internalType": "uint256",
          "name": "",
          "type": "uint256"
        }
      ],
      "stateMutability": "view",
      "type": "function"
    },
    {
      "inputs": [],
      "name": "currentQuarter",
      "outputs": [
        {
          "internalType": "uint256",
          "name": "",
          "type": "uint256"
        }
      ],
      "stateMutability": "view",
      "type": "function"
    },
    {
      "inputs": [],
      "name": "expectedNextPaymentBlock",
      "outputs": [
        {
          "internalType": "uint256",
          "name": "",
          "type": "uint256"
        }
      ],
      "stateMutability": "view",
      "type": "function"
    },
    {
      "inputs": [
        {
          "internalType": "address",
          "name": "_artist",
          "type": "address"
        },
        {
          "internalType": "uint256",
          "name": "_bondValue",
          "type": "uint256"
        }
      ],
      "name": "initialize",
      "outputs": [],
      "stateMutability": "nonpayable",
      "type": "function"
    },
    {
      "inputs": [
        {
          "internalType": "uint256",
          "name": "_numberOfYears",
          "type": "uint256"
        },
        {
          "internalType": "address",
          "name": "_nftAddress",
          "type": "address"
        }
      ],
      "name": "initializeBondInfo",
      "outputs": [],
      "stateMutability": "nonpayable",
      "type": "function"
    },
    {
      "inputs": [],
      "name": "nftAddress",
      "outputs": [
        {
          "internalType": "address",
          "name": "",
          "type": "address"
        }
      ],
      "stateMutability": "view",
      "type": "function"
    },
    {
      "inputs": [],
      "name": "numberOfQuarters",
      "outputs": [
        {
          "internalType": "uint256",
          "name": "",
          "type": "uint256"
        }
      ],
      "stateMutability": "view",
      "type": "function"
    },
    {
      "inputs": [],
      "name": "numberOfYears",
      "outputs": [
        {
          "internalType": "uint256",
          "name": "",
          "type": "uint256"
        }
      ],
      "stateMutability": "view",
      "type": "function"
    },
    {
      "inputs": [],
      "name": "owner",
      "outputs": [
        {
          "internalType": "address",
          "name": "",
          "type": "address"
        }
      ],
      "stateMutability": "view",
      "type": "function"
    },
    {
      "inputs": [
        {
          "internalType": "uint256",
          "name": "",
          "type": "uint256"
        }
      ],
      "name": "quarterCheckPoints",
      "outputs": [
        {
          "internalType": "uint256",
          "name": "fromBlock",
          "type": "uint256"
        },
        {
          "internalType": "uint256",
          "name": "amount",
          "type": "uint256"
        },
        {
          "internalType": "uint256",
          "name": "timestamp",
          "type": "uint256"
        },
        {
          "internalType": "uint256",
          "name": "quarterNumber",
          "type": "uint256"
        },
        {
          "internalType": "uint256",
          "name": "expectedNextPaymentBlock",
          "type": "uint256"
        }
      ],
      "stateMutability": "view",
      "type": "function"
    },
    {
      "inputs": [],
      "name": "quarterCheckPointsLength",
      "outputs": [
        {
          "internalType": "uint256",
          "name": "",
          "type": "uint256"
        }
      ],
      "stateMutability": "view",
      "type": "function"
    },
    {
      "inputs": [],
      "name": "quarterlyBlocks",
      "outputs": [
        {
          "internalType": "uint256",
          "name": "",
          "type": "uint256"
        }
      ],
      "stateMutability": "view",
      "type": "function"
    },
    {
      "inputs": [],
      "name": "renounceOwnership",
      "outputs": [],
      "stateMutability": "nonpayable",
      "type": "function"
    },
    {
      "inputs": [
        {
          "internalType": "address",
          "name": "newOwner",
          "type": "address"
        }
      ],
      "name": "transferOwnership",
      "outputs": [],
      "stateMutability": "nonpayable",
      "type": "function"
    },
    {
      "inputs": [
        {
          "internalType": "address",
          "name": "_recipient",
          "type": "address"
        },
        {
          "internalType": "uint256",
          "name": "_amount",
          "type": "uint256"
        },
        {
          "internalType": "address",
          "name": "_token",
          "type": "address"
        }
      ],
      "name": "withdraw",
      "outputs": [],
      "stateMutability": "nonpayable",
      "type": "function"
    },
    {
      "stateMutability": "payable",
      "type": "receive"
    }
  ],
  "bytecode": "0x60806040526207e90060085534801561001757600080fd5b5061003461002961003960201b60201c565b61004160201b60201c565b610105565b600033905090565b60008060009054906101000a900473ffffffffffffffffffffffffffffffffffffffff169050816000806101000a81548173ffffffffffffffffffffffffffffffffffffffff021916908373ffffffffffffffffffffffffffffffffffffffff1602179055508173ffffffffffffffffffffffffffffffffffffffff168173ffffffffffffffffffffffffffffffffffffffff167f8be0079c531659141344cd1fd0a4f28419497f9722a3daafe3b4186f6b6457e060405160405180910390a35050565b6110b2806101146000396000f3fe6080604052600436106100f75760003560e01c80639b9bf60a1161008a578063d2d5862c11610059578063d2d5862c146103d9578063d5fb191b14610404578063f2fde38b1461042f578063fe2b34c714610458576101d4565b80639b9bf60a14610319578063c45771bc14610344578063cd6dc68714610385578063d25908aa146103ae576101d4565b806369328dec116100c657806369328dec14610283578063715018a6146102ac5780638b97a612146102c35780638da5cb5b146102ee576101d4565b806313140977146101d957806343bc1612146102045780635bf8633a1461022f5780635fd94a371461025a576101d4565b366101d45760006006541461011b576008546007546101169190610e26565b61012a565b600854436101299190610e26565b5b6007819055506006600081548092919061014390610f1e565b919050555060096040518060a001604052804381526020013481526020014281526020016006548152602001600754815250908060018154018082558091505060019003906000526020600020906005020160009091909190915060008201518160000155602082015181600101556040820151816002015560608201518160030155608082015181600401555050005b600080fd5b3480156101e557600080fd5b506101ee610483565b6040516101fb9190610da7565b60405180910390f35b34801561021057600080fd5b50610219610489565b6040516102269190610ccc565b60405180910390f35b34801561023b57600080fd5b506102446104af565b6040516102519190610ccc565b60405180910390f35b34801561026657600080fd5b50610281600480360381019061027c9190610c09565b6104d5565b005b34801561028f57600080fd5b506102aa60048036038101906102a59190610b68565b6105a5565b005b3480156102b857600080fd5b506102c1610716565b005b3480156102cf57600080fd5b506102d861079e565b6040516102e59190610da7565b60405180910390f35b3480156102fa57600080fd5b506103036107a4565b6040516103109190610ccc565b60405180910390f35b34801561032557600080fd5b5061032e6107cd565b60405161033b9190610da7565b60405180910390f35b34801561035057600080fd5b5061036b60048036038101906103669190610be0565b6107d3565b60405161037c959493929190610dc2565b60405180910390f35b34801561039157600080fd5b506103ac60048036038101906103a79190610b2c565b610819565b005b3480156103ba57600080fd5b506103c36108e1565b6040516103d09190610da7565b60405180910390f35b3480156103e557600080fd5b506103ee6108e7565b6040516103fb9190610da7565b60405180910390f35b34801561041057600080fd5b506104196108ed565b6040516104269190610da7565b60405180910390f35b34801561043b57600080fd5b5061045660048036038101906104519190610b03565b6108f3565b005b34801561046457600080fd5b5061046d6109eb565b60405161047a9190610da7565b60405180910390f35b60065481565b600160009054906101000a900473ffffffffffffffffffffffffffffffffffffffff1681565b600260009054906101000a900473ffffffffffffffffffffffffffffffffffffffff1681565b600073ffffffffffffffffffffffffffffffffffffffff168173ffffffffffffffffffffffffffffffffffffffff161415610545576040517f08c379a000000000000000000000000000000000000000000000000000000000815260040161053c90610d87565b60405180910390fd5b80600260006101000a81548173ffffffffffffffffffffffffffffffffffffffff021916908373ffffffffffffffffffffffffffffffffffffffff160217905550816004819055506004805461059b9190610e7c565b6005819055505050565b8073ffffffffffffffffffffffffffffffffffffffff1663095ea7b330846040518363ffffffff1660e01b81526004016105e0929190610d1e565b602060405180830381600087803b1580156105fa57600080fd5b505af115801561060e573d6000803e3d6000fd5b505050506040513d601f19601f820116820180604052508101906106329190610bb7565b508073ffffffffffffffffffffffffffffffffffffffff166323b872dd3085856040518463ffffffff1660e01b815260040161067093929190610ce7565b602060405180830381600087803b15801561068a57600080fd5b505af115801561069e573d6000803e3d6000fd5b505050506040513d601f19601f820116820180604052508101906106c29190610bb7565b508273ffffffffffffffffffffffffffffffffffffffff167f7fcf532c15f0a6db0bd6d0e038bea71d30d808c7d98cb3bf7268a95bf5081b65836040516107099190610da7565b60405180910390a2505050565b61071e6109f8565b73ffffffffffffffffffffffffffffffffffffffff1661073c6107a4565b73ffffffffffffffffffffffffffffffffffffffff1614610792576040517f08c379a000000000000000000000000000000000000000000000000000000000815260040161078990610d67565b60405180910390fd5b61079c6000610a00565b565b60085481565b60008060009054906101000a900473ffffffffffffffffffffffffffffffffffffffff16905090565b60055481565b600981815481106107e357600080fd5b90600052602060002090600502016000915090508060000154908060010154908060020154908060030154908060040154905085565b6108216109f8565b73ffffffffffffffffffffffffffffffffffffffff1661083f6107a4565b73ffffffffffffffffffffffffffffffffffffffff1614610895576040517f08c379a000000000000000000000000000000000000000000000000000000000815260040161088c90610d67565b60405180910390fd5b81600160006101000a81548173ffffffffffffffffffffffffffffffffffffffff021916908373ffffffffffffffffffffffffffffffffffffffff160217905550806003819055505050565b60045481565b60035481565b60075481565b6108fb6109f8565b73ffffffffffffffffffffffffffffffffffffffff166109196107a4565b73ffffffffffffffffffffffffffffffffffffffff161461096f576040517f08c379a000000000000000000000000000000000000000000000000000000000815260040161096690610d67565b60405180910390fd5b600073ffffffffffffffffffffffffffffffffffffffff168173ffffffffffffffffffffffffffffffffffffffff1614156109df576040517f08c379a00000000000000000000000000000000000000000000000000000000081526004016109d690610d47565b60405180910390fd5b6109e881610a00565b50565b6000600980549050905090565b600033905090565b60008060009054906101000a900473ffffffffffffffffffffffffffffffffffffffff169050816000806101000a81548173ffffffffffffffffffffffffffffffffffffffff021916908373ffffffffffffffffffffffffffffffffffffffff1602179055508173ffffffffffffffffffffffffffffffffffffffff168173ffffffffffffffffffffffffffffffffffffffff167f8be0079c531659141344cd1fd0a4f28419497f9722a3daafe3b4186f6b6457e060405160405180910390a35050565b600081359050610ad381611037565b92915050565b600081519050610ae88161104e565b92915050565b600081359050610afd81611065565b92915050565b600060208284031215610b1557600080fd5b6000610b2384828501610ac4565b91505092915050565b60008060408385031215610b3f57600080fd5b6000610b4d85828601610ac4565b9250506020610b5e85828601610aee565b9150509250929050565b600080600060608486031215610b7d57600080fd5b6000610b8b86828701610ac4565b9350506020610b9c86828701610aee565b9250506040610bad86828701610ac4565b9150509250925092565b600060208284031215610bc957600080fd5b6000610bd784828501610ad9565b91505092915050565b600060208284031215610bf257600080fd5b6000610c0084828501610aee565b91505092915050565b60008060408385031215610c1c57600080fd5b6000610c2a85828601610aee565b9250506020610c3b85828601610ac4565b9150509250929050565b610c4e81610ed6565b82525050565b6000610c61602683610e15565b9150610c6c82610f96565b604082019050919050565b6000610c84602083610e15565b9150610c8f82610fe5565b602082019050919050565b6000610ca7600f83610e15565b9150610cb28261100e565b602082019050919050565b610cc681610f14565b82525050565b6000602082019050610ce16000830184610c45565b92915050565b6000606082019050610cfc6000830186610c45565b610d096020830185610c45565b610d166040830184610cbd565b949350505050565b6000604082019050610d336000830185610c45565b610d406020830184610cbd565b9392505050565b60006020820190508181036000830152610d6081610c54565b9050919050565b60006020820190508181036000830152610d8081610c77565b9050919050565b60006020820190508181036000830152610da081610c9a565b9050919050565b6000602082019050610dbc6000830184610cbd565b92915050565b600060a082019050610dd76000830188610cbd565b610de46020830187610cbd565b610df16040830186610cbd565b610dfe6060830185610cbd565b610e0b6080830184610cbd565b9695505050505050565b600082825260208201905092915050565b6000610e3182610f14565b9150610e3c83610f14565b9250827fffffffffffffffffffffffffffffffffffffffffffffffffffffffffffffffff03821115610e7157610e70610f67565b5b828201905092915050565b6000610e8782610f14565b9150610e9283610f14565b9250817fffffffffffffffffffffffffffffffffffffffffffffffffffffffffffffffff0483118215151615610ecb57610eca610f67565b5b828202905092915050565b6000610ee182610ef4565b9050919050565b60008115159050919050565b600073ffffffffffffffffffffffffffffffffffffffff82169050919050565b6000819050919050565b6000610f2982610f14565b91507fffffffffffffffffffffffffffffffffffffffffffffffffffffffffffffffff821415610f5c57610f5b610f67565b5b600182019050919050565b7f4e487b7100000000000000000000000000000000000000000000000000000000600052601160045260246000fd5b7f4f776e61626c653a206e6577206f776e657220697320746865207a65726f206160008201527f6464726573730000000000000000000000000000000000000000000000000000602082015250565b7f4f776e61626c653a2063616c6c6572206973206e6f7420746865206f776e6572600082015250565b7f496e76616c696420416464726573730000000000000000000000000000000000600082015250565b61104081610ed6565b811461104b57600080fd5b50565b61105781610ee8565b811461106257600080fd5b50565b61106e81610f14565b811461107957600080fd5b5056fea2646970667358221220fb1f20ec837ed46f6d7b5b8eb641d29498c00ac64e7f9031d02368d70987ad6a64736f6c63430008040033",
  "linkReferences": {},
  "deployedLinkReferences": {}
}