{
  "_format": "hh-sol-artifact-1",
  "contractName": "AssetPool",
  "sourceName": "contracts/AssetPool.sol",
  "abi": [
    {
      "anonymous": false,
      "inputs": [
        {
          "indexed": true,
          "internalType": "address",
          "name": "sender",
          "type": "address"
        },
        {
          "indexed": false,
          "internalType": "uint256",
          "name": "amount",
          "type": "uint256"
        }
      ],
      "name": "Deposit",
      "type": "event"
    },
    {
      "anonymous": false,
      "inputs": [
        {
          "indexed": true,
          "internalType": "address",
          "name": "previousOwner",
          "type": "address"
        },
        {
          "indexed": true,
          "internalType": "address",
          "name": "newOwner",
          "type": "address"
        }
      ],
      "name": "OwnershipTransferred",
      "type": "event"
    },
    {
      "anonymous": false,
      "inputs": [
        {
          "indexed": true,
          "internalType": "address",
          "name": "recipient",
          "type": "address"
        },
        {
          "indexed": false,
          "internalType": "uint256",
          "name": "amount",
          "type": "uint256"
        }
      ],
      "name": "Withdrawal",
      "type": "event"
    },
    {
      "inputs": [],
      "name": "artist",
      "outputs": [
        {
          "internalType": "address",
          "name": "",
          "type": "address"
        }
      ],
      "stateMutability": "view",
      "type": "function"
    },
    {
      "inputs": [],
      "name": "bondValue",
      "outputs": [
        {
          "internalType": "uint256",
          "name": "",
          "type": "uint256"
        }
      ],
      "stateMutability": "view",
      "type": "function"
    },
    {
      "inputs": [
        {
          "internalType": "address",
          "name": "_artist",
          "type": "address"
        },
        {
          "internalType": "uint256",
          "name": "_bondValue",
          "type": "uint256"
        }
      ],
      "name": "initialize",
      "outputs": [],
      "stateMutability": "nonpayable",
      "type": "function"
    },
    {
      "inputs": [],
      "name": "nftAddress",
      "outputs": [
        {
          "internalType": "address",
          "name": "",
          "type": "address"
        }
      ],
      "stateMutability": "view",
      "type": "function"
    },
    {
      "inputs": [],
      "name": "owner",
      "outputs": [
        {
          "internalType": "address",
          "name": "",
          "type": "address"
        }
      ],
      "stateMutability": "view",
      "type": "function"
    },
    {
      "inputs": [],
      "name": "renounceOwnership",
      "outputs": [],
      "stateMutability": "nonpayable",
      "type": "function"
    },
    {
      "inputs": [
        {
          "internalType": "address",
          "name": "newOwner",
          "type": "address"
        }
      ],
      "name": "transferOwnership",
      "outputs": [],
      "stateMutability": "nonpayable",
      "type": "function"
    },
    {
      "inputs": [
        {
          "internalType": "address",
          "name": "_nftAddress",
          "type": "address"
        }
      ],
      "name": "updateNFTAddress",
      "outputs": [],
      "stateMutability": "nonpayable",
      "type": "function"
    },
    {
      "inputs": [
        {
          "internalType": "address",
          "name": "_recipient",
          "type": "address"
        },
        {
          "internalType": "uint256",
          "name": "_amount",
          "type": "uint256"
        },
        {
          "internalType": "address",
          "name": "_token",
          "type": "address"
        }
      ],
      "name": "withdraw",
      "outputs": [],
      "stateMutability": "nonpayable",
      "type": "function"
    },
    {
      "stateMutability": "payable",
      "type": "receive"
    }
  ],
  "bytecode": "0x608060405234801561001057600080fd5b5061002d61002261003260201b60201c565b61003a60201b60201c565b6100fe565b600033905090565b60008060009054906101000a900473ffffffffffffffffffffffffffffffffffffffff169050816000806101000a81548173ffffffffffffffffffffffffffffffffffffffff021916908373ffffffffffffffffffffffffffffffffffffffff1602179055508173ffffffffffffffffffffffffffffffffffffffff168173ffffffffffffffffffffffffffffffffffffffff167f8be0079c531659141344cd1fd0a4f28419497f9722a3daafe3b4186f6b6457e060405160405180910390a35050565b610bbf8061010d6000396000f3fe60806040526004361061008a5760003560e01c806387e4be4c1161005957806387e4be4c1461012c5780638da5cb5b14610155578063cd6dc68714610180578063d2d5862c146101a9578063f2fde38b146101d457610091565b806343bc1612146100965780635bf8633a146100c157806369328dec146100ec578063715018a61461011557610091565b3661009157005b600080fd5b3480156100a257600080fd5b506100ab6101fd565b6040516100b89190610954565b60405180910390f35b3480156100cd57600080fd5b506100d6610223565b6040516100e39190610954565b60405180910390f35b3480156100f857600080fd5b50610113600480360381019061010e9190610855565b610249565b005b34801561012157600080fd5b5061012a6103ba565b005b34801561013857600080fd5b50610153600480360381019061014e91906107f0565b610442565b005b34801561016157600080fd5b5061016a6104f6565b6040516101779190610954565b60405180910390f35b34801561018c57600080fd5b506101a760048036038101906101a29190610819565b61051f565b005b3480156101b557600080fd5b506101be6105e7565b6040516101cb9190610a2f565b60405180910390f35b3480156101e057600080fd5b506101fb60048036038101906101f691906107f0565b6105ed565b005b600160009054906101000a900473ffffffffffffffffffffffffffffffffffffffff1681565b600260009054906101000a900473ffffffffffffffffffffffffffffffffffffffff1681565b8073ffffffffffffffffffffffffffffffffffffffff1663095ea7b330846040518363ffffffff1660e01b81526004016102849291906109a6565b602060405180830381600087803b15801561029e57600080fd5b505af11580156102b2573d6000803e3d6000fd5b505050506040513d601f19601f820116820180604052508101906102d691906108a4565b508073ffffffffffffffffffffffffffffffffffffffff166323b872dd3085856040518463ffffffff1660e01b81526004016103149392919061096f565b602060405180830381600087803b15801561032e57600080fd5b505af1158015610342573d6000803e3d6000fd5b505050506040513d601f19601f8201168201806040525081019061036691906108a4565b508273ffffffffffffffffffffffffffffffffffffffff167f7fcf532c15f0a6db0bd6d0e038bea71d30d808c7d98cb3bf7268a95bf5081b65836040516103ad9190610a2f565b60405180910390a2505050565b6103c26106e5565b73ffffffffffffffffffffffffffffffffffffffff166103e06104f6565b73ffffffffffffffffffffffffffffffffffffffff1614610436576040517f08c379a000000000000000000000000000000000000000000000000000000000815260040161042d906109ef565b60405180910390fd5b61044060006106ed565b565b600073ffffffffffffffffffffffffffffffffffffffff168173ffffffffffffffffffffffffffffffffffffffff1614156104b2576040517f08c379a00000000000000000000000000000000000000000000000000000000081526004016104a990610a0f565b60405180910390fd5b80600260006101000a81548173ffffffffffffffffffffffffffffffffffffffff021916908373ffffffffffffffffffffffffffffffffffffffff16021790555050565b60008060009054906101000a900473ffffffffffffffffffffffffffffffffffffffff16905090565b6105276106e5565b73ffffffffffffffffffffffffffffffffffffffff166105456104f6565b73ffffffffffffffffffffffffffffffffffffffff161461059b576040517f08c379a0000000000000000000000000000000000000000000000000000000008152600401610592906109ef565b60405180910390fd5b81600160006101000a81548173ffffffffffffffffffffffffffffffffffffffff021916908373ffffffffffffffffffffffffffffffffffffffff160217905550806003819055505050565b60035481565b6105f56106e5565b73ffffffffffffffffffffffffffffffffffffffff166106136104f6565b73ffffffffffffffffffffffffffffffffffffffff1614610669576040517f08c379a0000000000000000000000000000000000000000000000000000000008152600401610660906109ef565b60405180910390fd5b600073ffffffffffffffffffffffffffffffffffffffff168173ffffffffffffffffffffffffffffffffffffffff1614156106d9576040517f08c379a00000000000000000000000000000000000000000000000000000000081526004016106d0906109cf565b60405180910390fd5b6106e2816106ed565b50565b600033905090565b60008060009054906101000a900473ffffffffffffffffffffffffffffffffffffffff169050816000806101000a81548173ffffffffffffffffffffffffffffffffffffffff021916908373ffffffffffffffffffffffffffffffffffffffff1602179055508173ffffffffffffffffffffffffffffffffffffffff168173ffffffffffffffffffffffffffffffffffffffff167f8be0079c531659141344cd1fd0a4f28419497f9722a3daafe3b4186f6b6457e060405160405180910390a35050565b6000813590506107c081610b44565b92915050565b6000815190506107d581610b5b565b92915050565b6000813590506107ea81610b72565b92915050565b60006020828403121561080257600080fd5b6000610810848285016107b1565b91505092915050565b6000806040838503121561082c57600080fd5b600061083a858286016107b1565b925050602061084b858286016107db565b9150509250929050565b60008060006060848603121561086a57600080fd5b6000610878868287016107b1565b9350506020610889868287016107db565b925050604061089a868287016107b1565b9150509250925092565b6000602082840312156108b657600080fd5b60006108c4848285016107c6565b91505092915050565b6108d681610a5b565b82525050565b60006108e9602683610a4a565b91506108f482610aa3565b604082019050919050565b600061090c602083610a4a565b915061091782610af2565b602082019050919050565b600061092f600f83610a4a565b915061093a82610b1b565b602082019050919050565b61094e81610a99565b82525050565b600060208201905061096960008301846108cd565b92915050565b600060608201905061098460008301866108cd565b61099160208301856108cd565b61099e6040830184610945565b949350505050565b60006040820190506109bb60008301856108cd565b6109c86020830184610945565b9392505050565b600060208201905081810360008301526109e8816108dc565b9050919050565b60006020820190508181036000830152610a08816108ff565b9050919050565b60006020820190508181036000830152610a2881610922565b9050919050565b6000602082019050610a446000830184610945565b92915050565b600082825260208201905092915050565b6000610a6682610a79565b9050919050565b60008115159050919050565b600073ffffffffffffffffffffffffffffffffffffffff82169050919050565b6000819050919050565b7f4f776e61626c653a206e6577206f776e657220697320746865207a65726f206160008201527f6464726573730000000000000000000000000000000000000000000000000000602082015250565b7f4f776e61626c653a2063616c6c6572206973206e6f7420746865206f776e6572600082015250565b7f496e76616c696420416464726573730000000000000000000000000000000000600082015250565b610b4d81610a5b565b8114610b5857600080fd5b50565b610b6481610a6d565b8114610b6f57600080fd5b50565b610b7b81610a99565b8114610b8657600080fd5b5056fea2646970667358221220177f05f5a19c0ac1d695c063fb94d64347156bcc36c205b83c14c48f701c6d1664736f6c63430008040033",
  "linkReferences": {},
  "deployedLinkReferences": {}
}