{
  "_format": "hh-sol-artifact-1",
  "contractName": "BondNFTManager",
  "sourceName": "contracts/BondNFTManager.sol",
  "abi": [
    {
      "anonymous": false,
      "inputs": [
        {
          "indexed": false,
          "internalType": "address",
          "name": "artist",
          "type": "address"
        },
        {
          "indexed": false,
          "internalType": "address",
          "name": "assetPool",
          "type": "address"
        },
        {
          "indexed": false,
          "internalType": "uint256",
          "name": "bondValue",
          "type": "uint256"
        }
      ],
      "name": "AssetPoolCreated",
      "type": "event"
    },
    {
      "anonymous": false,
      "inputs": [
        {
          "indexed": false,
          "internalType": "address",
          "name": "issuerAddress",
          "type": "address"
        },
        {
          "indexed": false,
          "internalType": "address",
          "name": "bondNftAddress",
          "type": "address"
        },
        {
          "indexed": false,
          "internalType": "string",
          "name": "name",
          "type": "string"
        },
        {
          "indexed": false,
          "internalType": "string",
          "name": "symbol",
          "type": "string"
        }
      ],
      "name": "BondNFTCreated",
      "type": "event"
    },
    {
      "anonymous": false,
      "inputs": [
        {
          "indexed": true,
          "internalType": "address",
          "name": "bondNftAddress",
          "type": "address"
        },
        {
          "indexed": false,
          "internalType": "uint256",
          "name": "numberOfBonds",
          "type": "uint256"
        }
      ],
      "name": "BondNFTMinted",
      "type": "event"
    },
    {
      "anonymous": false,
      "inputs": [
        {
          "indexed": true,
          "internalType": "address",
          "name": "previousOwner",
          "type": "address"
        },
        {
          "indexed": true,
          "internalType": "address",
          "name": "newOwner",
          "type": "address"
        }
      ],
      "name": "OwnershipTransferred",
      "type": "event"
    },
    {
      "inputs": [
        {
          "internalType": "uint256",
          "name": "",
          "type": "uint256"
        }
      ],
      "name": "allAssetPools",
      "outputs": [
        {
          "internalType": "address",
          "name": "",
          "type": "address"
        }
      ],
      "stateMutability": "view",
      "type": "function"
    },
    {
      "inputs": [],
      "name": "allAssetPoolsLength",
      "outputs": [
        {
          "internalType": "uint256",
          "name": "",
          "type": "uint256"
        }
      ],
      "stateMutability": "view",
      "type": "function"
    },
    {
      "inputs": [
        {
          "internalType": "uint256",
          "name": "",
          "type": "uint256"
        }
      ],
      "name": "allBondNfts",
      "outputs": [
        {
          "internalType": "address",
          "name": "",
          "type": "address"
        }
      ],
      "stateMutability": "view",
      "type": "function"
    },
    {
      "inputs": [],
      "name": "allNftLength",
      "outputs": [
        {
          "internalType": "uint256",
          "name": "",
          "type": "uint256"
        }
      ],
      "stateMutability": "view",
      "type": "function"
    },
    {
      "inputs": [
        {
          "internalType": "address",
          "name": "_creatorAddress",
          "type": "address"
        }
      ],
      "name": "assetPoolsLengthForUser",
      "outputs": [
        {
          "internalType": "uint256",
          "name": "",
          "type": "uint256"
        }
      ],
      "stateMutability": "view",
      "type": "function"
    },
    {
      "inputs": [
        {
          "internalType": "uint256",
          "name": "_bondValue",
          "type": "uint256"
        }
      ],
      "name": "createAssetPool",
      "outputs": [
        {
          "internalType": "address",
          "name": "assetPoolAddress",
          "type": "address"
        }
      ],
      "stateMutability": "nonpayable",
      "type": "function"
    },
    {
      "inputs": [
        {
          "internalType": "address",
          "name": "_ratingEngine",
          "type": "address"
        },
        {
          "internalType": "address",
          "name": "_bondNftGenerator",
          "type": "address"
        },
        {
          "internalType": "address",
          "name": "_chainlinkOracleInfoAddress",
          "type": "address"
        },
        {
          "internalType": "address",
          "name": "_chainlinkMetadataRequestAddress",
          "type": "address"
        }
      ],
      "name": "initialize",
      "outputs": [],
      "stateMutability": "nonpayable",
      "type": "function"
    },
    {
      "inputs": [
        {
          "internalType": "string",
          "name": "_artistName",
          "type": "string"
        },
        {
          "internalType": "string",
          "name": "_artistId",
          "type": "string"
        },
        {
          "internalType": "string",
          "name": "_channelId",
          "type": "string"
        },
        {
          "internalType": "string",
          "name": "_audiusArtistId",
          "type": "string"
        },
        {
          "internalType": "uint256",
          "name": "_fundingAmount",
          "type": "uint256"
        },
        {
          "internalType": "uint256",
          "name": "_numberOfYears",
          "type": "uint256"
        },
        {
          "internalType": "uint256",
          "name": "_numberOfBonds",
          "type": "uint256"
        },
        {
          "internalType": "uint256",
          "name": "_facevalue",
          "type": "uint256"
        },
        {
          "internalType": "string",
          "name": "_bondName",
          "type": "string"
        },
        {
          "internalType": "string",
          "name": "_bondSymbol",
          "type": "string"
        },
        {
          "internalType": "address",
          "name": "_assetPoolAddress",
          "type": "address"
        }
      ],
      "name": "issueBond",
      "outputs": [
        {
          "internalType": "address",
          "name": "nftAddress",
          "type": "address"
        }
      ],
      "stateMutability": "nonpayable",
      "type": "function"
    },
    {
      "inputs": [
        {
          "internalType": "address",
          "name": "_nftAddress",
          "type": "address"
        }
      ],
      "name": "mintNFTBond",
      "outputs": [],
      "stateMutability": "nonpayable",
      "type": "function"
    },
    {
      "inputs": [
        {
          "internalType": "address",
          "name": "_creatorAddress",
          "type": "address"
        }
      ],
      "name": "nftBondLengthForUser",
      "outputs": [
        {
          "internalType": "uint256",
          "name": "",
          "type": "uint256"
        }
      ],
      "stateMutability": "view",
      "type": "function"
    },
    {
      "inputs": [],
      "name": "owner",
      "outputs": [
        {
          "internalType": "address",
          "name": "",
          "type": "address"
        }
      ],
      "stateMutability": "view",
      "type": "function"
    },
    {
      "inputs": [],
      "name": "renounceOwnership",
      "outputs": [],
      "stateMutability": "nonpayable",
      "type": "function"
    },
    {
      "inputs": [
        {
          "internalType": "address",
          "name": "newOwner",
          "type": "address"
        }
      ],
      "name": "transferOwnership",
      "outputs": [],
      "stateMutability": "nonpayable",
      "type": "function"
    },
    {
      "inputs": [
        {
          "internalType": "address",
          "name": "",
          "type": "address"
        },
        {
          "internalType": "uint256",
          "name": "",
          "type": "uint256"
        }
      ],
      "name": "userAssetPools",
      "outputs": [
        {
          "internalType": "address",
          "name": "assetPoolAddress",
          "type": "address"
        },
        {
          "internalType": "address",
          "name": "bondNftAddress",
          "type": "address"
        },
        {
          "internalType": "uint256",
          "name": "bondvalue",
          "type": "uint256"
        }
      ],
      "stateMutability": "view",
      "type": "function"
    },
    {
      "inputs": [
        {
          "internalType": "address",
          "name": "",
          "type": "address"
        },
        {
          "internalType": "uint256",
          "name": "",
          "type": "uint256"
        }
      ],
      "name": "userBondConfigs",
      "outputs": [
        {
          "internalType": "string",
          "name": "artistName",
          "type": "string"
        },
        {
          "internalType": "string",
          "name": "artistId",
          "type": "string"
        },
        {
          "internalType": "string",
          "name": "channelId",
          "type": "string"
        },
        {
          "internalType": "string",
          "name": "endpoint",
          "type": "string"
        },
        {
          "internalType": "string",
          "name": "audiusArtistId",
          "type": "string"
        },
        {
          "internalType": "uint256",
          "name": "fundingAmount",
          "type": "uint256"
        },
        {
          "internalType": "uint256",
          "name": "numberOfYears",
          "type": "uint256"
        },
        {
          "internalType": "uint256",
          "name": "numberOfBonds",
          "type": "uint256"
        },
        {
          "internalType": "address",
          "name": "issuerAddress",
          "type": "address"
        },
        {
          "internalType": "uint256",
          "name": "faceValue",
          "type": "uint256"
        },
        {
          "internalType": "uint256",
          "name": "listeners",
          "type": "uint256"
        },
        {
          "internalType": "address",
          "name": "nftAddress",
          "type": "address"
        }
      ],
      "stateMutability": "view",
      "type": "function"
    }
  ],
  "bytecode": "0x60806040526040518060400160405280600781526020017f6368616e6e656c00000000000000000000000000000000000000000000000000815250600190805190602001906200005192919062000152565b503480156200005f57600080fd5b5062000080620000746200008660201b60201c565b6200008e60201b60201c565b62000267565b600033905090565b60008060009054906101000a900473ffffffffffffffffffffffffffffffffffffffff169050816000806101000a81548173ffffffffffffffffffffffffffffffffffffffff021916908373ffffffffffffffffffffffffffffffffffffffff1602179055508173ffffffffffffffffffffffffffffffffffffffff168173ffffffffffffffffffffffffffffffffffffffff167f8be0079c531659141344cd1fd0a4f28419497f9722a3daafe3b4186f6b6457e060405160405180910390a35050565b828054620001609062000202565b90600052602060002090601f016020900481019282620001845760008555620001d0565b82601f106200019f57805160ff1916838001178555620001d0565b82800160010185558215620001d0579182015b82811115620001cf578251825591602001919060010190620001b2565b5b509050620001df9190620001e3565b5090565b5b80821115620001fe576000816000905550600101620001e4565b5090565b600060028204905060018216806200021b57607f821691505b6020821081141562000232576200023162000238565b5b50919050565b7f4e487b7100000000000000000000000000000000000000000000000000000000600052602260045260246000fd5b61375e80620002776000396000f3fe60806040523480156200001157600080fd5b50600436106200010c5760003560e01c8063715018a611620000a5578063bb3a584f116200006f578063bb3a584f1462000308578063f2fde38b146200033e578063f8c8765e146200035e578063fedf9871146200037e576200010c565b8063715018a61462000284578063745d2d2814620002905780638da5cb5b14620002c65780639a79ac2c14620002e8576200010c565b806357181a0311620000e757806357181a0314620001aa5780635d3e561514620001e257806362b47ff7146200021857806366a0564e146200024e576200010c565b80631839cfa914620001115780634235a98d1462000133578063503b85b71462000169575b600080fd5b6200011b620003a0565b6040516200012a919062002655565b60405180910390f35b6200015160048036038101906200014b91906200209e565b620003ad565b60405162000160919062002281565b60405180910390f35b62000187600480360381019062000181919062001ec0565b62000688565b604051620001a19c9b9a9998979695949392919062002416565b60405180910390f35b620001c86004803603810190620001c2919062001ec0565b62000a16565b604051620001d993929190620022f9565b60405180910390f35b620002006004803603810190620001fa919062001dfc565b62000a9e565b6040516200020f919062002655565b60405180910390f35b62000236600480360381019062000230919062001dfc565b62000aea565b60405162000245919062002655565b60405180910390f35b6200026c60048036038101906200026691906200209e565b62000b36565b6040516200027b919062002281565b60405180910390f35b6200028e62000b76565b005b620002ae6004803603810190620002a891906200209e565b62000c07565b604051620002bd919062002281565b60405180910390f35b620002d062000c47565b604051620002df919062002281565b60405180910390f35b62000306600480360381019062000300919062001dfc565b62000c70565b005b62000326600480360381019062000320919062001f01565b62000db9565b60405162000335919062002281565b60405180910390f35b6200035c600480360381019062000356919062001dfc565b620014b0565b005b6200037c600480360381019062000376919062001e54565b620015b4565b005b6200038862001741565b60405162000397919062002655565b60405180910390f35b6000600880549050905090565b6000808211620003f4576040517f08c379a0000000000000000000000000000000000000000000000000000000008152600401620003eb9062002611565b60405180910390fd5b6000604051620004049062001c23565b604051809103906000f08015801562000421573d6000803e3d6000fd5b5090508091508073ffffffffffffffffffffffffffffffffffffffff1663cd6dc68733856040518363ffffffff1660e01b81526004016200046492919062002336565b600060405180830381600087803b1580156200047f57600080fd5b505af115801562000494573d6000803e3d6000fd5b50505050600760003373ffffffffffffffffffffffffffffffffffffffff1673ffffffffffffffffffffffffffffffffffffffff16815260200190815260200160002060405180606001604052808473ffffffffffffffffffffffffffffffffffffffff168152602001600073ffffffffffffffffffffffffffffffffffffffff16815260200185815250908060018154018082558091505060019003906000526020600020906003020160009091909190915060008201518160000160006101000a81548173ffffffffffffffffffffffffffffffffffffffff021916908373ffffffffffffffffffffffffffffffffffffffff16021790555060208201518160010160006101000a81548173ffffffffffffffffffffffffffffffffffffffff021916908373ffffffffffffffffffffffffffffffffffffffff1602179055506040820151816002015550506009829080600181540180825580915050600190039060005260206000200160009091909190916101000a81548173ffffffffffffffffffffffffffffffffffffffff021916908373ffffffffffffffffffffffffffffffffffffffff1602179055507f82bc170609b0a506f3f9ac2cf64600511887855a75436276915585a1b04e3c333383856040516200067a93929190620022f9565b60405180910390a150919050565b60066020528160005260406000208181548110620006a557600080fd5b90600052602060002090600c020160009150915050806000018054620006cb9062002795565b80601f0160208091040260200160405190810160405280929190818152602001828054620006f99062002795565b80156200074a5780601f106200071e576101008083540402835291602001916200074a565b820191906000526020600020905b8154815290600101906020018083116200072c57829003601f168201915b505050505090806001018054620007619062002795565b80601f01602080910402602001604051908101604052809291908181526020018280546200078f9062002795565b8015620007e05780601f10620007b457610100808354040283529160200191620007e0565b820191906000526020600020905b815481529060010190602001808311620007c257829003601f168201915b505050505090806002018054620007f79062002795565b80601f0160208091040260200160405190810160405280929190818152602001828054620008259062002795565b8015620008765780601f106200084a5761010080835404028352916020019162000876565b820191906000526020600020905b8154815290600101906020018083116200085857829003601f168201915b5050505050908060030180546200088d9062002795565b80601f0160208091040260200160405190810160405280929190818152602001828054620008bb9062002795565b80156200090c5780601f10620008e0576101008083540402835291602001916200090c565b820191906000526020600020905b815481529060010190602001808311620008ee57829003601f168201915b505050505090806004018054620009239062002795565b80601f0160208091040260200160405190810160405280929190818152602001828054620009519062002795565b8015620009a25780601f106200097657610100808354040283529160200191620009a2565b820191906000526020600020905b8154815290600101906020018083116200098457829003601f168201915b5050505050908060050154908060060154908060070154908060080160009054906101000a900473ffffffffffffffffffffffffffffffffffffffff169080600901549080600a01549080600b0160009054906101000a900473ffffffffffffffffffffffffffffffffffffffff1690508c565b6007602052816000526040600020818154811062000a3357600080fd5b9060005260206000209060030201600091509150508060000160009054906101000a900473ffffffffffffffffffffffffffffffffffffffff16908060010160009054906101000a900473ffffffffffffffffffffffffffffffffffffffff16908060020154905083565b6000600660008373ffffffffffffffffffffffffffffffffffffffff1673ffffffffffffffffffffffffffffffffffffffff168152602001908152602001600020805490509050919050565b6000600760008373ffffffffffffffffffffffffffffffffffffffff1673ffffffffffffffffffffffffffffffffffffffff168152602001908152602001600020805490509050919050565b6009818154811062000b4757600080fd5b906000526020600020016000915054906101000a900473ffffffffffffffffffffffffffffffffffffffff1681565b62000b806200174e565b73ffffffffffffffffffffffffffffffffffffffff1662000ba062000c47565b73ffffffffffffffffffffffffffffffffffffffff161462000bf9576040517f08c379a000000000000000000000000000000000000000000000000000000000815260040162000bf09062002633565b60405180910390fd5b62000c05600062001756565b565b6008818154811062000c1857600080fd5b906000526020600020016000915054906101000a900473ffffffffffffffffffffffffffffffffffffffff1681565b60008060009054906101000a900473ffffffffffffffffffffffffffffffffffffffff16905090565b60008190508073ffffffffffffffffffffffffffffffffffffffff166386896500336040518263ffffffff1660e01b815260040162000cb0919062002281565b600060405180830381600087803b15801562000ccb57600080fd5b505af115801562000ce0573d6000803e3d6000fd5b505050508173ffffffffffffffffffffffffffffffffffffffff167f8a8c809f09c896246d86b37de1cc3bd24a481a24063be7ed28ee4fd21fa255cd8273ffffffffffffffffffffffffffffffffffffffff166318160ddd6040518163ffffffff1660e01b815260040160206040518083038186803b15801562000d6357600080fd5b505afa15801562000d78573d6000803e3d6000fd5b505050506040513d601f19601f8201168201806040525081019062000d9e9190620020ca565b60405162000dad919062002655565b60405180910390a25050565b600062000dfb6040518060400160405280601281526020017f497373756520426f6e64205374617274656400000000000000000000000000008152506200181a565b600360009054906101000a900473ffffffffffffffffffffffffffffffffffffffff1673ffffffffffffffffffffffffffffffffffffffff16636dcc12c48585600460009054906101000a900473ffffffffffffffffffffffffffffffffffffffff16600560009054906101000a900473ffffffffffffffffffffffffffffffffffffffff166040518563ffffffff1660e01b815260040162000ea29493929190620023bb565b602060405180830381600087803b15801562000ebd57600080fd5b505af115801562000ed2573d6000803e3d6000fd5b505050506040513d601f19601f8201168201806040525081019062000ef8919062001e28565b905062000f1f604051806060016040528060248152602001620037056024913982620018b7565b60008190508073ffffffffffffffffffffffffffffffffffffffff16632911e6598e8e8e60018f8f8f8f8f6040518a63ffffffff1660e01b815260040162000f70999897969594939291906200250b565b600060405180830381600087803b15801562000f8b57600080fd5b505af115801562000fa0573d6000803e3d6000fd5b5050505062000fe46040518060400160405280601781526020017f626f6e644e46542e696e697469616c697a6520646f6e650000000000000000008152506200181a565b60006040518061018001604052808f81526020018e81526020018d815260200160018054620010139062002795565b80601f0160208091040260200160405190810160405280929190818152602001828054620010419062002795565b8015620010925780601f10620010665761010080835404028352916020019162001092565b820191906000526020600020905b8154815290600101906020018083116200107457829003601f168201915b505050505081526020018c81526020018b81526020018a81526020018981526020013373ffffffffffffffffffffffffffffffffffffffff168152602001888152602001600081526020018473ffffffffffffffffffffffffffffffffffffffff168152509050620011396040518060400160405280600f81526020017f426f6e64436f6e66696720646f6e6500000000000000000000000000000000008152506200181a565b600660003373ffffffffffffffffffffffffffffffffffffffff1673ffffffffffffffffffffffffffffffffffffffff1681526020019081526020016000208190806001815401808255809150506001900390600052602060002090600c02016000909190919091506000820151816000019080519060200190620011c092919062001c31565b506020820151816001019080519060200190620011df92919062001c31565b506040820151816002019080519060200190620011fe92919062001c31565b5060608201518160030190805190602001906200121d92919062001c31565b5060808201518160040190805190602001906200123c92919062001c31565b5060a0820151816005015560c0820151816006015560e082015181600701556101008201518160080160006101000a81548173ffffffffffffffffffffffffffffffffffffffff021916908373ffffffffffffffffffffffffffffffffffffffff160217905550610120820151816009015561014082015181600a015561016082015181600b0160006101000a81548173ffffffffffffffffffffffffffffffffffffffff021916908373ffffffffffffffffffffffffffffffffffffffff160217905550505062001327604051806060016040528060268152602001620036be602691396200181a565b6008839080600181540180825580915050600190039060005260206000200160009091909190916101000a81548173ffffffffffffffffffffffffffffffffffffffff021916908373ffffffffffffffffffffffffffffffffffffffff160217905550620013ae6040518060600160405280602281526020016200369c602291396200181a565b6000620013bc338662001957565b9050620014036040518060400160405280601781526020017f4173736574506f6f6c496e666f206163636573736564200000000000000000008152508260000151620018b7565b83816020019073ffffffffffffffffffffffffffffffffffffffff16908173ffffffffffffffffffffffffffffffffffffffff16815250507ff63f15bf2eae9805bd14ff71c78cba83e6986d8afd1ddc03a2e0863e360c6faf338589896040516200147294939291906200229e565b60405180910390a16200149e604051806060016040528060218152602001620036e4602191396200181a565b5050509b9a5050505050505050505050565b620014ba6200174e565b73ffffffffffffffffffffffffffffffffffffffff16620014da62000c47565b73ffffffffffffffffffffffffffffffffffffffff161462001533576040517f08c379a00000000000000000000000000000000000000000000000000000000081526004016200152a9062002633565b60405180910390fd5b600073ffffffffffffffffffffffffffffffffffffffff168173ffffffffffffffffffffffffffffffffffffffff161415620015a6576040517f08c379a00000000000000000000000000000000000000000000000000000000081526004016200159d90620025ef565b60405180910390fd5b620015b18162001756565b50565b620015be6200174e565b73ffffffffffffffffffffffffffffffffffffffff16620015de62000c47565b73ffffffffffffffffffffffffffffffffffffffff161462001637576040517f08c379a00000000000000000000000000000000000000000000000000000000081526004016200162e9062002633565b60405180910390fd5b83600260006101000a81548173ffffffffffffffffffffffffffffffffffffffff021916908373ffffffffffffffffffffffffffffffffffffffff16021790555082600360006101000a81548173ffffffffffffffffffffffffffffffffffffffff021916908373ffffffffffffffffffffffffffffffffffffffff16021790555081600460006101000a81548173ffffffffffffffffffffffffffffffffffffffff021916908373ffffffffffffffffffffffffffffffffffffffff16021790555080600560006101000a81548173ffffffffffffffffffffffffffffffffffffffff021916908373ffffffffffffffffffffffffffffffffffffffff16021790555050505050565b6000600980549050905090565b600033905090565b60008060009054906101000a900473ffffffffffffffffffffffffffffffffffffffff169050816000806101000a81548173ffffffffffffffffffffffffffffffffffffffff021916908373ffffffffffffffffffffffffffffffffffffffff1602179055508173ffffffffffffffffffffffffffffffffffffffff168173ffffffffffffffffffffffffffffffffffffffff167f8be0079c531659141344cd1fd0a4f28419497f9722a3daafe3b4186f6b6457e060405160405180910390a35050565b620018b48160405160240162001831919062002363565b6040516020818303038152906040527f41304fac000000000000000000000000000000000000000000000000000000007bffffffffffffffffffffffffffffffffffffffffffffffffffffffff19166020820180517bffffffffffffffffffffffffffffffffffffffffffffffffffffffff838183161783525050505062001bfa565b50565b620019538282604051602401620018d092919062002387565b6040516020818303038152906040527f319af333000000000000000000000000000000000000000000000000000000007bffffffffffffffffffffffffffffffffffffffffffffffffffffffff19166020820180517bffffffffffffffffffffffffffffffffffffffffffffffffffffffff838183161783525050505062001bfa565b5050565b6200196162001cc2565b6000600760008573ffffffffffffffffffffffffffffffffffffffff1673ffffffffffffffffffffffffffffffffffffffff168152602001908152602001600020805480602002602001604051908101604052809291908181526020016000905b8282101562001aac57838290600052602060002090600302016040518060600160405290816000820160009054906101000a900473ffffffffffffffffffffffffffffffffffffffff1673ffffffffffffffffffffffffffffffffffffffff1673ffffffffffffffffffffffffffffffffffffffff1681526020016001820160009054906101000a900473ffffffffffffffffffffffffffffffffffffffff1673ffffffffffffffffffffffffffffffffffffffff1673ffffffffffffffffffffffffffffffffffffffff16815260200160028201548152505081526020019060010190620019c2565b50505050905060005b81518163ffffffff16101562001bad578373ffffffffffffffffffffffffffffffffffffffff16828263ffffffff168151811062001b1c577f4e487b7100000000000000000000000000000000000000000000000000000000600052603260045260246000fd5b60200260200101516000015173ffffffffffffffffffffffffffffffffffffffff16141562001b9757818163ffffffff168151811062001b85577f4e487b7100000000000000000000000000000000000000000000000000000000600052603260045260246000fd5b60200260200101519250505062001bf4565b808062001ba49062002801565b91505062001ab5565b50600062001bf2576040517f08c379a000000000000000000000000000000000000000000000000000000000815260040162001be990620025cd565b60405180910390fd5b505b92915050565b60008151905060006a636f6e736f6c652e6c6f679050602083016000808483855afa5050505050565b610ccc80620029d083390190565b82805462001c3f9062002795565b90600052602060002090601f01602090048101928262001c63576000855562001caf565b82601f1062001c7e57805160ff191683800117855562001caf565b8280016001018555821562001caf579182015b8281111562001cae57825182559160200191906001019062001c91565b5b50905062001cbe919062001d0f565b5090565b6040518060600160405280600073ffffffffffffffffffffffffffffffffffffffff168152602001600073ffffffffffffffffffffffffffffffffffffffff168152602001600081525090565b5b8082111562001d2a57600081600090555060010162001d10565b5090565b600062001d4562001d3f846200269b565b62002672565b90508281526020810184848401111562001d5e57600080fd5b62001d6b84828562002750565b509392505050565b60008135905062001d84816200299b565b92915050565b60008151905062001d9b816200299b565b92915050565b600082601f83011262001db357600080fd5b813562001dc584826020860162001d2e565b91505092915050565b60008135905062001ddf81620029b5565b92915050565b60008151905062001df681620029b5565b92915050565b60006020828403121562001e0f57600080fd5b600062001e1f8482850162001d73565b91505092915050565b60006020828403121562001e3b57600080fd5b600062001e4b8482850162001d8a565b91505092915050565b6000806000806080858703121562001e6b57600080fd5b600062001e7b8782880162001d73565b945050602062001e8e8782880162001d73565b935050604062001ea18782880162001d73565b925050606062001eb48782880162001d73565b91505092959194509250565b6000806040838503121562001ed457600080fd5b600062001ee48582860162001d73565b925050602062001ef78582860162001dce565b9150509250929050565b60008060008060008060008060008060006101608c8e03121562001f2457600080fd5b60008c013567ffffffffffffffff81111562001f3f57600080fd5b62001f4d8e828f0162001da1565b9b505060208c013567ffffffffffffffff81111562001f6b57600080fd5b62001f798e828f0162001da1565b9a505060408c013567ffffffffffffffff81111562001f9757600080fd5b62001fa58e828f0162001da1565b99505060608c013567ffffffffffffffff81111562001fc357600080fd5b62001fd18e828f0162001da1565b985050608062001fe48e828f0162001dce565b97505060a062001ff78e828f0162001dce565b96505060c06200200a8e828f0162001dce565b95505060e06200201d8e828f0162001dce565b9450506101008c013567ffffffffffffffff8111156200203c57600080fd5b6200204a8e828f0162001da1565b9350506101208c013567ffffffffffffffff8111156200206957600080fd5b620020778e828f0162001da1565b9250506101406200208b8e828f0162001d73565b9150509295989b509295989b9093969950565b600060208284031215620020b157600080fd5b6000620020c18482850162001dce565b91505092915050565b600060208284031215620020dd57600080fd5b6000620020ed8482850162001de5565b91505092915050565b620021018162002702565b82525050565b60006200211482620026e6565b620021208185620026f1565b9350620021328185602086016200275f565b6200213d81620028c0565b840191505092915050565b60008154620021578162002795565b620021638186620026f1565b945060018216600081146200218157600181146200219457620021cb565b60ff1983168652602086019350620021cb565b6200219f85620026d1565b60005b83811015620021c357815481890152600182019150602081019050620021a2565b808801955050505b50505092915050565b6000620021e3601483620026f1565b9150620021f082620028d1565b602082019050919050565b60006200220a602683620026f1565b91506200221782620028fa565b604082019050919050565b600062002231601d83620026f1565b91506200223e8262002949565b602082019050919050565b600062002258602083620026f1565b9150620022658262002972565b602082019050919050565b6200227b8162002736565b82525050565b6000602082019050620022986000830184620020f6565b92915050565b6000608082019050620022b56000830187620020f6565b620022c46020830186620020f6565b8181036040830152620022d8818562002107565b90508181036060830152620022ee818462002107565b905095945050505050565b6000606082019050620023106000830186620020f6565b6200231f6020830185620020f6565b6200232e604083018462002270565b949350505050565b60006040820190506200234d6000830185620020f6565b6200235c602083018462002270565b9392505050565b600060208201905081810360008301526200237f818462002107565b905092915050565b60006040820190508181036000830152620023a3818562002107565b9050620023b46020830184620020f6565b9392505050565b60006080820190508181036000830152620023d7818762002107565b90508181036020830152620023ed818662002107565b9050620023fe6040830185620020f6565b6200240d6060830184620020f6565b95945050505050565b600061018082019050818103600083015262002433818f62002107565b9050818103602083015262002449818e62002107565b905081810360408301526200245f818d62002107565b9050818103606083015262002475818c62002107565b905081810360808301526200248b818b62002107565b90506200249c60a083018a62002270565b620024ab60c083018962002270565b620024ba60e083018862002270565b620024ca610100830187620020f6565b620024da61012083018662002270565b620024ea61014083018562002270565b620024fa610160830184620020f6565b9d9c50505050505050505050505050565b600061012082019050818103600083015262002528818c62002107565b905081810360208301526200253e818b62002107565b9050818103604083015262002554818a62002107565b905081810360608301526200256a818962002148565b9050818103608083015262002580818862002107565b90506200259160a083018762002270565b620025a060c083018662002270565b620025af60e083018562002270565b620025bf61010083018462002270565b9a9950505050505050505050565b60006020820190508181036000830152620025e881620021d4565b9050919050565b600060208201905081810360008301526200260a81620021fb565b9050919050565b600060208201905081810360008301526200262c8162002222565b9050919050565b600060208201905081810360008301526200264e8162002249565b9050919050565b60006020820190506200266c600083018462002270565b92915050565b60006200267e62002691565b90506200268c8282620027cb565b919050565b6000604051905090565b600067ffffffffffffffff821115620026b957620026b862002891565b5b620026c482620028c0565b9050602081019050919050565b60008190508160005260206000209050919050565b600081519050919050565b600082825260208201905092915050565b60006200270f8262002716565b9050919050565b600073ffffffffffffffffffffffffffffffffffffffff82169050919050565b6000819050919050565b600063ffffffff82169050919050565b82818337600083830152505050565b60005b838110156200277f57808201518184015260208101905062002762565b838111156200278f576000848401525b50505050565b60006002820490506001821680620027ae57607f821691505b60208210811415620027c557620027c462002862565b5b50919050565b620027d682620028c0565b810181811067ffffffffffffffff82111715620027f857620027f762002891565b5b80604052505050565b60006200280e8262002740565b915063ffffffff82141562002828576200282762002833565b5b600182019050919050565b7f4e487b7100000000000000000000000000000000000000000000000000000000600052601160045260246000fd5b7f4e487b7100000000000000000000000000000000000000000000000000000000600052602260045260246000fd5b7f4e487b7100000000000000000000000000000000000000000000000000000000600052604160045260246000fd5b6000601f19601f8301169050919050565b7f417373657420506f6f6c204e6f7420466f756e64000000000000000000000000600082015250565b7f4f776e61626c653a206e6577206f776e657220697320746865207a65726f206160008201527f6464726573730000000000000000000000000000000000000000000000000000602082015250565b7f56616c7565206f662074686520626f6e642063616e6e6f742062652030000000600082015250565b7f4f776e61626c653a2063616c6c6572206973206e6f7420746865206f776e6572600082015250565b620029a68162002702565b8114620029b257600080fd5b50565b620029c08162002736565b8114620029cc57600080fd5b5056fe608060405234801561001057600080fd5b5061002d61002261003260201b60201c565b61003a60201b60201c565b6100fe565b600033905090565b60008060009054906101000a900473ffffffffffffffffffffffffffffffffffffffff169050816000806101000a81548173ffffffffffffffffffffffffffffffffffffffff021916908373ffffffffffffffffffffffffffffffffffffffff1602179055508173ffffffffffffffffffffffffffffffffffffffff168173ffffffffffffffffffffffffffffffffffffffff167f8be0079c531659141344cd1fd0a4f28419497f9722a3daafe3b4186f6b6457e060405160405180910390a35050565b610bbf8061010d6000396000f3fe60806040526004361061008a5760003560e01c806387e4be4c1161005957806387e4be4c1461012c5780638da5cb5b14610155578063cd6dc68714610180578063d2d5862c146101a9578063f2fde38b146101d457610091565b806343bc1612146100965780635bf8633a146100c157806369328dec146100ec578063715018a61461011557610091565b3661009157005b600080fd5b3480156100a257600080fd5b506100ab6101fd565b6040516100b89190610954565b60405180910390f35b3480156100cd57600080fd5b506100d6610223565b6040516100e39190610954565b60405180910390f35b3480156100f857600080fd5b50610113600480360381019061010e9190610855565b610249565b005b34801561012157600080fd5b5061012a6103ba565b005b34801561013857600080fd5b50610153600480360381019061014e91906107f0565b610442565b005b34801561016157600080fd5b5061016a6104f6565b6040516101779190610954565b60405180910390f35b34801561018c57600080fd5b506101a760048036038101906101a29190610819565b61051f565b005b3480156101b557600080fd5b506101be6105e7565b6040516101cb9190610a2f565b60405180910390f35b3480156101e057600080fd5b506101fb60048036038101906101f691906107f0565b6105ed565b005b600160009054906101000a900473ffffffffffffffffffffffffffffffffffffffff1681565b600260009054906101000a900473ffffffffffffffffffffffffffffffffffffffff1681565b8073ffffffffffffffffffffffffffffffffffffffff1663095ea7b330846040518363ffffffff1660e01b81526004016102849291906109a6565b602060405180830381600087803b15801561029e57600080fd5b505af11580156102b2573d6000803e3d6000fd5b505050506040513d601f19601f820116820180604052508101906102d691906108a4565b508073ffffffffffffffffffffffffffffffffffffffff166323b872dd3085856040518463ffffffff1660e01b81526004016103149392919061096f565b602060405180830381600087803b15801561032e57600080fd5b505af1158015610342573d6000803e3d6000fd5b505050506040513d601f19601f8201168201806040525081019061036691906108a4565b508273ffffffffffffffffffffffffffffffffffffffff167f7fcf532c15f0a6db0bd6d0e038bea71d30d808c7d98cb3bf7268a95bf5081b65836040516103ad9190610a2f565b60405180910390a2505050565b6103c26106e5565b73ffffffffffffffffffffffffffffffffffffffff166103e06104f6565b73ffffffffffffffffffffffffffffffffffffffff1614610436576040517f08c379a000000000000000000000000000000000000000000000000000000000815260040161042d906109ef565b60405180910390fd5b61044060006106ed565b565b600073ffffffffffffffffffffffffffffffffffffffff168173ffffffffffffffffffffffffffffffffffffffff1614156104b2576040517f08c379a00000000000000000000000000000000000000000000000000000000081526004016104a990610a0f565b60405180910390fd5b80600260006101000a81548173ffffffffffffffffffffffffffffffffffffffff021916908373ffffffffffffffffffffffffffffffffffffffff16021790555050565b60008060009054906101000a900473ffffffffffffffffffffffffffffffffffffffff16905090565b6105276106e5565b73ffffffffffffffffffffffffffffffffffffffff166105456104f6565b73ffffffffffffffffffffffffffffffffffffffff161461059b576040517f08c379a0000000000000000000000000000000000000000000000000000000008152600401610592906109ef565b60405180910390fd5b81600160006101000a81548173ffffffffffffffffffffffffffffffffffffffff021916908373ffffffffffffffffffffffffffffffffffffffff160217905550806003819055505050565b60035481565b6105f56106e5565b73ffffffffffffffffffffffffffffffffffffffff166106136104f6565b73ffffffffffffffffffffffffffffffffffffffff1614610669576040517f08c379a0000000000000000000000000000000000000000000000000000000008152600401610660906109ef565b60405180910390fd5b600073ffffffffffffffffffffffffffffffffffffffff168173ffffffffffffffffffffffffffffffffffffffff1614156106d9576040517f08c379a00000000000000000000000000000000000000000000000000000000081526004016106d0906109cf565b60405180910390fd5b6106e2816106ed565b50565b600033905090565b60008060009054906101000a900473ffffffffffffffffffffffffffffffffffffffff169050816000806101000a81548173ffffffffffffffffffffffffffffffffffffffff021916908373ffffffffffffffffffffffffffffffffffffffff1602179055508173ffffffffffffffffffffffffffffffffffffffff168173ffffffffffffffffffffffffffffffffffffffff167f8be0079c531659141344cd1fd0a4f28419497f9722a3daafe3b4186f6b6457e060405160405180910390a35050565b6000813590506107c081610b44565b92915050565b6000815190506107d581610b5b565b92915050565b6000813590506107ea81610b72565b92915050565b60006020828403121561080257600080fd5b6000610810848285016107b1565b91505092915050565b6000806040838503121561082c57600080fd5b600061083a858286016107b1565b925050602061084b858286016107db565b9150509250929050565b60008060006060848603121561086a57600080fd5b6000610878868287016107b1565b9350506020610889868287016107db565b925050604061089a868287016107b1565b9150509250925092565b6000602082840312156108b657600080fd5b60006108c4848285016107c6565b91505092915050565b6108d681610a5b565b82525050565b60006108e9602683610a4a565b91506108f482610aa3565b604082019050919050565b600061090c602083610a4a565b915061091782610af2565b602082019050919050565b600061092f600f83610a4a565b915061093a82610b1b565b602082019050919050565b61094e81610a99565b82525050565b600060208201905061096960008301846108cd565b92915050565b600060608201905061098460008301866108cd565b61099160208301856108cd565b61099e6040830184610945565b949350505050565b60006040820190506109bb60008301856108cd565b6109c86020830184610945565b9392505050565b600060208201905081810360008301526109e8816108dc565b9050919050565b60006020820190508181036000830152610a08816108ff565b9050919050565b60006020820190508181036000830152610a2881610922565b9050919050565b6000602082019050610a446000830184610945565b92915050565b600082825260208201905092915050565b6000610a6682610a79565b9050919050565b60008115159050919050565b600073ffffffffffffffffffffffffffffffffffffffff82169050919050565b6000819050919050565b7f4f776e61626c653a206e6577206f776e657220697320746865207a65726f206160008201527f6464726573730000000000000000000000000000000000000000000000000000602082015250565b7f4f776e61626c653a2063616c6c6572206973206e6f7420746865206f776e6572600082015250565b7f496e76616c696420416464726573730000000000000000000000000000000000600082015250565b610b4d81610a5b565b8114610b5857600080fd5b50565b610b6481610a6d565b8114610b6f57600080fd5b50565b610b7b81610a99565b8114610b8657600080fd5b5056fea2646970667358221220177f05f5a19c0ac1d695c063fb94d64347156bcc36c205b83c14c48f701c6d1664736f6c63430008040033616c6c426f6e644e66747320707573686564206e66744164647265737320646f6e6575736572426f6e64436f6e666967732070757368656420426f6e64436f6e66696720646f6e65426f6e644e465443726561746564206576656e7420656d697474656420646f6e65626f6e644e465447656e657261746f722e67656e65726174654e465420646f6e65203d20a2646970667358221220b19efbe78c9df75027989f3b67de40683c61124579f5a154c0cf4ad92a5d33cc64736f6c63430008040033",
  "linkReferences": {},
  "deployedLinkReferences": {}
}