{
  "_format": "hh-sol-artifact-1",
  "contractName": "BondNFT",
  "sourceName": "contracts/BondNFT.sol",
  "abi": [
    {
      "inputs": [
        {
          "internalType": "string",
          "name": "_name",
          "type": "string"
        },
        {
          "internalType": "string",
          "name": "_symbol",
          "type": "string"
        }
      ],
      "stateMutability": "nonpayable",
      "type": "constructor"
    },
    {
      "anonymous": false,
      "inputs": [
        {
          "indexed": true,
          "internalType": "address",
          "name": "owner",
          "type": "address"
        },
        {
          "indexed": true,
          "internalType": "address",
          "name": "approved",
          "type": "address"
        },
        {
          "indexed": true,
          "internalType": "uint256",
          "name": "tokenId",
          "type": "uint256"
        }
      ],
      "name": "Approval",
      "type": "event"
    },
    {
      "anonymous": false,
      "inputs": [
        {
          "indexed": true,
          "internalType": "address",
          "name": "owner",
          "type": "address"
        },
        {
          "indexed": true,
          "internalType": "address",
          "name": "operator",
          "type": "address"
        },
        {
          "indexed": false,
          "internalType": "bool",
          "name": "approved",
          "type": "bool"
        }
      ],
      "name": "ApprovalForAll",
      "type": "event"
    },
    {
      "anonymous": false,
      "inputs": [
        {
          "indexed": true,
          "internalType": "bytes32",
          "name": "id",
          "type": "bytes32"
        }
      ],
      "name": "ChainlinkCancelled",
      "type": "event"
    },
    {
      "anonymous": false,
      "inputs": [
        {
          "indexed": true,
          "internalType": "bytes32",
          "name": "id",
          "type": "bytes32"
        }
      ],
      "name": "ChainlinkFulfilled",
      "type": "event"
    },
    {
      "anonymous": false,
      "inputs": [
        {
          "indexed": true,
          "internalType": "bytes32",
          "name": "id",
          "type": "bytes32"
        }
      ],
      "name": "ChainlinkRequested",
      "type": "event"
    },
    {
      "anonymous": false,
      "inputs": [
        {
          "indexed": true,
          "internalType": "bytes32",
          "name": "_requestId",
          "type": "bytes32"
        },
        {
          "indexed": true,
          "internalType": "address",
          "name": "nftAddress",
          "type": "address"
        }
      ],
      "name": "ListenerRequestInitiated",
      "type": "event"
    },
    {
      "anonymous": false,
      "inputs": [
        {
          "indexed": true,
          "internalType": "address",
          "name": "previousOwner",
          "type": "address"
        },
        {
          "indexed": true,
          "internalType": "address",
          "name": "newOwner",
          "type": "address"
        }
      ],
      "name": "OwnershipTransferred",
      "type": "event"
    },
    {
      "anonymous": false,
      "inputs": [
        {
          "indexed": true,
          "internalType": "bytes32",
          "name": "_requestId",
          "type": "bytes32"
        },
        {
          "indexed": true,
          "internalType": "uint256",
          "name": "_listeners",
          "type": "uint256"
        },
        {
          "indexed": true,
          "internalType": "address",
          "name": "nftAddress",
          "type": "address"
        }
      ],
      "name": "RequestListenerFulfilled",
      "type": "event"
    },
    {
      "anonymous": false,
      "inputs": [
        {
          "indexed": true,
          "internalType": "address",
          "name": "from",
          "type": "address"
        },
        {
          "indexed": true,
          "internalType": "address",
          "name": "to",
          "type": "address"
        },
        {
          "indexed": true,
          "internalType": "uint256",
          "name": "tokenId",
          "type": "uint256"
        }
      ],
      "name": "Transfer",
      "type": "event"
    },
    {
      "inputs": [
        {
          "internalType": "address",
          "name": "to",
          "type": "address"
        },
        {
          "internalType": "uint256",
          "name": "tokenId",
          "type": "uint256"
        }
      ],
      "name": "approve",
      "outputs": [],
      "stateMutability": "nonpayable",
      "type": "function"
    },
    {
      "inputs": [],
      "name": "artistId",
      "outputs": [
        {
          "internalType": "string",
          "name": "",
          "type": "string"
        }
      ],
      "stateMutability": "view",
      "type": "function"
    },
    {
      "inputs": [],
      "name": "artistName",
      "outputs": [
        {
          "internalType": "string",
          "name": "",
          "type": "string"
        }
      ],
      "stateMutability": "view",
      "type": "function"
    },
    {
      "inputs": [],
      "name": "audiusArtistId",
      "outputs": [
        {
          "internalType": "string",
          "name": "",
          "type": "string"
        }
      ],
      "stateMutability": "view",
      "type": "function"
    },
    {
      "inputs": [
        {
          "internalType": "address",
          "name": "owner",
          "type": "address"
        }
      ],
      "name": "balanceOf",
      "outputs": [
        {
          "internalType": "uint256",
          "name": "",
          "type": "uint256"
        }
      ],
      "stateMutability": "view",
      "type": "function"
    },
    {
      "inputs": [],
      "name": "channelId",
      "outputs": [
        {
          "internalType": "string",
          "name": "",
          "type": "string"
        }
      ],
      "stateMutability": "view",
      "type": "function"
    },
    {
      "inputs": [],
      "name": "endpoint",
      "outputs": [
        {
          "internalType": "string",
          "name": "",
          "type": "string"
        }
      ],
      "stateMutability": "view",
      "type": "function"
    },
    {
      "inputs": [],
      "name": "faceValue",
      "outputs": [
        {
          "internalType": "uint256",
          "name": "",
          "type": "uint256"
        }
      ],
      "stateMutability": "view",
      "type": "function"
    },
    {
      "inputs": [
        {
          "internalType": "bytes32",
          "name": "_requestId",
          "type": "bytes32"
        },
        {
          "internalType": "uint256",
          "name": "_listeners",
          "type": "uint256"
        }
      ],
      "name": "fulfill",
      "outputs": [],
      "stateMutability": "nonpayable",
      "type": "function"
    },
    {
      "inputs": [],
      "name": "fundingAmount",
      "outputs": [
        {
          "internalType": "uint256",
          "name": "",
          "type": "uint256"
        }
      ],
      "stateMutability": "view",
      "type": "function"
    },
    {
      "inputs": [
        {
          "internalType": "uint256",
          "name": "tokenId",
          "type": "uint256"
        }
      ],
      "name": "getApproved",
      "outputs": [
        {
          "internalType": "address",
          "name": "",
          "type": "address"
        }
      ],
      "stateMutability": "view",
      "type": "function"
    },
    {
      "inputs": [],
      "name": "getLatestListeners",
      "outputs": [
        {
          "internalType": "bytes32",
          "name": "",
          "type": "bytes32"
        }
      ],
      "stateMutability": "nonpayable",
      "type": "function"
    },
    {
      "inputs": [
        {
          "internalType": "uint256",
          "name": "tokenId",
          "type": "uint256"
        }
      ],
      "name": "getTokenURI",
      "outputs": [
        {
          "internalType": "string",
          "name": "",
          "type": "string"
        }
      ],
      "stateMutability": "view",
      "type": "function"
    },
    {
      "inputs": [
        {
          "internalType": "string",
          "name": "_artistName",
          "type": "string"
        },
        {
          "internalType": "string",
          "name": "_artistId",
          "type": "string"
        },
        {
          "internalType": "string",
          "name": "_channelId",
          "type": "string"
        },
        {
          "internalType": "string",
          "name": "_endpoint",
          "type": "string"
        },
        {
          "internalType": "string",
          "name": "_audiusArtistId",
          "type": "string"
        },
        {
          "internalType": "uint256",
          "name": "_fundingAmount",
          "type": "uint256"
        },
        {
          "internalType": "uint256",
          "name": "_numberOfYears",
          "type": "uint256"
        },
        {
          "internalType": "uint256",
          "name": "_numberOfBonds",
          "type": "uint256"
        },
        {
          "internalType": "uint256",
          "name": "_facevalue",
          "type": "uint256"
        },
        {
          "internalType": "address",
          "name": "_chainlinkOracleInfoAddress",
          "type": "address"
        }
      ],
      "name": "initialize",
      "outputs": [],
      "stateMutability": "nonpayable",
      "type": "function"
    },
    {
      "inputs": [
        {
          "internalType": "address",
          "name": "owner",
          "type": "address"
        },
        {
          "internalType": "address",
          "name": "operator",
          "type": "address"
        }
      ],
      "name": "isApprovedForAll",
      "outputs": [
        {
          "internalType": "bool",
          "name": "",
          "type": "bool"
        }
      ],
      "stateMutability": "view",
      "type": "function"
    },
    {
      "inputs": [],
      "name": "issuerAddress",
      "outputs": [
        {
          "internalType": "address",
          "name": "",
          "type": "address"
        }
      ],
      "stateMutability": "view",
      "type": "function"
    },
    {
      "inputs": [],
      "name": "mintBonds",
      "outputs": [],
      "stateMutability": "nonpayable",
      "type": "function"
    },
    {
      "inputs": [],
      "name": "name",
      "outputs": [
        {
          "internalType": "string",
          "name": "",
          "type": "string"
        }
      ],
      "stateMutability": "view",
      "type": "function"
    },
    {
      "inputs": [],
      "name": "numberOfBonds",
      "outputs": [
        {
          "internalType": "uint256",
          "name": "",
          "type": "uint256"
        }
      ],
      "stateMutability": "view",
      "type": "function"
    },
    {
      "inputs": [],
      "name": "numberOfYears",
      "outputs": [
        {
          "internalType": "uint256",
          "name": "",
          "type": "uint256"
        }
      ],
      "stateMutability": "view",
      "type": "function"
    },
    {
      "inputs": [],
      "name": "owner",
      "outputs": [
        {
          "internalType": "address",
          "name": "",
          "type": "address"
        }
      ],
      "stateMutability": "view",
      "type": "function"
    },
    {
      "inputs": [
        {
          "internalType": "uint256",
          "name": "tokenId",
          "type": "uint256"
        }
      ],
      "name": "ownerOf",
      "outputs": [
        {
          "internalType": "address",
          "name": "",
          "type": "address"
        }
      ],
      "stateMutability": "view",
      "type": "function"
    },
    {
      "inputs": [],
      "name": "renounceOwnership",
      "outputs": [],
      "stateMutability": "nonpayable",
      "type": "function"
    },
    {
      "inputs": [
        {
          "internalType": "address",
          "name": "from",
          "type": "address"
        },
        {
          "internalType": "address",
          "name": "to",
          "type": "address"
        },
        {
          "internalType": "uint256",
          "name": "tokenId",
          "type": "uint256"
        }
      ],
      "name": "safeTransferFrom",
      "outputs": [],
      "stateMutability": "nonpayable",
      "type": "function"
    },
    {
      "inputs": [
        {
          "internalType": "address",
          "name": "from",
          "type": "address"
        },
        {
          "internalType": "address",
          "name": "to",
          "type": "address"
        },
        {
          "internalType": "uint256",
          "name": "tokenId",
          "type": "uint256"
        },
        {
          "internalType": "bytes",
          "name": "_data",
          "type": "bytes"
        }
      ],
      "name": "safeTransferFrom",
      "outputs": [],
      "stateMutability": "nonpayable",
      "type": "function"
    },
    {
      "inputs": [
        {
          "internalType": "address",
          "name": "operator",
          "type": "address"
        },
        {
          "internalType": "bool",
          "name": "approved",
          "type": "bool"
        }
      ],
      "name": "setApprovalForAll",
      "outputs": [],
      "stateMutability": "nonpayable",
      "type": "function"
    },
    {
      "inputs": [
        {
          "internalType": "uint256",
          "name": "tokenId",
          "type": "uint256"
        },
        {
          "internalType": "string",
          "name": "_tokenURI",
          "type": "string"
        }
      ],
      "name": "setTokenURI",
      "outputs": [],
      "stateMutability": "nonpayable",
      "type": "function"
    },
    {
      "inputs": [
        {
          "internalType": "bytes4",
          "name": "interfaceId",
          "type": "bytes4"
        }
      ],
      "name": "supportsInterface",
      "outputs": [
        {
          "internalType": "bool",
          "name": "",
          "type": "bool"
        }
      ],
      "stateMutability": "view",
      "type": "function"
    },
    {
      "inputs": [],
      "name": "symbol",
      "outputs": [
        {
          "internalType": "string",
          "name": "",
          "type": "string"
        }
      ],
      "stateMutability": "view",
      "type": "function"
    },
    {
      "inputs": [
        {
          "internalType": "uint256",
          "name": "tokenId",
          "type": "uint256"
        }
      ],
      "name": "tokenURI",
      "outputs": [
        {
          "internalType": "string",
          "name": "",
          "type": "string"
        }
      ],
      "stateMutability": "view",
      "type": "function"
    },
    {
      "inputs": [],
      "name": "totalListeners",
      "outputs": [
        {
          "internalType": "uint256",
          "name": "",
          "type": "uint256"
        }
      ],
      "stateMutability": "view",
      "type": "function"
    },
    {
      "inputs": [],
      "name": "totalSupply",
      "outputs": [
        {
          "internalType": "uint256",
          "name": "",
          "type": "uint256"
        }
      ],
      "stateMutability": "view",
      "type": "function"
    },
    {
      "inputs": [
        {
          "internalType": "address",
          "name": "from",
          "type": "address"
        },
        {
          "internalType": "address",
          "name": "to",
          "type": "address"
        },
        {
          "internalType": "uint256",
          "name": "tokenId",
          "type": "uint256"
        }
      ],
      "name": "transferFrom",
      "outputs": [],
      "stateMutability": "nonpayable",
      "type": "function"
    },
    {
      "inputs": [
        {
          "internalType": "address",
          "name": "newOwner",
          "type": "address"
        }
      ],
      "name": "transferOwnership",
      "outputs": [],
      "stateMutability": "nonpayable",
      "type": "function"
    },
    {
      "inputs": [
        {
          "internalType": "uint256",
          "name": "_listeners",
          "type": "uint256"
        }
      ],
      "name": "updateTotalListeners",
      "outputs": [],
      "stateMutability": "nonpayable",
      "type": "function"
    }
  ],
  "bytecode": "0x60806040526001600b553480156200001657600080fd5b50604051620053c7380380620053c783398181016040528101906200003c9190620003c9565b818181600090805190602001906200005692919062000264565b5080600190805190602001906200006f92919062000264565b5050506200009262000086620000aa60201b60201c565b620000b260201b60201c565b620000a26200017860201b60201c565b5050620005fa565b600033905090565b6000600d60009054906101000a900473ffffffffffffffffffffffffffffffffffffffff16905081600d60006101000a81548173ffffffffffffffffffffffffffffffffffffffff021916908373ffffffffffffffffffffffffffffffffffffffff1602179055508173ffffffffffffffffffffffffffffffffffffffff168173ffffffffffffffffffffffffffffffffffffffff167f8be0079c531659141344cd1fd0a4f28419497f9722a3daafe3b4186f6b6457e060405160405180910390a35050565b6200021e73c89bd4e1632d3a43cb03aaad5262cbe4038bc57173ffffffffffffffffffffffffffffffffffffffff166338cc48316040518163ffffffff1660e01b815260040160206040518083038186803b158015620001d757600080fd5b505afa158015620001ec573d6000803e3d6000fd5b505050506040513d601f19601f820116820180604052508101906200021291906200039d565b6200022060201b60201c565b565b80600960006101000a81548173ffffffffffffffffffffffffffffffffffffffff021916908373ffffffffffffffffffffffffffffffffffffffff16021790555050565b828054620002729062000505565b90600052602060002090601f016020900481019282620002965760008555620002e2565b82601f10620002b157805160ff1916838001178555620002e2565b82800160010185558215620002e2579182015b82811115620002e1578251825591602001919060010190620002c4565b5b509050620002f19190620002f5565b5090565b5b8082111562000310576000816000905550600101620002f6565b5090565b60006200032b620003258462000465565b6200043c565b9050828152602081018484840111156200034457600080fd5b62000351848285620004cf565b509392505050565b6000815190506200036a81620005e0565b92915050565b600082601f8301126200038257600080fd5b81516200039484826020860162000314565b91505092915050565b600060208284031215620003b057600080fd5b6000620003c08482850162000359565b91505092915050565b60008060408385031215620003dd57600080fd5b600083015167ffffffffffffffff811115620003f857600080fd5b620004068582860162000370565b925050602083015167ffffffffffffffff8111156200042457600080fd5b620004328582860162000370565b9150509250929050565b6000620004486200045b565b90506200045682826200053b565b919050565b6000604051905090565b600067ffffffffffffffff821115620004835762000482620005a0565b5b6200048e82620005cf565b9050602081019050919050565b6000620004a882620004af565b9050919050565b600073ffffffffffffffffffffffffffffffffffffffff82169050919050565b60005b83811015620004ef578082015181840152602081019050620004d2565b83811115620004ff576000848401525b50505050565b600060028204905060018216806200051e57607f821691505b6020821081141562000535576200053462000571565b5b50919050565b6200054682620005cf565b810181811067ffffffffffffffff82111715620005685762000567620005a0565b5b80604052505050565b7f4e487b7100000000000000000000000000000000000000000000000000000000600052602260045260246000fd5b7f4e487b7100000000000000000000000000000000000000000000000000000000600052604160045260246000fd5b6000601f19601f8301169050919050565b620005eb816200049b565b8114620005f757600080fd5b50565b614dbd806200060a6000396000f3fe608060405234801561001057600080fd5b50600436106102115760003560e01c80636352211e11610125578063a63234e0116100ad578063e0598e271161007c578063e0598e27146105ce578063e2cee544146105ea578063e985e9c514610608578063ec7c5d8214610638578063f2fde38b1461065657610211565b8063a63234e014610546578063b88d4fde14610564578063c87b56dd14610580578063d25908aa146105b057610211565b80638b964a97116100f45780638b964a97146104b25780638da5cb5b146104d057806395d89b41146104ee578063a0217b161461050c578063a22cb4651461052a57610211565b80636352211e1461042c57806370a082311461045c578063715018a61461048c57806389fec2d91461049657610211565b806323b872dd116101a85780634357855e116101775780634357855e1461039857806344fd9caa146103b45780635b2f515b146103d25780635db3f019146103f05780635e280f111461040e57610211565b806323b872dd146103265780633bb3a24d146103425780633da896941461037257806342842e0e1461037c57610211565b8063095ea7b3116101e4578063095ea7b3146102b2578063162094c4146102ce5780631623954e146102ea57806318160ddd1461030857610211565b806301ffc9a71461021657806304a79c971461024657806306fdde0314610264578063081812fc14610282575b600080fd5b610230600480360381019061022b9190613691565b610672565b60405161023d9190613e2e565b60405180910390f35b61024e610754565b60405161025b9190614106565b60405180910390f35b61026c61075a565b6040516102799190613e64565b60405180910390f35b61029c60048036038101906102979190613836565b6107ec565b6040516102a99190613d04565b60405180910390f35b6102cc60048036038101906102c791906135c7565b610871565b005b6102e860048036038101906102e39190613888565b610989565b005b6102f2610a63565b6040516102ff9190613e64565b60405180910390f35b610310610af1565b60405161031d9190614106565b60405180910390f35b610340600480360381019061033b91906134c1565b610af7565b005b61035c60048036038101906103579190613836565b610b57565b6040516103699190613e64565b60405180910390f35b61037a610b69565b005b610396600480360381019061039191906134c1565b610c30565b005b6103b260048036038101906103ad9190613655565b610c50565b005b6103bc610da6565b6040516103c99190614106565b60405180910390f35b6103da610dac565b6040516103e79190613e64565b60405180910390f35b6103f8610e3a565b6040516104059190614106565b60405180910390f35b610416610e40565b6040516104239190613e64565b60405180910390f35b61044660048036038101906104419190613836565b610ece565b6040516104539190613d04565b60405180910390f35b61047660048036038101906104719190613433565b610f80565b6040516104839190614106565b60405180910390f35b610494611038565b005b6104b060048036038101906104ab9190613836565b6110c0565b005b6104ba6110ca565b6040516104c79190613e64565b60405180910390f35b6104d8611158565b6040516104e59190613d04565b60405180910390f35b6104f6611182565b6040516105039190613e64565b60405180910390f35b610514611214565b6040516105219190613e49565b60405180910390f35b610544600480360381019061053f919061358b565b611610565b005b61054e611791565b60405161055b9190613d04565b60405180910390f35b61057e60048036038101906105799190613510565b6117b7565b005b61059a60048036038101906105959190613836565b611819565b6040516105a79190613e64565b60405180910390f35b6105b861196b565b6040516105c59190614106565b60405180910390f35b6105e860048036038101906105e391906136e3565b611971565b005b6105f2611a97565b6040516105ff9190613e64565b60405180910390f35b610622600480360381019061061d9190613485565b611b25565b60405161062f9190613e2e565b60405180910390f35b610640611bb9565b60405161064d9190614106565b60405180910390f35b610670600480360381019061066b9190613433565b611bbf565b005b60007f80ac58cd000000000000000000000000000000000000000000000000000000007bffffffffffffffffffffffffffffffffffffffffffffffffffffffff1916827bffffffffffffffffffffffffffffffffffffffffffffffffffffffff1916148061073d57507f5b5e139f000000000000000000000000000000000000000000000000000000007bffffffffffffffffffffffffffffffffffffffffffffffffffffffff1916827bffffffffffffffffffffffffffffffffffffffffffffffffffffffff1916145b8061074d575061074c82611cb7565b5b9050919050565b60145481565b60606000805461076990614563565b80601f016020809104026020016040519081016040528092919081815260200182805461079590614563565b80156107e25780601f106107b7576101008083540402835291602001916107e2565b820191906000526020600020905b8154815290600101906020018083116107c557829003601f168201915b5050505050905090565b60006107f782611d21565b610836576040517f08c379a000000000000000000000000000000000000000000000000000000000815260040161082d90614026565b60405180910390fd5b6004600083815260200190815260200160002060009054906101000a900473ffffffffffffffffffffffffffffffffffffffff169050919050565b600061087c82610ece565b90508073ffffffffffffffffffffffffffffffffffffffff168373ffffffffffffffffffffffffffffffffffffffff1614156108ed576040517f08c379a00000000000000000000000000000000000000000000000000000000081526004016108e4906140a6565b60405180910390fd5b8073ffffffffffffffffffffffffffffffffffffffff1661090c611d8d565b73ffffffffffffffffffffffffffffffffffffffff16148061093b575061093a81610935611d8d565b611b25565b5b61097a576040517f08c379a000000000000000000000000000000000000000000000000000000000815260040161097190613f66565b60405180910390fd5b6109848383611d95565b505050565b610991611d8d565b73ffffffffffffffffffffffffffffffffffffffff166109af611158565b73ffffffffffffffffffffffffffffffffffffffff1614610a05576040517f08c379a00000000000000000000000000000000000000000000000000000000081526004016109fc90614046565b60405180910390fd5b610a16610a10611d8d565b83611e4e565b610a55576040517f08c379a0000000000000000000000000000000000000000000000000000000008152600401610a4c906140c6565b60405180910390fd5b610a5f8282611f2c565b5050565b60138054610a7090614563565b80601f0160208091040260200160405190810160405280929190818152602001828054610a9c90614563565b8015610ae95780601f10610abe57610100808354040283529160200191610ae9565b820191906000526020600020905b815481529060010190602001808311610acc57829003601f168201915b505050505081565b600e5481565b610b08610b02611d8d565b82611e4e565b610b47576040517f08c379a0000000000000000000000000000000000000000000000000000000008152600401610b3e906140c6565b60405180910390fd5b610b52838383611fa0565b505050565b6060610b6282611819565b9050919050565b610b71611d8d565b73ffffffffffffffffffffffffffffffffffffffff16610b8f611158565b73ffffffffffffffffffffffffffffffffffffffff1614610be5576040517f08c379a0000000000000000000000000000000000000000000000000000000008152600401610bdc90614046565b60405180910390fd5b60005b6016548161ffff161015610c2d57610c0233600e546121fc565b600e6000815480929190610c15906145f1565b91905055508080610c25906145c6565b915050610be8565b50565b610c4b838383604051806020016040528060008152506117b7565b505050565b81600c600082815260200190815260200160002060009054906101000a900473ffffffffffffffffffffffffffffffffffffffff1673ffffffffffffffffffffffffffffffffffffffff163373ffffffffffffffffffffffffffffffffffffffff1614610cf2576040517f08c379a0000000000000000000000000000000000000000000000000000000008152600401610ce9906140e6565b60405180910390fd5b600c600082815260200190815260200160002060006101000a81549073ffffffffffffffffffffffffffffffffffffffff0219169055807f7cc135e0cebb02c3480ae5d74d377283180a2601f8f644edf7987b009316c63a60405160405180910390a2816019819055503073ffffffffffffffffffffffffffffffffffffffff1682847fa2c4a134a658e951811ebf5e9ad4b5024da6d381f59ba81db6bee21e5c3efecc60405160405180910390a4505050565b60185481565b600f8054610db990614563565b80601f0160208091040260200160405190810160405280929190818152602001828054610de590614563565b8015610e325780601f10610e0757610100808354040283529160200191610e32565b820191906000526020600020905b815481529060010190602001808311610e1557829003601f168201915b505050505081565b60195481565b60128054610e4d90614563565b80601f0160208091040260200160405190810160405280929190818152602001828054610e7990614563565b8015610ec65780601f10610e9b57610100808354040283529160200191610ec6565b820191906000526020600020905b815481529060010190602001808311610ea957829003601f168201915b505050505081565b6000806002600084815260200190815260200160002060009054906101000a900473ffffffffffffffffffffffffffffffffffffffff169050600073ffffffffffffffffffffffffffffffffffffffff168173ffffffffffffffffffffffffffffffffffffffff161415610f77576040517f08c379a0000000000000000000000000000000000000000000000000000000008152600401610f6e90613fa6565b60405180910390fd5b80915050919050565b60008073ffffffffffffffffffffffffffffffffffffffff168273ffffffffffffffffffffffffffffffffffffffff161415610ff1576040517f08c379a0000000000000000000000000000000000000000000000000000000008152600401610fe890613f86565b60405180910390fd5b600360008373ffffffffffffffffffffffffffffffffffffffff1673ffffffffffffffffffffffffffffffffffffffff168152602001908152602001600020549050919050565b611040611d8d565b73ffffffffffffffffffffffffffffffffffffffff1661105e611158565b73ffffffffffffffffffffffffffffffffffffffff16146110b4576040517f08c379a00000000000000000000000000000000000000000000000000000000081526004016110ab90614046565b60405180910390fd5b6110be600061221a565b565b8060198190555050565b601080546110d790614563565b80601f016020809104026020016040519081016040528092919081815260200182805461110390614563565b80156111505780601f1061112557610100808354040283529160200191611150565b820191906000526020600020905b81548152906001019060200180831161113357829003601f168201915b505050505081565b6000600d60009054906101000a900473ffffffffffffffffffffffffffffffffffffffff16905090565b60606001805461119190614563565b80601f01602080910402602001604051908101604052809291908181526020018280546111bd90614563565b801561120a5780601f106111df5761010080835404028352916020019161120a565b820191906000526020600020905b8154815290600101906020018083116111ed57829003601f168201915b5050505050905090565b6000806112c8601b60009054906101000a900473ffffffffffffffffffffffffffffffffffffffff1673ffffffffffffffffffffffffffffffffffffffff1663b02f7fe06040518163ffffffff1660e01b815260040160206040518083038186803b15801561128257600080fd5b505afa158015611296573d6000803e3d6000fd5b505050506040513d601f19601f820116820180604052508101906112ba919061362c565b30634357855e60e01b6122e0565b905061139e6040518060400160405280600281526020017f69640000000000000000000000000000000000000000000000000000000000008152506011805461131090614563565b80601f016020809104026020016040519081016040528092919081815260200182805461133c90614563565b80156113895780601f1061135e57610100808354040283529160200191611389565b820191906000526020600020905b81548152906001019060200180831161136c57829003601f168201915b5050505050836123119092919063ffffffff16565b6114726040518060400160405280600881526020017f656e64706f696e74000000000000000000000000000000000000000000000000815250601280546113e490614563565b80601f016020809104026020016040519081016040528092919081815260200182805461141090614563565b801561145d5780601f106114325761010080835404028352916020019161145d565b820191906000526020600020905b81548152906001019060200180831161144057829003601f168201915b5050505050836123119092919063ffffffff16565b6115bb601b60009054906101000a900473ffffffffffffffffffffffffffffffffffffffff1673ffffffffffffffffffffffffffffffffffffffff1663833b1fce6040518163ffffffff1660e01b815260040160206040518083038186803b1580156114dd57600080fd5b505afa1580156114f1573d6000803e3d6000fd5b505050506040513d601f19601f82011682018060405250810190611515919061345c565b82601b60009054906101000a900473ffffffffffffffffffffffffffffffffffffffff1673ffffffffffffffffffffffffffffffffffffffff1663ced72f876040518163ffffffff1660e01b815260040160206040518083038186803b15801561157e57600080fd5b505afa158015611592573d6000803e3d6000fd5b505050506040513d601f19601f820116820180604052508101906115b6919061385f565b612344565b601a819055503073ffffffffffffffffffffffffffffffffffffffff16601a547f81c874263f6885b2b8b53061deef66887f65a3467f8cdebd7ed41ece8f34bc9460405160405180910390a3601a5491505090565b611618611d8d565b73ffffffffffffffffffffffffffffffffffffffff168273ffffffffffffffffffffffffffffffffffffffff161415611686576040517f08c379a000000000000000000000000000000000000000000000000000000000815260040161167d90613f26565b60405180910390fd5b8060056000611693611d8d565b73ffffffffffffffffffffffffffffffffffffffff1673ffffffffffffffffffffffffffffffffffffffff16815260200190815260200160002060008473ffffffffffffffffffffffffffffffffffffffff1673ffffffffffffffffffffffffffffffffffffffff16815260200190815260200160002060006101000a81548160ff0219169083151502179055508173ffffffffffffffffffffffffffffffffffffffff16611740611d8d565b73ffffffffffffffffffffffffffffffffffffffff167f17307eab39ab6107e8899845ad3d59bd9653f200f220920489ca2b5937696c31836040516117859190613e2e565b60405180910390a35050565b601760009054906101000a900473ffffffffffffffffffffffffffffffffffffffff1681565b6117c86117c2611d8d565b83611e4e565b611807576040517f08c379a00000000000000000000000000000000000000000000000000000000081526004016117fe906140c6565b60405180910390fd5b61181384848484612364565b50505050565b606061182482611d21565b611863576040517f08c379a000000000000000000000000000000000000000000000000000000000815260040161185a90614006565b60405180910390fd5b600060066000848152602001908152602001600020805461188390614563565b80601f01602080910402602001604051908101604052809291908181526020018280546118af90614563565b80156118fc5780601f106118d1576101008083540402835291602001916118fc565b820191906000526020600020905b8154815290600101906020018083116118df57829003601f168201915b50505050509050600061190d6123c0565b9050600081511415611923578192505050611966565b600082511115611958578082604051602001611940929190613ce0565b60405160208183030381529060405292505050611966565b611961846123d7565b925050505b919050565b60155481565b89600f9080519060200190611987929190613167565b50886010908051906020019061199e929190613167565b5087601190805190602001906119b5929190613167565b5086601290805190602001906119cc929190613167565b5085601390805190602001906119e3929190613167565b5084601481905550836015819055508260168190555033601760006101000a81548173ffffffffffffffffffffffffffffffffffffffff021916908373ffffffffffffffffffffffffffffffffffffffff1602179055508160188190555080601b60006101000a81548173ffffffffffffffffffffffffffffffffffffffff021916908373ffffffffffffffffffffffffffffffffffffffff160217905550611a8a611214565b5050505050505050505050565b60118054611aa490614563565b80601f0160208091040260200160405190810160405280929190818152602001828054611ad090614563565b8015611b1d5780601f10611af257610100808354040283529160200191611b1d565b820191906000526020600020905b815481529060010190602001808311611b0057829003601f168201915b505050505081565b6000600560008473ffffffffffffffffffffffffffffffffffffffff1673ffffffffffffffffffffffffffffffffffffffff16815260200190815260200160002060008373ffffffffffffffffffffffffffffffffffffffff1673ffffffffffffffffffffffffffffffffffffffff16815260200190815260200160002060009054906101000a900460ff16905092915050565b60165481565b611bc7611d8d565b73ffffffffffffffffffffffffffffffffffffffff16611be5611158565b73ffffffffffffffffffffffffffffffffffffffff1614611c3b576040517f08c379a0000000000000000000000000000000000000000000000000000000008152600401611c3290614046565b60405180910390fd5b600073ffffffffffffffffffffffffffffffffffffffff168173ffffffffffffffffffffffffffffffffffffffff161415611cab576040517f08c379a0000000000000000000000000000000000000000000000000000000008152600401611ca290613ea6565b60405180910390fd5b611cb48161221a565b50565b60007f01ffc9a7000000000000000000000000000000000000000000000000000000007bffffffffffffffffffffffffffffffffffffffffffffffffffffffff1916827bffffffffffffffffffffffffffffffffffffffffffffffffffffffff1916149050919050565b60008073ffffffffffffffffffffffffffffffffffffffff166002600084815260200190815260200160002060009054906101000a900473ffffffffffffffffffffffffffffffffffffffff1673ffffffffffffffffffffffffffffffffffffffff1614159050919050565b600033905090565b816004600083815260200190815260200160002060006101000a81548173ffffffffffffffffffffffffffffffffffffffff021916908373ffffffffffffffffffffffffffffffffffffffff160217905550808273ffffffffffffffffffffffffffffffffffffffff16611e0883610ece565b73ffffffffffffffffffffffffffffffffffffffff167f8c5be1e5ebec7d5bd14f71427d1e84f3dd0314c0f7b2291e5b200ac8c7c3b92560405160405180910390a45050565b6000611e5982611d21565b611e98576040517f08c379a0000000000000000000000000000000000000000000000000000000008152600401611e8f90613f46565b60405180910390fd5b6000611ea383610ece565b90508073ffffffffffffffffffffffffffffffffffffffff168473ffffffffffffffffffffffffffffffffffffffff161480611f1257508373ffffffffffffffffffffffffffffffffffffffff16611efa846107ec565b73ffffffffffffffffffffffffffffffffffffffff16145b80611f235750611f228185611b25565b5b91505092915050565b611f3582611d21565b611f74576040517f08c379a0000000000000000000000000000000000000000000000000000000008152600401611f6b90613fc6565b60405180910390fd5b80600660008481526020019081526020016000209080519060200190611f9b929190613167565b505050565b8273ffffffffffffffffffffffffffffffffffffffff16611fc082610ece565b73ffffffffffffffffffffffffffffffffffffffff1614612016576040517f08c379a000000000000000000000000000000000000000000000000000000000815260040161200d90614066565b60405180910390fd5b600073ffffffffffffffffffffffffffffffffffffffff168273ffffffffffffffffffffffffffffffffffffffff161415612086576040517f08c379a000000000000000000000000000000000000000000000000000000000815260040161207d90613f06565b60405180910390fd5b61209183838361247e565b61209c600082611d95565b6001600360008573ffffffffffffffffffffffffffffffffffffffff1673ffffffffffffffffffffffffffffffffffffffff16815260200190815260200160002060008282546120ec919061443d565b925050819055506001600360008473ffffffffffffffffffffffffffffffffffffffff1673ffffffffffffffffffffffffffffffffffffffff168152602001908152602001600020600082825461214391906141eb565b92505081905550816002600083815260200190815260200160002060006101000a81548173ffffffffffffffffffffffffffffffffffffffff021916908373ffffffffffffffffffffffffffffffffffffffff160217905550808273ffffffffffffffffffffffffffffffffffffffff168473ffffffffffffffffffffffffffffffffffffffff167fddf252ad1be2c89b69c2b068fc378daa952ba7f163c4a11628f55a4df523b3ef60405160405180910390a4505050565b612216828260405180602001604052806000815250612483565b5050565b6000600d60009054906101000a900473ffffffffffffffffffffffffffffffffffffffff16905081600d60006101000a81548173ffffffffffffffffffffffffffffffffffffffff021916908373ffffffffffffffffffffffffffffffffffffffff1602179055508173ffffffffffffffffffffffffffffffffffffffff168173ffffffffffffffffffffffffffffffffffffffff167f8be0079c531659141344cd1fd0a4f28419497f9722a3daafe3b4186f6b6457e060405160405180910390a35050565b6122e86131ed565b6122f06131ed565b612307858585846124de909392919063ffffffff16565b9150509392505050565b61232882846080015161258e90919063ffffffff16565b61233f81846080015161258e90919063ffffffff16565b505050565b600061235b8484846001634042994660e01b6125b3565b90509392505050565b61236f848484611fa0565b61237b8484848461281b565b6123ba576040517f08c379a00000000000000000000000000000000000000000000000000000000081526004016123b190613e86565b60405180910390fd5b50505050565b606060405180602001604052806000815250905090565b60606123e282611d21565b612421576040517f08c379a000000000000000000000000000000000000000000000000000000000815260040161241890614086565b60405180910390fd5b600061242b6123c0565b9050600081511161244b5760405180602001604052806000815250612476565b80612455846129b2565b604051602001612466929190613ce0565b6040516020818303038152906040525b915050919050565b505050565b61248d8383612b5f565b61249a600084848461281b565b6124d9576040517f08c379a00000000000000000000000000000000000000000000000000000000081526004016124d090613e86565b60405180910390fd5b505050565b6124e66131ed565b6124f68560800151610100612d2d565b508385600001818152505082856020019073ffffffffffffffffffffffffffffffffffffffff16908173ffffffffffffffffffffffffffffffffffffffff16815250508185604001907bffffffffffffffffffffffffffffffffffffffffffffffffffffffff191690817bffffffffffffffffffffffffffffffffffffffffffffffffffffffff191681525050849050949350505050565b61259b8260038351612d97565b6125ae8183612edc90919063ffffffff16565b505050565b600030600b546040516020016125ca929190613cb4565b604051602081830303815290604052805190602001209050600b5485606001818152505085600c600083815260200190815260200160002060006101000a81548173ffffffffffffffffffffffffffffffffffffffff021916908373ffffffffffffffffffffffffffffffffffffffff160217905550807fb5e6e01e79f91267dc17b4e6314d5d4d03593d2ceee0fbb452b750bd70ea5af960405160405180910390a2600082600080886000015189602001518a604001518b606001518a8d60800151600001516040516024016126a8989796959493929190613d6b565b604051602081830303815290604052907bffffffffffffffffffffffffffffffffffffffffffffffffffffffff19166020820180517bffffffffffffffffffffffffffffffffffffffffffffffffffffffff83818316178352505050509050600960009054906101000a900473ffffffffffffffffffffffffffffffffffffffff1673ffffffffffffffffffffffffffffffffffffffff16634000aea08887846040518463ffffffff1660e01b815260040161276693929190613df0565b602060405180830381600087803b15801561278057600080fd5b505af1158015612794573d6000803e3d6000fd5b505050506040513d601f19601f820116820180604052508101906127b89190613603565b6127f7576040517f08c379a00000000000000000000000000000000000000000000000000000000081526004016127ee90613ee6565b60405180910390fd5b6001600b600082825461280a91906141eb565b925050819055505095945050505050565b600061283c8473ffffffffffffffffffffffffffffffffffffffff16612efe565b156129a5578373ffffffffffffffffffffffffffffffffffffffff1663150b7a02612865611d8d565b8786866040518563ffffffff1660e01b81526004016128879493929190613d1f565b602060405180830381600087803b1580156128a157600080fd5b505af19250505080156128d257506040513d601f19601f820116820180604052508101906128cf91906136ba565b60015b612955573d8060008114612902576040519150601f19603f3d011682016040523d82523d6000602084013e612907565b606091505b5060008151141561294d576040517f08c379a000000000000000000000000000000000000000000000000000000000815260040161294490613e86565b60405180910390fd5b805181602001fd5b63150b7a0260e01b7bffffffffffffffffffffffffffffffffffffffffffffffffffffffff1916817bffffffffffffffffffffffffffffffffffffffffffffffffffffffff1916149150506129aa565b600190505b949350505050565b606060008214156129fa576040518060400160405280600181526020017f30000000000000000000000000000000000000000000000000000000000000008152509050612b5a565b600082905060005b60008214612a2c578080612a15906145f1565b915050600a82612a259190614241565b9150612a02565b60008167ffffffffffffffff811115612a6e577f4e487b7100000000000000000000000000000000000000000000000000000000600052604160045260246000fd5b6040519080825280601f01601f191660200182016040528015612aa05781602001600182028036833780820191505090505b5090505b60008514612b5357600182612ab9919061443d565b9150600a85612ac89190614668565b6030612ad491906141eb565b60f81b818381518110612b10577f4e487b7100000000000000000000000000000000000000000000000000000000600052603260045260246000fd5b60200101907effffffffffffffffffffffffffffffffffffffffffffffffffffffffffffff1916908160001a905350600a85612b4c9190614241565b9450612aa4565b8093505050505b919050565b600073ffffffffffffffffffffffffffffffffffffffff168273ffffffffffffffffffffffffffffffffffffffff161415612bcf576040517f08c379a0000000000000000000000000000000000000000000000000000000008152600401612bc690613fe6565b60405180910390fd5b612bd881611d21565b15612c18576040517f08c379a0000000000000000000000000000000000000000000000000000000008152600401612c0f90613ec6565b60405180910390fd5b612c246000838361247e565b6001600360008473ffffffffffffffffffffffffffffffffffffffff1673ffffffffffffffffffffffffffffffffffffffff1681526020019081526020016000206000828254612c7491906141eb565b92505081905550816002600083815260200190815260200160002060006101000a81548173ffffffffffffffffffffffffffffffffffffffff021916908373ffffffffffffffffffffffffffffffffffffffff160217905550808273ffffffffffffffffffffffffffffffffffffffff16600073ffffffffffffffffffffffffffffffffffffffff167fddf252ad1be2c89b69c2b068fc378daa952ba7f163c4a11628f55a4df523b3ef60405160405180910390a45050565b612d3561325a565b6000602083612d449190614668565b14612d7057602082612d569190614668565b6020612d62919061443d565b82612d6d91906141eb565b91505b81836020018181525050604051808452600081528281016020016040525082905092915050565b60178111612dc457612dbe8160058460ff16901b60ff161784612f1190919063ffffffff16565b50612ed7565b60ff8111612e0657612de9601860058460ff16901b1784612f1190919063ffffffff16565b50612e0081600185612f319092919063ffffffff16565b50612ed6565b61ffff8111612e4957612e2c601960058460ff16901b1784612f1190919063ffffffff16565b50612e4381600285612f319092919063ffffffff16565b50612ed5565b63ffffffff8111612e8e57612e71601a60058460ff16901b1784612f1190919063ffffffff16565b50612e8881600485612f319092919063ffffffff16565b50612ed4565b67ffffffffffffffff8111612ed357612eba601b60058460ff16901b1784612f1190919063ffffffff16565b50612ed181600885612f319092919063ffffffff16565b505b5b5b5b5b505050565b612ee461325a565b612ef683846000015151848551612f53565b905092915050565b600080823b905060008111915050919050565b612f1961325a565b612f298384600001515184613042565b905092915050565b612f3961325a565b612f4a848560000151518585613099565b90509392505050565b612f5b61325a565b8251821115612f6957600080fd5b84602001518285612f7a91906141eb565b1115612faf57612fae856002612f9f88602001518887612f9a91906141eb565b613127565b612fa991906143e3565b613143565b5b600080865180518760208301019350808887011115612fce5787860182525b60208701925050505b602084106130155780518252602082612ff091906141eb565b9150602081612fff91906141eb565b905060208461300e919061443d565b9350612fd7565b60006001856020036101000a03905080198251168184511681811785525050508692505050949350505050565b61304a61325a565b836020015183106130705761306f846002866020015161306a91906143e3565b613143565b5b835180516020858301018481538186141561308c576001820183525b5050508390509392505050565b6130a161325a565b846020015184836130b291906141eb565b11156130da576130d985600286856130ca91906141eb565b6130d491906143e3565b613143565b5b60006001836101006130ec91906142c5565b6130f6919061443d565b905085518386820101858319825116178152815185880111156131195784870182525b505085915050949350505050565b6000818311156131395782905061313d565b8190505b92915050565b6000826000015190506131568383612d2d565b506131618382612edc565b50505050565b82805461317390614563565b90600052602060002090601f01602090048101928261319557600085556131dc565b82601f106131ae57805160ff19168380011785556131dc565b828001600101855582156131dc579182015b828111156131db5782518255916020019190600101906131c0565b5b5090506131e99190613274565b5090565b6040518060a0016040528060008019168152602001600073ffffffffffffffffffffffffffffffffffffffff16815260200160007bffffffffffffffffffffffffffffffffffffffffffffffffffffffff191681526020016000815260200161325461325a565b81525090565b604051806040016040528060608152602001600081525090565b5b8082111561328d576000816000905550600101613275565b5090565b60006132a461329f84614146565b614121565b9050828152602081018484840111156132bc57600080fd5b6132c7848285614521565b509392505050565b60006132e26132dd84614177565b614121565b9050828152602081018484840111156132fa57600080fd5b613305848285614521565b509392505050565b60008135905061331c81614d14565b92915050565b60008151905061333181614d14565b92915050565b60008135905061334681614d2b565b92915050565b60008151905061335b81614d2b565b92915050565b60008135905061337081614d42565b92915050565b60008151905061338581614d42565b92915050565b60008135905061339a81614d59565b92915050565b6000815190506133af81614d59565b92915050565b600082601f8301126133c657600080fd5b81356133d6848260208601613291565b91505092915050565b600082601f8301126133f057600080fd5b81356134008482602086016132cf565b91505092915050565b60008135905061341881614d70565b92915050565b60008151905061342d81614d70565b92915050565b60006020828403121561344557600080fd5b60006134538482850161330d565b91505092915050565b60006020828403121561346e57600080fd5b600061347c84828501613322565b91505092915050565b6000806040838503121561349857600080fd5b60006134a68582860161330d565b92505060206134b78582860161330d565b9150509250929050565b6000806000606084860312156134d657600080fd5b60006134e48682870161330d565b93505060206134f58682870161330d565b925050604061350686828701613409565b9150509250925092565b6000806000806080858703121561352657600080fd5b60006135348782880161330d565b94505060206135458782880161330d565b935050604061355687828801613409565b925050606085013567ffffffffffffffff81111561357357600080fd5b61357f878288016133b5565b91505092959194509250565b6000806040838503121561359e57600080fd5b60006135ac8582860161330d565b92505060206135bd85828601613337565b9150509250929050565b600080604083850312156135da57600080fd5b60006135e88582860161330d565b92505060206135f985828601613409565b9150509250929050565b60006020828403121561361557600080fd5b60006136238482850161334c565b91505092915050565b60006020828403121561363e57600080fd5b600061364c84828501613376565b91505092915050565b6000806040838503121561366857600080fd5b600061367685828601613361565b925050602061368785828601613409565b9150509250929050565b6000602082840312156136a357600080fd5b60006136b18482850161338b565b91505092915050565b6000602082840312156136cc57600080fd5b60006136da848285016133a0565b91505092915050565b6000806000806000806000806000806101408b8d03121561370357600080fd5b60008b013567ffffffffffffffff81111561371d57600080fd5b6137298d828e016133df565b9a505060208b013567ffffffffffffffff81111561374657600080fd5b6137528d828e016133df565b99505060408b013567ffffffffffffffff81111561376f57600080fd5b61377b8d828e016133df565b98505060608b013567ffffffffffffffff81111561379857600080fd5b6137a48d828e016133df565b97505060808b013567ffffffffffffffff8111156137c157600080fd5b6137cd8d828e016133df565b96505060a06137de8d828e01613409565b95505060c06137ef8d828e01613409565b94505060e06138008d828e01613409565b9350506101006138128d828e01613409565b9250506101206138248d828e0161330d565b9150509295989b9194979a5092959850565b60006020828403121561384857600080fd5b600061385684828501613409565b91505092915050565b60006020828403121561387157600080fd5b600061387f8482850161341e565b91505092915050565b6000806040838503121561389b57600080fd5b60006138a985828601613409565b925050602083013567ffffffffffffffff8111156138c657600080fd5b6138d2858286016133df565b9150509250929050565b6138e581614471565b82525050565b6138f481614483565b82525050565b6139038161448f565b82525050565b61391281614499565b82525050565b6000613923826141a8565b61392d81856141be565b935061393d818560208601614530565b61394681614755565b840191505092915050565b61396261395d826144fd565b61463a565b82525050565b6000613973826141b3565b61397d81856141cf565b935061398d818560208601614530565b61399681614755565b840191505092915050565b60006139ac826141b3565b6139b681856141e0565b93506139c6818560208601614530565b80840191505092915050565b60006139df6032836141cf565b91506139ea82614780565b604082019050919050565b6000613a026026836141cf565b9150613a0d826147cf565b604082019050919050565b6000613a25601c836141cf565b9150613a308261481e565b602082019050919050565b6000613a486023836141cf565b9150613a5382614847565b604082019050919050565b6000613a6b6024836141cf565b9150613a7682614896565b604082019050919050565b6000613a8e6019836141cf565b9150613a99826148e5565b602082019050919050565b6000613ab1602c836141cf565b9150613abc8261490e565b604082019050919050565b6000613ad46038836141cf565b9150613adf8261495d565b604082019050919050565b6000613af7602a836141cf565b9150613b02826149ac565b604082019050919050565b6000613b1a6029836141cf565b9150613b25826149fb565b604082019050919050565b6000613b3d602e836141cf565b9150613b4882614a4a565b604082019050919050565b6000613b606020836141cf565b9150613b6b82614a99565b602082019050919050565b6000613b836031836141cf565b9150613b8e82614ac2565b604082019050919050565b6000613ba6602c836141cf565b9150613bb182614b11565b604082019050919050565b6000613bc96020836141cf565b9150613bd482614b60565b602082019050919050565b6000613bec6029836141cf565b9150613bf782614b89565b604082019050919050565b6000613c0f602f836141cf565b9150613c1a82614bd8565b604082019050919050565b6000613c326021836141cf565b9150613c3d82614c27565b604082019050919050565b6000613c556031836141cf565b9150613c6082614c76565b604082019050919050565b6000613c786028836141cf565b9150613c8382614cc5565b604082019050919050565b613c97816144f3565b82525050565b613cae613ca9826144f3565b61465e565b82525050565b6000613cc08285613951565b601482019150613cd08284613c9d565b6020820191508190509392505050565b6000613cec82856139a1565b9150613cf882846139a1565b91508190509392505050565b6000602082019050613d1960008301846138dc565b92915050565b6000608082019050613d3460008301876138dc565b613d4160208301866138dc565b613d4e6040830185613c8e565b8181036060830152613d608184613918565b905095945050505050565b600061010082019050613d81600083018b6138dc565b613d8e602083018a613c8e565b613d9b60408301896138fa565b613da860608301886138dc565b613db56080830187613909565b613dc260a0830186613c8e565b613dcf60c0830185613c8e565b81810360e0830152613de18184613918565b90509998505050505050505050565b6000606082019050613e0560008301866138dc565b613e126020830185613c8e565b8181036040830152613e248184613918565b9050949350505050565b6000602082019050613e4360008301846138eb565b92915050565b6000602082019050613e5e60008301846138fa565b92915050565b60006020820190508181036000830152613e7e8184613968565b905092915050565b60006020820190508181036000830152613e9f816139d2565b9050919050565b60006020820190508181036000830152613ebf816139f5565b9050919050565b60006020820190508181036000830152613edf81613a18565b9050919050565b60006020820190508181036000830152613eff81613a3b565b9050919050565b60006020820190508181036000830152613f1f81613a5e565b9050919050565b60006020820190508181036000830152613f3f81613a81565b9050919050565b60006020820190508181036000830152613f5f81613aa4565b9050919050565b60006020820190508181036000830152613f7f81613ac7565b9050919050565b60006020820190508181036000830152613f9f81613aea565b9050919050565b60006020820190508181036000830152613fbf81613b0d565b9050919050565b60006020820190508181036000830152613fdf81613b30565b9050919050565b60006020820190508181036000830152613fff81613b53565b9050919050565b6000602082019050818103600083015261401f81613b76565b9050919050565b6000602082019050818103600083015261403f81613b99565b9050919050565b6000602082019050818103600083015261405f81613bbc565b9050919050565b6000602082019050818103600083015261407f81613bdf565b9050919050565b6000602082019050818103600083015261409f81613c02565b9050919050565b600060208201905081810360008301526140bf81613c25565b9050919050565b600060208201905081810360008301526140df81613c48565b9050919050565b600060208201905081810360008301526140ff81613c6b565b9050919050565b600060208201905061411b6000830184613c8e565b92915050565b600061412b61413c565b90506141378282614595565b919050565b6000604051905090565b600067ffffffffffffffff82111561416157614160614726565b5b61416a82614755565b9050602081019050919050565b600067ffffffffffffffff82111561419257614191614726565b5b61419b82614755565b9050602081019050919050565b600081519050919050565b600081519050919050565b600082825260208201905092915050565b600082825260208201905092915050565b600081905092915050565b60006141f6826144f3565b9150614201836144f3565b9250827fffffffffffffffffffffffffffffffffffffffffffffffffffffffffffffffff0382111561423657614235614699565b5b828201905092915050565b600061424c826144f3565b9150614257836144f3565b925082614267576142666146c8565b5b828204905092915050565b6000808291508390505b60018511156142bc5780860481111561429857614297614699565b5b60018516156142a75780820291505b80810290506142b585614773565b945061427c565b94509492505050565b60006142d0826144f3565b91506142db836144f3565b92506143087fffffffffffffffffffffffffffffffffffffffffffffffffffffffffffffffff8484614310565b905092915050565b60008261432057600190506143dc565b8161432e57600090506143dc565b8160018114614344576002811461434e5761437d565b60019150506143dc565b60ff8411156143605761435f614699565b5b8360020a91508482111561437757614376614699565b5b506143dc565b5060208310610133831016604e8410600b84101617156143b25782820a9050838111156143ad576143ac614699565b5b6143dc565b6143bf8484846001614272565b925090508184048111156143d6576143d5614699565b5b81810290505b9392505050565b60006143ee826144f3565b91506143f9836144f3565b9250817fffffffffffffffffffffffffffffffffffffffffffffffffffffffffffffffff048311821515161561443257614431614699565b5b828202905092915050565b6000614448826144f3565b9150614453836144f3565b92508282101561446657614465614699565b5b828203905092915050565b600061447c826144d3565b9050919050565b60008115159050919050565b6000819050919050565b60007fffffffff0000000000000000000000000000000000000000000000000000000082169050919050565b600061ffff82169050919050565b600073ffffffffffffffffffffffffffffffffffffffff82169050919050565b6000819050919050565b60006145088261450f565b9050919050565b600061451a826144d3565b9050919050565b82818337600083830152505050565b60005b8381101561454e578082015181840152602081019050614533565b8381111561455d576000848401525b50505050565b6000600282049050600182168061457b57607f821691505b6020821081141561458f5761458e6146f7565b5b50919050565b61459e82614755565b810181811067ffffffffffffffff821117156145bd576145bc614726565b5b80604052505050565b60006145d1826144c5565b915061ffff8214156145e6576145e5614699565b5b600182019050919050565b60006145fc826144f3565b91507fffffffffffffffffffffffffffffffffffffffffffffffffffffffffffffffff82141561462f5761462e614699565b5b600182019050919050565b60006146458261464c565b9050919050565b600061465782614766565b9050919050565b6000819050919050565b6000614673826144f3565b915061467e836144f3565b92508261468e5761468d6146c8565b5b828206905092915050565b7f4e487b7100000000000000000000000000000000000000000000000000000000600052601160045260246000fd5b7f4e487b7100000000000000000000000000000000000000000000000000000000600052601260045260246000fd5b7f4e487b7100000000000000000000000000000000000000000000000000000000600052602260045260246000fd5b7f4e487b7100000000000000000000000000000000000000000000000000000000600052604160045260246000fd5b6000601f19601f8301169050919050565b60008160601b9050919050565b60008160011c9050919050565b7f4552433732313a207472616e7366657220746f206e6f6e20455243373231526560008201527f63656976657220696d706c656d656e7465720000000000000000000000000000602082015250565b7f4f776e61626c653a206e6577206f776e657220697320746865207a65726f206160008201527f6464726573730000000000000000000000000000000000000000000000000000602082015250565b7f4552433732313a20746f6b656e20616c7265616479206d696e74656400000000600082015250565b7f756e61626c6520746f207472616e73666572416e6443616c6c20746f206f726160008201527f636c650000000000000000000000000000000000000000000000000000000000602082015250565b7f4552433732313a207472616e7366657220746f20746865207a65726f2061646460008201527f7265737300000000000000000000000000000000000000000000000000000000602082015250565b7f4552433732313a20617070726f766520746f2063616c6c657200000000000000600082015250565b7f4552433732313a206f70657261746f7220717565727920666f72206e6f6e657860008201527f697374656e7420746f6b656e0000000000000000000000000000000000000000602082015250565b7f4552433732313a20617070726f76652063616c6c6572206973206e6f74206f7760008201527f6e6572206e6f7220617070726f76656420666f7220616c6c0000000000000000602082015250565b7f4552433732313a2062616c616e636520717565727920666f7220746865207a6560008201527f726f206164647265737300000000000000000000000000000000000000000000602082015250565b7f4552433732313a206f776e657220717565727920666f72206e6f6e657869737460008201527f656e7420746f6b656e0000000000000000000000000000000000000000000000602082015250565b7f45524337323155524953746f726167653a2055524920736574206f66206e6f6e60008201527f6578697374656e7420746f6b656e000000000000000000000000000000000000602082015250565b7f4552433732313a206d696e7420746f20746865207a65726f2061646472657373600082015250565b7f45524337323155524953746f726167653a2055524920717565727920666f722060008201527f6e6f6e6578697374656e7420746f6b656e000000000000000000000000000000602082015250565b7f4552433732313a20617070726f76656420717565727920666f72206e6f6e657860008201527f697374656e7420746f6b656e0000000000000000000000000000000000000000602082015250565b7f4f776e61626c653a2063616c6c6572206973206e6f7420746865206f776e6572600082015250565b7f4552433732313a207472616e73666572206f6620746f6b656e2074686174206960008201527f73206e6f74206f776e0000000000000000000000000000000000000000000000602082015250565b7f4552433732314d657461646174613a2055524920717565727920666f72206e6f60008201527f6e6578697374656e7420746f6b656e0000000000000000000000000000000000602082015250565b7f4552433732313a20617070726f76616c20746f2063757272656e74206f776e6560008201527f7200000000000000000000000000000000000000000000000000000000000000602082015250565b7f4552433732313a207472616e736665722063616c6c6572206973206e6f74206f60008201527f776e6572206e6f7220617070726f766564000000000000000000000000000000602082015250565b7f536f75726365206d75737420626520746865206f7261636c65206f662074686560008201527f2072657175657374000000000000000000000000000000000000000000000000602082015250565b614d1d81614471565b8114614d2857600080fd5b50565b614d3481614483565b8114614d3f57600080fd5b50565b614d4b8161448f565b8114614d5657600080fd5b50565b614d6281614499565b8114614d6d57600080fd5b50565b614d79816144f3565b8114614d8457600080fd5b5056fea2646970667358221220fd6fe0de792d3933aff45bc8df8d9b00772e3b62eae36a87a994dde772e15f6264736f6c63430008040033",
  "linkReferences": {},
  "deployedLinkReferences": {}
}