{
  "_format": "hh-sol-artifact-1",
  "contractName": "BondNFTManager",
  "sourceName": "contracts/BondNFTManager.sol",
  "abi": [
    {
      "anonymous": false,
      "inputs": [
        {
          "indexed": false,
          "internalType": "address",
          "name": "artist",
          "type": "address"
        },
        {
          "indexed": false,
          "internalType": "address",
          "name": "assetPool",
          "type": "address"
        },
        {
          "indexed": false,
          "internalType": "uint256",
          "name": "bondValue",
          "type": "uint256"
        }
      ],
      "name": "AssetPoolCreated",
      "type": "event"
    },
    {
      "anonymous": false,
      "inputs": [
        {
          "indexed": false,
          "internalType": "address",
          "name": "issuerAddress",
          "type": "address"
        },
        {
          "indexed": false,
          "internalType": "address",
          "name": "bondNftAddress",
          "type": "address"
        },
        {
          "indexed": false,
          "internalType": "string",
          "name": "name",
          "type": "string"
        },
        {
          "indexed": false,
          "internalType": "string",
          "name": "symbol",
          "type": "string"
        }
      ],
      "name": "BondNFTCreated",
      "type": "event"
    },
    {
      "anonymous": false,
      "inputs": [
        {
          "indexed": true,
          "internalType": "address",
          "name": "bondNftAddress",
          "type": "address"
        },
        {
          "indexed": false,
          "internalType": "uint256",
          "name": "numberOfBonds",
          "type": "uint256"
        }
      ],
      "name": "BondNFTMinted",
      "type": "event"
    },
    {
      "anonymous": false,
      "inputs": [
        {
          "indexed": true,
          "internalType": "address",
          "name": "previousOwner",
          "type": "address"
        },
        {
          "indexed": true,
          "internalType": "address",
          "name": "newOwner",
          "type": "address"
        }
      ],
      "name": "OwnershipTransferred",
      "type": "event"
    },
    {
      "inputs": [
        {
          "internalType": "uint256",
          "name": "",
          "type": "uint256"
        }
      ],
      "name": "allAssetPools",
      "outputs": [
        {
          "internalType": "address",
          "name": "",
          "type": "address"
        }
      ],
      "stateMutability": "view",
      "type": "function"
    },
    {
      "inputs": [],
      "name": "allAssetPoolsLength",
      "outputs": [
        {
          "internalType": "uint256",
          "name": "",
          "type": "uint256"
        }
      ],
      "stateMutability": "view",
      "type": "function"
    },
    {
      "inputs": [
        {
          "internalType": "uint256",
          "name": "",
          "type": "uint256"
        }
      ],
      "name": "allBondNfts",
      "outputs": [
        {
          "internalType": "address",
          "name": "",
          "type": "address"
        }
      ],
      "stateMutability": "view",
      "type": "function"
    },
    {
      "inputs": [],
      "name": "allNftLength",
      "outputs": [
        {
          "internalType": "uint256",
          "name": "",
          "type": "uint256"
        }
      ],
      "stateMutability": "view",
      "type": "function"
    },
    {
      "inputs": [
        {
          "internalType": "address",
          "name": "_creatorAddress",
          "type": "address"
        }
      ],
      "name": "assetPoolsLengthForUser",
      "outputs": [
        {
          "internalType": "uint256",
          "name": "",
          "type": "uint256"
        }
      ],
      "stateMutability": "view",
      "type": "function"
    },
    {
      "inputs": [
        {
          "internalType": "uint256",
          "name": "_bondValue",
          "type": "uint256"
        }
      ],
      "name": "createAssetPool",
      "outputs": [
        {
          "internalType": "address",
          "name": "assetPoolAddress",
          "type": "address"
        }
      ],
      "stateMutability": "nonpayable",
      "type": "function"
    },
    {
      "inputs": [
        {
          "internalType": "address",
          "name": "_ratingEngine",
          "type": "address"
        },
        {
          "internalType": "address",
          "name": "_bondNftGenerator",
          "type": "address"
        },
        {
          "internalType": "address",
          "name": "_chainlinkSpotifyListenersAddress",
          "type": "address"
        },
        {
          "internalType": "address",
          "name": "_chainlinkYoutubeSubscribersAddress",
          "type": "address"
        },
        {
          "internalType": "address",
          "name": "_chainlinkMetadataRequestAddress",
          "type": "address"
        }
      ],
      "name": "initialize",
      "outputs": [],
      "stateMutability": "nonpayable",
      "type": "function"
    },
    {
      "inputs": [
        {
          "internalType": "string",
          "name": "_artistName",
          "type": "string"
        },
        {
          "internalType": "string",
          "name": "_artistId",
          "type": "string"
        },
        {
          "internalType": "string",
          "name": "_channelId",
          "type": "string"
        },
        {
          "internalType": "uint256",
          "name": "_fundingAmount",
          "type": "uint256"
        },
        {
          "internalType": "uint256",
          "name": "_numberOfYears",
          "type": "uint256"
        },
        {
          "internalType": "uint256",
          "name": "_numberOfBonds",
          "type": "uint256"
        },
        {
          "internalType": "uint256",
          "name": "_facevalue",
          "type": "uint256"
        },
        {
          "internalType": "string",
          "name": "_bondName",
          "type": "string"
        },
        {
          "internalType": "string",
          "name": "_bondSymbol",
          "type": "string"
        },
        {
          "components": [
            {
              "internalType": "uint256",
              "name": "spotifyListeners",
              "type": "uint256"
            },
            {
              "internalType": "uint256",
              "name": "youtubeSubscribers",
              "type": "uint256"
            },
            {
              "internalType": "address",
              "name": "assetPoolAddress",
              "type": "address"
            }
          ],
          "internalType": "struct BondNFTManager.ListenersDetails",
          "name": "listenersDetails",
          "type": "tuple"
        }
      ],
      "name": "issueBond",
      "outputs": [
        {
          "internalType": "address",
          "name": "nftAddress",
          "type": "address"
        }
      ],
      "stateMutability": "nonpayable",
      "type": "function"
    },
    {
      "inputs": [
        {
          "internalType": "address",
          "name": "_nftAddress",
          "type": "address"
        }
      ],
      "name": "mintNFTBond",
      "outputs": [],
      "stateMutability": "nonpayable",
      "type": "function"
    },
    {
      "inputs": [
        {
          "internalType": "address",
          "name": "_creatorAddress",
          "type": "address"
        }
      ],
      "name": "nftBondLengthForUser",
      "outputs": [
        {
          "internalType": "uint256",
          "name": "",
          "type": "uint256"
        }
      ],
      "stateMutability": "view",
      "type": "function"
    },
    {
      "inputs": [],
      "name": "owner",
      "outputs": [
        {
          "internalType": "address",
          "name": "",
          "type": "address"
        }
      ],
      "stateMutability": "view",
      "type": "function"
    },
    {
      "inputs": [],
      "name": "renounceOwnership",
      "outputs": [],
      "stateMutability": "nonpayable",
      "type": "function"
    },
    {
      "inputs": [
        {
          "internalType": "address",
          "name": "newOwner",
          "type": "address"
        }
      ],
      "name": "transferOwnership",
      "outputs": [],
      "stateMutability": "nonpayable",
      "type": "function"
    },
    {
      "inputs": [
        {
          "internalType": "address",
          "name": "",
          "type": "address"
        },
        {
          "internalType": "uint256",
          "name": "",
          "type": "uint256"
        }
      ],
      "name": "userAssetPools",
      "outputs": [
        {
          "internalType": "address",
          "name": "assetPoolAddress",
          "type": "address"
        },
        {
          "internalType": "address",
          "name": "bondNftAddress",
          "type": "address"
        },
        {
          "internalType": "uint256",
          "name": "bondvalue",
          "type": "uint256"
        }
      ],
      "stateMutability": "view",
      "type": "function"
    },
    {
      "inputs": [
        {
          "internalType": "address",
          "name": "",
          "type": "address"
        },
        {
          "internalType": "uint256",
          "name": "",
          "type": "uint256"
        }
      ],
      "name": "userBondConfigs",
      "outputs": [
        {
          "internalType": "string",
          "name": "artistName",
          "type": "string"
        },
        {
          "internalType": "string",
          "name": "artistId",
          "type": "string"
        },
        {
          "internalType": "string",
          "name": "channelId",
          "type": "string"
        },
        {
          "internalType": "uint256",
          "name": "fundingAmount",
          "type": "uint256"
        },
        {
          "internalType": "uint256",
          "name": "numberOfYears",
          "type": "uint256"
        },
        {
          "internalType": "uint256",
          "name": "numberOfBonds",
          "type": "uint256"
        },
        {
          "internalType": "address",
          "name": "issuerAddress",
          "type": "address"
        },
        {
          "internalType": "uint256",
          "name": "faceValue",
          "type": "uint256"
        },
        {
          "internalType": "uint256",
          "name": "listeners",
          "type": "uint256"
        },
        {
          "internalType": "address",
          "name": "nftAddress",
          "type": "address"
        }
      ],
      "stateMutability": "view",
      "type": "function"
    }
  ],
  "bytecode": "0x60806040523480156200001157600080fd5b5062000032620000266200003860201b60201c565b6200004060201b60201c565b62000104565b600033905090565b60008060009054906101000a900473ffffffffffffffffffffffffffffffffffffffff169050816000806101000a81548173ffffffffffffffffffffffffffffffffffffffff021916908373ffffffffffffffffffffffffffffffffffffffff1602179055508173ffffffffffffffffffffffffffffffffffffffff168173ffffffffffffffffffffffffffffffffffffffff167f8be0079c531659141344cd1fd0a4f28419497f9722a3daafe3b4186f6b6457e060405160405180910390a35050565b61371a80620001146000396000f3fe60806040523480156200001157600080fd5b50600436106200010c5760003560e01c806362b47ff711620000a55780638da5cb5b116200006f5780638da5cb5b146200031a5780639a79ac2c146200033c578063f2fde38b146200035c578063fedf9871146200037c576200010c565b806362b47ff7146200026c57806366a0564e14620002a2578063715018a614620002d8578063745d2d2814620002e4576200010c565b80634235a98d11620000e75780634235a98d1462000189578063503b85b714620001bf57806357181a0314620001fe5780635d3e56151462000236576200010c565b80631459457a14620001115780631515a70e14620001315780631839cfa91462000167575b600080fd5b6200012f600480360381019062000129919062001aa6565b6200039e565b005b6200014f600480360381019062000149919062001b69565b6200056d565b6040516200015e919062001e2d565b60405180910390f35b6200017162000a9f565b6040516200018091906200218c565b60405180910390f35b620001a76004803603810190620001a1919062001cd6565b62000aac565b604051620001b6919062001e2d565b60405180910390f35b620001dd6004803603810190620001d7919062001b28565b62000d87565b604051620001f59a9998979695949392919062001f7a565b60405180910390f35b6200021c600480360381019062000216919062001b28565b62000fe9565b6040516200022d9392919062001ea5565b60405180910390f35b6200025460048036038101906200024e919062001a4e565b62001071565b6040516200026391906200218c565b60405180910390f35b6200028a600480360381019062000284919062001a4e565b620010bd565b6040516200029991906200218c565b60405180910390f35b620002c06004803603810190620002ba919062001cd6565b62001109565b604051620002cf919062001e2d565b60405180910390f35b620002e262001149565b005b620003026004803603810190620002fc919062001cd6565b620011da565b60405162000311919062001e2d565b60405180910390f35b620003246200121a565b60405162000333919062001e2d565b60405180910390f35b6200035a600480360381019062000354919062001a4e565b62001243565b005b6200037a600480360381019062000374919062001a4e565b6200138c565b005b6200038662001490565b6040516200039591906200218c565b60405180910390f35b620003a86200149d565b73ffffffffffffffffffffffffffffffffffffffff16620003c86200121a565b73ffffffffffffffffffffffffffffffffffffffff161462000421576040517f08c379a000000000000000000000000000000000000000000000000000000000815260040162000418906200216a565b60405180910390fd5b84600160006101000a81548173ffffffffffffffffffffffffffffffffffffffff021916908373ffffffffffffffffffffffffffffffffffffffff16021790555083600260006101000a81548173ffffffffffffffffffffffffffffffffffffffff021916908373ffffffffffffffffffffffffffffffffffffffff16021790555082600360006101000a81548173ffffffffffffffffffffffffffffffffffffffff021916908373ffffffffffffffffffffffffffffffffffffffff16021790555081600560006101000a81548173ffffffffffffffffffffffffffffffffffffffff021916908373ffffffffffffffffffffffffffffffffffffffff16021790555080600460006101000a81548173ffffffffffffffffffffffffffffffffffffffff021916908373ffffffffffffffffffffffffffffffffffffffff1602179055505050505050565b6000600260009054906101000a900473ffffffffffffffffffffffffffffffffffffffff1673ffffffffffffffffffffffffffffffffffffffff16638f7386a08585600360009054906101000a900473ffffffffffffffffffffffffffffffffffffffff16600560009054906101000a900473ffffffffffffffffffffffffffffffffffffffff16600460009054906101000a900473ffffffffffffffffffffffffffffffffffffffff166040518663ffffffff1660e01b81526004016200063a95949392919062001f0f565b602060405180830381600087803b1580156200065557600080fd5b505af11580156200066a573d6000803e3d6000fd5b505050506040513d601f19601f8201168201806040525081019062000690919062001a7a565b905060008190508073ffffffffffffffffffffffffffffffffffffffff1663a4c180cc8d8d8d8d8d8d8d8b600001518c602001518d604001516040518b63ffffffff1660e01b8152600401620006f09a999897969594939291906200203f565b600060405180830381600087803b1580156200070b57600080fd5b505af115801562000720573d6000803e3d6000fd5b5050505060006040518061014001604052808e81526020018d81526020018c81526020018b81526020018a81526020018981526020013373ffffffffffffffffffffffffffffffffffffffff168152602001888152602001600081526020018473ffffffffffffffffffffffffffffffffffffffff168152509050600660003373ffffffffffffffffffffffffffffffffffffffff1673ffffffffffffffffffffffffffffffffffffffff1681526020019081526020016000208190806001815401808255809150506001900390600052602060002090600a02016000909190919091506000820151816000019080519060200190620008229291906200180c565b506020820151816001019080519060200190620008419291906200180c565b506040820151816002019080519060200190620008609291906200180c565b50606082015181600301556080820151816004015560a0820151816005015560c08201518160060160006101000a81548173ffffffffffffffffffffffffffffffffffffffff021916908373ffffffffffffffffffffffffffffffffffffffff16021790555060e0820151816007015561010082015181600801556101208201518160090160006101000a81548173ffffffffffffffffffffffffffffffffffffffff021916908373ffffffffffffffffffffffffffffffffffffffff16021790555050506008839080600181540180825580915050600190039060005260206000200160009091909190916101000a81548173ffffffffffffffffffffffffffffffffffffffff021916908373ffffffffffffffffffffffffffffffffffffffff16021790555060006200099a338660400151620014a5565b905083816020019073ffffffffffffffffffffffffffffffffffffffff16908173ffffffffffffffffffffffffffffffffffffffff16815250506000856040015190508073ffffffffffffffffffffffffffffffffffffffff16635fd94a378c876040518363ffffffff1660e01b815260040162000a1a929190620021a9565b600060405180830381600087803b15801562000a3557600080fd5b505af115801562000a4a573d6000803e3d6000fd5b505050507ff63f15bf2eae9805bd14ff71c78cba83e6986d8afd1ddc03a2e0863e360c6faf33868a8a60405162000a85949392919062001e4a565b60405180910390a1505050509a9950505050505050505050565b6000600880549050905090565b600080821162000af3576040517f08c379a000000000000000000000000000000000000000000000000000000000815260040162000aea9062002148565b60405180910390fd5b600060405162000b03906200189d565b604051809103906000f08015801562000b20573d6000803e3d6000fd5b5090508091508073ffffffffffffffffffffffffffffffffffffffff1663cd6dc68733856040518363ffffffff1660e01b815260040162000b6392919062001ee2565b600060405180830381600087803b15801562000b7e57600080fd5b505af115801562000b93573d6000803e3d6000fd5b50505050600760003373ffffffffffffffffffffffffffffffffffffffff1673ffffffffffffffffffffffffffffffffffffffff16815260200190815260200160002060405180606001604052808473ffffffffffffffffffffffffffffffffffffffff168152602001600073ffffffffffffffffffffffffffffffffffffffff16815260200185815250908060018154018082558091505060019003906000526020600020906003020160009091909190915060008201518160000160006101000a81548173ffffffffffffffffffffffffffffffffffffffff021916908373ffffffffffffffffffffffffffffffffffffffff16021790555060208201518160010160006101000a81548173ffffffffffffffffffffffffffffffffffffffff021916908373ffffffffffffffffffffffffffffffffffffffff1602179055506040820151816002015550506009829080600181540180825580915050600190039060005260206000200160009091909190916101000a81548173ffffffffffffffffffffffffffffffffffffffff021916908373ffffffffffffffffffffffffffffffffffffffff1602179055507f82bc170609b0a506f3f9ac2cf64600511887855a75436276915585a1b04e3c3333838560405162000d799392919062001ea5565b60405180910390a150919050565b6006602052816000526040600020818154811062000da457600080fd5b90600052602060002090600a02016000915091505080600001805462000dca90620022e4565b80601f016020809104026020016040519081016040528092919081815260200182805462000df890620022e4565b801562000e495780601f1062000e1d5761010080835404028352916020019162000e49565b820191906000526020600020905b81548152906001019060200180831162000e2b57829003601f168201915b50505050509080600101805462000e6090620022e4565b80601f016020809104026020016040519081016040528092919081815260200182805462000e8e90620022e4565b801562000edf5780601f1062000eb35761010080835404028352916020019162000edf565b820191906000526020600020905b81548152906001019060200180831162000ec157829003601f168201915b50505050509080600201805462000ef690620022e4565b80601f016020809104026020016040519081016040528092919081815260200182805462000f2490620022e4565b801562000f755780601f1062000f495761010080835404028352916020019162000f75565b820191906000526020600020905b81548152906001019060200180831162000f5757829003601f168201915b5050505050908060030154908060040154908060050154908060060160009054906101000a900473ffffffffffffffffffffffffffffffffffffffff16908060070154908060080154908060090160009054906101000a900473ffffffffffffffffffffffffffffffffffffffff1690508a565b600760205281600052604060002081815481106200100657600080fd5b9060005260206000209060030201600091509150508060000160009054906101000a900473ffffffffffffffffffffffffffffffffffffffff16908060010160009054906101000a900473ffffffffffffffffffffffffffffffffffffffff16908060020154905083565b6000600660008373ffffffffffffffffffffffffffffffffffffffff1673ffffffffffffffffffffffffffffffffffffffff168152602001908152602001600020805490509050919050565b6000600760008373ffffffffffffffffffffffffffffffffffffffff1673ffffffffffffffffffffffffffffffffffffffff168152602001908152602001600020805490509050919050565b600981815481106200111a57600080fd5b906000526020600020016000915054906101000a900473ffffffffffffffffffffffffffffffffffffffff1681565b620011536200149d565b73ffffffffffffffffffffffffffffffffffffffff16620011736200121a565b73ffffffffffffffffffffffffffffffffffffffff1614620011cc576040517f08c379a0000000000000000000000000000000000000000000000000000000008152600401620011c3906200216a565b60405180910390fd5b620011d8600062001748565b565b60088181548110620011eb57600080fd5b906000526020600020016000915054906101000a900473ffffffffffffffffffffffffffffffffffffffff1681565b60008060009054906101000a900473ffffffffffffffffffffffffffffffffffffffff16905090565b60008190508073ffffffffffffffffffffffffffffffffffffffff166386896500336040518263ffffffff1660e01b815260040162001283919062001e2d565b600060405180830381600087803b1580156200129e57600080fd5b505af1158015620012b3573d6000803e3d6000fd5b505050508173ffffffffffffffffffffffffffffffffffffffff167f8a8c809f09c896246d86b37de1cc3bd24a481a24063be7ed28ee4fd21fa255cd8273ffffffffffffffffffffffffffffffffffffffff166318160ddd6040518163ffffffff1660e01b815260040160206040518083038186803b1580156200133657600080fd5b505afa1580156200134b573d6000803e3d6000fd5b505050506040513d601f19601f8201168201806040525081019062001371919062001d02565b6040516200138091906200218c565b60405180910390a25050565b620013966200149d565b73ffffffffffffffffffffffffffffffffffffffff16620013b66200121a565b73ffffffffffffffffffffffffffffffffffffffff16146200140f576040517f08c379a000000000000000000000000000000000000000000000000000000000815260040162001406906200216a565b60405180910390fd5b600073ffffffffffffffffffffffffffffffffffffffff168173ffffffffffffffffffffffffffffffffffffffff16141562001482576040517f08c379a0000000000000000000000000000000000000000000000000000000008152600401620014799062002126565b60405180910390fd5b6200148d8162001748565b50565b6000600980549050905090565b600033905090565b620014af620018ab565b6000600760008573ffffffffffffffffffffffffffffffffffffffff1673ffffffffffffffffffffffffffffffffffffffff168152602001908152602001600020805480602002602001604051908101604052809291908181526020016000905b82821015620015fa57838290600052602060002090600302016040518060600160405290816000820160009054906101000a900473ffffffffffffffffffffffffffffffffffffffff1673ffffffffffffffffffffffffffffffffffffffff1673ffffffffffffffffffffffffffffffffffffffff1681526020016001820160009054906101000a900473ffffffffffffffffffffffffffffffffffffffff1673ffffffffffffffffffffffffffffffffffffffff1673ffffffffffffffffffffffffffffffffffffffff1681526020016002820154815250508152602001906001019062001510565b50505050905060005b81518163ffffffff161015620016fb578373ffffffffffffffffffffffffffffffffffffffff16828263ffffffff16815181106200166a577f4e487b7100000000000000000000000000000000000000000000000000000000600052603260045260246000fd5b60200260200101516000015173ffffffffffffffffffffffffffffffffffffffff161415620016e557818163ffffffff1681518110620016d3577f4e487b7100000000000000000000000000000000000000000000000000000000600052603260045260246000fd5b60200260200101519250505062001742565b8080620016f29062002350565b91505062001603565b50600062001740576040517f08c379a0000000000000000000000000000000000000000000000000000000008152600401620017379062002104565b60405180910390fd5b505b92915050565b60008060009054906101000a900473ffffffffffffffffffffffffffffffffffffffff169050816000806101000a81548173ffffffffffffffffffffffffffffffffffffffff021916908373ffffffffffffffffffffffffffffffffffffffff1602179055508173ffffffffffffffffffffffffffffffffffffffff168173ffffffffffffffffffffffffffffffffffffffff167f8be0079c531659141344cd1fd0a4f28419497f9722a3daafe3b4186f6b6457e060405160405180910390a35050565b8280546200181a90620022e4565b90600052602060002090601f0160209004810192826200183e57600085556200188a565b82601f106200185957805160ff19168380011785556200188a565b828001600101855582156200188a579182015b82811115620018895782518255916020019190600101906200186c565b5b509050620018999190620018f8565b5090565b6111c6806200251f83390190565b6040518060600160405280600073ffffffffffffffffffffffffffffffffffffffff168152602001600073ffffffffffffffffffffffffffffffffffffffff168152602001600081525090565b5b8082111562001913576000816000905550600101620018f9565b5090565b60006200192e6200192884620021ff565b620021d6565b9050828152602081018484840111156200194757600080fd5b620019548482856200229f565b509392505050565b6000813590506200196d81620024ea565b92915050565b6000815190506200198481620024ea565b92915050565b600082601f8301126200199c57600080fd5b8135620019ae84826020860162001917565b91505092915050565b600060608284031215620019ca57600080fd5b620019d66060620021d6565b90506000620019e88482850162001a20565b6000830152506020620019fe8482850162001a20565b602083015250604062001a14848285016200195c565b60408301525092915050565b60008135905062001a318162002504565b92915050565b60008151905062001a488162002504565b92915050565b60006020828403121562001a6157600080fd5b600062001a71848285016200195c565b91505092915050565b60006020828403121562001a8d57600080fd5b600062001a9d8482850162001973565b91505092915050565b600080600080600060a0868803121562001abf57600080fd5b600062001acf888289016200195c565b955050602062001ae2888289016200195c565b945050604062001af5888289016200195c565b935050606062001b08888289016200195c565b925050608062001b1b888289016200195c565b9150509295509295909350565b6000806040838503121562001b3c57600080fd5b600062001b4c858286016200195c565b925050602062001b5f8582860162001a20565b9150509250929050565b6000806000806000806000806000806101808b8d03121562001b8a57600080fd5b60008b013567ffffffffffffffff81111562001ba557600080fd5b62001bb38d828e016200198a565b9a505060208b013567ffffffffffffffff81111562001bd157600080fd5b62001bdf8d828e016200198a565b99505060408b013567ffffffffffffffff81111562001bfd57600080fd5b62001c0b8d828e016200198a565b985050606062001c1e8d828e0162001a20565b975050608062001c318d828e0162001a20565b96505060a062001c448d828e0162001a20565b95505060c062001c578d828e0162001a20565b94505060e08b013567ffffffffffffffff81111562001c7557600080fd5b62001c838d828e016200198a565b9350506101008b013567ffffffffffffffff81111562001ca257600080fd5b62001cb08d828e016200198a565b92505061012062001cc48d828e01620019b7565b9150509295989b9194979a5092959850565b60006020828403121562001ce957600080fd5b600062001cf98482850162001a20565b91505092915050565b60006020828403121562001d1557600080fd5b600062001d258482850162001a37565b91505092915050565b62001d398162002251565b82525050565b600062001d4c8262002235565b62001d58818562002240565b935062001d6a818560208601620022ae565b62001d75816200240f565b840191505092915050565b600062001d8f60148362002240565b915062001d9c8262002420565b602082019050919050565b600062001db660268362002240565b915062001dc38262002449565b604082019050919050565b600062001ddd601d8362002240565b915062001dea8262002498565b602082019050919050565b600062001e0460208362002240565b915062001e1182620024c1565b602082019050919050565b62001e278162002285565b82525050565b600060208201905062001e44600083018462001d2e565b92915050565b600060808201905062001e61600083018762001d2e565b62001e70602083018662001d2e565b818103604083015262001e84818562001d3f565b9050818103606083015262001e9a818462001d3f565b905095945050505050565b600060608201905062001ebc600083018662001d2e565b62001ecb602083018562001d2e565b62001eda604083018462001e1c565b949350505050565b600060408201905062001ef9600083018562001d2e565b62001f08602083018462001e1c565b9392505050565b600060a082019050818103600083015262001f2b818862001d3f565b9050818103602083015262001f41818762001d3f565b905062001f52604083018662001d2e565b62001f61606083018562001d2e565b62001f70608083018462001d2e565b9695505050505050565b600061014082019050818103600083015262001f97818d62001d3f565b9050818103602083015262001fad818c62001d3f565b9050818103604083015262001fc3818b62001d3f565b905062001fd4606083018a62001e1c565b62001fe3608083018962001e1c565b62001ff260a083018862001e1c565b6200200160c083018762001d2e565b6200201060e083018662001e1c565b6200202061010083018562001e1c565b6200203061012083018462001d2e565b9b9a5050505050505050505050565b60006101408201905081810360008301526200205c818d62001d3f565b9050818103602083015262002072818c62001d3f565b9050818103604083015262002088818b62001d3f565b905062002099606083018a62001e1c565b620020a8608083018962001e1c565b620020b760a083018862001e1c565b620020c660c083018762001e1c565b620020d560e083018662001e1c565b620020e561010083018562001e1c565b620020f561012083018462001d2e565b9b9a5050505050505050505050565b600060208201905081810360008301526200211f8162001d80565b9050919050565b60006020820190508181036000830152620021418162001da7565b9050919050565b60006020820190508181036000830152620021638162001dce565b9050919050565b60006020820190508181036000830152620021858162001df5565b9050919050565b6000602082019050620021a3600083018462001e1c565b92915050565b6000604082019050620021c0600083018562001e1c565b620021cf602083018462001d2e565b9392505050565b6000620021e2620021f5565b9050620021f082826200231a565b919050565b6000604051905090565b600067ffffffffffffffff8211156200221d576200221c620023e0565b5b62002228826200240f565b9050602081019050919050565b600081519050919050565b600082825260208201905092915050565b60006200225e8262002265565b9050919050565b600073ffffffffffffffffffffffffffffffffffffffff82169050919050565b6000819050919050565b600063ffffffff82169050919050565b82818337600083830152505050565b60005b83811015620022ce578082015181840152602081019050620022b1565b83811115620022de576000848401525b50505050565b60006002820490506001821680620022fd57607f821691505b60208210811415620023145762002313620023b1565b5b50919050565b62002325826200240f565b810181811067ffffffffffffffff82111715620023475762002346620023e0565b5b80604052505050565b60006200235d826200228f565b915063ffffffff82141562002377576200237662002382565b5b600182019050919050565b7f4e487b7100000000000000000000000000000000000000000000000000000000600052601160045260246000fd5b7f4e487b7100000000000000000000000000000000000000000000000000000000600052602260045260246000fd5b7f4e487b7100000000000000000000000000000000000000000000000000000000600052604160045260246000fd5b6000601f19601f8301169050919050565b7f417373657420506f6f6c204e6f7420466f756e64000000000000000000000000600082015250565b7f4f776e61626c653a206e6577206f776e657220697320746865207a65726f206160008201527f6464726573730000000000000000000000000000000000000000000000000000602082015250565b7f56616c7565206f662074686520626f6e642063616e6e6f742062652030000000600082015250565b7f4f776e61626c653a2063616c6c6572206973206e6f7420746865206f776e6572600082015250565b620024f58162002251565b81146200250157600080fd5b50565b6200250f8162002285565b81146200251b57600080fd5b5056fe60806040526207e90060085534801561001757600080fd5b5061003461002961003960201b60201c565b61004160201b60201c565b610105565b600033905090565b60008060009054906101000a900473ffffffffffffffffffffffffffffffffffffffff169050816000806101000a81548173ffffffffffffffffffffffffffffffffffffffff021916908373ffffffffffffffffffffffffffffffffffffffff1602179055508173ffffffffffffffffffffffffffffffffffffffff168173ffffffffffffffffffffffffffffffffffffffff167f8be0079c531659141344cd1fd0a4f28419497f9722a3daafe3b4186f6b6457e060405160405180910390a35050565b6110b2806101146000396000f3fe6080604052600436106100f75760003560e01c80639b9bf60a1161008a578063d2d5862c11610059578063d2d5862c146103d9578063d5fb191b14610404578063f2fde38b1461042f578063fe2b34c714610458576101d4565b80639b9bf60a14610319578063c45771bc14610344578063cd6dc68714610385578063d25908aa146103ae576101d4565b806369328dec116100c657806369328dec14610283578063715018a6146102ac5780638b97a612146102c35780638da5cb5b146102ee576101d4565b806313140977146101d957806343bc1612146102045780635bf8633a1461022f5780635fd94a371461025a576101d4565b366101d45760006006541461011b576008546007546101169190610e26565b61012a565b600854436101299190610e26565b5b6007819055506006600081548092919061014390610f1e565b919050555060096040518060a001604052804381526020013481526020014281526020016006548152602001600754815250908060018154018082558091505060019003906000526020600020906005020160009091909190915060008201518160000155602082015181600101556040820151816002015560608201518160030155608082015181600401555050005b600080fd5b3480156101e557600080fd5b506101ee610483565b6040516101fb9190610da7565b60405180910390f35b34801561021057600080fd5b50610219610489565b6040516102269190610ccc565b60405180910390f35b34801561023b57600080fd5b506102446104af565b6040516102519190610ccc565b60405180910390f35b34801561026657600080fd5b50610281600480360381019061027c9190610c09565b6104d5565b005b34801561028f57600080fd5b506102aa60048036038101906102a59190610b68565b6105a5565b005b3480156102b857600080fd5b506102c1610716565b005b3480156102cf57600080fd5b506102d861079e565b6040516102e59190610da7565b60405180910390f35b3480156102fa57600080fd5b506103036107a4565b6040516103109190610ccc565b60405180910390f35b34801561032557600080fd5b5061032e6107cd565b60405161033b9190610da7565b60405180910390f35b34801561035057600080fd5b5061036b60048036038101906103669190610be0565b6107d3565b60405161037c959493929190610dc2565b60405180910390f35b34801561039157600080fd5b506103ac60048036038101906103a79190610b2c565b610819565b005b3480156103ba57600080fd5b506103c36108e1565b6040516103d09190610da7565b60405180910390f35b3480156103e557600080fd5b506103ee6108e7565b6040516103fb9190610da7565b60405180910390f35b34801561041057600080fd5b506104196108ed565b6040516104269190610da7565b60405180910390f35b34801561043b57600080fd5b5061045660048036038101906104519190610b03565b6108f3565b005b34801561046457600080fd5b5061046d6109eb565b60405161047a9190610da7565b60405180910390f35b60065481565b600160009054906101000a900473ffffffffffffffffffffffffffffffffffffffff1681565b600260009054906101000a900473ffffffffffffffffffffffffffffffffffffffff1681565b600073ffffffffffffffffffffffffffffffffffffffff168173ffffffffffffffffffffffffffffffffffffffff161415610545576040517f08c379a000000000000000000000000000000000000000000000000000000000815260040161053c90610d87565b60405180910390fd5b80600260006101000a81548173ffffffffffffffffffffffffffffffffffffffff021916908373ffffffffffffffffffffffffffffffffffffffff160217905550816004819055506004805461059b9190610e7c565b6005819055505050565b8073ffffffffffffffffffffffffffffffffffffffff1663095ea7b330846040518363ffffffff1660e01b81526004016105e0929190610d1e565b602060405180830381600087803b1580156105fa57600080fd5b505af115801561060e573d6000803e3d6000fd5b505050506040513d601f19601f820116820180604052508101906106329190610bb7565b508073ffffffffffffffffffffffffffffffffffffffff166323b872dd3085856040518463ffffffff1660e01b815260040161067093929190610ce7565b602060405180830381600087803b15801561068a57600080fd5b505af115801561069e573d6000803e3d6000fd5b505050506040513d601f19601f820116820180604052508101906106c29190610bb7565b508273ffffffffffffffffffffffffffffffffffffffff167f7fcf532c15f0a6db0bd6d0e038bea71d30d808c7d98cb3bf7268a95bf5081b65836040516107099190610da7565b60405180910390a2505050565b61071e6109f8565b73ffffffffffffffffffffffffffffffffffffffff1661073c6107a4565b73ffffffffffffffffffffffffffffffffffffffff1614610792576040517f08c379a000000000000000000000000000000000000000000000000000000000815260040161078990610d67565b60405180910390fd5b61079c6000610a00565b565b60085481565b60008060009054906101000a900473ffffffffffffffffffffffffffffffffffffffff16905090565b60055481565b600981815481106107e357600080fd5b90600052602060002090600502016000915090508060000154908060010154908060020154908060030154908060040154905085565b6108216109f8565b73ffffffffffffffffffffffffffffffffffffffff1661083f6107a4565b73ffffffffffffffffffffffffffffffffffffffff1614610895576040517f08c379a000000000000000000000000000000000000000000000000000000000815260040161088c90610d67565b60405180910390fd5b81600160006101000a81548173ffffffffffffffffffffffffffffffffffffffff021916908373ffffffffffffffffffffffffffffffffffffffff160217905550806003819055505050565b60045481565b60035481565b60075481565b6108fb6109f8565b73ffffffffffffffffffffffffffffffffffffffff166109196107a4565b73ffffffffffffffffffffffffffffffffffffffff161461096f576040517f08c379a000000000000000000000000000000000000000000000000000000000815260040161096690610d67565b60405180910390fd5b600073ffffffffffffffffffffffffffffffffffffffff168173ffffffffffffffffffffffffffffffffffffffff1614156109df576040517f08c379a00000000000000000000000000000000000000000000000000000000081526004016109d690610d47565b60405180910390fd5b6109e881610a00565b50565b6000600980549050905090565b600033905090565b60008060009054906101000a900473ffffffffffffffffffffffffffffffffffffffff169050816000806101000a81548173ffffffffffffffffffffffffffffffffffffffff021916908373ffffffffffffffffffffffffffffffffffffffff1602179055508173ffffffffffffffffffffffffffffffffffffffff168173ffffffffffffffffffffffffffffffffffffffff167f8be0079c531659141344cd1fd0a4f28419497f9722a3daafe3b4186f6b6457e060405160405180910390a35050565b600081359050610ad381611037565b92915050565b600081519050610ae88161104e565b92915050565b600081359050610afd81611065565b92915050565b600060208284031215610b1557600080fd5b6000610b2384828501610ac4565b91505092915050565b60008060408385031215610b3f57600080fd5b6000610b4d85828601610ac4565b9250506020610b5e85828601610aee565b9150509250929050565b600080600060608486031215610b7d57600080fd5b6000610b8b86828701610ac4565b9350506020610b9c86828701610aee565b9250506040610bad86828701610ac4565b9150509250925092565b600060208284031215610bc957600080fd5b6000610bd784828501610ad9565b91505092915050565b600060208284031215610bf257600080fd5b6000610c0084828501610aee565b91505092915050565b60008060408385031215610c1c57600080fd5b6000610c2a85828601610aee565b9250506020610c3b85828601610ac4565b9150509250929050565b610c4e81610ed6565b82525050565b6000610c61602683610e15565b9150610c6c82610f96565b604082019050919050565b6000610c84602083610e15565b9150610c8f82610fe5565b602082019050919050565b6000610ca7600f83610e15565b9150610cb28261100e565b602082019050919050565b610cc681610f14565b82525050565b6000602082019050610ce16000830184610c45565b92915050565b6000606082019050610cfc6000830186610c45565b610d096020830185610c45565b610d166040830184610cbd565b949350505050565b6000604082019050610d336000830185610c45565b610d406020830184610cbd565b9392505050565b60006020820190508181036000830152610d6081610c54565b9050919050565b60006020820190508181036000830152610d8081610c77565b9050919050565b60006020820190508181036000830152610da081610c9a565b9050919050565b6000602082019050610dbc6000830184610cbd565b92915050565b600060a082019050610dd76000830188610cbd565b610de46020830187610cbd565b610df16040830186610cbd565b610dfe6060830185610cbd565b610e0b6080830184610cbd565b9695505050505050565b600082825260208201905092915050565b6000610e3182610f14565b9150610e3c83610f14565b9250827fffffffffffffffffffffffffffffffffffffffffffffffffffffffffffffffff03821115610e7157610e70610f67565b5b828201905092915050565b6000610e8782610f14565b9150610e9283610f14565b9250817fffffffffffffffffffffffffffffffffffffffffffffffffffffffffffffffff0483118215151615610ecb57610eca610f67565b5b828202905092915050565b6000610ee182610ef4565b9050919050565b60008115159050919050565b600073ffffffffffffffffffffffffffffffffffffffff82169050919050565b6000819050919050565b6000610f2982610f14565b91507fffffffffffffffffffffffffffffffffffffffffffffffffffffffffffffffff821415610f5c57610f5b610f67565b5b600182019050919050565b7f4e487b7100000000000000000000000000000000000000000000000000000000600052601160045260246000fd5b7f4f776e61626c653a206e6577206f776e657220697320746865207a65726f206160008201527f6464726573730000000000000000000000000000000000000000000000000000602082015250565b7f4f776e61626c653a2063616c6c6572206973206e6f7420746865206f776e6572600082015250565b7f496e76616c696420416464726573730000000000000000000000000000000000600082015250565b61104081610ed6565b811461104b57600080fd5b50565b61105781610ee8565b811461106257600080fd5b50565b61106e81610f14565b811461107957600080fd5b5056fea2646970667358221220fb1f20ec837ed46f6d7b5b8eb641d29498c00ac64e7f9031d02368d70987ad6a64736f6c63430008040033a2646970667358221220241d3fefd1aea72fcbd232370b9f6816902cf92d2dbe3c24db4d108da6001c7d64736f6c63430008040033",
  "linkReferences": {},
  "deployedLinkReferences": {}
}