{
  "_format": "hh-sol-artifact-1",
  "contractName": "BondNFT",
  "sourceName": "contracts/BondNFT.sol",
  "abi": [
    {
      "inputs": [
        {
          "internalType": "string",
          "name": "_name",
          "type": "string"
        },
        {
          "internalType": "string",
          "name": "_symbol",
          "type": "string"
        },
        {
          "internalType": "address",
          "name": "_chainlinkSpotifyListenersAddress",
          "type": "address"
        },
        {
          "internalType": "address",
          "name": "_chainlinkYoutubeSubscribersAddress",
          "type": "address"
        },
        {
          "internalType": "address",
          "name": "_chainlinkMetadataRequestAddress",
          "type": "address"
        }
      ],
      "stateMutability": "nonpayable",
      "type": "constructor"
    },
    {
      "anonymous": false,
      "inputs": [
        {
          "indexed": true,
          "internalType": "address",
          "name": "owner",
          "type": "address"
        },
        {
          "indexed": true,
          "internalType": "address",
          "name": "approved",
          "type": "address"
        },
        {
          "indexed": true,
          "internalType": "uint256",
          "name": "tokenId",
          "type": "uint256"
        }
      ],
      "name": "Approval",
      "type": "event"
    },
    {
      "anonymous": false,
      "inputs": [
        {
          "indexed": true,
          "internalType": "address",
          "name": "owner",
          "type": "address"
        },
        {
          "indexed": true,
          "internalType": "address",
          "name": "operator",
          "type": "address"
        },
        {
          "indexed": false,
          "internalType": "bool",
          "name": "approved",
          "type": "bool"
        }
      ],
      "name": "ApprovalForAll",
      "type": "event"
    },
    {
      "anonymous": false,
      "inputs": [
        {
          "indexed": true,
          "internalType": "address",
          "name": "previousOwner",
          "type": "address"
        },
        {
          "indexed": true,
          "internalType": "address",
          "name": "newOwner",
          "type": "address"
        }
      ],
      "name": "OwnershipTransferred",
      "type": "event"
    },
    {
      "anonymous": false,
      "inputs": [
        {
          "indexed": true,
          "internalType": "address",
          "name": "from",
          "type": "address"
        },
        {
          "indexed": true,
          "internalType": "address",
          "name": "to",
          "type": "address"
        },
        {
          "indexed": true,
          "internalType": "uint256",
          "name": "tokenId",
          "type": "uint256"
        }
      ],
      "name": "Transfer",
      "type": "event"
    },
    {
      "inputs": [
        {
          "internalType": "address",
          "name": "to",
          "type": "address"
        },
        {
          "internalType": "uint256",
          "name": "tokenId",
          "type": "uint256"
        }
      ],
      "name": "approve",
      "outputs": [],
      "stateMutability": "nonpayable",
      "type": "function"
    },
    {
      "inputs": [],
      "name": "artistId",
      "outputs": [
        {
          "internalType": "string",
          "name": "",
          "type": "string"
        }
      ],
      "stateMutability": "view",
      "type": "function"
    },
    {
      "inputs": [],
      "name": "artistName",
      "outputs": [
        {
          "internalType": "string",
          "name": "",
          "type": "string"
        }
      ],
      "stateMutability": "view",
      "type": "function"
    },
    {
      "inputs": [],
      "name": "assetPoolAddress",
      "outputs": [
        {
          "internalType": "address",
          "name": "",
          "type": "address"
        }
      ],
      "stateMutability": "view",
      "type": "function"
    },
    {
      "inputs": [
        {
          "internalType": "address",
          "name": "owner",
          "type": "address"
        }
      ],
      "name": "balanceOf",
      "outputs": [
        {
          "internalType": "uint256",
          "name": "",
          "type": "uint256"
        }
      ],
      "stateMutability": "view",
      "type": "function"
    },
    {
      "inputs": [],
      "name": "baseURI",
      "outputs": [
        {
          "internalType": "string",
          "name": "",
          "type": "string"
        }
      ],
      "stateMutability": "view",
      "type": "function"
    },
    {
      "inputs": [],
      "name": "channelId",
      "outputs": [
        {
          "internalType": "string",
          "name": "",
          "type": "string"
        }
      ],
      "stateMutability": "view",
      "type": "function"
    },
    {
      "inputs": [],
      "name": "defaultURI",
      "outputs": [
        {
          "internalType": "string",
          "name": "",
          "type": "string"
        }
      ],
      "stateMutability": "view",
      "type": "function"
    },
    {
      "inputs": [],
      "name": "faceValue",
      "outputs": [
        {
          "internalType": "uint256",
          "name": "",
          "type": "uint256"
        }
      ],
      "stateMutability": "view",
      "type": "function"
    },
    {
      "inputs": [],
      "name": "fundingAmount",
      "outputs": [
        {
          "internalType": "uint256",
          "name": "",
          "type": "uint256"
        }
      ],
      "stateMutability": "view",
      "type": "function"
    },
    {
      "inputs": [
        {
          "internalType": "uint256",
          "name": "tokenId",
          "type": "uint256"
        }
      ],
      "name": "getApproved",
      "outputs": [
        {
          "internalType": "address",
          "name": "",
          "type": "address"
        }
      ],
      "stateMutability": "view",
      "type": "function"
    },
    {
      "inputs": [],
      "name": "individualBondValue",
      "outputs": [
        {
          "internalType": "uint256",
          "name": "",
          "type": "uint256"
        }
      ],
      "stateMutability": "view",
      "type": "function"
    },
    {
      "inputs": [
        {
          "internalType": "string",
          "name": "_artistName",
          "type": "string"
        },
        {
          "internalType": "string",
          "name": "_artistId",
          "type": "string"
        },
        {
          "internalType": "string",
          "name": "_channelId",
          "type": "string"
        },
        {
          "internalType": "uint256",
          "name": "_fundingAmount",
          "type": "uint256"
        },
        {
          "internalType": "uint256",
          "name": "_numberOfYears",
          "type": "uint256"
        },
        {
          "internalType": "uint256",
          "name": "_numberOfBonds",
          "type": "uint256"
        },
        {
          "internalType": "uint256",
          "name": "_facevalue",
          "type": "uint256"
        },
        {
          "internalType": "uint256",
          "name": "_spotifyListeners",
          "type": "uint256"
        },
        {
          "internalType": "uint256",
          "name": "_youtubeSubscribers",
          "type": "uint256"
        },
        {
          "internalType": "address",
          "name": "_assetPoolAddress",
          "type": "address"
        }
      ],
      "name": "initialize",
      "outputs": [],
      "stateMutability": "nonpayable",
      "type": "function"
    },
    {
      "inputs": [
        {
          "internalType": "address",
          "name": "owner",
          "type": "address"
        },
        {
          "internalType": "address",
          "name": "operator",
          "type": "address"
        }
      ],
      "name": "isApprovedForAll",
      "outputs": [
        {
          "internalType": "bool",
          "name": "",
          "type": "bool"
        }
      ],
      "stateMutability": "view",
      "type": "function"
    },
    {
      "inputs": [],
      "name": "issuerAddress",
      "outputs": [
        {
          "internalType": "address",
          "name": "",
          "type": "address"
        }
      ],
      "stateMutability": "view",
      "type": "function"
    },
    {
      "inputs": [
        {
          "internalType": "address",
          "name": "to",
          "type": "address"
        }
      ],
      "name": "mintBonds",
      "outputs": [],
      "stateMutability": "nonpayable",
      "type": "function"
    },
    {
      "inputs": [],
      "name": "name",
      "outputs": [
        {
          "internalType": "string",
          "name": "",
          "type": "string"
        }
      ],
      "stateMutability": "view",
      "type": "function"
    },
    {
      "inputs": [],
      "name": "numberOfBonds",
      "outputs": [
        {
          "internalType": "uint256",
          "name": "",
          "type": "uint256"
        }
      ],
      "stateMutability": "view",
      "type": "function"
    },
    {
      "inputs": [],
      "name": "numberOfYears",
      "outputs": [
        {
          "internalType": "uint256",
          "name": "",
          "type": "uint256"
        }
      ],
      "stateMutability": "view",
      "type": "function"
    },
    {
      "inputs": [],
      "name": "owner",
      "outputs": [
        {
          "internalType": "address",
          "name": "",
          "type": "address"
        }
      ],
      "stateMutability": "view",
      "type": "function"
    },
    {
      "inputs": [
        {
          "internalType": "uint256",
          "name": "tokenId",
          "type": "uint256"
        }
      ],
      "name": "ownerOf",
      "outputs": [
        {
          "internalType": "address",
          "name": "",
          "type": "address"
        }
      ],
      "stateMutability": "view",
      "type": "function"
    },
    {
      "inputs": [],
      "name": "renounceOwnership",
      "outputs": [],
      "stateMutability": "nonpayable",
      "type": "function"
    },
    {
      "inputs": [],
      "name": "requestLatestSpotifyListeners",
      "outputs": [],
      "stateMutability": "nonpayable",
      "type": "function"
    },
    {
      "inputs": [
        {
          "internalType": "bytes32",
          "name": "_requestId",
          "type": "bytes32"
        },
        {
          "internalType": "uint256",
          "name": "_listeners",
          "type": "uint256"
        }
      ],
      "name": "requestLatestSpotifyListenersFulFill",
      "outputs": [],
      "stateMutability": "nonpayable",
      "type": "function"
    },
    {
      "inputs": [],
      "name": "requestLatestYoutubeSubscribers",
      "outputs": [],
      "stateMutability": "nonpayable",
      "type": "function"
    },
    {
      "inputs": [
        {
          "internalType": "bytes32",
          "name": "_requestId",
          "type": "bytes32"
        },
        {
          "internalType": "uint256",
          "name": "_youtubeSubscribers",
          "type": "uint256"
        }
      ],
      "name": "requestLatestYoutubeSubscribersFulFill",
      "outputs": [],
      "stateMutability": "nonpayable",
      "type": "function"
    },
    {
      "inputs": [],
      "name": "requestMetadataURI",
      "outputs": [],
      "stateMutability": "nonpayable",
      "type": "function"
    },
    {
      "inputs": [
        {
          "internalType": "bytes32",
          "name": "_requestId",
          "type": "bytes32"
        },
        {
          "internalType": "string",
          "name": "_metadataURI",
          "type": "string"
        }
      ],
      "name": "requestMetadataURIFulFill",
      "outputs": [],
      "stateMutability": "nonpayable",
      "type": "function"
    },
    {
      "inputs": [
        {
          "internalType": "address",
          "name": "from",
          "type": "address"
        },
        {
          "internalType": "address",
          "name": "to",
          "type": "address"
        },
        {
          "internalType": "uint256",
          "name": "tokenId",
          "type": "uint256"
        }
      ],
      "name": "safeTransferFrom",
      "outputs": [],
      "stateMutability": "nonpayable",
      "type": "function"
    },
    {
      "inputs": [
        {
          "internalType": "address",
          "name": "from",
          "type": "address"
        },
        {
          "internalType": "address",
          "name": "to",
          "type": "address"
        },
        {
          "internalType": "uint256",
          "name": "tokenId",
          "type": "uint256"
        },
        {
          "internalType": "bytes",
          "name": "_data",
          "type": "bytes"
        }
      ],
      "name": "safeTransferFrom",
      "outputs": [],
      "stateMutability": "nonpayable",
      "type": "function"
    },
    {
      "inputs": [
        {
          "internalType": "address",
          "name": "operator",
          "type": "address"
        },
        {
          "internalType": "bool",
          "name": "approved",
          "type": "bool"
        }
      ],
      "name": "setApprovalForAll",
      "outputs": [],
      "stateMutability": "nonpayable",
      "type": "function"
    },
    {
      "inputs": [
        {
          "internalType": "string",
          "name": "uri",
          "type": "string"
        }
      ],
      "name": "setBaseURI",
      "outputs": [],
      "stateMutability": "nonpayable",
      "type": "function"
    },
    {
      "inputs": [],
      "name": "spotifyListeners",
      "outputs": [
        {
          "internalType": "uint256",
          "name": "",
          "type": "uint256"
        }
      ],
      "stateMutability": "view",
      "type": "function"
    },
    {
      "inputs": [
        {
          "internalType": "bytes4",
          "name": "interfaceId",
          "type": "bytes4"
        }
      ],
      "name": "supportsInterface",
      "outputs": [
        {
          "internalType": "bool",
          "name": "",
          "type": "bool"
        }
      ],
      "stateMutability": "view",
      "type": "function"
    },
    {
      "inputs": [],
      "name": "symbol",
      "outputs": [
        {
          "internalType": "string",
          "name": "",
          "type": "string"
        }
      ],
      "stateMutability": "view",
      "type": "function"
    },
    {
      "inputs": [
        {
          "internalType": "uint256",
          "name": "tokenId",
          "type": "uint256"
        }
      ],
      "name": "tokenURI",
      "outputs": [
        {
          "internalType": "string",
          "name": "",
          "type": "string"
        }
      ],
      "stateMutability": "view",
      "type": "function"
    },
    {
      "inputs": [],
      "name": "totalSupply",
      "outputs": [
        {
          "internalType": "uint256",
          "name": "",
          "type": "uint256"
        }
      ],
      "stateMutability": "view",
      "type": "function"
    },
    {
      "inputs": [
        {
          "internalType": "address",
          "name": "from",
          "type": "address"
        },
        {
          "internalType": "address",
          "name": "to",
          "type": "address"
        },
        {
          "internalType": "uint256",
          "name": "tokenId",
          "type": "uint256"
        }
      ],
      "name": "transferFrom",
      "outputs": [],
      "stateMutability": "nonpayable",
      "type": "function"
    },
    {
      "inputs": [
        {
          "internalType": "address",
          "name": "newOwner",
          "type": "address"
        }
      ],
      "name": "transferOwnership",
      "outputs": [],
      "stateMutability": "nonpayable",
      "type": "function"
    },
    {
      "inputs": [],
      "name": "youtubeSubscribers",
      "outputs": [
        {
          "internalType": "uint256",
          "name": "",
          "type": "uint256"
        }
      ],
      "stateMutability": "view",
      "type": "function"
    }
  ],
  "bytecode": "0x60806040526040518060600160405280603581526020016200424c6035913960149080519060200190620000359291906200025b565b503480156200004357600080fd5b506040516200428138038062004281833981810160405281019062000069919062000394565b84848160009080519060200190620000839291906200025b565b5080600190805190602001906200009c9291906200025b565b505050620000bf620000b36200018d60201b60201c565b6200019560201b60201c565b82601660006101000a81548173ffffffffffffffffffffffffffffffffffffffff021916908373ffffffffffffffffffffffffffffffffffffffff16021790555081601860006101000a81548173ffffffffffffffffffffffffffffffffffffffff021916908373ffffffffffffffffffffffffffffffffffffffff16021790555080601760006101000a81548173ffffffffffffffffffffffffffffffffffffffff021916908373ffffffffffffffffffffffffffffffffffffffff160217905550505050505062000606565b600033905090565b6000600660009054906101000a900473ffffffffffffffffffffffffffffffffffffffff16905081600660006101000a81548173ffffffffffffffffffffffffffffffffffffffff021916908373ffffffffffffffffffffffffffffffffffffffff1602179055508173ffffffffffffffffffffffffffffffffffffffff168173ffffffffffffffffffffffffffffffffffffffff167f8be0079c531659141344cd1fd0a4f28419497f9722a3daafe3b4186f6b6457e060405160405180910390a35050565b828054620002699062000511565b90600052602060002090601f0160209004810192826200028d5760008555620002d9565b82601f10620002a857805160ff1916838001178555620002d9565b82800160010185558215620002d9579182015b82811115620002d8578251825591602001919060010190620002bb565b5b509050620002e89190620002ec565b5090565b5b8082111562000307576000816000905550600101620002ed565b5090565b6000620003226200031c8462000471565b62000448565b9050828152602081018484840111156200033b57600080fd5b62000348848285620004db565b509392505050565b6000815190506200036181620005ec565b92915050565b600082601f8301126200037957600080fd5b81516200038b8482602086016200030b565b91505092915050565b600080600080600060a08688031215620003ad57600080fd5b600086015167ffffffffffffffff811115620003c857600080fd5b620003d68882890162000367565b955050602086015167ffffffffffffffff811115620003f457600080fd5b620004028882890162000367565b9450506040620004158882890162000350565b9350506060620004288882890162000350565b92505060806200043b8882890162000350565b9150509295509295909350565b60006200045462000467565b905062000462828262000547565b919050565b6000604051905090565b600067ffffffffffffffff8211156200048f576200048e620005ac565b5b6200049a82620005db565b9050602081019050919050565b6000620004b482620004bb565b9050919050565b600073ffffffffffffffffffffffffffffffffffffffff82169050919050565b60005b83811015620004fb578082015181840152602081019050620004de565b838111156200050b576000848401525b50505050565b600060028204905060018216806200052a57607f821691505b602082108114156200054157620005406200057d565b5b50919050565b6200055282620005db565b810181811067ffffffffffffffff82111715620005745762000573620005ac565b5b80604052505050565b7f4e487b7100000000000000000000000000000000000000000000000000000000600052602260045260246000fd5b7f4e487b7100000000000000000000000000000000000000000000000000000000600052604160045260246000fd5b6000601f19601f8301169050919050565b620005f781620004a7565b81146200060357600080fd5b50565b613c3680620006166000396000f3fe608060405234801561001057600080fd5b50600436106102485760003560e01c8063715018a61161013b578063c397f88f116100b8578063e985e9c51161007c578063e985e9c51461066f578063eaa57bbb1461069f578063ec7c5d82146106a9578063f2fde38b146106c7578063f681dd18146106e357610248565b8063c397f88f146105c9578063c711f126146105e7578063c87b56dd14610603578063d25908aa14610633578063e2cee5441461065157610248565b8063a22cb465116100ff578063a22cb4651461054d578063a4c180cc14610569578063a63234e014610585578063ab47d6b8146105a3578063b88d4fde146105ad57610248565b8063715018a6146104cd57806386896500146104d75780638b964a97146104f35780638da5cb5b1461051157806395d89b411461052f57610248565b80633e960898116101c95780635afd4f9e1161018d5780635afd4f9e146104275780635b2f515b146104315780636352211e1461044f5780636c0360eb1461047f57806370a082311461049d57610248565b80633e96089814610395578063423fa88d146103b357806342842e0e146103d157806344fd9caa146103ed57806355f804b31461040b57610248565b80630f69790b116102105780630f69790b1461030557806318160ddd1461032157806323b872dd1461033f57806323cb9bde1461035b5780633a367a671461037757610248565b806301ffc9a71461024d57806304a79c971461027d57806306fdde031461029b578063081812fc146102b9578063095ea7b3146102e9575b600080fd5b61026760048036038101906102629190612962565b610701565b6040516102749190612fbf565b60405180910390f35b6102856107e3565b604051610292919061323c565b60405180910390f35b6102a36107e9565b6040516102b09190612fda565b60405180910390f35b6102d360048036038101906102ce9190612b18565b61087b565b6040516102e09190612f58565b60405180910390f35b61030360048036038101906102fe919061286d565b610900565b005b61031f600480360381019061031a9190612926565b610a18565b005b610329610a67565b604051610336919061323c565b60405180910390f35b61035960048036038101906103549190612767565b610a6d565b005b610375600480360381019061037091906128d2565b610acd565b005b61037f610ad1565b60405161038c9190612fda565b60405180910390f35b61039d610b5f565b6040516103aa9190612f58565b60405180910390f35b6103bb610b85565b6040516103c8919061323c565b60405180910390f35b6103eb60048036038101906103e69190612767565b610b8b565b005b6103f5610bab565b604051610402919061323c565b60405180910390f35b610425600480360381019061042091906129b4565b610bb1565b005b61042f610bcb565b005b610439610c80565b6040516104469190612fda565b60405180910390f35b61046960048036038101906104649190612b18565b610d0e565b6040516104769190612f58565b60405180910390f35b610487610dc0565b6040516104949190612fda565b60405180910390f35b6104b760048036038101906104b29190612702565b610e4e565b6040516104c4919061323c565b60405180910390f35b6104d5610f06565b005b6104f160048036038101906104ec9190612702565b610f8e565b005b6104fb610fda565b6040516105089190612fda565b60405180910390f35b610519611068565b6040516105269190612f58565b60405180910390f35b610537611092565b6040516105449190612fda565b60405180910390f35b61056760048036038101906105629190612831565b611124565b005b610583600480360381019061057e91906129f5565b6112a5565b005b61058d6113d0565b60405161059a9190612f58565b60405180910390f35b6105ab6113f6565b005b6105c760048036038101906105c291906127b6565b6114ab565b005b6105d161150d565b6040516105de919061323c565b60405180910390f35b61060160048036038101906105fc9190612926565b611513565b005b61061d60048036038101906106189190612b18565b611562565b60405161062a9190612fda565b60405180910390f35b61063b611685565b604051610648919061323c565b60405180910390f35b61065961168b565b6040516106669190612fda565b60405180910390f35b6106896004803603810190610684919061272b565b611719565b6040516106969190612fbf565b60405180910390f35b6106a76117ad565b005b6106b1611862565b6040516106be919061323c565b60405180910390f35b6106e160048036038101906106dc9190612702565b611868565b005b6106eb611960565b6040516106f8919061323c565b60405180910390f35b60007f80ac58cd000000000000000000000000000000000000000000000000000000007bffffffffffffffffffffffffffffffffffffffffffffffffffffffff1916827bffffffffffffffffffffffffffffffffffffffffffffffffffffffff191614806107cc57507f5b5e139f000000000000000000000000000000000000000000000000000000007bffffffffffffffffffffffffffffffffffffffffffffffffffffffff1916827bffffffffffffffffffffffffffffffffffffffffffffffffffffffff1916145b806107dc57506107db82611966565b5b9050919050565b600b5481565b6060600080546107f8906134bf565b80601f0160208091040260200160405190810160405280929190818152602001828054610824906134bf565b80156108715780601f1061084657610100808354040283529160200191610871565b820191906000526020600020905b81548152906001019060200180831161085457829003601f168201915b5050505050905090565b6000610886826119d0565b6108c5576040517f08c379a00000000000000000000000000000000000000000000000000000000081526004016108bc9061317c565b60405180910390fd5b6004600083815260200190815260200160002060009054906101000a900473ffffffffffffffffffffffffffffffffffffffff169050919050565b600061090b82610d0e565b90508073ffffffffffffffffffffffffffffffffffffffff168373ffffffffffffffffffffffffffffffffffffffff16141561097c576040517f08c379a0000000000000000000000000000000000000000000000000000000008152600401610973906131dc565b60405180910390fd5b8073ffffffffffffffffffffffffffffffffffffffff1661099b611a3c565b73ffffffffffffffffffffffffffffffffffffffff1614806109ca57506109c9816109c4611a3c565b611719565b5b610a09576040517f08c379a0000000000000000000000000000000000000000000000000000000008152600401610a00906130fc565b60405180910390fd5b610a138383611a44565b505050565b81601a5414610a5c576040517f08c379a0000000000000000000000000000000000000000000000000000000008152600401610a539061307c565b60405180910390fd5b806010819055505050565b60075481565b610a7e610a78611a3c565b82611afd565b610abd576040517f08c379a0000000000000000000000000000000000000000000000000000000008152600401610ab4906131fc565b60405180910390fd5b610ac8838383611bdb565b505050565b5050565b60148054610ade906134bf565b80601f0160208091040260200160405190810160405280929190818152602001828054610b0a906134bf565b8015610b575780601f10610b2c57610100808354040283529160200191610b57565b820191906000526020600020905b815481529060010190602001808311610b3a57829003601f168201915b505050505081565b601260009054906101000a900473ffffffffffffffffffffffffffffffffffffffff1681565b60135481565b610ba6838383604051806020016040528060008152506114ab565b505050565b600f5481565b8060159080519060200190610bc79291906124fc565b5050565b601860009054906101000a900473ffffffffffffffffffffffffffffffffffffffff1673ffffffffffffffffffffffffffffffffffffffff1663d30e2dc5306040518263ffffffff1660e01b8152600401610c269190612f58565b602060405180830381600087803b158015610c4057600080fd5b505af1158015610c54573d6000803e3d6000fd5b505050506040513d601f19601f82011682018060405250810190610c7891906128a9565b601b81905550565b60088054610c8d906134bf565b80601f0160208091040260200160405190810160405280929190818152602001828054610cb9906134bf565b8015610d065780601f10610cdb57610100808354040283529160200191610d06565b820191906000526020600020905b815481529060010190602001808311610ce957829003601f168201915b505050505081565b6000806002600084815260200190815260200160002060009054906101000a900473ffffffffffffffffffffffffffffffffffffffff169050600073ffffffffffffffffffffffffffffffffffffffff168173ffffffffffffffffffffffffffffffffffffffff161415610db7576040517f08c379a0000000000000000000000000000000000000000000000000000000008152600401610dae9061313c565b60405180910390fd5b80915050919050565b60158054610dcd906134bf565b80601f0160208091040260200160405190810160405280929190818152602001828054610df9906134bf565b8015610e465780601f10610e1b57610100808354040283529160200191610e46565b820191906000526020600020905b815481529060010190602001808311610e2957829003601f168201915b505050505081565b60008073ffffffffffffffffffffffffffffffffffffffff168273ffffffffffffffffffffffffffffffffffffffff161415610ebf576040517f08c379a0000000000000000000000000000000000000000000000000000000008152600401610eb69061311c565b60405180910390fd5b600360008373ffffffffffffffffffffffffffffffffffffffff1673ffffffffffffffffffffffffffffffffffffffff168152602001908152602001600020549050919050565b610f0e611a3c565b73ffffffffffffffffffffffffffffffffffffffff16610f2c611068565b73ffffffffffffffffffffffffffffffffffffffff1614610f82576040517f08c379a0000000000000000000000000000000000000000000000000000000008152600401610f799061319c565b60405180910390fd5b610f8c6000611e37565b565b60005b600d548161ffff161015610fd657610fab82600754611efd565b60076000815480929190610fbe9061354d565b91905055508080610fce90613522565b915050610f91565b5050565b60098054610fe7906134bf565b80601f0160208091040260200160405190810160405280929190818152602001828054611013906134bf565b80156110605780601f1061103557610100808354040283529160200191611060565b820191906000526020600020905b81548152906001019060200180831161104357829003601f168201915b505050505081565b6000600660009054906101000a900473ffffffffffffffffffffffffffffffffffffffff16905090565b6060600180546110a1906134bf565b80601f01602080910402602001604051908101604052809291908181526020018280546110cd906134bf565b801561111a5780601f106110ef5761010080835404028352916020019161111a565b820191906000526020600020905b8154815290600101906020018083116110fd57829003601f168201915b5050505050905090565b61112c611a3c565b73ffffffffffffffffffffffffffffffffffffffff168273ffffffffffffffffffffffffffffffffffffffff16141561119a576040517f08c379a0000000000000000000000000000000000000000000000000000000008152600401611191906130bc565b60405180910390fd5b80600560006111a7611a3c565b73ffffffffffffffffffffffffffffffffffffffff1673ffffffffffffffffffffffffffffffffffffffff16815260200190815260200160002060008473ffffffffffffffffffffffffffffffffffffffff1673ffffffffffffffffffffffffffffffffffffffff16815260200190815260200160002060006101000a81548160ff0219169083151502179055508173ffffffffffffffffffffffffffffffffffffffff16611254611a3c565b73ffffffffffffffffffffffffffffffffffffffff167f17307eab39ab6107e8899845ad3d59bd9653f200f220920489ca2b5937696c31836040516112999190612fbf565b60405180910390a35050565b89600890805190602001906112bb9291906124fc565b5088600990805190602001906112d29291906124fc565b5087600a90805190602001906112e99291906124fc565b5086600b8190555085600c8190555084600d8190555033600e60006101000a81548173ffffffffffffffffffffffffffffffffffffffff021916908373ffffffffffffffffffffffffffffffffffffffff16021790555083600f81905550826010819055508160118190555080601260006101000a81548173ffffffffffffffffffffffffffffffffffffffff021916908373ffffffffffffffffffffffffffffffffffffffff160217905550600d54600f546113a6919061338c565b6013819055506113b46113f6565b6113bc610bcb565b6113c46117ad565b50505050505050505050565b600e60009054906101000a900473ffffffffffffffffffffffffffffffffffffffff1681565b601660009054906101000a900473ffffffffffffffffffffffffffffffffffffffff1673ffffffffffffffffffffffffffffffffffffffff166347dba776306040518263ffffffff1660e01b81526004016114519190612f58565b602060405180830381600087803b15801561146b57600080fd5b505af115801561147f573d6000803e3d6000fd5b505050506040513d601f19601f820116820180604052508101906114a391906128a9565b601a81905550565b6114bc6114b6611a3c565b83611afd565b6114fb576040517f08c379a00000000000000000000000000000000000000000000000000000000081526004016114f2906131fc565b60405180910390fd5b61150784848484611f1b565b50505050565b60115481565b81601b5414611557576040517f08c379a000000000000000000000000000000000000000000000000000000000815260040161154e90612ffc565b60405180910390fd5b806011819055505050565b606061156d826119d0565b6115ac576040517f08c379a00000000000000000000000000000000000000000000000000000000081526004016115a39061321c565b60405180910390fd5b6000601580546115bb906134bf565b90501161165257601480546115cf906134bf565b80601f01602080910402602001604051908101604052809291908181526020018280546115fb906134bf565b80156116485780601f1061161d57610100808354040283529160200191611648565b820191906000526020600020905b81548152906001019060200180831161162b57829003601f168201915b505050505061167e565b601561165d83611f77565b60405160200161166e929190612f29565b6040516020818303038152906040525b9050919050565b600c5481565b600a8054611698906134bf565b80601f01602080910402602001604051908101604052809291908181526020018280546116c4906134bf565b80156117115780601f106116e657610100808354040283529160200191611711565b820191906000526020600020905b8154815290600101906020018083116116f457829003601f168201915b505050505081565b6000600560008473ffffffffffffffffffffffffffffffffffffffff1673ffffffffffffffffffffffffffffffffffffffff16815260200190815260200160002060008373ffffffffffffffffffffffffffffffffffffffff1673ffffffffffffffffffffffffffffffffffffffff16815260200190815260200160002060009054906101000a900460ff16905092915050565b601760009054906101000a900473ffffffffffffffffffffffffffffffffffffffff1673ffffffffffffffffffffffffffffffffffffffff16630fcc3081306040518263ffffffff1660e01b81526004016118089190612f58565b602060405180830381600087803b15801561182257600080fd5b505af1158015611836573d6000803e3d6000fd5b505050506040513d601f19601f8201168201806040525081019061185a91906128a9565b601981905550565b600d5481565b611870611a3c565b73ffffffffffffffffffffffffffffffffffffffff1661188e611068565b73ffffffffffffffffffffffffffffffffffffffff16146118e4576040517f08c379a00000000000000000000000000000000000000000000000000000000081526004016118db9061319c565b60405180910390fd5b600073ffffffffffffffffffffffffffffffffffffffff168173ffffffffffffffffffffffffffffffffffffffff161415611954576040517f08c379a000000000000000000000000000000000000000000000000000000000815260040161194b9061303c565b60405180910390fd5b61195d81611e37565b50565b60105481565b60007f01ffc9a7000000000000000000000000000000000000000000000000000000007bffffffffffffffffffffffffffffffffffffffffffffffffffffffff1916827bffffffffffffffffffffffffffffffffffffffffffffffffffffffff1916149050919050565b60008073ffffffffffffffffffffffffffffffffffffffff166002600084815260200190815260200160002060009054906101000a900473ffffffffffffffffffffffffffffffffffffffff1673ffffffffffffffffffffffffffffffffffffffff1614159050919050565b600033905090565b816004600083815260200190815260200160002060006101000a81548173ffffffffffffffffffffffffffffffffffffffff021916908373ffffffffffffffffffffffffffffffffffffffff160217905550808273ffffffffffffffffffffffffffffffffffffffff16611ab783610d0e565b73ffffffffffffffffffffffffffffffffffffffff167f8c5be1e5ebec7d5bd14f71427d1e84f3dd0314c0f7b2291e5b200ac8c7c3b92560405160405180910390a45050565b6000611b08826119d0565b611b47576040517f08c379a0000000000000000000000000000000000000000000000000000000008152600401611b3e906130dc565b60405180910390fd5b6000611b5283610d0e565b90508073ffffffffffffffffffffffffffffffffffffffff168473ffffffffffffffffffffffffffffffffffffffff161480611bc157508373ffffffffffffffffffffffffffffffffffffffff16611ba98461087b565b73ffffffffffffffffffffffffffffffffffffffff16145b80611bd25750611bd18185611719565b5b91505092915050565b8273ffffffffffffffffffffffffffffffffffffffff16611bfb82610d0e565b73ffffffffffffffffffffffffffffffffffffffff1614611c51576040517f08c379a0000000000000000000000000000000000000000000000000000000008152600401611c48906131bc565b60405180910390fd5b600073ffffffffffffffffffffffffffffffffffffffff168273ffffffffffffffffffffffffffffffffffffffff161415611cc1576040517f08c379a0000000000000000000000000000000000000000000000000000000008152600401611cb89061309c565b60405180910390fd5b611ccc838383612124565b611cd7600082611a44565b6001600360008573ffffffffffffffffffffffffffffffffffffffff1673ffffffffffffffffffffffffffffffffffffffff1681526020019081526020016000206000828254611d2791906133bd565b925050819055506001600360008473ffffffffffffffffffffffffffffffffffffffff1673ffffffffffffffffffffffffffffffffffffffff1681526020019081526020016000206000828254611d7e9190613336565b92505081905550816002600083815260200190815260200160002060006101000a81548173ffffffffffffffffffffffffffffffffffffffff021916908373ffffffffffffffffffffffffffffffffffffffff160217905550808273ffffffffffffffffffffffffffffffffffffffff168473ffffffffffffffffffffffffffffffffffffffff167fddf252ad1be2c89b69c2b068fc378daa952ba7f163c4a11628f55a4df523b3ef60405160405180910390a4505050565b6000600660009054906101000a900473ffffffffffffffffffffffffffffffffffffffff16905081600660006101000a81548173ffffffffffffffffffffffffffffffffffffffff021916908373ffffffffffffffffffffffffffffffffffffffff1602179055508173ffffffffffffffffffffffffffffffffffffffff168173ffffffffffffffffffffffffffffffffffffffff167f8be0079c531659141344cd1fd0a4f28419497f9722a3daafe3b4186f6b6457e060405160405180910390a35050565b611f17828260405180602001604052806000815250612129565b5050565b611f26848484611bdb565b611f3284848484612184565b611f71576040517f08c379a0000000000000000000000000000000000000000000000000000000008152600401611f689061301c565b60405180910390fd5b50505050565b60606000821415611fbf576040518060400160405280600181526020017f3000000000000000000000000000000000000000000000000000000000000000815250905061211f565b600082905060005b60008214611ff1578080611fda9061354d565b915050600a82611fea919061338c565b9150611fc7565b60008167ffffffffffffffff811115612033577f4e487b7100000000000000000000000000000000000000000000000000000000600052604160045260246000fd5b6040519080825280601f01601f1916602001820160405280156120655781602001600182028036833780820191505090505b5090505b600085146121185760018261207e91906133bd565b9150600a8561208d9190613596565b60306120999190613336565b60f81b8183815181106120d5577f4e487b7100000000000000000000000000000000000000000000000000000000600052603260045260246000fd5b60200101907effffffffffffffffffffffffffffffffffffffffffffffffffffffffffffff1916908160001a905350600a85612111919061338c565b9450612069565b8093505050505b919050565b505050565b612133838361231b565b6121406000848484612184565b61217f576040517f08c379a00000000000000000000000000000000000000000000000000000000081526004016121769061301c565b60405180910390fd5b505050565b60006121a58473ffffffffffffffffffffffffffffffffffffffff166124e9565b1561230e578373ffffffffffffffffffffffffffffffffffffffff1663150b7a026121ce611a3c565b8786866040518563ffffffff1660e01b81526004016121f09493929190612f73565b602060405180830381600087803b15801561220a57600080fd5b505af192505050801561223b57506040513d601f19601f82011682018060405250810190612238919061298b565b60015b6122be573d806000811461226b576040519150601f19603f3d011682016040523d82523d6000602084013e612270565b606091505b506000815114156122b6576040517f08c379a00000000000000000000000000000000000000000000000000000000081526004016122ad9061301c565b60405180910390fd5b805181602001fd5b63150b7a0260e01b7bffffffffffffffffffffffffffffffffffffffffffffffffffffffff1916817bffffffffffffffffffffffffffffffffffffffffffffffffffffffff191614915050612313565b600190505b949350505050565b600073ffffffffffffffffffffffffffffffffffffffff168273ffffffffffffffffffffffffffffffffffffffff16141561238b576040517f08c379a00000000000000000000000000000000000000000000000000000000081526004016123829061315c565b60405180910390fd5b612394816119d0565b156123d4576040517f08c379a00000000000000000000000000000000000000000000000000000000081526004016123cb9061305c565b60405180910390fd5b6123e060008383612124565b6001600360008473ffffffffffffffffffffffffffffffffffffffff1673ffffffffffffffffffffffffffffffffffffffff16815260200190815260200160002060008282546124309190613336565b92505081905550816002600083815260200190815260200160002060006101000a81548173ffffffffffffffffffffffffffffffffffffffff021916908373ffffffffffffffffffffffffffffffffffffffff160217905550808273ffffffffffffffffffffffffffffffffffffffff16600073ffffffffffffffffffffffffffffffffffffffff167fddf252ad1be2c89b69c2b068fc378daa952ba7f163c4a11628f55a4df523b3ef60405160405180910390a45050565b600080823b905060008111915050919050565b828054612508906134bf565b90600052602060002090601f01602090048101928261252a5760008555612571565b82601f1061254357805160ff1916838001178555612571565b82800160010185558215612571579182015b82811115612570578251825591602001919060010190612555565b5b50905061257e9190612582565b5090565b5b8082111561259b576000816000905550600101612583565b5090565b60006125b26125ad8461327c565b613257565b9050828152602081018484840111156125ca57600080fd5b6125d584828561347d565b509392505050565b60006125f06125eb846132ad565b613257565b90508281526020810184848401111561260857600080fd5b61261384828561347d565b509392505050565b60008135905061262a81613b8d565b92915050565b60008135905061263f81613ba4565b92915050565b60008135905061265481613bbb565b92915050565b60008151905061266981613bbb565b92915050565b60008135905061267e81613bd2565b92915050565b60008151905061269381613bd2565b92915050565b600082601f8301126126aa57600080fd5b81356126ba84826020860161259f565b91505092915050565b600082601f8301126126d457600080fd5b81356126e48482602086016125dd565b91505092915050565b6000813590506126fc81613be9565b92915050565b60006020828403121561271457600080fd5b60006127228482850161261b565b91505092915050565b6000806040838503121561273e57600080fd5b600061274c8582860161261b565b925050602061275d8582860161261b565b9150509250929050565b60008060006060848603121561277c57600080fd5b600061278a8682870161261b565b935050602061279b8682870161261b565b92505060406127ac868287016126ed565b9150509250925092565b600080600080608085870312156127cc57600080fd5b60006127da8782880161261b565b94505060206127eb8782880161261b565b93505060406127fc878288016126ed565b925050606085013567ffffffffffffffff81111561281957600080fd5b61282587828801612699565b91505092959194509250565b6000806040838503121561284457600080fd5b60006128528582860161261b565b925050602061286385828601612630565b9150509250929050565b6000806040838503121561288057600080fd5b600061288e8582860161261b565b925050602061289f858286016126ed565b9150509250929050565b6000602082840312156128bb57600080fd5b60006128c98482850161265a565b91505092915050565b600080604083850312156128e557600080fd5b60006128f385828601612645565b925050602083013567ffffffffffffffff81111561291057600080fd5b61291c858286016126c3565b9150509250929050565b6000806040838503121561293957600080fd5b600061294785828601612645565b9250506020612958858286016126ed565b9150509250929050565b60006020828403121561297457600080fd5b60006129828482850161266f565b91505092915050565b60006020828403121561299d57600080fd5b60006129ab84828501612684565b91505092915050565b6000602082840312156129c657600080fd5b600082013567ffffffffffffffff8111156129e057600080fd5b6129ec848285016126c3565b91505092915050565b6000806000806000806000806000806101408b8d031215612a1557600080fd5b60008b013567ffffffffffffffff811115612a2f57600080fd5b612a3b8d828e016126c3565b9a505060208b013567ffffffffffffffff811115612a5857600080fd5b612a648d828e016126c3565b99505060408b013567ffffffffffffffff811115612a8157600080fd5b612a8d8d828e016126c3565b9850506060612a9e8d828e016126ed565b9750506080612aaf8d828e016126ed565b96505060a0612ac08d828e016126ed565b95505060c0612ad18d828e016126ed565b94505060e0612ae28d828e016126ed565b935050610100612af48d828e016126ed565b925050610120612b068d828e0161261b565b9150509295989b9194979a5092959850565b600060208284031215612b2a57600080fd5b6000612b38848285016126ed565b91505092915050565b612b4a816133f1565b82525050565b612b5981613403565b82525050565b6000612b6a826132f3565b612b748185613309565b9350612b8481856020860161348c565b612b8d81613683565b840191505092915050565b6000612ba3826132fe565b612bad818561331a565b9350612bbd81856020860161348c565b612bc681613683565b840191505092915050565b6000612bdc826132fe565b612be6818561332b565b9350612bf681856020860161348c565b80840191505092915050565b60008154612c0f816134bf565b612c19818661332b565b94506001821660008114612c345760018114612c4557612c78565b60ff19831686528186019350612c78565b612c4e856132de565b60005b83811015612c7057815481890152600182019150602081019050612c51565b838801955050505b50505092915050565b6000612c8e60278361331a565b9150612c9982613694565b604082019050919050565b6000612cb160328361331a565b9150612cbc826136e3565b604082019050919050565b6000612cd460268361331a565b9150612cdf82613732565b604082019050919050565b6000612cf7601c8361331a565b9150612d0282613781565b602082019050919050565b6000612d1a60258361331a565b9150612d25826137aa565b604082019050919050565b6000612d3d60248361331a565b9150612d48826137f9565b604082019050919050565b6000612d6060198361331a565b9150612d6b82613848565b602082019050919050565b6000612d83602c8361331a565b9150612d8e82613871565b604082019050919050565b6000612da660388361331a565b9150612db1826138c0565b604082019050919050565b6000612dc9602a8361331a565b9150612dd48261390f565b604082019050919050565b6000612dec60298361331a565b9150612df78261395e565b604082019050919050565b6000612e0f60208361331a565b9150612e1a826139ad565b602082019050919050565b6000612e32602c8361331a565b9150612e3d826139d6565b604082019050919050565b6000612e5560058361332b565b9150612e6082613a25565b600582019050919050565b6000612e7860208361331a565b9150612e8382613a4e565b602082019050919050565b6000612e9b60298361331a565b9150612ea682613a77565b604082019050919050565b6000612ebe60218361331a565b9150612ec982613ac6565b604082019050919050565b6000612ee160318361331a565b9150612eec82613b15565b604082019050919050565b6000612f0460158361331a565b9150612f0f82613b64565b602082019050919050565b612f2381613473565b82525050565b6000612f358285612c02565b9150612f418284612bd1565b9150612f4c82612e48565b91508190509392505050565b6000602082019050612f6d6000830184612b41565b92915050565b6000608082019050612f886000830187612b41565b612f956020830186612b41565b612fa26040830185612f1a565b8181036060830152612fb48184612b5f565b905095945050505050565b6000602082019050612fd46000830184612b50565b92915050565b60006020820190508181036000830152612ff48184612b98565b905092915050565b6000602082019050818103600083015261301581612c81565b9050919050565b6000602082019050818103600083015261303581612ca4565b9050919050565b6000602082019050818103600083015261305581612cc7565b9050919050565b6000602082019050818103600083015261307581612cea565b9050919050565b6000602082019050818103600083015261309581612d0d565b9050919050565b600060208201905081810360008301526130b581612d30565b9050919050565b600060208201905081810360008301526130d581612d53565b9050919050565b600060208201905081810360008301526130f581612d76565b9050919050565b6000602082019050818103600083015261311581612d99565b9050919050565b6000602082019050818103600083015261313581612dbc565b9050919050565b6000602082019050818103600083015261315581612ddf565b9050919050565b6000602082019050818103600083015261317581612e02565b9050919050565b6000602082019050818103600083015261319581612e25565b9050919050565b600060208201905081810360008301526131b581612e6b565b9050919050565b600060208201905081810360008301526131d581612e8e565b9050919050565b600060208201905081810360008301526131f581612eb1565b9050919050565b6000602082019050818103600083015261321581612ed4565b9050919050565b6000602082019050818103600083015261323581612ef7565b9050919050565b60006020820190506132516000830184612f1a565b92915050565b6000613261613272565b905061326d82826134f1565b919050565b6000604051905090565b600067ffffffffffffffff82111561329757613296613654565b5b6132a082613683565b9050602081019050919050565b600067ffffffffffffffff8211156132c8576132c7613654565b5b6132d182613683565b9050602081019050919050565b60008190508160005260206000209050919050565b600081519050919050565b600081519050919050565b600082825260208201905092915050565b600082825260208201905092915050565b600081905092915050565b600061334182613473565b915061334c83613473565b9250827fffffffffffffffffffffffffffffffffffffffffffffffffffffffffffffffff03821115613381576133806135c7565b5b828201905092915050565b600061339782613473565b91506133a283613473565b9250826133b2576133b16135f6565b5b828204905092915050565b60006133c882613473565b91506133d383613473565b9250828210156133e6576133e56135c7565b5b828203905092915050565b60006133fc82613453565b9050919050565b60008115159050919050565b6000819050919050565b60007fffffffff0000000000000000000000000000000000000000000000000000000082169050919050565b600061ffff82169050919050565b600073ffffffffffffffffffffffffffffffffffffffff82169050919050565b6000819050919050565b82818337600083830152505050565b60005b838110156134aa57808201518184015260208101905061348f565b838111156134b9576000848401525b50505050565b600060028204905060018216806134d757607f821691505b602082108114156134eb576134ea613625565b5b50919050565b6134fa82613683565b810181811067ffffffffffffffff8211171561351957613518613654565b5b80604052505050565b600061352d82613445565b915061ffff821415613542576135416135c7565b5b600182019050919050565b600061355882613473565b91507fffffffffffffffffffffffffffffffffffffffffffffffffffffffffffffffff82141561358b5761358a6135c7565b5b600182019050919050565b60006135a182613473565b91506135ac83613473565b9250826135bc576135bb6135f6565b5b828206905092915050565b7f4e487b7100000000000000000000000000000000000000000000000000000000600052601160045260246000fd5b7f4e487b7100000000000000000000000000000000000000000000000000000000600052601260045260246000fd5b7f4e487b7100000000000000000000000000000000000000000000000000000000600052602260045260246000fd5b7f4e487b7100000000000000000000000000000000000000000000000000000000600052604160045260246000fd5b6000601f19601f8301169050919050565b7f596f75747562652053756273637269626572732052657175657374204e6f742060008201527f4d61746368656400000000000000000000000000000000000000000000000000602082015250565b7f4552433732313a207472616e7366657220746f206e6f6e20455243373231526560008201527f63656976657220696d706c656d656e7465720000000000000000000000000000602082015250565b7f4f776e61626c653a206e6577206f776e657220697320746865207a65726f206160008201527f6464726573730000000000000000000000000000000000000000000000000000602082015250565b7f4552433732313a20746f6b656e20616c7265616479206d696e74656400000000600082015250565b7f53706f74696679204c697374656e6572732052657175657374204e6f74204d6160008201527f7463686564000000000000000000000000000000000000000000000000000000602082015250565b7f4552433732313a207472616e7366657220746f20746865207a65726f2061646460008201527f7265737300000000000000000000000000000000000000000000000000000000602082015250565b7f4552433732313a20617070726f766520746f2063616c6c657200000000000000600082015250565b7f4552433732313a206f70657261746f7220717565727920666f72206e6f6e657860008201527f697374656e7420746f6b656e0000000000000000000000000000000000000000602082015250565b7f4552433732313a20617070726f76652063616c6c6572206973206e6f74206f7760008201527f6e6572206e6f7220617070726f76656420666f7220616c6c0000000000000000602082015250565b7f4552433732313a2062616c616e636520717565727920666f7220746865207a6560008201527f726f206164647265737300000000000000000000000000000000000000000000602082015250565b7f4552433732313a206f776e657220717565727920666f72206e6f6e657869737460008201527f656e7420746f6b656e0000000000000000000000000000000000000000000000602082015250565b7f4552433732313a206d696e7420746f20746865207a65726f2061646472657373600082015250565b7f4552433732313a20617070726f76656420717565727920666f72206e6f6e657860008201527f697374656e7420746f6b656e0000000000000000000000000000000000000000602082015250565b7f2e6a736f6e000000000000000000000000000000000000000000000000000000600082015250565b7f4f776e61626c653a2063616c6c6572206973206e6f7420746865206f776e6572600082015250565b7f4552433732313a207472616e73666572206f6620746f6b656e2074686174206960008201527f73206e6f74206f776e0000000000000000000000000000000000000000000000602082015250565b7f4552433732313a20617070726f76616c20746f2063757272656e74206f776e6560008201527f7200000000000000000000000000000000000000000000000000000000000000602082015250565b7f4552433732313a207472616e736665722063616c6c6572206973206e6f74206f60008201527f776e6572206e6f7220617070726f766564000000000000000000000000000000602082015250565b7f546f6b656e20646f6573206e6f74206578697374730000000000000000000000600082015250565b613b96816133f1565b8114613ba157600080fd5b50565b613bad81613403565b8114613bb857600080fd5b50565b613bc48161340f565b8114613bcf57600080fd5b50565b613bdb81613419565b8114613be657600080fd5b50565b613bf281613473565b8114613bfd57600080fd5b5056fea2646970667358221220a4ee6de98fc7627b9af1be26675896790ad5a3285af649e43d0121bb323ce47064736f6c63430008040033697066733a2f2f516d554e594d6f724c59397931356559595a44587854626451504158577143334d774d6d344a74757a3753737841",
  "linkReferences": {},
  "deployedLinkReferences": {}
}