{
  "_format": "hh-sol-artifact-1",
  "contractName": "BondNFTManager",
  "sourceName": "contracts/BondNFTManager.sol",
  "abi": [
    {
      "anonymous": false,
      "inputs": [
        {
          "indexed": false,
          "internalType": "address",
          "name": "artist",
          "type": "address"
        },
        {
          "indexed": false,
          "internalType": "address",
          "name": "assetPool",
          "type": "address"
        },
        {
          "indexed": false,
          "internalType": "uint256",
          "name": "bondValue",
          "type": "uint256"
        }
      ],
      "name": "AssetPoolCreated",
      "type": "event"
    },
    {
      "anonymous": false,
      "inputs": [
        {
          "indexed": false,
          "internalType": "address",
          "name": "nftaddress",
          "type": "address"
        },
        {
          "indexed": false,
          "internalType": "uint256",
          "name": "",
          "type": "uint256"
        }
      ],
      "name": "BondAssestPoolInfoGet",
      "type": "event"
    },
    {
      "anonymous": false,
      "inputs": [
        {
          "indexed": false,
          "internalType": "address",
          "name": "nftaddress",
          "type": "address"
        },
        {
          "indexed": false,
          "internalType": "uint256",
          "name": "",
          "type": "uint256"
        }
      ],
      "name": "BondConfigDone",
      "type": "event"
    },
    {
      "anonymous": false,
      "inputs": [
        {
          "indexed": false,
          "internalType": "address",
          "name": "nftaddress",
          "type": "address"
        },
        {
          "indexed": false,
          "internalType": "uint256",
          "name": "",
          "type": "uint256"
        }
      ],
      "name": "BondGenerated",
      "type": "event"
    },
    {
      "anonymous": false,
      "inputs": [
        {
          "indexed": false,
          "internalType": "address",
          "name": "nftaddress",
          "type": "address"
        },
        {
          "indexed": false,
          "internalType": "uint256",
          "name": "",
          "type": "uint256"
        }
      ],
      "name": "BondInitialized",
      "type": "event"
    },
    {
      "anonymous": false,
      "inputs": [
        {
          "indexed": false,
          "internalType": "address",
          "name": "issuerAddress",
          "type": "address"
        },
        {
          "indexed": false,
          "internalType": "address",
          "name": "bondNftAddress",
          "type": "address"
        },
        {
          "indexed": false,
          "internalType": "string",
          "name": "name",
          "type": "string"
        },
        {
          "indexed": false,
          "internalType": "string",
          "name": "symbol",
          "type": "string"
        }
      ],
      "name": "BondNFTCreated",
      "type": "event"
    },
    {
      "anonymous": false,
      "inputs": [
        {
          "indexed": true,
          "internalType": "address",
          "name": "bondNftAddress",
          "type": "address"
        },
        {
          "indexed": false,
          "internalType": "uint256",
          "name": "numberOfBonds",
          "type": "uint256"
        }
      ],
      "name": "BondNFTMinted",
      "type": "event"
    },
    {
      "anonymous": false,
      "inputs": [
        {
          "indexed": true,
          "internalType": "address",
          "name": "previousOwner",
          "type": "address"
        },
        {
          "indexed": true,
          "internalType": "address",
          "name": "newOwner",
          "type": "address"
        }
      ],
      "name": "OwnershipTransferred",
      "type": "event"
    },
    {
      "inputs": [
        {
          "internalType": "uint256",
          "name": "",
          "type": "uint256"
        }
      ],
      "name": "allAssetPools",
      "outputs": [
        {
          "internalType": "address",
          "name": "",
          "type": "address"
        }
      ],
      "stateMutability": "view",
      "type": "function"
    },
    {
      "inputs": [],
      "name": "allAssetPoolsLength",
      "outputs": [
        {
          "internalType": "uint256",
          "name": "",
          "type": "uint256"
        }
      ],
      "stateMutability": "view",
      "type": "function"
    },
    {
      "inputs": [
        {
          "internalType": "uint256",
          "name": "",
          "type": "uint256"
        }
      ],
      "name": "allBondNfts",
      "outputs": [
        {
          "internalType": "address",
          "name": "",
          "type": "address"
        }
      ],
      "stateMutability": "view",
      "type": "function"
    },
    {
      "inputs": [],
      "name": "allNftLength",
      "outputs": [
        {
          "internalType": "uint256",
          "name": "",
          "type": "uint256"
        }
      ],
      "stateMutability": "view",
      "type": "function"
    },
    {
      "inputs": [
        {
          "internalType": "address",
          "name": "_creatorAddress",
          "type": "address"
        }
      ],
      "name": "assetPoolsLengthForUser",
      "outputs": [
        {
          "internalType": "uint256",
          "name": "",
          "type": "uint256"
        }
      ],
      "stateMutability": "view",
      "type": "function"
    },
    {
      "inputs": [
        {
          "internalType": "uint256",
          "name": "_bondValue",
          "type": "uint256"
        }
      ],
      "name": "createAssetPool",
      "outputs": [
        {
          "internalType": "address",
          "name": "assetPoolAddress",
          "type": "address"
        }
      ],
      "stateMutability": "nonpayable",
      "type": "function"
    },
    {
      "inputs": [
        {
          "internalType": "address",
          "name": "_ratingEngine",
          "type": "address"
        },
        {
          "internalType": "address",
          "name": "_bondNftGenerator",
          "type": "address"
        },
        {
          "internalType": "address",
          "name": "_usdcAddress",
          "type": "address"
        },
        {
          "internalType": "address",
          "name": "_managerAddress",
          "type": "address"
        }
      ],
      "name": "initialize",
      "outputs": [],
      "stateMutability": "nonpayable",
      "type": "function"
    },
    {
      "inputs": [
        {
          "internalType": "string",
          "name": "_artistName",
          "type": "string"
        },
        {
          "internalType": "string",
          "name": "_youtubeSongId",
          "type": "string"
        },
        {
          "internalType": "string",
          "name": "_soundchartsSongId",
          "type": "string"
        },
        {
          "internalType": "string",
          "name": "_songstatsSongId",
          "type": "string"
        },
        {
          "internalType": "uint256",
          "name": "_fundingAmount",
          "type": "uint256"
        },
        {
          "internalType": "uint256",
          "name": "_numberOfYears",
          "type": "uint256"
        },
        {
          "internalType": "uint256",
          "name": "_numberOfBonds",
          "type": "uint256"
        },
        {
          "internalType": "uint256",
          "name": "_facevalue",
          "type": "uint256"
        },
        {
          "internalType": "string",
          "name": "_bondName",
          "type": "string"
        },
        {
          "internalType": "string",
          "name": "_bondSymbol",
          "type": "string"
        },
        {
          "components": [
            {
              "internalType": "uint256",
              "name": "spotifyStreamCount",
              "type": "uint256"
            },
            {
              "internalType": "uint256",
              "name": "youtubeViewsCount",
              "type": "uint256"
            },
            {
              "internalType": "address",
              "name": "assetPoolAddress",
              "type": "address"
            }
          ],
          "internalType": "struct BondNFTManager.ListenersDetails",
          "name": "listenersDetails",
          "type": "tuple"
        }
      ],
      "name": "issueBond",
      "outputs": [
        {
          "internalType": "address",
          "name": "nftAddress",
          "type": "address"
        }
      ],
      "stateMutability": "nonpayable",
      "type": "function"
    },
    {
      "inputs": [
        {
          "internalType": "address",
          "name": "_nftAddress",
          "type": "address"
        }
      ],
      "name": "mintNFTBond",
      "outputs": [],
      "stateMutability": "nonpayable",
      "type": "function"
    },
    {
      "inputs": [
        {
          "internalType": "address",
          "name": "_creatorAddress",
          "type": "address"
        }
      ],
      "name": "nftBondLengthForUser",
      "outputs": [
        {
          "internalType": "uint256",
          "name": "",
          "type": "uint256"
        }
      ],
      "stateMutability": "view",
      "type": "function"
    },
    {
      "inputs": [],
      "name": "owner",
      "outputs": [
        {
          "internalType": "address",
          "name": "",
          "type": "address"
        }
      ],
      "stateMutability": "view",
      "type": "function"
    },
    {
      "inputs": [],
      "name": "renounceOwnership",
      "outputs": [],
      "stateMutability": "nonpayable",
      "type": "function"
    },
    {
      "inputs": [
        {
          "internalType": "address",
          "name": "_manager",
          "type": "address"
        }
      ],
      "name": "setManager",
      "outputs": [],
      "stateMutability": "nonpayable",
      "type": "function"
    },
    {
      "inputs": [
        {
          "internalType": "address",
          "name": "newOwner",
          "type": "address"
        }
      ],
      "name": "transferOwnership",
      "outputs": [],
      "stateMutability": "nonpayable",
      "type": "function"
    },
    {
      "inputs": [
        {
          "internalType": "address",
          "name": "",
          "type": "address"
        },
        {
          "internalType": "uint256",
          "name": "",
          "type": "uint256"
        }
      ],
      "name": "userAssetPools",
      "outputs": [
        {
          "internalType": "address",
          "name": "assetPoolAddress",
          "type": "address"
        },
        {
          "internalType": "address",
          "name": "bondNftAddress",
          "type": "address"
        },
        {
          "internalType": "uint256",
          "name": "bondvalue",
          "type": "uint256"
        }
      ],
      "stateMutability": "view",
      "type": "function"
    },
    {
      "inputs": [
        {
          "internalType": "address",
          "name": "",
          "type": "address"
        },
        {
          "internalType": "uint256",
          "name": "",
          "type": "uint256"
        }
      ],
      "name": "userBondConfigs",
      "outputs": [
        {
          "internalType": "string",
          "name": "artistName",
          "type": "string"
        },
        {
          "internalType": "string",
          "name": "youtubeSongId",
          "type": "string"
        },
        {
          "internalType": "string",
          "name": "soundchartsSongId",
          "type": "string"
        },
        {
          "internalType": "string",
          "name": "songstatsSongId",
          "type": "string"
        },
        {
          "internalType": "uint256",
          "name": "fundingAmount",
          "type": "uint256"
        },
        {
          "internalType": "uint256",
          "name": "numberOfYears",
          "type": "uint256"
        },
        {
          "internalType": "uint256",
          "name": "numberOfBonds",
          "type": "uint256"
        },
        {
          "internalType": "address",
          "name": "issuerAddress",
          "type": "address"
        },
        {
          "internalType": "uint256",
          "name": "faceValue",
          "type": "uint256"
        },
        {
          "internalType": "uint256",
          "name": "listeners",
          "type": "uint256"
        },
        {
          "internalType": "address",
          "name": "nftAddress",
          "type": "address"
        }
      ],
      "stateMutability": "view",
      "type": "function"
    }
  ],
  "bytecode": "0x608060405234801561001057600080fd5b5061001a3361001f565b61006f565b600080546001600160a01b038381166001600160a01b0319831681178455604051919092169283917f8be0079c531659141344cd1fd0a4f28419497f9722a3daafe3b4186f6b6457e09190a35050565b61291f8061007e6000396000f3fe60806040523480156200001157600080fd5b5060043610620001155760003560e01c8063715018a611620000a3578063d0ebdbe7116200006e578063d0ebdbe714620002a1578063f2fde38b14620002b8578063f8c8765e14620002cf578063fedf987114620002e657600080fd5b8063715018a61462000255578063745d2d2814620002615780638da5cb5b14620002785780639a79ac2c146200028a57600080fd5b806357181a0311620000e457806357181a0314620001a85780635d3e561514620001e657806362b47ff7146200021257806366a0564e146200023e57600080fd5b80631839cfa9146200011a578063329e4cb814620001315780634235a98d1462000161578063503b85b71462000178575b600080fd5b6007545b6040519081526020015b60405180910390f35b620001486200014236600462001469565b620002ef565b6040516001600160a01b03909116815260200162000128565b6200014862000172366004620015b6565b620007bb565b6200018f620001893660046200143a565b620009e9565b604051620001289b9a99989796959493929190620016b9565b620001bf620001b93660046200143a565b62000cb0565b604080516001600160a01b0394851681529390921660208401529082015260600162000128565b6200011e620001f73660046200138e565b6001600160a01b031660009081526005602052604090205490565b6200011e620002233660046200138e565b6001600160a01b031660009081526006602052604090205490565b620001486200024f366004620015b6565b62000cfe565b6200025f62000d29565b005b6200014862000272366004620015b6565b62000d41565b6000546001600160a01b031662000148565b6200025f6200029b3660046200138e565b62000d52565b6200025f620002b23660046200138e565b62000e7d565b6200025f620002c93660046200138e565b62000ea9565b6200025f620002e0366004620013d5565b62000f3f565b6008546200011e565b6002546040517fdff6a9ab0000000000000000000000000000000000000000000000000000000081526000916001600160a01b03169063dff6a9ab906200033d908790879060040162001687565b602060405180830381600087803b1580156200035857600080fd5b505af11580156200036d573d6000803e3d6000fd5b505050506040513d601f19601f82011682018060405250810190620003939190620013b5565b604080516001600160a01b0383168152600160208201529192507f25b9ac95d6f2d198133e7c73caaca07042fa3ed6bb2055bbe72028e6e6d1aff1910160405180910390a16000819050806001600160a01b031663762639a08e8e8e8e8e8e8e8e8c600001518d602001518e604001516040518c63ffffffff1660e01b81526004016200042b9b9a999897969594939291906200175a565b600060405180830381600087803b1580156200044657600080fd5b505af11580156200045b573d6000803e3d6000fd5b5050604080516001600160a01b0386168152600260208201527fc3bbac3898614a778cdf8b31e11d85887fb9ce9028ec2fb7662787cd65a2a5da935001905060405180910390a160408051610160810182528e815260208082018f90528183018e9052606082018d9052608082018c905260a082018b905260c082018a90523360e0830181905261010083018a9052600061012084018190526001600160a01b038716610140850152908152600582529283208054600181018255908452928190208251805193948594600b909102909201926200053f92849290910190620011d9565b5060208281015180516200055a9260018501920190620011d9565b506040820151805162000578916002840191602090910190620011d9565b506060820151805162000596916003840191602090910190620011d9565b506080820151600482015560a0820151600582015560c0820151600682015560e0820151600780830180546001600160a01b03199081166001600160a01b03948516179091556101008501516008850155610120850151600985015561014090940151600a909301805485169383169390931790925581546001810183556000929092527fa66cc928b5edb82af9bd49922954155ab7b0942694bea4ce44661d9a8736c688909101805490921690851690811790915560408051918252600360208301527f223bc2ea5f6f633fbd09ea788c5c374339c996545dc14309b355d7c410a225ba910160405180910390a160006200069733866040015162000f99565b6001600160a01b0385166020828101829052604080519283526004918301919091529192507f03bf1eac7a617115d962e580f37307fa9e299289d786481c087c533b9120d686910160405180910390a160408581015190517f5fd94a37000000000000000000000000000000000000000000000000000000008152600481018c90526001600160a01b038681166024830152821690635fd94a3790604401600060405180830381600087803b1580156200075057600080fd5b505af115801562000765573d6000803e3d6000fd5b505050507ff63f15bf2eae9805bd14ff71c78cba83e6986d8afd1ddc03a2e0863e360c6faf33868a8a604051620007a094939291906200163a565b60405180910390a1505050509b9a5050505050505050505050565b6000808211620008125760405162461bcd60e51b815260206004820152601d60248201527f56616c7565206f662074686520626f6e642063616e6e6f74206265203000000060448201526064015b60405180910390fd5b6003546004546040516000926001600160a01b03908116921690620008379062001268565b6001600160a01b03928316815291166020820152604001604051809103906000f0801580156200086b573d6000803e3d6000fd5b506040517fcd6dc687000000000000000000000000000000000000000000000000000000008152336004820152602481018590529092508291506001600160a01b0382169063cd6dc68790604401600060405180830381600087803b158015620008d457600080fd5b505af1158015620008e9573d6000803e3d6000fd5b50503360008181526006602090815260408083208151606080820184526001600160a01b038b81168084528387018881528487018f8152865460018082018955978b52898b209651600390910290960180549685166001600160a01b031997881617815591518288018054919095169087161790935591516002909201919091556008805494850181559096527ff3f7a9fe364faab93b216da50a3214154f22a0a2b415b23a84c8169e8b636ee39092018054909116851790558151948552918401929092529082018790527f82bc170609b0a506f3f9ac2cf64600511887855a75436276915585a1b04e3c33935001905060405180910390a150919050565b6005602052816000526040600020818154811062000a0657600080fd5b90600052602060002090600b02016000915091505080600001805462000a2c90620017f8565b80601f016020809104026020016040519081016040528092919081815260200182805462000a5a90620017f8565b801562000aab5780601f1062000a7f5761010080835404028352916020019162000aab565b820191906000526020600020905b81548152906001019060200180831162000a8d57829003601f168201915b50505050509080600101805462000ac290620017f8565b80601f016020809104026020016040519081016040528092919081815260200182805462000af090620017f8565b801562000b415780601f1062000b155761010080835404028352916020019162000b41565b820191906000526020600020905b81548152906001019060200180831162000b2357829003601f168201915b50505050509080600201805462000b5890620017f8565b80601f016020809104026020016040519081016040528092919081815260200182805462000b8690620017f8565b801562000bd75780601f1062000bab5761010080835404028352916020019162000bd7565b820191906000526020600020905b81548152906001019060200180831162000bb957829003601f168201915b50505050509080600301805462000bee90620017f8565b80601f016020809104026020016040519081016040528092919081815260200182805462000c1c90620017f8565b801562000c6d5780601f1062000c415761010080835404028352916020019162000c6d565b820191906000526020600020905b81548152906001019060200180831162000c4f57829003601f168201915b505050600484015460058501546006860154600787015460088801546009890154600a90990154979894979396509194506001600160a01b03908116939192168b565b6006602052816000526040600020818154811062000ccd57600080fd5b60009182526020909120600390910201805460018201546002909201546001600160a01b0391821694509116915083565b6008818154811062000d0f57600080fd5b6000918252602090912001546001600160a01b0316905081565b62000d336200112d565b62000d3f600062001189565b565b6007818154811062000d0f57600080fd5b6040517f8689650000000000000000000000000000000000000000000000000000000000815233600482015281906001600160a01b03821690638689650090602401600060405180830381600087803b15801562000daf57600080fd5b505af115801562000dc4573d6000803e3d6000fd5b50505050816001600160a01b03167f8a8c809f09c896246d86b37de1cc3bd24a481a24063be7ed28ee4fd21fa255cd826001600160a01b03166318160ddd6040518163ffffffff1660e01b815260040160206040518083038186803b15801562000e2d57600080fd5b505afa15801562000e42573d6000803e3d6000fd5b505050506040513d601f19601f8201168201806040525081019062000e689190620015d0565b60405190815260200160405180910390a25050565b62000e876200112d565b600480546001600160a01b0319166001600160a01b0392909216919091179055565b62000eb36200112d565b6001600160a01b03811662000f315760405162461bcd60e51b815260206004820152602660248201527f4f776e61626c653a206e6577206f776e657220697320746865207a65726f206160448201527f6464726573730000000000000000000000000000000000000000000000000000606482015260840162000809565b62000f3c8162001189565b50565b62000f496200112d565b600180546001600160a01b039586166001600160a01b0319918216179091556002805494861694821694909417909355600380549285169284169290921790915560048054919093169116179055565b60408051606081018252600080825260208083018290528284018290526001600160a01b0386168252600681528382208054855181840281018401909652808652939492939091849084015b8282101562001041576000848152602090819020604080516060810182526003860290920180546001600160a01b0390811684526001808301549091168486015260029091015491830191909152908352909201910162000fe5565b50505050905060005b81518163ffffffff161015620010dd57836001600160a01b0316828263ffffffff16815181106200107f576200107f62001868565b6020026020010151600001516001600160a01b03161415620010c857818163ffffffff1681518110620010b657620010b662001868565b60200260200101519250505062001127565b80620010d48162001835565b9150506200104a565b5060405162461bcd60e51b815260206004820152601460248201527f417373657420506f6f6c204e6f7420466f756e64000000000000000000000000604482015260640162000809565b92915050565b6000546001600160a01b0316331462000d3f5760405162461bcd60e51b815260206004820181905260248201527f4f776e61626c653a2063616c6c6572206973206e6f7420746865206f776e6572604482015260640162000809565b600080546001600160a01b038381166001600160a01b0319831681178455604051919092169283917f8be0079c531659141344cd1fd0a4f28419497f9722a3daafe3b4186f6b6457e09190a35050565b828054620011e790620017f8565b90600052602060002090601f0160209004810192826200120b576000855562001256565b82601f106200122657805160ff191683800117855562001256565b8280016001018555821562001256579182015b828111156200125657825182559160200191906001019062001239565b506200126492915062001276565b5090565b61103f80620018ab83390190565b5b8082111562001264576000815560010162001277565b600082601f8301126200129f57600080fd5b813567ffffffffffffffff80821115620012bd57620012bd6200187e565b604051601f8301601f19908116603f01168101908282118183101715620012e857620012e86200187e565b816040528381528660208588010111156200130257600080fd5b836020870160208301376000602085830101528094505050505092915050565b6000606082840312156200133557600080fd5b6040516060810181811067ffffffffffffffff821117156200135b576200135b6200187e565b806040525080915082358152602083013560208201526040830135620013818162001894565b6040919091015292915050565b600060208284031215620013a157600080fd5b8135620013ae8162001894565b9392505050565b600060208284031215620013c857600080fd5b8151620013ae8162001894565b60008060008060808587031215620013ec57600080fd5b8435620013f98162001894565b935060208501356200140b8162001894565b925060408501356200141d8162001894565b915060608501356200142f8162001894565b939692955090935050565b600080604083850312156200144e57600080fd5b82356200145b8162001894565b946020939093013593505050565b60008060008060008060008060008060006101a08c8e0312156200148c57600080fd5b67ffffffffffffffff808d351115620014a457600080fd5b620014b38e8e358f016200128d565b9b508060208e01351115620014c757600080fd5b620014d98e60208f01358f016200128d565b9a508060408e01351115620014ed57600080fd5b620014ff8e60408f01358f016200128d565b99508060608e013511156200151357600080fd5b620015258e60608f01358f016200128d565b985060808d0135975060a08d0135965060c08d0135955060e08d01359450806101008e013511156200155657600080fd5b620015698e6101008f01358f016200128d565b9350806101208e013511156200157e57600080fd5b50620015928d6101208e01358e016200128d565b9150620015a48d6101408e0162001322565b90509295989b509295989b9093969950565b600060208284031215620015c957600080fd5b5035919050565b600060208284031215620015e357600080fd5b5051919050565b6000815180845260005b818110156200161257602081850181015186830182015201620015f4565b8181111562001625576000602083870101525b50601f01601f19169290920160200192915050565b60006001600160a01b03808716835280861660208401525060806040830152620016686080830185620015ea565b82810360608401526200167c8185620015ea565b979650505050505050565b6040815260006200169c6040830185620015ea565b8281036020840152620016b08185620015ea565b95945050505050565b6000610160808352620016cf8184018f620015ea565b90508281036020840152620016e5818e620015ea565b90508281036040840152620016fb818d620015ea565b9050828103606084015262001711818c620015ea565b608084019a909a52505060a081019690965260c08601949094526001600160a01b0392831660e08601526101008501919091526101208401521661014090910152949350505050565b6000610160808352620017708184018f620015ea565b9050828103602084015262001786818e620015ea565b905082810360408401526200179c818d620015ea565b90508281036060840152620017b2818c620015ea565b608084019a909a52505060a081019690965260c086019490945260e08501929092526101008401526101208301526001600160a01b031661014090910152949350505050565b600181811c908216806200180d57607f821691505b602082108114156200182f57634e487b7160e01b600052602260045260246000fd5b50919050565b600063ffffffff808316818114156200185e57634e487b7160e01b600052601160045260246000fd5b6001019392505050565b634e487b7160e01b600052603260045260246000fd5b634e487b7160e01b600052604160045260246000fd5b6001600160a01b038116811462000f3c57600080fdfe60806040526209e34060085534801561001757600080fd5b5060405161103f38038061103f833981016040819052610036916100dc565b61003f33610070565b600a80546001600160a01b039384166001600160a01b0319918216179091556009805492909316911617905561010f565b600080546001600160a01b038381166001600160a01b0319831681178455604051919092169283917f8be0079c531659141344cd1fd0a4f28419497f9722a3daafe3b4186f6b6457e09190a35050565b80516001600160a01b03811681146100d757600080fd5b919050565b600080604083850312156100ef57600080fd5b6100f8836100c0565b9150610106602084016100c0565b90509250929050565b610f218061011e6000396000f3fe60806040526004361061016a5760003560e01c80639b9bf60a116100cb578063d0ebdbe71161007f578063d5fb191b11610059578063d5fb191b146103b8578063f2fde38b146103ce578063fe2b34c7146103ee57600080fd5b8063d0ebdbe71461036c578063d25908aa1461038c578063d2d5862c146103a257600080fd5b8063c45771bc116100b0578063c45771bc146102e4578063cba9ff8c1461032c578063cd6dc6871461034c57600080fd5b80639b9bf60a146102ae578063a0ed94e5146102c457600080fd5b80635fd94a371161012257806389a302711161010757806389a302711461025a5780638b97a6121461027a5780638da5cb5b1461029057600080fd5b80635fd94a3714610225578063715018a61461024557600080fd5b806343bc16121161015357806343bc1612146101ad578063481c6a75146101e55780635bf8633a1461020557600080fd5b8063131409771461016f5780633b76594d14610198575b600080fd5b34801561017b57600080fd5b5061018560065481565b6040519081526020015b60405180910390f35b6101ab6101a6366004610dd7565b610403565b005b3480156101b957600080fd5b506001546101cd906001600160a01b031681565b6040516001600160a01b03909116815260200161018f565b3480156101f157600080fd5b506009546101cd906001600160a01b031681565b34801561021157600080fd5b506002546101cd906001600160a01b031681565b34801561023157600080fd5b506101ab610240366004610e09565b6107c3565b34801561025157600080fd5b506101ab6108f1565b34801561026657600080fd5b50600a546101cd906001600160a01b031681565b34801561028657600080fd5b5061018560085481565b34801561029c57600080fd5b506000546001600160a01b03166101cd565b3480156102ba57600080fd5b5061018560055481565b3480156102d057600080fd5b506101ab6102df366004610e35565b610905565b3480156102f057600080fd5b506103046102ff366004610dd7565b6109e3565b604080519586526020860194909452928401919091526060830152608082015260a00161018f565b34801561033857600080fd5b506101ab610347366004610dd7565b610a24565b34801561035857600080fd5b506101ab610367366004610d8b565b610aa7565b34801561037857600080fd5b506101ab610387366004610d69565b610b73565b34801561039857600080fd5b5061018560045481565b3480156103ae57600080fd5b5061018560035481565b3480156103c457600080fd5b5061018560075481565b3480156103da57600080fd5b506101ab6103e9366004610d69565b610c13565b3480156103fa57600080fd5b50600b54610185565b336104166000546001600160a01b031690565b6001600160a01b0316148061043557506009546001600160a01b031633145b8061044a57506001546001600160a01b031633145b6104ae5760405162461bcd60e51b815260206004820152602a60248201527f43616c6c6572206e6565647320746f204f776e6572206f72204d616e61676572604482015269081bdc88105c9d1a5cdd60b21b60648201526084015b60405180910390fd5b600a546040517fdd62ed3e0000000000000000000000000000000000000000000000000000000081523360048201523060248201526000916001600160a01b03169063dd62ed3e9060440160206040518083038186803b15801561051157600080fd5b505afa158015610525573d6000803e3d6000fd5b505050506040513d601f19601f820116820180604052508101906105499190610df0565b90508181101561059b5760405162461bcd60e51b815260206004820152601f60248201527f496e73756666696369656e7420617070726f76616c20666f722066756e64730060448201526064016104a5565b600a546040517f23b872dd000000000000000000000000000000000000000000000000000000008152336004820152306024820152604481018490526001600160a01b03909116906323b872dd90606401602060405180830381600087803b15801561060657600080fd5b505af115801561061a573d6000803e3d6000fd5b505050506040513d601f19601f8201168201806040525081019061063e9190610db5565b506006541561065c576008546007546106579190610e6a565b610669565b6008546106699043610e6a565b6007556006805490600061067c83610ea1565b90915550506040805160a08101825243815260208101848152428284019081526006546060840190815260075460808501908152600b8054600181018255600091909152945160059095027f0175b7a638427703f0dbe7bb9bbf987a2551717b34e79f33b5b1008d1fa01db981019590955592517f0175b7a638427703f0dbe7bb9bbf987a2551717b34e79f33b5b1008d1fa01dba85015590517f0175b7a638427703f0dbe7bb9bbf987a2551717b34e79f33b5b1008d1fa01dbb840155517f0175b7a638427703f0dbe7bb9bbf987a2551717b34e79f33b5b1008d1fa01dbc830155517f0175b7a638427703f0dbe7bb9bbf987a2551717b34e79f33b5b1008d1fa01dbd909101555133907fe1fffcc4923d04b559f4d29a8bfc6cda04eb5b0d3c460751c2402c5c5cc9109c906107b79085815260200190565b60405180910390a25050565b336107d66000546001600160a01b031690565b6001600160a01b031614806107f557506009546001600160a01b031633145b8061080a57506001546001600160a01b031633145b6108695760405162461bcd60e51b815260206004820152602a60248201527f43616c6c6572206e6565647320746f204f776e6572206f72204d616e61676572604482015269081bdc88105c9d1a5cdd60b21b60648201526084016104a5565b6001600160a01b0381166108bf5760405162461bcd60e51b815260206004820152600f60248201527f496e76616c69642041646472657373000000000000000000000000000000000060448201526064016104a5565b600280546001600160a01b0319166001600160a01b03831617905560048281556108ea908390610e82565b6005555050565b6108f9610ca3565b6109036000610cfd565b565b336109186000546001600160a01b031690565b6001600160a01b0316148061093757506009546001600160a01b031633145b8061094c57506001546001600160a01b031633145b6109ab5760405162461bcd60e51b815260206004820152602a60248201527f43616c6c6572206e6565647320746f204f776e6572206f72204d616e61676572604482015269081bdc88105c9d1a5cdd60b21b60648201526084016104a5565b600280546001600160a01b0319166001600160a01b038316179055600383905560048281556109db908390610e82565b600555505050565b600b81815481106109f357600080fd5b6000918252602090912060059091020180546001820154600283015460038401546004909401549294509092909185565b33610a376000546001600160a01b031690565b6001600160a01b03161480610a5657506009546001600160a01b031633145b610aa25760405162461bcd60e51b815260206004820181905260248201527f43616c6c6572206e6565647320746f204f776e6572206f72204d616e6167657260448201526064016104a5565b600855565b33610aba6000546001600160a01b031690565b6001600160a01b03161480610ad957506009546001600160a01b031633145b80610aee57506001546001600160a01b031633145b610b4d5760405162461bcd60e51b815260206004820152602a60248201527f43616c6c6572206e6565647320746f204f776e6572206f72204d616e61676572604482015269081bdc88105c9d1a5cdd60b21b60648201526084016104a5565b600180546001600160a01b0319166001600160a01b039390931692909217909155600355565b33610b866000546001600160a01b031690565b6001600160a01b03161480610ba557506009546001600160a01b031633145b610bf15760405162461bcd60e51b815260206004820181905260248201527f43616c6c6572206e6565647320746f204f776e6572206f72204d616e6167657260448201526064016104a5565b600980546001600160a01b0319166001600160a01b0392909216919091179055565b610c1b610ca3565b6001600160a01b038116610c975760405162461bcd60e51b815260206004820152602660248201527f4f776e61626c653a206e6577206f776e657220697320746865207a65726f206160448201527f646472657373000000000000000000000000000000000000000000000000000060648201526084016104a5565b610ca081610cfd565b50565b6000546001600160a01b031633146109035760405162461bcd60e51b815260206004820181905260248201527f4f776e61626c653a2063616c6c6572206973206e6f7420746865206f776e657260448201526064016104a5565b600080546001600160a01b038381166001600160a01b0319831681178455604051919092169283917f8be0079c531659141344cd1fd0a4f28419497f9722a3daafe3b4186f6b6457e09190a35050565b80356001600160a01b0381168114610d6457600080fd5b919050565b600060208284031215610d7b57600080fd5b610d8482610d4d565b9392505050565b60008060408385031215610d9e57600080fd5b610da783610d4d565b946020939093013593505050565b600060208284031215610dc757600080fd5b81518015158114610d8457600080fd5b600060208284031215610de957600080fd5b5035919050565b600060208284031215610e0257600080fd5b5051919050565b60008060408385031215610e1c57600080fd5b82359150610e2c60208401610d4d565b90509250929050565b600080600060608486031215610e4a57600080fd5b8335925060208401359150610e6160408501610d4d565b90509250925092565b60008219821115610e7d57610e7d610ebc565b500190565b6000816000190483118215151615610e9c57610e9c610ebc565b500290565b6000600019821415610eb557610eb5610ebc565b5060010190565b7f4e487b7100000000000000000000000000000000000000000000000000000000600052601160045260246000fdfea26469706673582212208510978ef945aba178331e7fcc732791c3e5e1cdc4927d247664769ad49b418664736f6c63430008070033a2646970667358221220f5ec19e8ce6195320c7ad87587f27ee3e300bb4f95f2c5acbc03864b78031f2a64736f6c63430008070033",
  "linkReferences": {},
  "deployedLinkReferences": {}
}