{
  "_format": "hh-sol-artifact-1",
  "contractName": "BondNFT",
  "sourceName": "contracts/BondNFT.sol",
  "abi": [
    {
      "inputs": [
        {
          "internalType": "string",
          "name": "_name",
          "type": "string"
        },
        {
          "internalType": "string",
          "name": "_symbol",
          "type": "string"
        }
      ],
      "stateMutability": "nonpayable",
      "type": "constructor"
    },
    {
      "anonymous": false,
      "inputs": [
        {
          "indexed": true,
          "internalType": "address",
          "name": "owner",
          "type": "address"
        },
        {
          "indexed": true,
          "internalType": "address",
          "name": "approved",
          "type": "address"
        },
        {
          "indexed": true,
          "internalType": "uint256",
          "name": "tokenId",
          "type": "uint256"
        }
      ],
      "name": "Approval",
      "type": "event"
    },
    {
      "anonymous": false,
      "inputs": [
        {
          "indexed": true,
          "internalType": "address",
          "name": "owner",
          "type": "address"
        },
        {
          "indexed": true,
          "internalType": "address",
          "name": "operator",
          "type": "address"
        },
        {
          "indexed": false,
          "internalType": "bool",
          "name": "approved",
          "type": "bool"
        }
      ],
      "name": "ApprovalForAll",
      "type": "event"
    },
    {
      "anonymous": false,
      "inputs": [
        {
          "indexed": true,
          "internalType": "address",
          "name": "previousOwner",
          "type": "address"
        },
        {
          "indexed": true,
          "internalType": "address",
          "name": "newOwner",
          "type": "address"
        }
      ],
      "name": "OwnershipTransferred",
      "type": "event"
    },
    {
      "anonymous": false,
      "inputs": [
        {
          "indexed": true,
          "internalType": "address",
          "name": "from",
          "type": "address"
        },
        {
          "indexed": true,
          "internalType": "address",
          "name": "to",
          "type": "address"
        },
        {
          "indexed": true,
          "internalType": "uint256",
          "name": "tokenId",
          "type": "uint256"
        }
      ],
      "name": "Transfer",
      "type": "event"
    },
    {
      "inputs": [
        {
          "internalType": "address",
          "name": "to",
          "type": "address"
        },
        {
          "internalType": "uint256",
          "name": "tokenId",
          "type": "uint256"
        }
      ],
      "name": "approve",
      "outputs": [],
      "stateMutability": "nonpayable",
      "type": "function"
    },
    {
      "inputs": [],
      "name": "artistName",
      "outputs": [
        {
          "internalType": "string",
          "name": "",
          "type": "string"
        }
      ],
      "stateMutability": "view",
      "type": "function"
    },
    {
      "inputs": [],
      "name": "assetPoolAddress",
      "outputs": [
        {
          "internalType": "address",
          "name": "",
          "type": "address"
        }
      ],
      "stateMutability": "view",
      "type": "function"
    },
    {
      "inputs": [
        {
          "internalType": "address",
          "name": "owner",
          "type": "address"
        }
      ],
      "name": "balanceOf",
      "outputs": [
        {
          "internalType": "uint256",
          "name": "",
          "type": "uint256"
        }
      ],
      "stateMutability": "view",
      "type": "function"
    },
    {
      "inputs": [],
      "name": "baseURI",
      "outputs": [
        {
          "internalType": "string",
          "name": "",
          "type": "string"
        }
      ],
      "stateMutability": "view",
      "type": "function"
    },
    {
      "inputs": [],
      "name": "channelId",
      "outputs": [
        {
          "internalType": "string",
          "name": "",
          "type": "string"
        }
      ],
      "stateMutability": "view",
      "type": "function"
    },
    {
      "inputs": [],
      "name": "defaultURI",
      "outputs": [
        {
          "internalType": "string",
          "name": "",
          "type": "string"
        }
      ],
      "stateMutability": "view",
      "type": "function"
    },
    {
      "inputs": [],
      "name": "faceValue",
      "outputs": [
        {
          "internalType": "uint256",
          "name": "",
          "type": "uint256"
        }
      ],
      "stateMutability": "view",
      "type": "function"
    },
    {
      "inputs": [],
      "name": "fundingAmount",
      "outputs": [
        {
          "internalType": "uint256",
          "name": "",
          "type": "uint256"
        }
      ],
      "stateMutability": "view",
      "type": "function"
    },
    {
      "inputs": [
        {
          "internalType": "uint256",
          "name": "tokenId",
          "type": "uint256"
        }
      ],
      "name": "getApproved",
      "outputs": [
        {
          "internalType": "address",
          "name": "",
          "type": "address"
        }
      ],
      "stateMutability": "view",
      "type": "function"
    },
    {
      "inputs": [],
      "name": "individualBondValue",
      "outputs": [
        {
          "internalType": "uint256",
          "name": "",
          "type": "uint256"
        }
      ],
      "stateMutability": "view",
      "type": "function"
    },
    {
      "inputs": [
        {
          "internalType": "string",
          "name": "_artistName",
          "type": "string"
        },
        {
          "internalType": "string",
          "name": "_youtubeSongId",
          "type": "string"
        },
        {
          "internalType": "string",
          "name": "_soundchartsSongId",
          "type": "string"
        },
        {
          "internalType": "string",
          "name": "_songstatsSongId",
          "type": "string"
        },
        {
          "internalType": "uint256",
          "name": "_fundingAmount",
          "type": "uint256"
        },
        {
          "internalType": "uint256",
          "name": "_numberOfYears",
          "type": "uint256"
        },
        {
          "internalType": "uint256",
          "name": "_numberOfBonds",
          "type": "uint256"
        },
        {
          "internalType": "uint256",
          "name": "_facevalue",
          "type": "uint256"
        },
        {
          "internalType": "uint256",
          "name": "_spotifyStreamCount",
          "type": "uint256"
        },
        {
          "internalType": "uint256",
          "name": "_youtubeViewsCount",
          "type": "uint256"
        },
        {
          "internalType": "address",
          "name": "_assetPoolAddress",
          "type": "address"
        }
      ],
      "name": "initialize",
      "outputs": [],
      "stateMutability": "nonpayable",
      "type": "function"
    },
    {
      "inputs": [
        {
          "internalType": "address",
          "name": "owner",
          "type": "address"
        },
        {
          "internalType": "address",
          "name": "operator",
          "type": "address"
        }
      ],
      "name": "isApprovedForAll",
      "outputs": [
        {
          "internalType": "bool",
          "name": "",
          "type": "bool"
        }
      ],
      "stateMutability": "view",
      "type": "function"
    },
    {
      "inputs": [],
      "name": "issuerAddress",
      "outputs": [
        {
          "internalType": "address",
          "name": "",
          "type": "address"
        }
      ],
      "stateMutability": "view",
      "type": "function"
    },
    {
      "inputs": [
        {
          "internalType": "uint256",
          "name": "_spotifyStreamCount",
          "type": "uint256"
        }
      ],
      "name": "latestSpotifyStreamCountFulFill",
      "outputs": [],
      "stateMutability": "nonpayable",
      "type": "function"
    },
    {
      "inputs": [
        {
          "internalType": "uint256",
          "name": "_youtubeViewsCount",
          "type": "uint256"
        }
      ],
      "name": "latestYoutubeViewsCountFulFill",
      "outputs": [],
      "stateMutability": "nonpayable",
      "type": "function"
    },
    {
      "inputs": [
        {
          "internalType": "address",
          "name": "to",
          "type": "address"
        }
      ],
      "name": "mintBonds",
      "outputs": [],
      "stateMutability": "nonpayable",
      "type": "function"
    },
    {
      "inputs": [],
      "name": "name",
      "outputs": [
        {
          "internalType": "string",
          "name": "",
          "type": "string"
        }
      ],
      "stateMutability": "view",
      "type": "function"
    },
    {
      "inputs": [],
      "name": "numberOfBonds",
      "outputs": [
        {
          "internalType": "uint256",
          "name": "",
          "type": "uint256"
        }
      ],
      "stateMutability": "view",
      "type": "function"
    },
    {
      "inputs": [],
      "name": "numberOfYears",
      "outputs": [
        {
          "internalType": "uint256",
          "name": "",
          "type": "uint256"
        }
      ],
      "stateMutability": "view",
      "type": "function"
    },
    {
      "inputs": [],
      "name": "owner",
      "outputs": [
        {
          "internalType": "address",
          "name": "",
          "type": "address"
        }
      ],
      "stateMutability": "view",
      "type": "function"
    },
    {
      "inputs": [
        {
          "internalType": "uint256",
          "name": "tokenId",
          "type": "uint256"
        }
      ],
      "name": "ownerOf",
      "outputs": [
        {
          "internalType": "address",
          "name": "",
          "type": "address"
        }
      ],
      "stateMutability": "view",
      "type": "function"
    },
    {
      "inputs": [],
      "name": "renounceOwnership",
      "outputs": [],
      "stateMutability": "nonpayable",
      "type": "function"
    },
    {
      "inputs": [
        {
          "internalType": "address",
          "name": "from",
          "type": "address"
        },
        {
          "internalType": "address",
          "name": "to",
          "type": "address"
        },
        {
          "internalType": "uint256",
          "name": "tokenId",
          "type": "uint256"
        }
      ],
      "name": "safeTransferFrom",
      "outputs": [],
      "stateMutability": "nonpayable",
      "type": "function"
    },
    {
      "inputs": [
        {
          "internalType": "address",
          "name": "from",
          "type": "address"
        },
        {
          "internalType": "address",
          "name": "to",
          "type": "address"
        },
        {
          "internalType": "uint256",
          "name": "tokenId",
          "type": "uint256"
        },
        {
          "internalType": "bytes",
          "name": "data",
          "type": "bytes"
        }
      ],
      "name": "safeTransferFrom",
      "outputs": [],
      "stateMutability": "nonpayable",
      "type": "function"
    },
    {
      "inputs": [
        {
          "internalType": "address",
          "name": "operator",
          "type": "address"
        },
        {
          "internalType": "bool",
          "name": "approved",
          "type": "bool"
        }
      ],
      "name": "setApprovalForAll",
      "outputs": [],
      "stateMutability": "nonpayable",
      "type": "function"
    },
    {
      "inputs": [
        {
          "internalType": "string",
          "name": "uri",
          "type": "string"
        }
      ],
      "name": "setBaseURI",
      "outputs": [],
      "stateMutability": "nonpayable",
      "type": "function"
    },
    {
      "inputs": [],
      "name": "songstatsSongId",
      "outputs": [
        {
          "internalType": "string",
          "name": "",
          "type": "string"
        }
      ],
      "stateMutability": "view",
      "type": "function"
    },
    {
      "inputs": [],
      "name": "soundchartsSongId",
      "outputs": [
        {
          "internalType": "string",
          "name": "",
          "type": "string"
        }
      ],
      "stateMutability": "view",
      "type": "function"
    },
    {
      "inputs": [],
      "name": "spotifyStreamCount",
      "outputs": [
        {
          "internalType": "uint256",
          "name": "",
          "type": "uint256"
        }
      ],
      "stateMutability": "view",
      "type": "function"
    },
    {
      "inputs": [
        {
          "internalType": "bytes4",
          "name": "interfaceId",
          "type": "bytes4"
        }
      ],
      "name": "supportsInterface",
      "outputs": [
        {
          "internalType": "bool",
          "name": "",
          "type": "bool"
        }
      ],
      "stateMutability": "view",
      "type": "function"
    },
    {
      "inputs": [],
      "name": "symbol",
      "outputs": [
        {
          "internalType": "string",
          "name": "",
          "type": "string"
        }
      ],
      "stateMutability": "view",
      "type": "function"
    },
    {
      "inputs": [
        {
          "internalType": "uint256",
          "name": "tokenId",
          "type": "uint256"
        }
      ],
      "name": "tokenURI",
      "outputs": [
        {
          "internalType": "string",
          "name": "",
          "type": "string"
        }
      ],
      "stateMutability": "view",
      "type": "function"
    },
    {
      "inputs": [],
      "name": "totalSupply",
      "outputs": [
        {
          "internalType": "uint256",
          "name": "",
          "type": "uint256"
        }
      ],
      "stateMutability": "view",
      "type": "function"
    },
    {
      "inputs": [
        {
          "internalType": "address",
          "name": "from",
          "type": "address"
        },
        {
          "internalType": "address",
          "name": "to",
          "type": "address"
        },
        {
          "internalType": "uint256",
          "name": "tokenId",
          "type": "uint256"
        }
      ],
      "name": "transferFrom",
      "outputs": [],
      "stateMutability": "nonpayable",
      "type": "function"
    },
    {
      "inputs": [
        {
          "internalType": "address",
          "name": "newOwner",
          "type": "address"
        }
      ],
      "name": "transferOwnership",
      "outputs": [],
      "stateMutability": "nonpayable",
      "type": "function"
    },
    {
      "inputs": [],
      "name": "youtubeSongId",
      "outputs": [
        {
          "internalType": "string",
          "name": "",
          "type": "string"
        }
      ],
      "stateMutability": "view",
      "type": "function"
    },
    {
      "inputs": [],
      "name": "youtubeViewsCount",
      "outputs": [
        {
          "internalType": "uint256",
          "name": "",
          "type": "uint256"
        }
      ],
      "stateMutability": "view",
      "type": "function"
    }
  ],
  "bytecode": "0x60e06040526035608081815290620022d260a0398051620000299160169160209091019062000104565b503480156200003757600080fd5b5060405162002307380380620023078339810160408190526200005a9162000261565b8151829082906200007390600090602085019062000104565b5080516200008990600190602084019062000104565b505050620000a6620000a0620000ae60201b60201c565b620000b2565b50506200031e565b3390565b600680546001600160a01b038381166001600160a01b0319831681179093556040519116919082907f8be0079c531659141344cd1fd0a4f28419497f9722a3daafe3b4186f6b6457e090600090a35050565b8280546200011290620002cb565b90600052602060002090601f01602090048101928262000136576000855562000181565b82601f106200015157805160ff191683800117855562000181565b8280016001018555821562000181579182015b828111156200018157825182559160200191906001019062000164565b506200018f92915062000193565b5090565b5b808211156200018f576000815560010162000194565b600082601f830112620001bc57600080fd5b81516001600160401b0380821115620001d957620001d962000308565b604051601f8301601f19908116603f0116810190828211818310171562000204576200020462000308565b816040528381526020925086838588010111156200022157600080fd5b600091505b8382101562000245578582018301518183018401529082019062000226565b83821115620002575760008385830101525b9695505050505050565b600080604083850312156200027557600080fd5b82516001600160401b03808211156200028d57600080fd5b6200029b86838701620001aa565b93506020850151915080821115620002b257600080fd5b50620002c185828601620001aa565b9150509250929050565b600181811c90821680620002e057607f821691505b602082108114156200030257634e487b7160e01b600052602260045260246000fd5b50919050565b634e487b7160e01b600052604160045260246000fd5b611fa4806200032e6000396000f3fe608060405234801561001057600080fd5b50600436106102925760003560e01c806370a0823111610160578063b88d4fde116100d8578063d25908aa1161008c578063e985e9c511610071578063e985e9c5146104c4578063ec7c5d8214610500578063f2fde38b1461050957600080fd5b8063d25908aa146104b3578063e2cee544146104bc57600080fd5b8063bc932043116100bd578063bc93204314610485578063c87b56dd14610498578063cfaea979146104ab57600080fd5b8063b88d4fde1461045f578063ba33e46a1461047257600080fd5b80638da5cb5b1161012f57806395d89b411161011457806395d89b4114610431578063a22cb46514610439578063a63234e01461044c57600080fd5b80638da5cb5b14610418578063940150371461042957600080fd5b806370a08231146103d7578063715018a6146103ea578063762639a0146103f2578063868965001461040557600080fd5b8063423fa88d1161020e57806355f804b3116101c2578063634e8b1b116101a7578063634e8b1b146103b35780636352211e146103bc5780636c0360eb146103cf57600080fd5b806355f804b3146103985780635b2f515b146103ab57600080fd5b806344fd9caa116101f357806344fd9caa1461037e5780634d5130d5146103875780635293c3361461039057600080fd5b8063423fa88d1461036257806342842e0e1461036b57600080fd5b8063095ea7b31161026557806323b872dd1161024a57806323b872dd146103345780633a367a67146103475780633e9608981461034f57600080fd5b8063095ea7b31461031657806318160ddd1461032b57600080fd5b806301ffc9a71461029757806304a79c97146102bf57806306fdde03146102d6578063081812fc146102eb575b600080fd5b6102aa6102a5366004611b48565b61051c565b60405190151581526020015b60405180910390f35b6102c8600d5481565b6040519081526020016102b6565b6102de6105b9565b6040516102b69190611e24565b6102fe6102f9366004611cb4565b61064b565b6040516001600160a01b0390911681526020016102b6565b610329610324366004611b1e565b610672565b005b6102c860075481565b610329610342366004611a2a565b6107a9565b6102de610820565b6014546102fe906001600160a01b031681565b6102c860155481565b610329610379366004611a2a565b6108ae565b6102c860115481565b6102c860135481565b6102de6108c9565b6103296103a6366004611b82565b6108d6565b6102de6108ed565b6102c860125481565b6102fe6103ca366004611cb4565b6108fa565b6102de61095f565b6102c86103e53660046119dc565b61096c565b610329610a06565b610329610400366004611bb7565b610a1a565b6103296104133660046119dc565b610acb565b6006546001600160a01b03166102fe565b6102de610b10565b6102de610b1d565b610329610447366004611ae2565b610b2c565b6010546102fe906001600160a01b031681565b61032961046d366004611a66565b610b37565b610329610480366004611cb4565b601355565b610329610493366004611cb4565b601255565b6102de6104a6366004611cb4565b610bb5565b6102de610cf3565b6102c8600e5481565b6102de610d00565b6102aa6104d23660046119f7565b6001600160a01b03918216600090815260056020908152604080832093909416825291909152205460ff1690565b6102c8600f5481565b6103296105173660046119dc565b610d0d565b60006001600160e01b031982167f80ac58cd00000000000000000000000000000000000000000000000000000000148061057f57506001600160e01b031982167f5b5e139f00000000000000000000000000000000000000000000000000000000145b806105b357507f01ffc9a7000000000000000000000000000000000000000000000000000000006001600160e01b03198316145b92915050565b6060600080546105c890611eb4565b80601f01602080910402602001604051908101604052809291908181526020018280546105f490611eb4565b80156106415780601f1061061657610100808354040283529160200191610641565b820191906000526020600020905b81548152906001019060200180831161062457829003601f168201915b5050505050905090565b600061065682610d9d565b506000908152600460205260409020546001600160a01b031690565b600061067d826108fa565b9050806001600160a01b0316836001600160a01b0316141561070c5760405162461bcd60e51b815260206004820152602160248201527f4552433732313a20617070726f76616c20746f2063757272656e74206f776e6560448201527f720000000000000000000000000000000000000000000000000000000000000060648201526084015b60405180910390fd5b336001600160a01b0382161480610728575061072881336104d2565b61079a5760405162461bcd60e51b815260206004820152603d60248201527f4552433732313a20617070726f76652063616c6c6572206973206e6f7420746f60448201527f6b656e206f776e6572206f7220617070726f76656420666f7220616c6c0000006064820152608401610703565b6107a48383610e01565b505050565b6107b33382610e6f565b6108155760405162461bcd60e51b815260206004820152602d60248201527f4552433732313a2063616c6c6572206973206e6f7420746f6b656e206f776e6560448201526c1c881bdc88185c1c1c9bdd9959609a1b6064820152608401610703565b6107a4838383610eee565b6016805461082d90611eb4565b80601f016020809104026020016040519081016040528092919081815260200182805461085990611eb4565b80156108a65780601f1061087b576101008083540402835291602001916108a6565b820191906000526020600020905b81548152906001019060200180831161088957829003601f168201915b505050505081565b6107a483838360405180602001604052806000815250610b37565b600b805461082d90611eb4565b80516108e990601790602084019061188a565b5050565b6008805461082d90611eb4565b6000818152600260205260408120546001600160a01b0316806105b35760405162461bcd60e51b815260206004820152601860248201527f4552433732313a20696e76616c696420746f6b656e20494400000000000000006044820152606401610703565b6017805461082d90611eb4565b60006001600160a01b0382166109ea5760405162461bcd60e51b815260206004820152602960248201527f4552433732313a2061646472657373207a65726f206973206e6f74206120766160448201527f6c6964206f776e657200000000000000000000000000000000000000000000006064820152608401610703565b506001600160a01b031660009081526003602052604090205490565b610a0e6110f4565b610a18600061114e565b565b8a51610a2d9060089060208e019061188a565b508951610a419060099060208d019061188a565b508851610a5590600a9060208c019061188a565b508751610a6990600b9060208b019061188a565b50600d879055600e869055600f85905560108054336001600160a01b031991821617909155601185905560128490556013839055601480549091166001600160a01b038316179055610abb8585611e4f565b6015555050505050505050505050565b60005b600f548161ffff1610156108e957610ae8826007546111a0565b60078054906000610af883611f11565b91905055508080610b0890611eef565b915050610ace565b6009805461082d90611eb4565b6060600180546105c890611eb4565b6108e93383836111ba565b610b413383610e6f565b610ba35760405162461bcd60e51b815260206004820152602d60248201527f4552433732313a2063616c6c6572206973206e6f7420746f6b656e206f776e6560448201526c1c881bdc88185c1c1c9bdd9959609a1b6064820152608401610703565b610baf84848484611289565b50505050565b6000818152600260205260409020546060906001600160a01b0316610c1c5760405162461bcd60e51b815260206004820152601560248201527f546f6b656e20646f6573206e6f742065786973747300000000000000000000006044820152606401610703565b600060178054610c2b90611eb4565b905011610cc25760168054610c3f90611eb4565b80601f0160208091040260200160405190810160405280929190818152602001828054610c6b90611eb4565b8015610cb85780601f10610c8d57610100808354040283529160200191610cb8565b820191906000526020600020905b815481529060010190602001808311610c9b57829003601f168201915b50505050506105b3565b6017610ccd83611307565b604051602001610cde929190611d15565b60405160208183030381529060405292915050565b600a805461082d90611eb4565b600c805461082d90611eb4565b610d156110f4565b6001600160a01b038116610d915760405162461bcd60e51b815260206004820152602660248201527f4f776e61626c653a206e6577206f776e657220697320746865207a65726f206160448201527f64647265737300000000000000000000000000000000000000000000000000006064820152608401610703565b610d9a8161114e565b50565b6000818152600260205260409020546001600160a01b0316610d9a5760405162461bcd60e51b815260206004820152601860248201527f4552433732313a20696e76616c696420746f6b656e20494400000000000000006044820152606401610703565b600081815260046020526040902080546001600160a01b0319166001600160a01b0384169081179091558190610e36826108fa565b6001600160a01b03167f8c5be1e5ebec7d5bd14f71427d1e84f3dd0314c0f7b2291e5b200ac8c7c3b92560405160405180910390a45050565b600080610e7b836108fa565b9050806001600160a01b0316846001600160a01b03161480610ec257506001600160a01b0380821660009081526005602090815260408083209388168352929052205460ff165b80610ee65750836001600160a01b0316610edb8461064b565b6001600160a01b0316145b949350505050565b826001600160a01b0316610f01826108fa565b6001600160a01b031614610f655760405162461bcd60e51b815260206004820152602560248201527f4552433732313a207472616e736665722066726f6d20696e636f72726563742060448201526437bbb732b960d91b6064820152608401610703565b6001600160a01b038216610fe05760405162461bcd60e51b8152602060048201526024808201527f4552433732313a207472616e7366657220746f20746865207a65726f2061646460448201527f72657373000000000000000000000000000000000000000000000000000000006064820152608401610703565b610fed83838360016113b1565b826001600160a01b0316611000826108fa565b6001600160a01b0316146110645760405162461bcd60e51b815260206004820152602560248201527f4552433732313a207472616e736665722066726f6d20696e636f72726563742060448201526437bbb732b960d91b6064820152608401610703565b600081815260046020908152604080832080546001600160a01b03199081169091556001600160a01b0387811680865260038552838620805460001901905590871680865283862080546001019055868652600290945282852080549092168417909155905184937fddf252ad1be2c89b69c2b068fc378daa952ba7f163c4a11628f55a4df523b3ef91a4505050565b6006546001600160a01b03163314610a185760405162461bcd60e51b815260206004820181905260248201527f4f776e61626c653a2063616c6c6572206973206e6f7420746865206f776e65726044820152606401610703565b600680546001600160a01b038381166001600160a01b0319831681179093556040519116919082907f8be0079c531659141344cd1fd0a4f28419497f9722a3daafe3b4186f6b6457e090600090a35050565b6108e9828260405180602001604052806000815250611439565b816001600160a01b0316836001600160a01b0316141561121c5760405162461bcd60e51b815260206004820152601960248201527f4552433732313a20617070726f766520746f2063616c6c6572000000000000006044820152606401610703565b6001600160a01b03838116600081815260056020908152604080832094871680845294825291829020805460ff191686151590811790915591519182527f17307eab39ab6107e8899845ad3d59bd9653f200f220920489ca2b5937696c31910160405180910390a3505050565b611294848484610eee565b6112a0848484846114b7565b610baf5760405162461bcd60e51b815260206004820152603260248201527f4552433732313a207472616e7366657220746f206e6f6e20455243373231526560448201527131b2b4bb32b91034b6b83632b6b2b73a32b960711b6064820152608401610703565b606060006113148361160f565b600101905060008167ffffffffffffffff81111561133457611334611f42565b6040519080825280601f01601f19166020018201604052801561135e576020820181803683370190505b5090508181016020015b600019017f3031323334353637383961626364656600000000000000000000000000000000600a86061a8153600a85049450846113a4576113a9565b611368565b509392505050565b6001811115610baf576001600160a01b038416156113f7576001600160a01b038416600090815260036020526040812080548392906113f1908490611e71565b90915550505b6001600160a01b03831615610baf576001600160a01b0383166000908152600360205260408120805483929061142e908490611e37565b909155505050505050565b61144383836116f1565b61145060008484846114b7565b6107a45760405162461bcd60e51b815260206004820152603260248201527f4552433732313a207472616e7366657220746f206e6f6e20455243373231526560448201527131b2b4bb32b91034b6b83632b6b2b73a32b960711b6064820152608401610703565b60006001600160a01b0384163b1561160457604051630a85bd0160e11b81526001600160a01b0385169063150b7a02906114fb903390899088908890600401611de8565b602060405180830381600087803b15801561151557600080fd5b505af1925050508015611545575060408051601f3d908101601f1916820190925261154291810190611b65565b60015b6115ea573d808015611573576040519150601f19603f3d011682016040523d82523d6000602084013e611578565b606091505b5080516115e25760405162461bcd60e51b815260206004820152603260248201527f4552433732313a207472616e7366657220746f206e6f6e20455243373231526560448201527131b2b4bb32b91034b6b83632b6b2b73a32b960711b6064820152608401610703565b805181602001fd5b6001600160e01b031916630a85bd0160e11b149050610ee6565b506001949350505050565b6000807a184f03e93ff9f4daa797ed6e38ed64bf6a1f0100000000000000008310611658577a184f03e93ff9f4daa797ed6e38ed64bf6a1f010000000000000000830492506040015b6d04ee2d6d415b85acef81000000008310611684576d04ee2d6d415b85acef8100000000830492506020015b662386f26fc1000083106116a257662386f26fc10000830492506010015b6305f5e10083106116ba576305f5e100830492506008015b61271083106116ce57612710830492506004015b606483106116e0576064830492506002015b600a83106105b35760010192915050565b6001600160a01b0382166117475760405162461bcd60e51b815260206004820181905260248201527f4552433732313a206d696e7420746f20746865207a65726f20616464726573736044820152606401610703565b6000818152600260205260409020546001600160a01b0316156117ac5760405162461bcd60e51b815260206004820152601c60248201527f4552433732313a20746f6b656e20616c7265616479206d696e746564000000006044820152606401610703565b6117ba6000838360016113b1565b6000818152600260205260409020546001600160a01b03161561181f5760405162461bcd60e51b815260206004820152601c60248201527f4552433732313a20746f6b656e20616c7265616479206d696e746564000000006044820152606401610703565b6001600160a01b038216600081815260036020908152604080832080546001019055848352600290915280822080546001600160a01b0319168417905551839291907fddf252ad1be2c89b69c2b068fc378daa952ba7f163c4a11628f55a4df523b3ef908290a45050565b82805461189690611eb4565b90600052602060002090601f0160209004810192826118b857600085556118fe565b82601f106118d157805160ff19168380011785556118fe565b828001600101855582156118fe579182015b828111156118fe5782518255916020019190600101906118e3565b5061190a92915061190e565b5090565b5b8082111561190a576000815560010161190f565b600067ffffffffffffffff8084111561193e5761193e611f42565b604051601f8501601f19908116603f0116810190828211818310171561196657611966611f42565b8160405280935085815286868601111561197f57600080fd5b858560208301376000602087830101525050509392505050565b80356001600160a01b03811681146119b057600080fd5b919050565b600082601f8301126119c657600080fd5b6119d583833560208501611923565b9392505050565b6000602082840312156119ee57600080fd5b6119d582611999565b60008060408385031215611a0a57600080fd5b611a1383611999565b9150611a2160208401611999565b90509250929050565b600080600060608486031215611a3f57600080fd5b611a4884611999565b9250611a5660208501611999565b9150604084013590509250925092565b60008060008060808587031215611a7c57600080fd5b611a8585611999565b9350611a9360208601611999565b925060408501359150606085013567ffffffffffffffff811115611ab657600080fd5b8501601f81018713611ac757600080fd5b611ad687823560208401611923565b91505092959194509250565b60008060408385031215611af557600080fd5b611afe83611999565b915060208301358015158114611b1357600080fd5b809150509250929050565b60008060408385031215611b3157600080fd5b611b3a83611999565b946020939093013593505050565b600060208284031215611b5a57600080fd5b81356119d581611f58565b600060208284031215611b7757600080fd5b81516119d581611f58565b600060208284031215611b9457600080fd5b813567ffffffffffffffff811115611bab57600080fd5b610ee6848285016119b5565b60008060008060008060008060008060006101608c8e031215611bd957600080fd5b67ffffffffffffffff808d351115611bf057600080fd5b611bfd8e8e358f016119b5565b9b508060208e01351115611c1057600080fd5b611c208e60208f01358f016119b5565b9a508060408e01351115611c3357600080fd5b611c438e60408f01358f016119b5565b99508060608e01351115611c5657600080fd5b50611c678d60608e01358e016119b5565b975060808c0135965060a08c0135955060c08c0135945060e08c013593506101008c013592506101208c01359150611ca26101408d01611999565b90509295989b509295989b9093969950565b600060208284031215611cc657600080fd5b5035919050565b60008151808452611ce5816020860160208601611e88565b601f01601f19169290920160200192915050565b60008151611d0b818560208601611e88565b9290920192915050565b600080845481600182811c915080831680611d3157607f831692505b6020808410821415611d5157634e487b7160e01b86526022600452602486fd5b818015611d655760018114611d7657611da3565b60ff19861689528489019650611da3565b60008b81526020902060005b86811015611d9b5781548b820152908501908301611d82565b505084890196505b505050505050611ddf611db68286611cf9565b7f2e6a736f6e000000000000000000000000000000000000000000000000000000815260050190565b95945050505050565b60006001600160a01b03808716835280861660208401525083604083015260806060830152611e1a6080830184611ccd565b9695505050505050565b6020815260006119d56020830184611ccd565b60008219821115611e4a57611e4a611f2c565b500190565b600082611e6c57634e487b7160e01b600052601260045260246000fd5b500490565b600082821015611e8357611e83611f2c565b500390565b60005b83811015611ea3578181015183820152602001611e8b565b83811115610baf5750506000910152565b600181811c90821680611ec857607f821691505b60208210811415611ee957634e487b7160e01b600052602260045260246000fd5b50919050565b600061ffff80831681811415611f0757611f07611f2c565b6001019392505050565b6000600019821415611f2557611f25611f2c565b5060010190565b634e487b7160e01b600052601160045260246000fd5b634e487b7160e01b600052604160045260246000fd5b6001600160e01b031981168114610d9a57600080fdfea2646970667358221220698373df4f7fca8ef7af81aacee739fc79b565b3d4e24216f9ced3635604e1b964736f6c63430008070033697066733a2f2f516d554e594d6f724c59397931356559595a44587854626451504158577143334d774d6d344a74757a3753737841",
  "linkReferences": {},
  "deployedLinkReferences": {}
}