{
  "_format": "hh-sol-artifact-1",
  "contractName": "BondNFTManager",
  "sourceName": "contracts/BondNFTManager.sol",
  "abi": [
    {
      "anonymous": false,
      "inputs": [
        {
          "indexed": false,
          "internalType": "address",
          "name": "artist",
          "type": "address"
        },
        {
          "indexed": false,
          "internalType": "address",
          "name": "assetPool",
          "type": "address"
        },
        {
          "indexed": false,
          "internalType": "uint256",
          "name": "bondValue",
          "type": "uint256"
        }
      ],
      "name": "AssetPoolCreated",
      "type": "event"
    },
    {
      "anonymous": false,
      "inputs": [
        {
          "indexed": true,
          "internalType": "address",
          "name": "issuerAddress",
          "type": "address"
        },
        {
          "indexed": true,
          "internalType": "address",
          "name": "bondNftAddress",
          "type": "address"
        },
        {
          "indexed": true,
          "internalType": "string",
          "name": "artistId",
          "type": "string"
        },
        {
          "indexed": false,
          "internalType": "string",
          "name": "name",
          "type": "string"
        },
        {
          "indexed": false,
          "internalType": "string",
          "name": "symbol",
          "type": "string"
        }
      ],
      "name": "BondNFTCreated",
      "type": "event"
    },
    {
      "anonymous": false,
      "inputs": [
        {
          "indexed": true,
          "internalType": "address",
          "name": "bondNftAddress",
          "type": "address"
        },
        {
          "indexed": false,
          "internalType": "uint256",
          "name": "numberOfBonds",
          "type": "uint256"
        }
      ],
      "name": "BondNFTMinted",
      "type": "event"
    },
    {
      "anonymous": false,
      "inputs": [
        {
          "indexed": true,
          "internalType": "address",
          "name": "previousOwner",
          "type": "address"
        },
        {
          "indexed": true,
          "internalType": "address",
          "name": "newOwner",
          "type": "address"
        }
      ],
      "name": "OwnershipTransferred",
      "type": "event"
    },
    {
      "inputs": [
        {
          "internalType": "uint256",
          "name": "",
          "type": "uint256"
        }
      ],
      "name": "allAssetPools",
      "outputs": [
        {
          "internalType": "address",
          "name": "",
          "type": "address"
        }
      ],
      "stateMutability": "view",
      "type": "function"
    },
    {
      "inputs": [],
      "name": "allAssetPoolsLength",
      "outputs": [
        {
          "internalType": "uint256",
          "name": "",
          "type": "uint256"
        }
      ],
      "stateMutability": "view",
      "type": "function"
    },
    {
      "inputs": [
        {
          "internalType": "uint256",
          "name": "",
          "type": "uint256"
        }
      ],
      "name": "allBondNfts",
      "outputs": [
        {
          "internalType": "address",
          "name": "",
          "type": "address"
        }
      ],
      "stateMutability": "view",
      "type": "function"
    },
    {
      "inputs": [],
      "name": "allNftLength",
      "outputs": [
        {
          "internalType": "uint256",
          "name": "",
          "type": "uint256"
        }
      ],
      "stateMutability": "view",
      "type": "function"
    },
    {
      "inputs": [
        {
          "internalType": "uint256",
          "name": "_bondValue",
          "type": "uint256"
        }
      ],
      "name": "createAssetPool",
      "outputs": [
        {
          "internalType": "address",
          "name": "assetPoolAddress",
          "type": "address"
        }
      ],
      "stateMutability": "nonpayable",
      "type": "function"
    },
    {
      "inputs": [
        {
          "internalType": "address",
          "name": "_ratingEngine",
          "type": "address"
        },
        {
          "internalType": "address",
          "name": "_bondNftGenerator",
          "type": "address"
        },
        {
          "internalType": "address",
          "name": "_chainlinkOracleInfoAddress",
          "type": "address"
        }
      ],
      "name": "initialize",
      "outputs": [],
      "stateMutability": "nonpayable",
      "type": "function"
    },
    {
      "inputs": [
        {
          "internalType": "string",
          "name": "_artistName",
          "type": "string"
        },
        {
          "internalType": "string",
          "name": "_artistId",
          "type": "string"
        },
        {
          "internalType": "string",
          "name": "_channelId",
          "type": "string"
        },
        {
          "internalType": "string",
          "name": "_audiusArtistId",
          "type": "string"
        },
        {
          "internalType": "uint256",
          "name": "_fundingAmount",
          "type": "uint256"
        },
        {
          "internalType": "uint256",
          "name": "_numberOfYears",
          "type": "uint256"
        },
        {
          "internalType": "uint256",
          "name": "_numberOfBonds",
          "type": "uint256"
        },
        {
          "internalType": "uint256",
          "name": "_facevalue",
          "type": "uint256"
        },
        {
          "internalType": "string",
          "name": "_bondName",
          "type": "string"
        },
        {
          "internalType": "string",
          "name": "_bondSymbol",
          "type": "string"
        },
        {
          "internalType": "address",
          "name": "_assetPoolAddress",
          "type": "address"
        }
      ],
      "name": "issueBond",
      "outputs": [
        {
          "internalType": "address",
          "name": "nftAddress",
          "type": "address"
        }
      ],
      "stateMutability": "nonpayable",
      "type": "function"
    },
    {
      "inputs": [
        {
          "internalType": "address",
          "name": "_nftAddress",
          "type": "address"
        }
      ],
      "name": "mintNFTBond",
      "outputs": [],
      "stateMutability": "nonpayable",
      "type": "function"
    },
    {
      "inputs": [],
      "name": "owner",
      "outputs": [
        {
          "internalType": "address",
          "name": "",
          "type": "address"
        }
      ],
      "stateMutability": "view",
      "type": "function"
    },
    {
      "inputs": [],
      "name": "renounceOwnership",
      "outputs": [],
      "stateMutability": "nonpayable",
      "type": "function"
    },
    {
      "inputs": [
        {
          "internalType": "address",
          "name": "newOwner",
          "type": "address"
        }
      ],
      "name": "transferOwnership",
      "outputs": [],
      "stateMutability": "nonpayable",
      "type": "function"
    },
    {
      "inputs": [
        {
          "internalType": "address",
          "name": "",
          "type": "address"
        },
        {
          "internalType": "uint256",
          "name": "",
          "type": "uint256"
        }
      ],
      "name": "userAssetPools",
      "outputs": [
        {
          "internalType": "address",
          "name": "assetPoolAddress",
          "type": "address"
        },
        {
          "internalType": "address",
          "name": "bondNftAddress",
          "type": "address"
        },
        {
          "internalType": "uint256",
          "name": "bondvalue",
          "type": "uint256"
        }
      ],
      "stateMutability": "view",
      "type": "function"
    },
    {
      "inputs": [
        {
          "internalType": "address",
          "name": "",
          "type": "address"
        },
        {
          "internalType": "uint256",
          "name": "",
          "type": "uint256"
        }
      ],
      "name": "userBondConfigs",
      "outputs": [
        {
          "internalType": "string",
          "name": "artistName",
          "type": "string"
        },
        {
          "internalType": "string",
          "name": "artistId",
          "type": "string"
        },
        {
          "internalType": "string",
          "name": "channelId",
          "type": "string"
        },
        {
          "internalType": "string",
          "name": "endpoint",
          "type": "string"
        },
        {
          "internalType": "string",
          "name": "audiusArtistId",
          "type": "string"
        },
        {
          "internalType": "uint256",
          "name": "fundingAmount",
          "type": "uint256"
        },
        {
          "internalType": "uint256",
          "name": "numberOfYears",
          "type": "uint256"
        },
        {
          "internalType": "uint256",
          "name": "numberOfBonds",
          "type": "uint256"
        },
        {
          "internalType": "address",
          "name": "issuerAddress",
          "type": "address"
        },
        {
          "internalType": "uint256",
          "name": "faceValue",
          "type": "uint256"
        },
        {
          "internalType": "uint256",
          "name": "listeners",
          "type": "uint256"
        },
        {
          "internalType": "address",
          "name": "nftAddress",
          "type": "address"
        }
      ],
      "stateMutability": "view",
      "type": "function"
    }
  ],
  "bytecode": "0x60806040526040518060400160405280600781526020017f6368616e6e656c00000000000000000000000000000000000000000000000000815250600190805190602001906200005192919062000152565b503480156200005f57600080fd5b5062000080620000746200008660201b60201c565b6200008e60201b60201c565b62000267565b600033905090565b60008060009054906101000a900473ffffffffffffffffffffffffffffffffffffffff169050816000806101000a81548173ffffffffffffffffffffffffffffffffffffffff021916908373ffffffffffffffffffffffffffffffffffffffff1602179055508173ffffffffffffffffffffffffffffffffffffffff168173ffffffffffffffffffffffffffffffffffffffff167f8be0079c531659141344cd1fd0a4f28419497f9722a3daafe3b4186f6b6457e060405160405180910390a35050565b828054620001609062000202565b90600052602060002090601f016020900481019282620001845760008555620001d0565b82601f106200019f57805160ff1916838001178555620001d0565b82800160010185558215620001d0579182015b82811115620001cf578251825591602001919060010190620001b2565b5b509050620001df9190620001e3565b5090565b5b80821115620001fe576000816000905550600101620001e4565b5090565b600060028204905060018216806200021b57607f821691505b6020821081141562000232576200023162000238565b5b50919050565b7f4e487b7100000000000000000000000000000000000000000000000000000000600052602260045260246000fd5b6131f980620002776000396000f3fe60806040523480156200001157600080fd5b5060043610620000e25760003560e01c8063745d2d281162000099578063bb3a584f116200006f578063bb3a584f1462000272578063c0c53b8b14620002a8578063f2fde38b14620002c8578063fedf987114620002e857620000e2565b8063745d2d2814620001fa5780638da5cb5b14620002305780639a79ac2c146200025257620000e2565b80631839cfa914620000e75780634235a98d1462000109578063503b85b7146200013f57806357181a03146200018057806366a0564e14620001b8578063715018a614620001ee575b600080fd5b620000f16200030a565b60405162000100919062002172565b60405180910390f35b62000127600480360381019062000121919062001c2d565b62000317565b60405162000136919062001e60565b60405180910390f35b6200015d600480360381019062000157919062001a4f565b620005f2565b604051620001779c9b9a9998979695949392919062001f22565b60405180910390f35b6200019e600480360381019062000198919062001a4f565b62000980565b604051620001af9392919062001e7d565b60405180910390f35b620001d66004803603810190620001d0919062001c2d565b62000a08565b604051620001e5919062001e60565b60405180910390f35b620001f862000a48565b005b62000218600480360381019062000212919062001c2d565b62000ad9565b60405162000227919062001e60565b60405180910390f35b6200023a62000b19565b60405162000249919062001e60565b60405180910390f35b6200027060048036038101906200026a9190620019a1565b62000b42565b005b6200029060048036038101906200028a919062001a90565b62000c7e565b6040516200029f919062001e60565b60405180910390f35b620002c66004803603810190620002c09190620019f9565b620011fd565b005b620002e66004803603810190620002e09190620019a1565b62001348565b005b620002f26200144c565b60405162000301919062002172565b60405180910390f35b6000600780549050905090565b60008082116200035e576040517f08c379a000000000000000000000000000000000000000000000000000000000815260040162000355906200212e565b60405180910390fd5b60006040516200036e90620017c8565b604051809103906000f0801580156200038b573d6000803e3d6000fd5b5090508091508073ffffffffffffffffffffffffffffffffffffffff1663cd6dc68733856040518363ffffffff1660e01b8152600401620003ce92919062001eba565b600060405180830381600087803b158015620003e957600080fd5b505af1158015620003fe573d6000803e3d6000fd5b50505050600660003373ffffffffffffffffffffffffffffffffffffffff1673ffffffffffffffffffffffffffffffffffffffff16815260200190815260200160002060405180606001604052808473ffffffffffffffffffffffffffffffffffffffff168152602001600073ffffffffffffffffffffffffffffffffffffffff16815260200185815250908060018154018082558091505060019003906000526020600020906003020160009091909190915060008201518160000160006101000a81548173ffffffffffffffffffffffffffffffffffffffff021916908373ffffffffffffffffffffffffffffffffffffffff16021790555060208201518160010160006101000a81548173ffffffffffffffffffffffffffffffffffffffff021916908373ffffffffffffffffffffffffffffffffffffffff1602179055506040820151816002015550506008829080600181540180825580915050600190039060005260206000200160009091909190916101000a81548173ffffffffffffffffffffffffffffffffffffffff021916908373ffffffffffffffffffffffffffffffffffffffff1602179055507f82bc170609b0a506f3f9ac2cf64600511887855a75436276915585a1b04e3c33338385604051620005e49392919062001e7d565b60405180910390a150919050565b600560205281600052604060002081815481106200060f57600080fd5b90600052602060002090600c0201600091509150508060000180546200063590620022bd565b80601f01602080910402602001604051908101604052809291908181526020018280546200066390620022bd565b8015620006b45780601f106200068857610100808354040283529160200191620006b4565b820191906000526020600020905b8154815290600101906020018083116200069657829003601f168201915b505050505090806001018054620006cb90620022bd565b80601f0160208091040260200160405190810160405280929190818152602001828054620006f990620022bd565b80156200074a5780601f106200071e576101008083540402835291602001916200074a565b820191906000526020600020905b8154815290600101906020018083116200072c57829003601f168201915b5050505050908060020180546200076190620022bd565b80601f01602080910402602001604051908101604052809291908181526020018280546200078f90620022bd565b8015620007e05780601f10620007b457610100808354040283529160200191620007e0565b820191906000526020600020905b815481529060010190602001808311620007c257829003601f168201915b505050505090806003018054620007f790620022bd565b80601f01602080910402602001604051908101604052809291908181526020018280546200082590620022bd565b8015620008765780601f106200084a5761010080835404028352916020019162000876565b820191906000526020600020905b8154815290600101906020018083116200085857829003601f168201915b5050505050908060040180546200088d90620022bd565b80601f0160208091040260200160405190810160405280929190818152602001828054620008bb90620022bd565b80156200090c5780601f10620008e0576101008083540402835291602001916200090c565b820191906000526020600020905b815481529060010190602001808311620008ee57829003601f168201915b5050505050908060050154908060060154908060070154908060080160009054906101000a900473ffffffffffffffffffffffffffffffffffffffff169080600901549080600a01549080600b0160009054906101000a900473ffffffffffffffffffffffffffffffffffffffff1690508c565b600660205281600052604060002081815481106200099d57600080fd5b9060005260206000209060030201600091509150508060000160009054906101000a900473ffffffffffffffffffffffffffffffffffffffff16908060010160009054906101000a900473ffffffffffffffffffffffffffffffffffffffff16908060020154905083565b6008818154811062000a1957600080fd5b906000526020600020016000915054906101000a900473ffffffffffffffffffffffffffffffffffffffff1681565b62000a5262001459565b73ffffffffffffffffffffffffffffffffffffffff1662000a7262000b19565b73ffffffffffffffffffffffffffffffffffffffff161462000acb576040517f08c379a000000000000000000000000000000000000000000000000000000000815260040162000ac29062002150565b60405180910390fd5b62000ad7600062001461565b565b6007818154811062000aea57600080fd5b906000526020600020016000915054906101000a900473ffffffffffffffffffffffffffffffffffffffff1681565b60008060009054906101000a900473ffffffffffffffffffffffffffffffffffffffff16905090565b60008190508073ffffffffffffffffffffffffffffffffffffffff16633da896946040518163ffffffff1660e01b8152600401600060405180830381600087803b15801562000b9057600080fd5b505af115801562000ba5573d6000803e3d6000fd5b505050508173ffffffffffffffffffffffffffffffffffffffff167f8a8c809f09c896246d86b37de1cc3bd24a481a24063be7ed28ee4fd21fa255cd8273ffffffffffffffffffffffffffffffffffffffff166318160ddd6040518163ffffffff1660e01b815260040160206040518083038186803b15801562000c2857600080fd5b505afa15801562000c3d573d6000803e3d6000fd5b505050506040513d601f19601f8201168201806040525081019062000c63919062001c59565b60405162000c72919062002172565b60405180910390a25050565b6000600360009054906101000a900473ffffffffffffffffffffffffffffffffffffffff1673ffffffffffffffffffffffffffffffffffffffff1663dff6a9ab85856040518363ffffffff1660e01b815260040162000cdf92919062001ee7565b602060405180830381600087803b15801562000cfa57600080fd5b505af115801562000d0f573d6000803e3d6000fd5b505050506040513d601f19601f8201168201806040525081019062000d359190620019cd565b905060008190508073ffffffffffffffffffffffffffffffffffffffff1663e0598e278e8e8e60018f8f8f8f8f600460009054906101000a900473ffffffffffffffffffffffffffffffffffffffff166040518b63ffffffff1660e01b815260040162000dac9a9998979695949392919062002017565b600060405180830381600087803b15801562000dc757600080fd5b505af115801562000ddc573d6000803e3d6000fd5b5050505060006040518061018001604052808f81526020018e81526020018d81526020016001805462000e0f90620022bd565b80601f016020809104026020016040519081016040528092919081815260200182805462000e3d90620022bd565b801562000e8e5780601f1062000e625761010080835404028352916020019162000e8e565b820191906000526020600020905b81548152906001019060200180831162000e7057829003601f168201915b505050505081526020018c81526020018b81526020018a81526020018981526020013373ffffffffffffffffffffffffffffffffffffffff168152602001888152602001600081526020018473ffffffffffffffffffffffffffffffffffffffff168152509050600560003373ffffffffffffffffffffffffffffffffffffffff1673ffffffffffffffffffffffffffffffffffffffff1681526020019081526020016000208190806001815401808255809150506001900390600052602060002090600c0201600090919091909150600082015181600001908051906020019062000f7c929190620017d6565b50602082015181600101908051906020019062000f9b929190620017d6565b50604082015181600201908051906020019062000fba929190620017d6565b50606082015181600301908051906020019062000fd9929190620017d6565b50608082015181600401908051906020019062000ff8929190620017d6565b5060a0820151816005015560c0820151816006015560e082015181600701556101008201518160080160006101000a81548173ffffffffffffffffffffffffffffffffffffffff021916908373ffffffffffffffffffffffffffffffffffffffff160217905550610120820151816009015561014082015181600a015561016082015181600b0160006101000a81548173ffffffffffffffffffffffffffffffffffffffff021916908373ffffffffffffffffffffffffffffffffffffffff16021790555050506007839080600181540180825580915050600190039060005260206000200160009091909190916101000a81548173ffffffffffffffffffffffffffffffffffffffff021916908373ffffffffffffffffffffffffffffffffffffffff160217905550600062001130338662001525565b905083816020019073ffffffffffffffffffffffffffffffffffffffff16908173ffffffffffffffffffffffffffffffffffffffff16815250508d6040516200117a919062001e47565b60405180910390208473ffffffffffffffffffffffffffffffffffffffff163373ffffffffffffffffffffffffffffffffffffffff167ff74038896e4ff9d9098d2a40a4ffa27b212862f90a4e073e6a5454df301e891d8a8a604051620011e392919062001ee7565b60405180910390a45050509b9a5050505050505050505050565b6200120762001459565b73ffffffffffffffffffffffffffffffffffffffff166200122762000b19565b73ffffffffffffffffffffffffffffffffffffffff161462001280576040517f08c379a0000000000000000000000000000000000000000000000000000000008152600401620012779062002150565b60405180910390fd5b82600260006101000a81548173ffffffffffffffffffffffffffffffffffffffff021916908373ffffffffffffffffffffffffffffffffffffffff16021790555081600360006101000a81548173ffffffffffffffffffffffffffffffffffffffff021916908373ffffffffffffffffffffffffffffffffffffffff16021790555080600460006101000a81548173ffffffffffffffffffffffffffffffffffffffff021916908373ffffffffffffffffffffffffffffffffffffffff160217905550505050565b6200135262001459565b73ffffffffffffffffffffffffffffffffffffffff166200137262000b19565b73ffffffffffffffffffffffffffffffffffffffff1614620013cb576040517f08c379a0000000000000000000000000000000000000000000000000000000008152600401620013c29062002150565b60405180910390fd5b600073ffffffffffffffffffffffffffffffffffffffff168173ffffffffffffffffffffffffffffffffffffffff1614156200143e576040517f08c379a000000000000000000000000000000000000000000000000000000000815260040162001435906200210c565b60405180910390fd5b620014498162001461565b50565b6000600880549050905090565b600033905090565b60008060009054906101000a900473ffffffffffffffffffffffffffffffffffffffff169050816000806101000a81548173ffffffffffffffffffffffffffffffffffffffff021916908373ffffffffffffffffffffffffffffffffffffffff1602179055508173ffffffffffffffffffffffffffffffffffffffff168173ffffffffffffffffffffffffffffffffffffffff167f8be0079c531659141344cd1fd0a4f28419497f9722a3daafe3b4186f6b6457e060405160405180910390a35050565b6200152f62001867565b6000600660008573ffffffffffffffffffffffffffffffffffffffff1673ffffffffffffffffffffffffffffffffffffffff168152602001908152602001600020805480602002602001604051908101604052809291908181526020016000905b828210156200167a57838290600052602060002090600302016040518060600160405290816000820160009054906101000a900473ffffffffffffffffffffffffffffffffffffffff1673ffffffffffffffffffffffffffffffffffffffff1673ffffffffffffffffffffffffffffffffffffffff1681526020016001820160009054906101000a900473ffffffffffffffffffffffffffffffffffffffff1673ffffffffffffffffffffffffffffffffffffffff1673ffffffffffffffffffffffffffffffffffffffff1681526020016002820154815250508152602001906001019062001590565b50505050905060005b81518163ffffffff1610156200177b578373ffffffffffffffffffffffffffffffffffffffff16828263ffffffff1681518110620016ea577f4e487b7100000000000000000000000000000000000000000000000000000000600052603260045260246000fd5b60200260200101516000015173ffffffffffffffffffffffffffffffffffffffff1614156200176557818163ffffffff168151811062001753577f4e487b7100000000000000000000000000000000000000000000000000000000600052603260045260246000fd5b602002602001015192505050620017c2565b8080620017729062002329565b91505062001683565b506000620017c0576040517f08c379a0000000000000000000000000000000000000000000000000000000008152600401620017b790620020ea565b60405180910390fd5b505b92915050565b610ccc80620024f883390190565b828054620017e490620022bd565b90600052602060002090601f01602090048101928262001808576000855562001854565b82601f106200182357805160ff191683800117855562001854565b8280016001018555821562001854579182015b828111156200185357825182559160200191906001019062001836565b5b509050620018639190620018b4565b5090565b6040518060600160405280600073ffffffffffffffffffffffffffffffffffffffff168152602001600073ffffffffffffffffffffffffffffffffffffffff168152602001600081525090565b5b80821115620018cf576000816000905550600101620018b5565b5090565b6000620018ea620018e484620021b8565b6200218f565b9050828152602081018484840111156200190357600080fd5b6200191084828562002278565b509392505050565b6000813590506200192981620024c3565b92915050565b6000815190506200194081620024c3565b92915050565b600082601f8301126200195857600080fd5b81356200196a848260208601620018d3565b91505092915050565b6000813590506200198481620024dd565b92915050565b6000815190506200199b81620024dd565b92915050565b600060208284031215620019b457600080fd5b6000620019c48482850162001918565b91505092915050565b600060208284031215620019e057600080fd5b6000620019f0848285016200192f565b91505092915050565b60008060006060848603121562001a0f57600080fd5b600062001a1f8682870162001918565b935050602062001a328682870162001918565b925050604062001a458682870162001918565b9150509250925092565b6000806040838503121562001a6357600080fd5b600062001a738582860162001918565b925050602062001a868582860162001973565b9150509250929050565b60008060008060008060008060008060006101608c8e03121562001ab357600080fd5b60008c013567ffffffffffffffff81111562001ace57600080fd5b62001adc8e828f0162001946565b9b505060208c013567ffffffffffffffff81111562001afa57600080fd5b62001b088e828f0162001946565b9a505060408c013567ffffffffffffffff81111562001b2657600080fd5b62001b348e828f0162001946565b99505060608c013567ffffffffffffffff81111562001b5257600080fd5b62001b608e828f0162001946565b985050608062001b738e828f0162001973565b97505060a062001b868e828f0162001973565b96505060c062001b998e828f0162001973565b95505060e062001bac8e828f0162001973565b9450506101008c013567ffffffffffffffff81111562001bcb57600080fd5b62001bd98e828f0162001946565b9350506101208c013567ffffffffffffffff81111562001bf857600080fd5b62001c068e828f0162001946565b92505061014062001c1a8e828f0162001918565b9150509295989b509295989b9093969950565b60006020828403121562001c4057600080fd5b600062001c508482850162001973565b91505092915050565b60006020828403121562001c6c57600080fd5b600062001c7c848285016200198a565b91505092915050565b62001c90816200222a565b82525050565b600062001ca38262002203565b62001caf81856200220e565b935062001cc181856020860162002287565b62001ccc81620023e8565b840191505092915050565b600062001ce48262002203565b62001cf081856200221f565b935062001d0281856020860162002287565b80840191505092915050565b6000815462001d1d81620022bd565b62001d2981866200220e565b9450600182166000811462001d47576001811462001d5a5762001d91565b60ff198316865260208601935062001d91565b62001d6585620021ee565b60005b8381101562001d895781548189015260018201915060208101905062001d68565b808801955050505b50505092915050565b600062001da96014836200220e565b915062001db682620023f9565b602082019050919050565b600062001dd06026836200220e565b915062001ddd8262002422565b604082019050919050565b600062001df7601d836200220e565b915062001e048262002471565b602082019050919050565b600062001e1e6020836200220e565b915062001e2b826200249a565b602082019050919050565b62001e41816200225e565b82525050565b600062001e55828462001cd7565b915081905092915050565b600060208201905062001e77600083018462001c85565b92915050565b600060608201905062001e94600083018662001c85565b62001ea3602083018562001c85565b62001eb2604083018462001e36565b949350505050565b600060408201905062001ed1600083018562001c85565b62001ee0602083018462001e36565b9392505050565b6000604082019050818103600083015262001f03818562001c96565b9050818103602083015262001f19818462001c96565b90509392505050565b600061018082019050818103600083015262001f3f818f62001c96565b9050818103602083015262001f55818e62001c96565b9050818103604083015262001f6b818d62001c96565b9050818103606083015262001f81818c62001c96565b9050818103608083015262001f97818b62001c96565b905062001fa860a083018a62001e36565b62001fb760c083018962001e36565b62001fc660e083018862001e36565b62001fd661010083018762001c85565b62001fe661012083018662001e36565b62001ff661014083018562001e36565b6200200661016083018462001c85565b9d9c50505050505050505050505050565b600061014082019050818103600083015262002034818d62001c96565b905081810360208301526200204a818c62001c96565b9050818103604083015262002060818b62001c96565b9050818103606083015262002076818a62001d0e565b905081810360808301526200208c818962001c96565b90506200209d60a083018862001e36565b620020ac60c083018762001e36565b620020bb60e083018662001e36565b620020cb61010083018562001e36565b620020db61012083018462001c85565b9b9a5050505050505050505050565b60006020820190508181036000830152620021058162001d9a565b9050919050565b60006020820190508181036000830152620021278162001dc1565b9050919050565b60006020820190508181036000830152620021498162001de8565b9050919050565b600060208201905081810360008301526200216b8162001e0f565b9050919050565b600060208201905062002189600083018462001e36565b92915050565b60006200219b620021ae565b9050620021a98282620022f3565b919050565b6000604051905090565b600067ffffffffffffffff821115620021d657620021d5620023b9565b5b620021e182620023e8565b9050602081019050919050565b60008190508160005260206000209050919050565b600081519050919050565b600082825260208201905092915050565b600081905092915050565b600062002237826200223e565b9050919050565b600073ffffffffffffffffffffffffffffffffffffffff82169050919050565b6000819050919050565b600063ffffffff82169050919050565b82818337600083830152505050565b60005b83811015620022a75780820151818401526020810190506200228a565b83811115620022b7576000848401525b50505050565b60006002820490506001821680620022d657607f821691505b60208210811415620022ed57620022ec6200238a565b5b50919050565b620022fe82620023e8565b810181811067ffffffffffffffff8211171562002320576200231f620023b9565b5b80604052505050565b6000620023368262002268565b915063ffffffff82141562002350576200234f6200235b565b5b600182019050919050565b7f4e487b7100000000000000000000000000000000000000000000000000000000600052601160045260246000fd5b7f4e487b7100000000000000000000000000000000000000000000000000000000600052602260045260246000fd5b7f4e487b7100000000000000000000000000000000000000000000000000000000600052604160045260246000fd5b6000601f19601f8301169050919050565b7f417373657420506f6f6c204e6f7420466f756e64000000000000000000000000600082015250565b7f4f776e61626c653a206e6577206f776e657220697320746865207a65726f206160008201527f6464726573730000000000000000000000000000000000000000000000000000602082015250565b7f56616c7565206f662074686520626f6e642063616e6e6f742062652030000000600082015250565b7f4f776e61626c653a2063616c6c6572206973206e6f7420746865206f776e6572600082015250565b620024ce816200222a565b8114620024da57600080fd5b50565b620024e8816200225e565b8114620024f457600080fd5b5056fe608060405234801561001057600080fd5b5061002d61002261003260201b60201c565b61003a60201b60201c565b6100fe565b600033905090565b60008060009054906101000a900473ffffffffffffffffffffffffffffffffffffffff169050816000806101000a81548173ffffffffffffffffffffffffffffffffffffffff021916908373ffffffffffffffffffffffffffffffffffffffff1602179055508173ffffffffffffffffffffffffffffffffffffffff168173ffffffffffffffffffffffffffffffffffffffff167f8be0079c531659141344cd1fd0a4f28419497f9722a3daafe3b4186f6b6457e060405160405180910390a35050565b610bbf8061010d6000396000f3fe60806040526004361061008a5760003560e01c806387e4be4c1161005957806387e4be4c1461012c5780638da5cb5b14610155578063cd6dc68714610180578063d2d5862c146101a9578063f2fde38b146101d457610091565b806343bc1612146100965780635bf8633a146100c157806369328dec146100ec578063715018a61461011557610091565b3661009157005b600080fd5b3480156100a257600080fd5b506100ab6101fd565b6040516100b89190610954565b60405180910390f35b3480156100cd57600080fd5b506100d6610223565b6040516100e39190610954565b60405180910390f35b3480156100f857600080fd5b50610113600480360381019061010e9190610855565b610249565b005b34801561012157600080fd5b5061012a6103ba565b005b34801561013857600080fd5b50610153600480360381019061014e91906107f0565b610442565b005b34801561016157600080fd5b5061016a6104f6565b6040516101779190610954565b60405180910390f35b34801561018c57600080fd5b506101a760048036038101906101a29190610819565b61051f565b005b3480156101b557600080fd5b506101be6105e7565b6040516101cb9190610a2f565b60405180910390f35b3480156101e057600080fd5b506101fb60048036038101906101f691906107f0565b6105ed565b005b600160009054906101000a900473ffffffffffffffffffffffffffffffffffffffff1681565b600260009054906101000a900473ffffffffffffffffffffffffffffffffffffffff1681565b8073ffffffffffffffffffffffffffffffffffffffff1663095ea7b330846040518363ffffffff1660e01b81526004016102849291906109a6565b602060405180830381600087803b15801561029e57600080fd5b505af11580156102b2573d6000803e3d6000fd5b505050506040513d601f19601f820116820180604052508101906102d691906108a4565b508073ffffffffffffffffffffffffffffffffffffffff166323b872dd3085856040518463ffffffff1660e01b81526004016103149392919061096f565b602060405180830381600087803b15801561032e57600080fd5b505af1158015610342573d6000803e3d6000fd5b505050506040513d601f19601f8201168201806040525081019061036691906108a4565b508273ffffffffffffffffffffffffffffffffffffffff167f7fcf532c15f0a6db0bd6d0e038bea71d30d808c7d98cb3bf7268a95bf5081b65836040516103ad9190610a2f565b60405180910390a2505050565b6103c26106e5565b73ffffffffffffffffffffffffffffffffffffffff166103e06104f6565b73ffffffffffffffffffffffffffffffffffffffff1614610436576040517f08c379a000000000000000000000000000000000000000000000000000000000815260040161042d906109ef565b60405180910390fd5b61044060006106ed565b565b600073ffffffffffffffffffffffffffffffffffffffff168173ffffffffffffffffffffffffffffffffffffffff1614156104b2576040517f08c379a00000000000000000000000000000000000000000000000000000000081526004016104a990610a0f565b60405180910390fd5b80600260006101000a81548173ffffffffffffffffffffffffffffffffffffffff021916908373ffffffffffffffffffffffffffffffffffffffff16021790555050565b60008060009054906101000a900473ffffffffffffffffffffffffffffffffffffffff16905090565b6105276106e5565b73ffffffffffffffffffffffffffffffffffffffff166105456104f6565b73ffffffffffffffffffffffffffffffffffffffff161461059b576040517f08c379a0000000000000000000000000000000000000000000000000000000008152600401610592906109ef565b60405180910390fd5b81600160006101000a81548173ffffffffffffffffffffffffffffffffffffffff021916908373ffffffffffffffffffffffffffffffffffffffff160217905550806003819055505050565b60035481565b6105f56106e5565b73ffffffffffffffffffffffffffffffffffffffff166106136104f6565b73ffffffffffffffffffffffffffffffffffffffff1614610669576040517f08c379a0000000000000000000000000000000000000000000000000000000008152600401610660906109ef565b60405180910390fd5b600073ffffffffffffffffffffffffffffffffffffffff168173ffffffffffffffffffffffffffffffffffffffff1614156106d9576040517f08c379a00000000000000000000000000000000000000000000000000000000081526004016106d0906109cf565b60405180910390fd5b6106e2816106ed565b50565b600033905090565b60008060009054906101000a900473ffffffffffffffffffffffffffffffffffffffff169050816000806101000a81548173ffffffffffffffffffffffffffffffffffffffff021916908373ffffffffffffffffffffffffffffffffffffffff1602179055508173ffffffffffffffffffffffffffffffffffffffff168173ffffffffffffffffffffffffffffffffffffffff167f8be0079c531659141344cd1fd0a4f28419497f9722a3daafe3b4186f6b6457e060405160405180910390a35050565b6000813590506107c081610b44565b92915050565b6000815190506107d581610b5b565b92915050565b6000813590506107ea81610b72565b92915050565b60006020828403121561080257600080fd5b6000610810848285016107b1565b91505092915050565b6000806040838503121561082c57600080fd5b600061083a858286016107b1565b925050602061084b858286016107db565b9150509250929050565b60008060006060848603121561086a57600080fd5b6000610878868287016107b1565b9350506020610889868287016107db565b925050604061089a868287016107b1565b9150509250925092565b6000602082840312156108b657600080fd5b60006108c4848285016107c6565b91505092915050565b6108d681610a5b565b82525050565b60006108e9602683610a4a565b91506108f482610aa3565b604082019050919050565b600061090c602083610a4a565b915061091782610af2565b602082019050919050565b600061092f600f83610a4a565b915061093a82610b1b565b602082019050919050565b61094e81610a99565b82525050565b600060208201905061096960008301846108cd565b92915050565b600060608201905061098460008301866108cd565b61099160208301856108cd565b61099e6040830184610945565b949350505050565b60006040820190506109bb60008301856108cd565b6109c86020830184610945565b9392505050565b600060208201905081810360008301526109e8816108dc565b9050919050565b60006020820190508181036000830152610a08816108ff565b9050919050565b60006020820190508181036000830152610a2881610922565b9050919050565b6000602082019050610a446000830184610945565b92915050565b600082825260208201905092915050565b6000610a6682610a79565b9050919050565b60008115159050919050565b600073ffffffffffffffffffffffffffffffffffffffff82169050919050565b6000819050919050565b7f4f776e61626c653a206e6577206f776e657220697320746865207a65726f206160008201527f6464726573730000000000000000000000000000000000000000000000000000602082015250565b7f4f776e61626c653a2063616c6c6572206973206e6f7420746865206f776e6572600082015250565b7f496e76616c696420416464726573730000000000000000000000000000000000600082015250565b610b4d81610a5b565b8114610b5857600080fd5b50565b610b6481610a6d565b8114610b6f57600080fd5b50565b610b7b81610a99565b8114610b8657600080fd5b5056fea2646970667358221220177f05f5a19c0ac1d695c063fb94d64347156bcc36c205b83c14c48f701c6d1664736f6c63430008040033a2646970667358221220546f8d4d6f7cd0aaca41ca2c91d1dac44e4250ba2e576a018f930c889ec7d60e64736f6c63430008040033",
  "linkReferences": {},
  "deployedLinkReferences": {}
}