{
  "_format": "hh-sol-artifact-1",
  "contractName": "ChainlinkOracleInfo",
  "sourceName": "contracts/ChainlinkOracleInfo.sol",
  "abi": [
    {
      "anonymous": false,
      "inputs": [
        {
          "indexed": true,
          "internalType": "address",
          "name": "previousOwner",
          "type": "address"
        },
        {
          "indexed": true,
          "internalType": "address",
          "name": "newOwner",
          "type": "address"
        }
      ],
      "name": "OwnershipTransferred",
      "type": "event"
    },
    {
      "inputs": [],
      "name": "getFee",
      "outputs": [
        {
          "internalType": "uint256",
          "name": "",
          "type": "uint256"
        }
      ],
      "stateMutability": "view",
      "type": "function"
    },
    {
      "inputs": [],
      "name": "getJobId",
      "outputs": [
        {
          "internalType": "bytes32",
          "name": "",
          "type": "bytes32"
        }
      ],
      "stateMutability": "view",
      "type": "function"
    },
    {
      "inputs": [],
      "name": "getOracle",
      "outputs": [
        {
          "internalType": "address",
          "name": "",
          "type": "address"
        }
      ],
      "stateMutability": "view",
      "type": "function"
    },
    {
      "inputs": [
        {
          "internalType": "address",
          "name": "_oracle",
          "type": "address"
        },
        {
          "internalType": "string",
          "name": "_jobId",
          "type": "string"
        },
        {
          "internalType": "uint256",
          "name": "_fee",
          "type": "uint256"
        }
      ],
      "name": "initialize",
      "outputs": [],
      "stateMutability": "nonpayable",
      "type": "function"
    },
    {
      "inputs": [],
      "name": "owner",
      "outputs": [
        {
          "internalType": "address",
          "name": "",
          "type": "address"
        }
      ],
      "stateMutability": "view",
      "type": "function"
    },
    {
      "inputs": [],
      "name": "renounceOwnership",
      "outputs": [],
      "stateMutability": "nonpayable",
      "type": "function"
    },
    {
      "inputs": [
        {
          "internalType": "address",
          "name": "newOwner",
          "type": "address"
        }
      ],
      "name": "transferOwnership",
      "outputs": [],
      "stateMutability": "nonpayable",
      "type": "function"
    }
  ],
  "bytecode": "0x608060405234801561001057600080fd5b5061002d61002261003260201b60201c565b61003a60201b60201c565b6100fe565b600033905090565b60008060009054906101000a900473ffffffffffffffffffffffffffffffffffffffff169050816000806101000a81548173ffffffffffffffffffffffffffffffffffffffff021916908373ffffffffffffffffffffffffffffffffffffffff1602179055508173ffffffffffffffffffffffffffffffffffffffff168173ffffffffffffffffffffffffffffffffffffffff167f8be0079c531659141344cd1fd0a4f28419497f9722a3daafe3b4186f6b6457e060405160405180910390a35050565b6109208061010d6000396000f3fe608060405234801561001057600080fd5b506004361061007d5760003560e01c80638dac9bbc1161005b5780638dac9bbc146100c8578063b02f7fe0146100e4578063ced72f8714610102578063f2fde38b146101205761007d565b8063715018a614610082578063833b1fce1461008c5780638da5cb5b146100aa575b600080fd5b61008a61013c565b005b6100946101c4565b6040516100a19190610686565b60405180910390f35b6100b26101ee565b6040516100bf9190610686565b60405180910390f35b6100e260048036038101906100dd91906105ac565b610217565b005b6100ec6102ef565b6040516100f991906106a1565b60405180910390f35b61010a6102f9565b60405161011791906106fc565b60405180910390f35b61013a60048036038101906101359190610583565b610303565b005b6101446103fb565b73ffffffffffffffffffffffffffffffffffffffff166101626101ee565b73ffffffffffffffffffffffffffffffffffffffff16146101b8576040517f08c379a00000000000000000000000000000000000000000000000000000000081526004016101af906106dc565b60405180910390fd5b6101c26000610403565b565b6000600160009054906101000a900473ffffffffffffffffffffffffffffffffffffffff16905090565b60008060009054906101000a900473ffffffffffffffffffffffffffffffffffffffff16905090565b61021f6103fb565b73ffffffffffffffffffffffffffffffffffffffff1661023d6101ee565b73ffffffffffffffffffffffffffffffffffffffff1614610293576040517f08c379a000000000000000000000000000000000000000000000000000000000815260040161028a906106dc565b60405180910390fd5b82600160006101000a81548173ffffffffffffffffffffffffffffffffffffffff021916908373ffffffffffffffffffffffffffffffffffffffff1602179055506102dd826104c7565b60028190555080600381905550505050565b6000600254905090565b6000600354905090565b61030b6103fb565b73ffffffffffffffffffffffffffffffffffffffff166103296101ee565b73ffffffffffffffffffffffffffffffffffffffff161461037f576040517f08c379a0000000000000000000000000000000000000000000000000000000008152600401610376906106dc565b60405180910390fd5b600073ffffffffffffffffffffffffffffffffffffffff168173ffffffffffffffffffffffffffffffffffffffff1614156103ef576040517f08c379a00000000000000000000000000000000000000000000000000000000081526004016103e6906106bc565b60405180910390fd5b6103f881610403565b50565b600033905090565b60008060009054906101000a900473ffffffffffffffffffffffffffffffffffffffff169050816000806101000a81548173ffffffffffffffffffffffffffffffffffffffff021916908373ffffffffffffffffffffffffffffffffffffffff1602179055508173ffffffffffffffffffffffffffffffffffffffff168173ffffffffffffffffffffffffffffffffffffffff167f8be0079c531659141344cd1fd0a4f28419497f9722a3daafe3b4186f6b6457e060405160405180910390a35050565b6000808290506000815114156104e3576000801b9150506104ec565b60208301519150505b919050565b60006105046104ff8461073c565b610717565b90508281526020810184848401111561051c57600080fd5b6105278482856107c4565b509392505050565b60008135905061053e816108bc565b92915050565b600082601f83011261055557600080fd5b81356105658482602086016104f1565b91505092915050565b60008135905061057d816108d3565b92915050565b60006020828403121561059557600080fd5b60006105a38482850161052f565b91505092915050565b6000806000606084860312156105c157600080fd5b60006105cf8682870161052f565b935050602084013567ffffffffffffffff8111156105ec57600080fd5b6105f886828701610544565b92505060406106098682870161056e565b9150509250925092565b61061c8161077e565b82525050565b61062b81610790565b82525050565b600061063e60268361076d565b915061064982610844565b604082019050919050565b600061066160208361076d565b915061066c82610893565b602082019050919050565b610680816107ba565b82525050565b600060208201905061069b6000830184610613565b92915050565b60006020820190506106b66000830184610622565b92915050565b600060208201905081810360008301526106d581610631565b9050919050565b600060208201905081810360008301526106f581610654565b9050919050565b60006020820190506107116000830184610677565b92915050565b6000610721610732565b905061072d82826107d3565b919050565b6000604051905090565b600067ffffffffffffffff82111561075757610756610804565b5b61076082610833565b9050602081019050919050565b600082825260208201905092915050565b60006107898261079a565b9050919050565b6000819050919050565b600073ffffffffffffffffffffffffffffffffffffffff82169050919050565b6000819050919050565b82818337600083830152505050565b6107dc82610833565b810181811067ffffffffffffffff821117156107fb576107fa610804565b5b80604052505050565b7f4e487b7100000000000000000000000000000000000000000000000000000000600052604160045260246000fd5b6000601f19601f8301169050919050565b7f4f776e61626c653a206e6577206f776e657220697320746865207a65726f206160008201527f6464726573730000000000000000000000000000000000000000000000000000602082015250565b7f4f776e61626c653a2063616c6c6572206973206e6f7420746865206f776e6572600082015250565b6108c58161077e565b81146108d057600080fd5b50565b6108dc816107ba565b81146108e757600080fd5b5056fea2646970667358221220740bddad481c7354bcc485ba9f43fed2937334bfbc80ea1fed4545149b2ec28264736f6c63430008040033",
  "linkReferences": {},
  "deployedLinkReferences": {}
}