{
  "_format": "hh-sol-artifact-1",
  "contractName": "ChainlinkMetadataRequest",
  "sourceName": "contracts/ChainlinkMetadataRequest.sol",
  "abi": [
    {
      "anonymous": false,
      "inputs": [
        {
          "indexed": true,
          "internalType": "bytes32",
          "name": "id",
          "type": "bytes32"
        }
      ],
      "name": "ChainlinkCancelled",
      "type": "event"
    },
    {
      "anonymous": false,
      "inputs": [
        {
          "indexed": true,
          "internalType": "bytes32",
          "name": "id",
          "type": "bytes32"
        }
      ],
      "name": "ChainlinkFulfilled",
      "type": "event"
    },
    {
      "anonymous": false,
      "inputs": [
        {
          "indexed": true,
          "internalType": "bytes32",
          "name": "id",
          "type": "bytes32"
        }
      ],
      "name": "ChainlinkRequested",
      "type": "event"
    },
    {
      "anonymous": false,
      "inputs": [
        {
          "indexed": true,
          "internalType": "bytes32",
          "name": "_requestId",
          "type": "bytes32"
        },
        {
          "indexed": true,
          "internalType": "address",
          "name": "nftAddress",
          "type": "address"
        },
        {
          "indexed": false,
          "internalType": "string",
          "name": "metadataURI",
          "type": "string"
        }
      ],
      "name": "MetadataURIRequestFulfilled",
      "type": "event"
    },
    {
      "anonymous": false,
      "inputs": [
        {
          "indexed": true,
          "internalType": "bytes32",
          "name": "_requestId",
          "type": "bytes32"
        },
        {
          "indexed": true,
          "internalType": "address",
          "name": "nftAddress",
          "type": "address"
        }
      ],
      "name": "MetadataURIRequestInitiated",
      "type": "event"
    },
    {
      "anonymous": false,
      "inputs": [
        {
          "indexed": true,
          "internalType": "address",
          "name": "previousOwner",
          "type": "address"
        },
        {
          "indexed": true,
          "internalType": "address",
          "name": "newOwner",
          "type": "address"
        }
      ],
      "name": "OwnershipTransferred",
      "type": "event"
    },
    {
      "inputs": [
        {
          "internalType": "bytes32",
          "name": "_bytes32",
          "type": "bytes32"
        }
      ],
      "name": "bytes32ToBytes",
      "outputs": [
        {
          "internalType": "bytes",
          "name": "",
          "type": "bytes"
        }
      ],
      "stateMutability": "pure",
      "type": "function"
    },
    {
      "inputs": [
        {
          "internalType": "bytes32",
          "name": "_bytes32",
          "type": "bytes32"
        }
      ],
      "name": "bytes32ToString",
      "outputs": [
        {
          "internalType": "string",
          "name": "",
          "type": "string"
        }
      ],
      "stateMutability": "pure",
      "type": "function"
    },
    {
      "inputs": [
        {
          "internalType": "bytes32",
          "name": "_requestId",
          "type": "bytes32"
        },
        {
          "internalType": "bytes32",
          "name": "_metadataURI",
          "type": "bytes32"
        }
      ],
      "name": "fulfill",
      "outputs": [],
      "stateMutability": "nonpayable",
      "type": "function"
    },
    {
      "inputs": [],
      "name": "getFee",
      "outputs": [
        {
          "internalType": "uint256",
          "name": "",
          "type": "uint256"
        }
      ],
      "stateMutability": "view",
      "type": "function"
    },
    {
      "inputs": [],
      "name": "getJobId",
      "outputs": [
        {
          "internalType": "bytes32",
          "name": "",
          "type": "bytes32"
        }
      ],
      "stateMutability": "view",
      "type": "function"
    },
    {
      "inputs": [
        {
          "internalType": "address",
          "name": "_nftAddress",
          "type": "address"
        }
      ],
      "name": "getMetadataURI",
      "outputs": [
        {
          "internalType": "bytes32",
          "name": "",
          "type": "bytes32"
        }
      ],
      "stateMutability": "nonpayable",
      "type": "function"
    },
    {
      "inputs": [],
      "name": "getOracle",
      "outputs": [
        {
          "internalType": "address",
          "name": "",
          "type": "address"
        }
      ],
      "stateMutability": "view",
      "type": "function"
    },
    {
      "inputs": [
        {
          "internalType": "address",
          "name": "_oracle",
          "type": "address"
        },
        {
          "internalType": "string",
          "name": "_jobId",
          "type": "string"
        },
        {
          "internalType": "uint256",
          "name": "_fee",
          "type": "uint256"
        }
      ],
      "name": "initialize",
      "outputs": [],
      "stateMutability": "nonpayable",
      "type": "function"
    },
    {
      "inputs": [],
      "name": "owner",
      "outputs": [
        {
          "internalType": "address",
          "name": "",
          "type": "address"
        }
      ],
      "stateMutability": "view",
      "type": "function"
    },
    {
      "inputs": [],
      "name": "renounceOwnership",
      "outputs": [],
      "stateMutability": "nonpayable",
      "type": "function"
    },
    {
      "inputs": [
        {
          "internalType": "address",
          "name": "newOwner",
          "type": "address"
        }
      ],
      "name": "transferOwnership",
      "outputs": [],
      "stateMutability": "nonpayable",
      "type": "function"
    }
  ],
  "bytecode": "0x608060405260016004553480156200001657600080fd5b50620000376200002b6200004d60201b60201c565b6200005560201b60201c565b620000476200011b60201b60201c565b62000298565b600033905090565b6000600660009054906101000a900473ffffffffffffffffffffffffffffffffffffffff16905081600660006101000a81548173ffffffffffffffffffffffffffffffffffffffff021916908373ffffffffffffffffffffffffffffffffffffffff1602179055508173ffffffffffffffffffffffffffffffffffffffff168173ffffffffffffffffffffffffffffffffffffffff167f8be0079c531659141344cd1fd0a4f28419497f9722a3daafe3b4186f6b6457e060405160405180910390a35050565b620001c173c89bd4e1632d3a43cb03aaad5262cbe4038bc57173ffffffffffffffffffffffffffffffffffffffff166338cc48316040518163ffffffff1660e01b815260040160206040518083038186803b1580156200017a57600080fd5b505afa1580156200018f573d6000803e3d6000fd5b505050506040513d601f19601f82011682018060405250810190620001b591906200021e565b620001c360201b60201c565b565b80600260006101000a81548173ffffffffffffffffffffffffffffffffffffffff021916908373ffffffffffffffffffffffffffffffffffffffff16021790555050565b60008151905062000218816200027e565b92915050565b6000602082840312156200023157600080fd5b6000620002418482850162000207565b91505092915050565b600062000257826200025e565b9050919050565b600073ffffffffffffffffffffffffffffffffffffffff82169050919050565b62000289816200024a565b81146200029557600080fd5b50565b6125e280620002a86000396000f3fe608060405234801561001057600080fd5b50600436106100a95760003560e01c80638da5cb5b116100715780638da5cb5b146101525780638dac9bbc146101705780639201de551461018c578063b02f7fe0146101bc578063ced72f87146101da578063f2fde38b146101f8576100a9565b8063042f2b65146100ae5780630fcc3081146100ca5780634c0999c7146100fa578063715018a61461012a578063833b1fce14610134575b600080fd5b6100c860048036038101906100c39190611a97565b610214565b005b6100e460048036038101906100df91906119b5565b610427565b6040516100f19190611db8565b60405180910390f35b610114600480360381019061010f9190611a6e565b610689565b6040516101219190611e03565b60405180910390f35b6101326107d1565b005b61013c610859565b6040516101499190611cda565b60405180910390f35b61015a610883565b6040516101679190611cda565b60405180910390f35b61018a600480360381019061018591906119de565b6108ad565b005b6101a660048036038101906101a19190611a6e565b610985565b6040516101b39190611e25565b60405180910390f35b6101c461099d565b6040516101d19190611db8565b60405180910390f35b6101e26109a7565b6040516101ef9190611ec7565b60405180910390f35b610212600480360381019061020d91906119b5565b6109b1565b005b816005600082815260200190815260200160002060009054906101000a900473ffffffffffffffffffffffffffffffffffffffff1673ffffffffffffffffffffffffffffffffffffffff163373ffffffffffffffffffffffffffffffffffffffff16146102b6576040517f08c379a00000000000000000000000000000000000000000000000000000000081526004016102ad90611ea7565b60405180910390fd5b6005600082815260200190815260200160002060006101000a81549073ffffffffffffffffffffffffffffffffffffffff0219169055807f7cc135e0cebb02c3480ae5d74d377283180a2601f8f644edf7987b009316c63a60405160405180910390a26000600b600085815260200190815260200160002060009054906101000a900473ffffffffffffffffffffffffffffffffffffffff169050600061035c84610985565b905060008290508073ffffffffffffffffffffffffffffffffffffffff166323cb9bde87846040518363ffffffff1660e01b815260040161039e929190611dd3565b600060405180830381600087803b1580156103b857600080fd5b505af11580156103cc573d6000803e3d6000fd5b505050508273ffffffffffffffffffffffffffffffffffffffff16867f9fe8a226314e641cf446a92fc9f8278aa640554c1f8b68e026e568f6e2e041f6846040516104179190611e25565b60405180910390a3505050505050565b60008061043e6008543063042f2b6560e01b610aa9565b905060008390506105116040518060400160405280600281526020017f69640000000000000000000000000000000000000000000000000000000000008152508273ffffffffffffffffffffffffffffffffffffffff1663e2cee5446040518163ffffffff1660e01b815260040160006040518083038186803b1580156104c457600080fd5b505afa1580156104d8573d6000803e3d6000fd5b505050506040513d6000823e3d601f19601f820116820180604052508101906105019190611ad3565b84610ada9092919063ffffffff16565b6105636040518060400160405280600a81526020017f6e6674616464726573730000000000000000000000000000000000000000000081525061055386610b0d565b84610ada9092919063ffffffff16565b6000610594600760009054906101000a900473ffffffffffffffffffffffffffffffffffffffff1684600954610b3e565b905033600a600083815260200190815260200160002060006101000a81548173ffffffffffffffffffffffffffffffffffffffff021916908373ffffffffffffffffffffffffffffffffffffffff16021790555084600b600083815260200190815260200160002060006101000a81548173ffffffffffffffffffffffffffffffffffffffff021916908373ffffffffffffffffffffffffffffffffffffffff1602179055508473ffffffffffffffffffffffffffffffffffffffff16817f8c9f78804b6ccc4ec7a9dde10d8fdfc2a50d98720e67a88b8ce48b014549af0160405160405180910390a3809350505050919050565b60606000602067ffffffffffffffff8111156106ce577f4e487b7100000000000000000000000000000000000000000000000000000000600052604160045260246000fd5b6040519080825280601f01601f1916602001820160405280156107005781602001600182028036833780820191505090505b50905060005b60208110156107c757838160208110610748577f4e487b7100000000000000000000000000000000000000000000000000000000600052603260045260246000fd5b1a60f81b828281518110610785577f4e487b7100000000000000000000000000000000000000000000000000000000600052603260045260246000fd5b60200101907effffffffffffffffffffffffffffffffffffffffffffffffffffffffffffff1916908160001a90535080806107bf906122da565b915050610706565b5080915050919050565b6107d9610b5e565b73ffffffffffffffffffffffffffffffffffffffff166107f7610883565b73ffffffffffffffffffffffffffffffffffffffff161461084d576040517f08c379a000000000000000000000000000000000000000000000000000000000815260040161084490611e87565b60405180910390fd5b6108576000610b66565b565b6000600760009054906101000a900473ffffffffffffffffffffffffffffffffffffffff16905090565b6000600660009054906101000a900473ffffffffffffffffffffffffffffffffffffffff16905090565b6108b5610b5e565b73ffffffffffffffffffffffffffffffffffffffff166108d3610883565b73ffffffffffffffffffffffffffffffffffffffff1614610929576040517f08c379a000000000000000000000000000000000000000000000000000000000815260040161092090611e87565b60405180910390fd5b82600760006101000a81548173ffffffffffffffffffffffffffffffffffffffff021916908373ffffffffffffffffffffffffffffffffffffffff16021790555061097382610c2c565b60088190555080600981905550505050565b6060600061099283610689565b905080915050919050565b6000600854905090565b6000600954905090565b6109b9610b5e565b73ffffffffffffffffffffffffffffffffffffffff166109d7610883565b73ffffffffffffffffffffffffffffffffffffffff1614610a2d576040517f08c379a0000000000000000000000000000000000000000000000000000000008152600401610a2490611e87565b60405180910390fd5b600073ffffffffffffffffffffffffffffffffffffffff168173ffffffffffffffffffffffffffffffffffffffff161415610a9d576040517f08c379a0000000000000000000000000000000000000000000000000000000008152600401610a9490611e47565b60405180910390fd5b610aa681610b66565b50565b610ab161180a565b610ab961180a565b610ad085858584610c56909392919063ffffffff16565b9150509392505050565b610af1828460800151610d0690919063ffffffff16565b610b08818460800151610d0690919063ffffffff16565b505050565b6060610b3782604051602001610b239190611c93565b604051602081830303815290604052610d2b565b9050919050565b6000610b558484846001634042994660e01b61117b565b90509392505050565b600033905090565b6000600660009054906101000a900473ffffffffffffffffffffffffffffffffffffffff16905081600660006101000a81548173ffffffffffffffffffffffffffffffffffffffff021916908373ffffffffffffffffffffffffffffffffffffffff1602179055508173ffffffffffffffffffffffffffffffffffffffff168173ffffffffffffffffffffffffffffffffffffffff167f8be0079c531659141344cd1fd0a4f28419497f9722a3daafe3b4186f6b6457e060405160405180910390a35050565b600080829050600081511415610c48576000801b915050610c51565b60208301519150505b919050565b610c5e61180a565b610c6e85608001516101006113e3565b508385600001818152505082856020019073ffffffffffffffffffffffffffffffffffffffff16908173ffffffffffffffffffffffffffffffffffffffff16815250508185604001907bffffffffffffffffffffffffffffffffffffffffffffffffffffffff191690817bffffffffffffffffffffffffffffffffffffffffffffffffffffffff191681525050849050949350505050565b610d13826003835161144d565b610d26818361159290919063ffffffff16565b505050565b606060006040518060400160405280601081526020017f30313233343536373839616263646566000000000000000000000000000000008152509050600060028451610d779190612137565b6002610d839190611f70565b67ffffffffffffffff811115610dc2577f4e487b7100000000000000000000000000000000000000000000000000000000600052604160045260246000fd5b6040519080825280601f01601f191660200182016040528015610df45781602001600182028036833780820191505090505b5090507f300000000000000000000000000000000000000000000000000000000000000081600081518110610e52577f4e487b7100000000000000000000000000000000000000000000000000000000600052603260045260246000fd5b60200101907effffffffffffffffffffffffffffffffffffffffffffffffffffffffffffff1916908160001a9053507f780000000000000000000000000000000000000000000000000000000000000081600181518110610edc577f4e487b7100000000000000000000000000000000000000000000000000000000600052603260045260246000fd5b60200101907effffffffffffffffffffffffffffffffffffffffffffffffffffffffffffff1916908160001a90535060005b845181101561117057826004868381518110610f53577f4e487b7100000000000000000000000000000000000000000000000000000000600052603260045260246000fd5b602001015160f81c60f81b7effffffffffffffffffffffffffffffffffffffffffffffffffffffffffffff1916901c60f81c60ff1681518110610fbf577f4e487b7100000000000000000000000000000000000000000000000000000000600052603260045260246000fd5b602001015160f81c60f81b82600283610fd89190612137565b6002610fe49190611f70565b8151811061101b577f4e487b7100000000000000000000000000000000000000000000000000000000600052603260045260246000fd5b60200101907effffffffffffffffffffffffffffffffffffffffffffffffffffffffffffff1916908160001a90535082600f60f81b868381518110611089577f4e487b7100000000000000000000000000000000000000000000000000000000600052603260045260246000fd5b602001015160f81c60f81b1660f81c60ff16815181106110d2577f4e487b7100000000000000000000000000000000000000000000000000000000600052603260045260246000fd5b602001015160f81c60f81b826002836110eb9190612137565b60036110f79190611f70565b8151811061112e577f4e487b7100000000000000000000000000000000000000000000000000000000600052603260045260246000fd5b60200101907effffffffffffffffffffffffffffffffffffffffffffffffffffffffffffff1916908160001a9053508080611168906122da565b915050610f0e565b508092505050919050565b600030600454604051602001611192929190611cae565b604051602081830303815290604052805190602001209050600454856060018181525050856005600083815260200190815260200160002060006101000a81548173ffffffffffffffffffffffffffffffffffffffff021916908373ffffffffffffffffffffffffffffffffffffffff160217905550807fb5e6e01e79f91267dc17b4e6314d5d4d03593d2ceee0fbb452b750bd70ea5af960405160405180910390a2600082600080886000015189602001518a604001518b606001518a8d6080015160000151604051602401611270989796959493929190611cf5565b604051602081830303815290604052907bffffffffffffffffffffffffffffffffffffffffffffffffffffffff19166020820180517bffffffffffffffffffffffffffffffffffffffffffffffffffffffff83818316178352505050509050600260009054906101000a900473ffffffffffffffffffffffffffffffffffffffff1673ffffffffffffffffffffffffffffffffffffffff16634000aea08887846040518463ffffffff1660e01b815260040161132e93929190611d7a565b602060405180830381600087803b15801561134857600080fd5b505af115801561135c573d6000803e3d6000fd5b505050506040513d601f19601f820116820180604052508101906113809190611a45565b6113bf576040517f08c379a00000000000000000000000000000000000000000000000000000000081526004016113b690611e67565b60405180910390fd5b6001600460008282546113d29190611f70565b925050819055505095945050505050565b6113eb611877565b60006020836113fa9190612351565b146114265760208261140c9190612351565b60206114189190612191565b826114239190611f70565b91505b81836020018181525050604051808452600081528281016020016040525082905092915050565b6017811161147a576114748160058460ff16901b60ff1617846115b490919063ffffffff16565b5061158d565b60ff81116114bc5761149f601860058460ff16901b17846115b490919063ffffffff16565b506114b6816001856115d49092919063ffffffff16565b5061158c565b61ffff81116114ff576114e2601960058460ff16901b17846115b490919063ffffffff16565b506114f9816002856115d49092919063ffffffff16565b5061158b565b63ffffffff811161154457611527601a60058460ff16901b17846115b490919063ffffffff16565b5061153e816004856115d49092919063ffffffff16565b5061158a565b67ffffffffffffffff811161158957611570601b60058460ff16901b17846115b490919063ffffffff16565b50611587816008856115d49092919063ffffffff16565b505b5b5b5b5b505050565b61159a611877565b6115ac838460000151518485516115f6565b905092915050565b6115bc611877565b6115cc83846000015151846116e5565b905092915050565b6115dc611877565b6115ed84856000015151858561173c565b90509392505050565b6115fe611877565b825182111561160c57600080fd5b8460200151828561161d9190611f70565b1115611652576116518560026116428860200151888761163d9190611f70565b6117ca565b61164c9190612137565b6117e6565b5b6000808651805187602083010193508088870111156116715787860182525b60208701925050505b602084106116b857805182526020826116939190611f70565b91506020816116a29190611f70565b90506020846116b19190612191565b935061167a565b60006001856020036101000a03905080198251168184511681811785525050508692505050949350505050565b6116ed611877565b8360200151831061171357611712846002866020015161170d9190612137565b6117e6565b5b835180516020858301018481538186141561172f576001820183525b5050508390509392505050565b611744611877565b846020015184836117559190611f70565b111561177d5761177c856002868561176d9190611f70565b6117779190612137565b6117e6565b5b600060018361010061178f9190612019565b6117999190612191565b905085518386820101858319825116178152815185880111156117bc5784870182525b505085915050949350505050565b6000818311156117dc578290506117e0565b8190505b92915050565b6000826000015190506117f983836113e3565b506118048382611592565b50505050565b6040518060a0016040528060008019168152602001600073ffffffffffffffffffffffffffffffffffffffff16815260200160007bffffffffffffffffffffffffffffffffffffffffffffffffffffffff1916815260200160008152602001611871611877565b81525090565b604051806040016040528060608152602001600081525090565b60006118a461189f84611f07565b611ee2565b9050828152602081018484840111156118bc57600080fd5b6118c7848285612267565b509392505050565b60006118e26118dd84611f07565b611ee2565b9050828152602081018484840111156118fa57600080fd5b611905848285612276565b509392505050565b60008135905061191c81612550565b92915050565b60008151905061193181612567565b92915050565b6000813590506119468161257e565b92915050565b600082601f83011261195d57600080fd5b813561196d848260208601611891565b91505092915050565b600082601f83011261198757600080fd5b81516119978482602086016118cf565b91505092915050565b6000813590506119af81612595565b92915050565b6000602082840312156119c757600080fd5b60006119d58482850161190d565b91505092915050565b6000806000606084860312156119f357600080fd5b6000611a018682870161190d565b935050602084013567ffffffffffffffff811115611a1e57600080fd5b611a2a8682870161194c565b9250506040611a3b868287016119a0565b9150509250925092565b600060208284031215611a5757600080fd5b6000611a6584828501611922565b91505092915050565b600060208284031215611a8057600080fd5b6000611a8e84828501611937565b91505092915050565b60008060408385031215611aaa57600080fd5b6000611ab885828601611937565b9250506020611ac985828601611937565b9150509250929050565b600060208284031215611ae557600080fd5b600082015167ffffffffffffffff811115611aff57600080fd5b611b0b84828501611976565b91505092915050565b611b1d816121c5565b82525050565b611b34611b2f826121c5565b612323565b82525050565b611b43816121e3565b82525050565b611b52816121ed565b82525050565b6000611b6382611f38565b611b6d8185611f4e565b9350611b7d818560208601612276565b611b868161240f565b840191505092915050565b611ba2611b9d82612243565b612323565b82525050565b6000611bb382611f43565b611bbd8185611f5f565b9350611bcd818560208601612276565b611bd68161240f565b840191505092915050565b6000611bee602683611f5f565b9150611bf98261243a565b604082019050919050565b6000611c11602383611f5f565b9150611c1c82612489565b604082019050919050565b6000611c34602083611f5f565b9150611c3f826124d8565b602082019050919050565b6000611c57602883611f5f565b9150611c6282612501565b604082019050919050565b611c7681612239565b82525050565b611c8d611c8882612239565b612347565b82525050565b6000611c9f8284611b23565b60148201915081905092915050565b6000611cba8285611b91565b601482019150611cca8284611c7c565b6020820191508190509392505050565b6000602082019050611cef6000830184611b14565b92915050565b600061010082019050611d0b600083018b611b14565b611d18602083018a611c6d565b611d256040830189611b3a565b611d326060830188611b14565b611d3f6080830187611b49565b611d4c60a0830186611c6d565b611d5960c0830185611c6d565b81810360e0830152611d6b8184611b58565b90509998505050505050505050565b6000606082019050611d8f6000830186611b14565b611d9c6020830185611c6d565b8181036040830152611dae8184611b58565b9050949350505050565b6000602082019050611dcd6000830184611b3a565b92915050565b6000604082019050611de86000830185611b3a565b8181036020830152611dfa8184611ba8565b90509392505050565b60006020820190508181036000830152611e1d8184611b58565b905092915050565b60006020820190508181036000830152611e3f8184611ba8565b905092915050565b60006020820190508181036000830152611e6081611be1565b9050919050565b60006020820190508181036000830152611e8081611c04565b9050919050565b60006020820190508181036000830152611ea081611c27565b9050919050565b60006020820190508181036000830152611ec081611c4a565b9050919050565b6000602082019050611edc6000830184611c6d565b92915050565b6000611eec611efd565b9050611ef882826122a9565b919050565b6000604051905090565b600067ffffffffffffffff821115611f2257611f216123e0565b5b611f2b8261240f565b9050602081019050919050565b600081519050919050565b600081519050919050565b600082825260208201905092915050565b600082825260208201905092915050565b6000611f7b82612239565b9150611f8683612239565b9250827fffffffffffffffffffffffffffffffffffffffffffffffffffffffffffffffff03821115611fbb57611fba612382565b5b828201905092915050565b6000808291508390505b600185111561201057808604811115611fec57611feb612382565b5b6001851615611ffb5780820291505b80810290506120098561242d565b9450611fd0565b94509492505050565b600061202482612239565b915061202f83612239565b925061205c7fffffffffffffffffffffffffffffffffffffffffffffffffffffffffffffffff8484612064565b905092915050565b6000826120745760019050612130565b816120825760009050612130565b816001811461209857600281146120a2576120d1565b6001915050612130565b60ff8411156120b4576120b3612382565b5b8360020a9150848211156120cb576120ca612382565b5b50612130565b5060208310610133831016604e8410600b84101617156121065782820a90508381111561210157612100612382565b5b612130565b6121138484846001611fc6565b9250905081840481111561212a57612129612382565b5b81810290505b9392505050565b600061214282612239565b915061214d83612239565b9250817fffffffffffffffffffffffffffffffffffffffffffffffffffffffffffffffff048311821515161561218657612185612382565b5b828202905092915050565b600061219c82612239565b91506121a783612239565b9250828210156121ba576121b9612382565b5b828203905092915050565b60006121d082612219565b9050919050565b60008115159050919050565b6000819050919050565b60007fffffffff0000000000000000000000000000000000000000000000000000000082169050919050565b600073ffffffffffffffffffffffffffffffffffffffff82169050919050565b6000819050919050565b600061224e82612255565b9050919050565b600061226082612219565b9050919050565b82818337600083830152505050565b60005b83811015612294578082015181840152602081019050612279565b838111156122a3576000848401525b50505050565b6122b28261240f565b810181811067ffffffffffffffff821117156122d1576122d06123e0565b5b80604052505050565b60006122e582612239565b91507fffffffffffffffffffffffffffffffffffffffffffffffffffffffffffffffff82141561231857612317612382565b5b600182019050919050565b600061232e82612335565b9050919050565b600061234082612420565b9050919050565b6000819050919050565b600061235c82612239565b915061236783612239565b925082612377576123766123b1565b5b828206905092915050565b7f4e487b7100000000000000000000000000000000000000000000000000000000600052601160045260246000fd5b7f4e487b7100000000000000000000000000000000000000000000000000000000600052601260045260246000fd5b7f4e487b7100000000000000000000000000000000000000000000000000000000600052604160045260246000fd5b6000601f19601f8301169050919050565b60008160601b9050919050565b60008160011c9050919050565b7f4f776e61626c653a206e6577206f776e657220697320746865207a65726f206160008201527f6464726573730000000000000000000000000000000000000000000000000000602082015250565b7f756e61626c6520746f207472616e73666572416e6443616c6c20746f206f726160008201527f636c650000000000000000000000000000000000000000000000000000000000602082015250565b7f4f776e61626c653a2063616c6c6572206973206e6f7420746865206f776e6572600082015250565b7f536f75726365206d75737420626520746865206f7261636c65206f662074686560008201527f2072657175657374000000000000000000000000000000000000000000000000602082015250565b612559816121c5565b811461256457600080fd5b50565b612570816121d7565b811461257b57600080fd5b50565b612587816121e3565b811461259257600080fd5b50565b61259e81612239565b81146125a957600080fd5b5056fea2646970667358221220d900f18f81dce20eb37f77bc61cb261690a02e524460eca882327b800475d44b64736f6c63430008040033",
  "linkReferences": {},
  "deployedLinkReferences": {}
}