{
  "_format": "hh-sol-artifact-1",
  "contractName": "NotesNFT",
  "sourceName": "contracts/NotesNFT.sol",
  "abi": [
    {
      "inputs": [
        {
          "internalType": "string",
          "name": "_name",
          "type": "string"
        },
        {
          "internalType": "string",
          "name": "_symbol",
          "type": "string"
        },
        {
          "internalType": "address",
          "name": "_usdcAddress",
          "type": "address"
        },
        {
          "internalType": "address",
          "name": "_manager",
          "type": "address"
        }
      ],
      "stateMutability": "nonpayable",
      "type": "constructor"
    },
    {
      "anonymous": false,
      "inputs": [
        {
          "indexed": true,
          "internalType": "address",
          "name": "owner",
          "type": "address"
        },
        {
          "indexed": true,
          "internalType": "address",
          "name": "approved",
          "type": "address"
        },
        {
          "indexed": true,
          "internalType": "uint256",
          "name": "tokenId",
          "type": "uint256"
        }
      ],
      "name": "Approval",
      "type": "event"
    },
    {
      "anonymous": false,
      "inputs": [
        {
          "indexed": true,
          "internalType": "address",
          "name": "owner",
          "type": "address"
        },
        {
          "indexed": true,
          "internalType": "address",
          "name": "operator",
          "type": "address"
        },
        {
          "indexed": false,
          "internalType": "bool",
          "name": "approved",
          "type": "bool"
        }
      ],
      "name": "ApprovalForAll",
      "type": "event"
    },
    {
      "anonymous": false,
      "inputs": [
        {
          "indexed": false,
          "internalType": "string",
          "name": "_artistName",
          "type": "string"
        },
        {
          "indexed": false,
          "internalType": "address",
          "name": "_artistAddress",
          "type": "address"
        },
        {
          "indexed": false,
          "internalType": "uint256",
          "name": "_price",
          "type": "uint256"
        },
        {
          "indexed": false,
          "internalType": "uint256",
          "name": "_numberOfTokens",
          "type": "uint256"
        }
      ],
      "name": "NotesNFTInitialized",
      "type": "event"
    },
    {
      "anonymous": false,
      "inputs": [
        {
          "indexed": false,
          "internalType": "address",
          "name": "_to",
          "type": "address"
        },
        {
          "indexed": false,
          "internalType": "uint256",
          "name": "_tokenId",
          "type": "uint256"
        },
        {
          "indexed": false,
          "internalType": "uint256",
          "name": "_price",
          "type": "uint256"
        }
      ],
      "name": "NotesNFTMinted",
      "type": "event"
    },
    {
      "anonymous": false,
      "inputs": [
        {
          "indexed": true,
          "internalType": "address",
          "name": "previousOwner",
          "type": "address"
        },
        {
          "indexed": true,
          "internalType": "address",
          "name": "newOwner",
          "type": "address"
        }
      ],
      "name": "OwnershipTransferred",
      "type": "event"
    },
    {
      "anonymous": false,
      "inputs": [
        {
          "indexed": false,
          "internalType": "address",
          "name": "influencer",
          "type": "address"
        },
        {
          "indexed": false,
          "internalType": "uint256",
          "name": "amount",
          "type": "uint256"
        }
      ],
      "name": "PromotionWithdrawl",
      "type": "event"
    },
    {
      "anonymous": false,
      "inputs": [
        {
          "indexed": true,
          "internalType": "address",
          "name": "from",
          "type": "address"
        },
        {
          "indexed": true,
          "internalType": "address",
          "name": "to",
          "type": "address"
        },
        {
          "indexed": true,
          "internalType": "uint256",
          "name": "tokenId",
          "type": "uint256"
        }
      ],
      "name": "Transfer",
      "type": "event"
    },
    {
      "inputs": [],
      "name": "USDC",
      "outputs": [
        {
          "internalType": "contract ERC20",
          "name": "",
          "type": "address"
        }
      ],
      "stateMutability": "view",
      "type": "function"
    },
    {
      "inputs": [
        {
          "internalType": "address",
          "name": "to",
          "type": "address"
        },
        {
          "internalType": "uint256",
          "name": "tokenId",
          "type": "uint256"
        }
      ],
      "name": "approve",
      "outputs": [],
      "stateMutability": "nonpayable",
      "type": "function"
    },
    {
      "inputs": [],
      "name": "artistName",
      "outputs": [
        {
          "internalType": "string",
          "name": "",
          "type": "string"
        }
      ],
      "stateMutability": "view",
      "type": "function"
    },
    {
      "inputs": [
        {
          "internalType": "address",
          "name": "owner",
          "type": "address"
        }
      ],
      "name": "balanceOf",
      "outputs": [
        {
          "internalType": "uint256",
          "name": "",
          "type": "uint256"
        }
      ],
      "stateMutability": "view",
      "type": "function"
    },
    {
      "inputs": [],
      "name": "baseURI",
      "outputs": [
        {
          "internalType": "string",
          "name": "",
          "type": "string"
        }
      ],
      "stateMutability": "view",
      "type": "function"
    },
    {
      "inputs": [],
      "name": "chartmetricSongId",
      "outputs": [
        {
          "internalType": "string",
          "name": "",
          "type": "string"
        }
      ],
      "stateMutability": "view",
      "type": "function"
    },
    {
      "inputs": [],
      "name": "defaultURI",
      "outputs": [
        {
          "internalType": "string",
          "name": "",
          "type": "string"
        }
      ],
      "stateMutability": "view",
      "type": "function"
    },
    {
      "inputs": [
        {
          "internalType": "uint256",
          "name": "tokenId",
          "type": "uint256"
        }
      ],
      "name": "getApproved",
      "outputs": [
        {
          "internalType": "address",
          "name": "",
          "type": "address"
        }
      ],
      "stateMutability": "view",
      "type": "function"
    },
    {
      "inputs": [
        {
          "internalType": "string",
          "name": "_artistName",
          "type": "string"
        },
        {
          "internalType": "address",
          "name": "_artistAddress",
          "type": "address"
        },
        {
          "internalType": "string",
          "name": "_youtubeSongId",
          "type": "string"
        },
        {
          "internalType": "string",
          "name": "_soundchartsSongId",
          "type": "string"
        },
        {
          "internalType": "string",
          "name": "_songstatsSongId",
          "type": "string"
        },
        {
          "internalType": "string",
          "name": "_chartmetricSongId",
          "type": "string"
        },
        {
          "internalType": "uint256",
          "name": "_price",
          "type": "uint256"
        },
        {
          "internalType": "uint256",
          "name": "_numberOfTokens",
          "type": "uint256"
        },
        {
          "internalType": "uint256",
          "name": "_spotifyStreamCount",
          "type": "uint256"
        },
        {
          "internalType": "uint256",
          "name": "_youtubeViewsCount",
          "type": "uint256"
        }
      ],
      "name": "initialize",
      "outputs": [],
      "stateMutability": "nonpayable",
      "type": "function"
    },
    {
      "inputs": [
        {
          "internalType": "address",
          "name": "owner",
          "type": "address"
        },
        {
          "internalType": "address",
          "name": "operator",
          "type": "address"
        }
      ],
      "name": "isApprovedForAll",
      "outputs": [
        {
          "internalType": "bool",
          "name": "",
          "type": "bool"
        }
      ],
      "stateMutability": "view",
      "type": "function"
    },
    {
      "inputs": [],
      "name": "issuerAddress",
      "outputs": [
        {
          "internalType": "address",
          "name": "",
          "type": "address"
        }
      ],
      "stateMutability": "view",
      "type": "function"
    },
    {
      "inputs": [
        {
          "internalType": "uint256",
          "name": "_spotifyStreamCount",
          "type": "uint256"
        }
      ],
      "name": "latestSpotifyStreamCountFulFill",
      "outputs": [],
      "stateMutability": "nonpayable",
      "type": "function"
    },
    {
      "inputs": [
        {
          "internalType": "uint256",
          "name": "_youtubeViewsCount",
          "type": "uint256"
        }
      ],
      "name": "latestYoutubeViewsCountFulFill",
      "outputs": [],
      "stateMutability": "nonpayable",
      "type": "function"
    },
    {
      "inputs": [],
      "name": "manager",
      "outputs": [
        {
          "internalType": "address",
          "name": "",
          "type": "address"
        }
      ],
      "stateMutability": "view",
      "type": "function"
    },
    {
      "inputs": [
        {
          "internalType": "address",
          "name": "to",
          "type": "address"
        },
        {
          "internalType": "uint256",
          "name": "_amount",
          "type": "uint256"
        }
      ],
      "name": "mintBonds",
      "outputs": [],
      "stateMutability": "nonpayable",
      "type": "function"
    },
    {
      "inputs": [],
      "name": "name",
      "outputs": [
        {
          "internalType": "string",
          "name": "",
          "type": "string"
        }
      ],
      "stateMutability": "view",
      "type": "function"
    },
    {
      "inputs": [],
      "name": "numberOfTokens",
      "outputs": [
        {
          "internalType": "uint256",
          "name": "",
          "type": "uint256"
        }
      ],
      "stateMutability": "view",
      "type": "function"
    },
    {
      "inputs": [],
      "name": "owner",
      "outputs": [
        {
          "internalType": "address",
          "name": "",
          "type": "address"
        }
      ],
      "stateMutability": "view",
      "type": "function"
    },
    {
      "inputs": [
        {
          "internalType": "uint256",
          "name": "tokenId",
          "type": "uint256"
        }
      ],
      "name": "ownerOf",
      "outputs": [
        {
          "internalType": "address",
          "name": "",
          "type": "address"
        }
      ],
      "stateMutability": "view",
      "type": "function"
    },
    {
      "inputs": [],
      "name": "price",
      "outputs": [
        {
          "internalType": "uint256",
          "name": "",
          "type": "uint256"
        }
      ],
      "stateMutability": "view",
      "type": "function"
    },
    {
      "inputs": [],
      "name": "promotionOne",
      "outputs": [
        {
          "internalType": "address",
          "name": "",
          "type": "address"
        }
      ],
      "stateMutability": "view",
      "type": "function"
    },
    {
      "inputs": [],
      "name": "promotionOneBalance",
      "outputs": [
        {
          "internalType": "uint256",
          "name": "",
          "type": "uint256"
        }
      ],
      "stateMutability": "view",
      "type": "function"
    },
    {
      "inputs": [],
      "name": "promotionOneShare",
      "outputs": [
        {
          "internalType": "uint256",
          "name": "",
          "type": "uint256"
        }
      ],
      "stateMutability": "view",
      "type": "function"
    },
    {
      "inputs": [],
      "name": "promotionTwo",
      "outputs": [
        {
          "internalType": "address",
          "name": "",
          "type": "address"
        }
      ],
      "stateMutability": "view",
      "type": "function"
    },
    {
      "inputs": [],
      "name": "promotionTwoBalance",
      "outputs": [
        {
          "internalType": "uint256",
          "name": "",
          "type": "uint256"
        }
      ],
      "stateMutability": "view",
      "type": "function"
    },
    {
      "inputs": [],
      "name": "promotionTwoShare",
      "outputs": [
        {
          "internalType": "uint256",
          "name": "",
          "type": "uint256"
        }
      ],
      "stateMutability": "view",
      "type": "function"
    },
    {
      "inputs": [],
      "name": "renounceOwnership",
      "outputs": [],
      "stateMutability": "nonpayable",
      "type": "function"
    },
    {
      "inputs": [
        {
          "internalType": "address",
          "name": "from",
          "type": "address"
        },
        {
          "internalType": "address",
          "name": "to",
          "type": "address"
        },
        {
          "internalType": "uint256",
          "name": "tokenId",
          "type": "uint256"
        }
      ],
      "name": "safeTransferFrom",
      "outputs": [],
      "stateMutability": "nonpayable",
      "type": "function"
    },
    {
      "inputs": [
        {
          "internalType": "address",
          "name": "from",
          "type": "address"
        },
        {
          "internalType": "address",
          "name": "to",
          "type": "address"
        },
        {
          "internalType": "uint256",
          "name": "tokenId",
          "type": "uint256"
        },
        {
          "internalType": "bytes",
          "name": "data",
          "type": "bytes"
        }
      ],
      "name": "safeTransferFrom",
      "outputs": [],
      "stateMutability": "nonpayable",
      "type": "function"
    },
    {
      "inputs": [
        {
          "internalType": "address",
          "name": "operator",
          "type": "address"
        },
        {
          "internalType": "bool",
          "name": "approved",
          "type": "bool"
        }
      ],
      "name": "setApprovalForAll",
      "outputs": [],
      "stateMutability": "nonpayable",
      "type": "function"
    },
    {
      "inputs": [
        {
          "internalType": "string",
          "name": "uri",
          "type": "string"
        }
      ],
      "name": "setBaseURI",
      "outputs": [],
      "stateMutability": "nonpayable",
      "type": "function"
    },
    {
      "inputs": [
        {
          "internalType": "string",
          "name": "_defaultURI",
          "type": "string"
        }
      ],
      "name": "setDefaultURI",
      "outputs": [],
      "stateMutability": "nonpayable",
      "type": "function"
    },
    {
      "inputs": [
        {
          "internalType": "address",
          "name": "_manager",
          "type": "address"
        }
      ],
      "name": "setManager",
      "outputs": [],
      "stateMutability": "nonpayable",
      "type": "function"
    },
    {
      "inputs": [
        {
          "internalType": "address",
          "name": "_promotionOne",
          "type": "address"
        },
        {
          "internalType": "uint256",
          "name": "_promotionOneShare",
          "type": "uint256"
        },
        {
          "internalType": "address",
          "name": "_promotionTwo",
          "type": "address"
        },
        {
          "internalType": "uint256",
          "name": "_promotionTwoShare",
          "type": "uint256"
        }
      ],
      "name": "setupPromotions",
      "outputs": [],
      "stateMutability": "nonpayable",
      "type": "function"
    },
    {
      "inputs": [],
      "name": "songstatsSongId",
      "outputs": [
        {
          "internalType": "string",
          "name": "",
          "type": "string"
        }
      ],
      "stateMutability": "view",
      "type": "function"
    },
    {
      "inputs": [],
      "name": "soundchartsSongId",
      "outputs": [
        {
          "internalType": "string",
          "name": "",
          "type": "string"
        }
      ],
      "stateMutability": "view",
      "type": "function"
    },
    {
      "inputs": [],
      "name": "spotifyStreamCount",
      "outputs": [
        {
          "internalType": "uint256",
          "name": "",
          "type": "uint256"
        }
      ],
      "stateMutability": "view",
      "type": "function"
    },
    {
      "inputs": [
        {
          "internalType": "bytes4",
          "name": "interfaceId",
          "type": "bytes4"
        }
      ],
      "name": "supportsInterface",
      "outputs": [
        {
          "internalType": "bool",
          "name": "",
          "type": "bool"
        }
      ],
      "stateMutability": "view",
      "type": "function"
    },
    {
      "inputs": [],
      "name": "symbol",
      "outputs": [
        {
          "internalType": "string",
          "name": "",
          "type": "string"
        }
      ],
      "stateMutability": "view",
      "type": "function"
    },
    {
      "inputs": [
        {
          "internalType": "uint256",
          "name": "tokenId",
          "type": "uint256"
        }
      ],
      "name": "tokenURI",
      "outputs": [
        {
          "internalType": "string",
          "name": "",
          "type": "string"
        }
      ],
      "stateMutability": "view",
      "type": "function"
    },
    {
      "inputs": [],
      "name": "totalSupply",
      "outputs": [
        {
          "internalType": "uint256",
          "name": "",
          "type": "uint256"
        }
      ],
      "stateMutability": "view",
      "type": "function"
    },
    {
      "inputs": [
        {
          "internalType": "address",
          "name": "from",
          "type": "address"
        },
        {
          "internalType": "address",
          "name": "to",
          "type": "address"
        },
        {
          "internalType": "uint256",
          "name": "tokenId",
          "type": "uint256"
        }
      ],
      "name": "transferFrom",
      "outputs": [],
      "stateMutability": "nonpayable",
      "type": "function"
    },
    {
      "inputs": [
        {
          "internalType": "address",
          "name": "newOwner",
          "type": "address"
        }
      ],
      "name": "transferOwnership",
      "outputs": [],
      "stateMutability": "nonpayable",
      "type": "function"
    },
    {
      "inputs": [],
      "name": "withdraw",
      "outputs": [],
      "stateMutability": "nonpayable",
      "type": "function"
    },
    {
      "inputs": [],
      "name": "withdrawForPromotionOne",
      "outputs": [],
      "stateMutability": "nonpayable",
      "type": "function"
    },
    {
      "inputs": [],
      "name": "withdrawForPromotionTwo",
      "outputs": [],
      "stateMutability": "nonpayable",
      "type": "function"
    },
    {
      "inputs": [],
      "name": "youtubeSongId",
      "outputs": [
        {
          "internalType": "string",
          "name": "",
          "type": "string"
        }
      ],
      "stateMutability": "view",
      "type": "function"
    },
    {
      "inputs": [],
      "name": "youtubeViewsCount",
      "outputs": [
        {
          "internalType": "uint256",
          "name": "",
          "type": "uint256"
        }
      ],
      "stateMutability": "view",
      "type": "function"
    }
  ],
  "bytecode": "0x61010060405260506080818152906200308d60a03980516200002a9160189160209091019062000132565b503480156200003857600080fd5b50604051620030dd380380620030dd8339810160408190526200005b91620002ac565b8351849084906200007490600090602085019062000132565b5080516200008a90600190602084019062000132565b505050620000a7620000a1620000dc60201b60201c565b620000e0565b601b80546001600160a01b039384166001600160a01b031991821617909155601a8054929093169116179055506200038e9050565b3390565b600680546001600160a01b038381166001600160a01b0319831681179093556040519116919082907f8be0079c531659141344cd1fd0a4f28419497f9722a3daafe3b4186f6b6457e090600090a35050565b82805462000140906200033b565b90600052602060002090601f016020900481019282620001645760008555620001af565b82601f106200017f57805160ff1916838001178555620001af565b82800160010185558215620001af579182015b82811115620001af57825182559160200191906001019062000192565b50620001bd929150620001c1565b5090565b5b80821115620001bd5760008155600101620001c2565b80516001600160a01b0381168114620001f057600080fd5b919050565b600082601f8301126200020757600080fd5b81516001600160401b038082111562000224576200022462000378565b604051601f8301601f19908116603f011681019082821181831017156200024f576200024f62000378565b816040528381526020925086838588010111156200026c57600080fd5b600091505b8382101562000290578582018301518183018401529082019062000271565b83821115620002a25760008385830101525b9695505050505050565b60008060008060808587031215620002c357600080fd5b84516001600160401b0380821115620002db57600080fd5b620002e988838901620001f5565b955060208701519150808211156200030057600080fd5b506200030f87828801620001f5565b9350506200032060408601620001d8565b91506200033060608601620001d8565b905092959194509250565b600181811c908216806200035057607f821691505b602082108114156200037257634e487b7160e01b600052602260045260246000fd5b50919050565b634e487b7160e01b600052604160045260246000fd5b612cef806200039e6000396000f3fe608060405234801561001057600080fd5b50600436106103205760003560e01c8063715018a6116101a7578063ba33e46a116100ee578063da1b9e0811610097578063f338801411610071578063f33880141461064b578063f93b8a6314610654578063f9f16ef21461066757600080fd5b8063da1b9e08146105e9578063e985e9c5146105fc578063f2fde38b1461063857600080fd5b8063cfaea979116100c8578063cfaea979146105bb578063d0ebdbe7146105c3578063d7f8d262146105d657600080fd5b8063ba33e46a14610582578063bc93204314610595578063c87b56dd146105a857600080fd5b8063a22cb46511610150578063a85374e11161012a578063a85374e114610553578063af6837c714610566578063b88d4fde1461056f57600080fd5b8063a22cb46514610524578063a4280bd814610537578063a63234e01461054057600080fd5b80639401503711610181578063940150371461050b57806395d89b4114610513578063a035b1fe1461051b57600080fd5b8063715018a6146104df57806389a30271146104e75780638da5cb5b146104fa57600080fd5b8063481c6a751161026b578063634e8b1b116102145780636c0360eb116101ee5780636c0360eb146104bc5780636e86e697146104c457806370a08231146104cc57600080fd5b8063634e8b1b146104985780636352211e146104a157806368105154146104b457600080fd5b806355f804b31161024557806355f804b31461046a578063560926ce1461047d5780635b2f515b1461049057600080fd5b8063481c6a75146104465780634d5130d5146104595780635293c3361461046257600080fd5b80630e451b37116102cd5780633a367a67116102a75780633a367a67146104235780633ccfd60b1461042b57806342842e0e1461043357600080fd5b80630e451b37146103ff57806318160ddd1461040757806323b872dd1461041057600080fd5b806306fdde03116102fe57806306fdde03146103ac578063081812fc146103c1578063095ea7b3146103ec57600080fd5b806301daf14d1461032557806301ffc9a71461036d57806303ec8c9a14610395575b600080fd5b61036b6103333660046127a6565b601280546001600160a01b039586166001600160a01b0319918216179091556013805493909516921691909117909255601455601555565b005b61038061037b366004612807565b610670565b60405190151581526020015b60405180910390f35b61039e60145481565b60405190815260200161038c565b6103b461070d565b60405161038c9190612b0a565b6103d46103cf366004612981565b61079f565b6040516001600160a01b03909116815260200161038c565b61036b6103fa36600461277c565b6107c6565b61036b6108fd565b61039e60075481565b61036b61041e36600461268d565b610b83565b6103b4610bfa565b61036b610c88565b61036b61044136600461268d565b610e80565b601a546103d4906001600160a01b031681565b61039e60105481565b6103b4610e9b565b61036b610478366004612841565b610ea8565b6012546103d4906001600160a01b031681565b6103b4610f3d565b61039e600f5481565b6103d46104af366004612981565b610f4a565b61036b610faf565b6103b4611235565b6103b4611242565b61039e6104da36600461263f565b61124f565b61036b6112e9565b601b546103d4906001600160a01b031681565b6006546001600160a01b03166103d4565b6103b46112fd565b6103b461130a565b61039e60115481565b61036b610532366004612745565b611319565b61039e60175481565b600e546103d4906001600160a01b031681565b61036b61056136600461277c565b611324565b61039e60155481565b61036b61057d3660046126c9565b611612565b61036b610590366004612981565b601055565b61036b6105a3366004612981565b600f55565b6103b46105b6366004612981565b611690565b6103b46117ce565b61036b6105d136600461263f565b6117db565b61036b6105e4366004612876565b61187b565b61036b6105f7366004612841565b611958565b61038061060a36600461265a565b6001600160a01b03918216600090815260056020908152604080832093909416825291909152205460ff1690565b61036b61064636600461263f565b611973565b61039e60165481565b6013546103d4906001600160a01b031681565b61039e600d5481565b60006001600160e01b031982167f80ac58cd0000000000000000000000000000000000000000000000000000000014806106d357506001600160e01b031982167f5b5e139f00000000000000000000000000000000000000000000000000000000145b8061070757507f01ffc9a7000000000000000000000000000000000000000000000000000000006001600160e01b03198316145b92915050565b60606000805461071c90612bf1565b80601f016020809104026020016040519081016040528092919081815260200182805461074890612bf1565b80156107955780601f1061076a57610100808354040283529160200191610795565b820191906000526020600020905b81548152906001019060200180831161077857829003601f168201915b5050505050905090565b60006107aa82611a00565b506000908152600460205260409020546001600160a01b031690565b60006107d182610f4a565b9050806001600160a01b0316836001600160a01b031614156108605760405162461bcd60e51b815260206004820152602160248201527f4552433732313a20617070726f76616c20746f2063757272656e74206f776e6560448201527f720000000000000000000000000000000000000000000000000000000000000060648201526084015b60405180910390fd5b336001600160a01b038216148061087c575061087c813361060a565b6108ee5760405162461bcd60e51b815260206004820152603d60248201527f4552433732313a20617070726f76652063616c6c6572206973206e6f7420746f60448201527f6b656e206f776e6572206f7220617070726f76656420666f7220616c6c0000006064820152608401610857565b6108f88383611a64565b505050565b336109106006546001600160a01b031690565b6001600160a01b0316148061092f5750601a546001600160a01b031633145b806109445750600e546001600160a01b031633145b6109a35760405162461bcd60e51b815260206004820152602a60248201527f43616c6c6572206e6565647320746f204f776e6572206f72204d616e61676572604482015269081bdc88105c9d1a5cdd60b21b6064820152608401610857565b6013546001600160a01b0316158015906109be575060155415155b610a305760405162461bcd60e51b815260206004820152602260248201527f496e76616c69642064657461696c7320666f722050726f6d6f74696f6e72205460448201527f776f0000000000000000000000000000000000000000000000000000000000006064820152608401610857565b601754610aa55760405162461bcd60e51b815260206004820152602560248201527f4e6f2062616c616e636520617661696c61626c6520666f722050726f6d6f746960448201527f6f6e54776f0000000000000000000000000000000000000000000000000000006064820152608401610857565b601b5460135460175460405163a9059cbb60e01b81526001600160a01b039283166004820152602481019190915291169063a9059cbb90604401602060405180830381600087803b158015610af957600080fd5b505af1158015610b0d573d6000803e3d6000fd5b505050506040513d601f19601f82011682018060405250810190610b3191906127ea565b50601354601754604080516001600160a01b03909316835260208301919091527f4797e24f64baa902187edf73f8499665a6b42eabbc4c28fea0efba3c7386c76a910160405180910390a16000601755565b610b8d3382611ad2565b610bef5760405162461bcd60e51b815260206004820152602d60248201527f4552433732313a2063616c6c6572206973206e6f7420746f6b656e206f776e6560448201526c1c881bdc88185c1c1c9bdd9959609a1b6064820152608401610857565b6108f8838383611b51565b60188054610c0790612bf1565b80601f0160208091040260200160405190810160405280929190818152602001828054610c3390612bf1565b8015610c805780601f10610c5557610100808354040283529160200191610c80565b820191906000526020600020905b815481529060010190602001808311610c6357829003601f168201915b505050505081565b33610c9b6006546001600160a01b031690565b6001600160a01b03161480610cba5750601a546001600160a01b031633145b610d065760405162461bcd60e51b815260206004820181905260248201527f43616c6c6572206e6565647320746f204f776e6572206f72204d616e616765726044820152606401610857565b600e546001600160a01b0316610d5e5760405162461bcd60e51b815260206004820152601560248201527f4e554c4c20416464726573732050726f766964656400000000000000000000006044820152606401610857565b601b54600e546040517f70a082310000000000000000000000000000000000000000000000000000000081523060048201526001600160a01b039283169263a9059cbb92169083906370a082319060240160206040518083038186803b158015610dc757600080fd5b505afa158015610ddb573d6000803e3d6000fd5b505050506040513d601f19601f82011682018060405250810190610dff919061299a565b6040516001600160e01b031960e085901b1681526001600160a01b0390921660048301526024820152604401602060405180830381600087803b158015610e4557600080fd5b505af1158015610e59573d6000803e3d6000fd5b505050506040513d601f19601f82011682018060405250810190610e7d91906127ea565b50565b6108f883838360405180602001604052806000815250611612565b600b8054610c0790612bf1565b33610ebb6006546001600160a01b031690565b6001600160a01b03161480610eda5750601a546001600160a01b031633145b610f265760405162461bcd60e51b815260206004820181905260248201527f43616c6c6572206e6565647320746f204f776e6572206f72204d616e616765726044820152606401610857565b8051610f399060199060208401906124ed565b5050565b60088054610c0790612bf1565b6000818152600260205260408120546001600160a01b0316806107075760405162461bcd60e51b815260206004820152601860248201527f4552433732313a20696e76616c696420746f6b656e20494400000000000000006044820152606401610857565b33610fc26006546001600160a01b031690565b6001600160a01b03161480610fe15750601a546001600160a01b031633145b80610ff65750600e546001600160a01b031633145b6110555760405162461bcd60e51b815260206004820152602a60248201527f43616c6c6572206e6565647320746f204f776e6572206f72204d616e61676572604482015269081bdc88105c9d1a5cdd60b21b6064820152608401610857565b6012546001600160a01b031615801590611070575060145415155b6110e25760405162461bcd60e51b815260206004820152602160248201527f496e76616c69642064657461696c7320666f722050726f6d6f74696f6e204f6e60448201527f65000000000000000000000000000000000000000000000000000000000000006064820152608401610857565b6016546111575760405162461bcd60e51b815260206004820152602560248201527f4e6f2062616c616e636520617661696c61626c6520666f722050726f6d6f746960448201527f6f6e4f6e650000000000000000000000000000000000000000000000000000006064820152608401610857565b601b5460125460165460405163a9059cbb60e01b81526001600160a01b039283166004820152602481019190915291169063a9059cbb90604401602060405180830381600087803b1580156111ab57600080fd5b505af11580156111bf573d6000803e3d6000fd5b505050506040513d601f19601f820116820180604052508101906111e391906127ea565b50601254601654604080516001600160a01b03909316835260208301919091527f4797e24f64baa902187edf73f8499665a6b42eabbc4c28fea0efba3c7386c76a910160405180910390a16000601655565b60198054610c0790612bf1565b600c8054610c0790612bf1565b60006001600160a01b0382166112cd5760405162461bcd60e51b815260206004820152602960248201527f4552433732313a2061646472657373207a65726f206973206e6f74206120766160448201527f6c6964206f776e657200000000000000000000000000000000000000000000006064820152608401610857565b506001600160a01b031660009081526003602052604090205490565b6112f1611d57565b6112fb6000611db1565b565b60098054610c0790612bf1565b60606001805461071c90612bf1565b610f39338383611e03565b601b546040517fdd62ed3e0000000000000000000000000000000000000000000000000000000081526001600160a01b038481166004830152306024830152600092169063dd62ed3e9060440160206040518083038186803b15801561138957600080fd5b505afa15801561139d573d6000803e3d6000fd5b505050506040513d601f19601f820116820180604052508101906113c1919061299a565b9050818110156114135760405162461bcd60e51b815260206004820152601f60248201527f496e73756666696369656e7420617070726f76616c20666f722066756e6473006044820152606401610857565b81600d546011546114249190612b8f565b146114715760405162461bcd60e51b815260206004820152601760248201527f496e73756666696369656e742046756e64732053656e740000000000000000006044820152606401610857565b601b546040517f23b872dd0000000000000000000000000000000000000000000000000000000081526001600160a01b03858116600483015230602483015260448201859052909116906323b872dd90606401602060405180830381600087803b1580156114de57600080fd5b505af11580156114f2573d6000803e3d6000fd5b505050506040513d601f19601f8201168201806040525081019061151691906127ea565b5060005b600d548161ffff1610156115aa5761153484600754611ed2565b600754601154604080516001600160a01b038816815260208101939093528201527f114158aff522a4b710d00e11312e60bc1621371f7bca18e8e81c8102d57f2aa09060600160405180910390a16007805490600061159283612c4e565b919050555080806115a290612c2c565b91505061151a565b50612710601454836115bc9190612b8f565b6115c69190612b6d565b601660008282546115d79190612b55565b9091555050601554612710906115ed9084612b8f565b6115f79190612b6d565b601760008282546116089190612b55565b9091555050505050565b61161c3383611ad2565b61167e5760405162461bcd60e51b815260206004820152602d60248201527f4552433732313a2063616c6c6572206973206e6f7420746f6b656e206f776e6560448201526c1c881bdc88185c1c1c9bdd9959609a1b6064820152608401610857565b61168a84848484611eec565b50505050565b6000818152600260205260409020546060906001600160a01b03166116f75760405162461bcd60e51b815260206004820152601560248201527f546f6b656e20646f6573206e6f742065786973747300000000000000000000006044820152606401610857565b60006019805461170690612bf1565b90501161179d576018805461171a90612bf1565b80601f016020809104026020016040519081016040528092919081815260200182805461174690612bf1565b80156117935780601f1061176857610100808354040283529160200191611793565b820191906000526020600020905b81548152906001019060200180831161177657829003601f168201915b5050505050610707565b60196117a883611f6a565b6040516020016117b99291906129fb565b60405160208183030381529060405292915050565b600a8054610c0790612bf1565b336117ee6006546001600160a01b031690565b6001600160a01b0316148061180d5750601a546001600160a01b031633145b6118595760405162461bcd60e51b815260206004820181905260248201527f43616c6c6572206e6565647320746f204f776e6572206f72204d616e616765726044820152606401610857565b601a80546001600160a01b0319166001600160a01b0392909216919091179055565b895161188e9060089060208d01906124ed565b5087516118a29060099060208b01906124ed565b5086516118b690600a9060208a01906124ed565b5085516118ca90600b9060208901906124ed565b5084516118de90600c9060208801906124ed565b50600d839055600e80546001600160a01b0319166001600160a01b038b161790556011849055600f82905560108190556040517f44505ce8dae151974db87a0521d28c7834bd23f89f37a2f585df080b97fcf8d090611944908c908c9088908890612b1d565b60405180910390a150505050505050505050565b611960611d57565b8051610f399060189060208401906124ed565b61197b611d57565b6001600160a01b0381166119f75760405162461bcd60e51b815260206004820152602660248201527f4f776e61626c653a206e6577206f776e657220697320746865207a65726f206160448201527f64647265737300000000000000000000000000000000000000000000000000006064820152608401610857565b610e7d81611db1565b6000818152600260205260409020546001600160a01b0316610e7d5760405162461bcd60e51b815260206004820152601860248201527f4552433732313a20696e76616c696420746f6b656e20494400000000000000006044820152606401610857565b600081815260046020526040902080546001600160a01b0319166001600160a01b0384169081179091558190611a9982610f4a565b6001600160a01b03167f8c5be1e5ebec7d5bd14f71427d1e84f3dd0314c0f7b2291e5b200ac8c7c3b92560405160405180910390a45050565b600080611ade83610f4a565b9050806001600160a01b0316846001600160a01b03161480611b2557506001600160a01b0380821660009081526005602090815260408083209388168352929052205460ff165b80611b495750836001600160a01b0316611b3e8461079f565b6001600160a01b0316145b949350505050565b826001600160a01b0316611b6482610f4a565b6001600160a01b031614611bc85760405162461bcd60e51b815260206004820152602560248201527f4552433732313a207472616e736665722066726f6d20696e636f72726563742060448201526437bbb732b960d91b6064820152608401610857565b6001600160a01b038216611c435760405162461bcd60e51b8152602060048201526024808201527f4552433732313a207472616e7366657220746f20746865207a65726f2061646460448201527f72657373000000000000000000000000000000000000000000000000000000006064820152608401610857565b611c508383836001612014565b826001600160a01b0316611c6382610f4a565b6001600160a01b031614611cc75760405162461bcd60e51b815260206004820152602560248201527f4552433732313a207472616e736665722066726f6d20696e636f72726563742060448201526437bbb732b960d91b6064820152608401610857565b600081815260046020908152604080832080546001600160a01b03199081169091556001600160a01b0387811680865260038552838620805460001901905590871680865283862080546001019055868652600290945282852080549092168417909155905184937fddf252ad1be2c89b69c2b068fc378daa952ba7f163c4a11628f55a4df523b3ef91a4505050565b6006546001600160a01b031633146112fb5760405162461bcd60e51b815260206004820181905260248201527f4f776e61626c653a2063616c6c6572206973206e6f7420746865206f776e65726044820152606401610857565b600680546001600160a01b038381166001600160a01b0319831681179093556040519116919082907f8be0079c531659141344cd1fd0a4f28419497f9722a3daafe3b4186f6b6457e090600090a35050565b816001600160a01b0316836001600160a01b03161415611e655760405162461bcd60e51b815260206004820152601960248201527f4552433732313a20617070726f766520746f2063616c6c6572000000000000006044820152606401610857565b6001600160a01b03838116600081815260056020908152604080832094871680845294825291829020805460ff191686151590811790915591519182527f17307eab39ab6107e8899845ad3d59bd9653f200f220920489ca2b5937696c31910160405180910390a3505050565b610f3982826040518060200160405280600081525061209c565b611ef7848484611b51565b611f038484848461211a565b61168a5760405162461bcd60e51b815260206004820152603260248201527f4552433732313a207472616e7366657220746f206e6f6e20455243373231526560448201527131b2b4bb32b91034b6b83632b6b2b73a32b960711b6064820152608401610857565b60606000611f7783612272565b600101905060008167ffffffffffffffff811115611f9757611f97612c7f565b6040519080825280601f01601f191660200182016040528015611fc1576020820181803683370190505b5090508181016020015b600019017f3031323334353637383961626364656600000000000000000000000000000000600a86061a8153600a85049450846120075761200c565b611fcb565b509392505050565b600181111561168a576001600160a01b0384161561205a576001600160a01b03841660009081526003602052604081208054839290612054908490612bae565b90915550505b6001600160a01b0383161561168a576001600160a01b03831660009081526003602052604081208054839290612091908490612b55565b909155505050505050565b6120a68383612354565b6120b3600084848461211a565b6108f85760405162461bcd60e51b815260206004820152603260248201527f4552433732313a207472616e7366657220746f206e6f6e20455243373231526560448201527131b2b4bb32b91034b6b83632b6b2b73a32b960711b6064820152608401610857565b60006001600160a01b0384163b1561226757604051630a85bd0160e11b81526001600160a01b0385169063150b7a029061215e903390899088908890600401612ace565b602060405180830381600087803b15801561217857600080fd5b505af19250505080156121a8575060408051601f3d908101601f191682019092526121a591810190612824565b60015b61224d573d8080156121d6576040519150601f19603f3d011682016040523d82523d6000602084013e6121db565b606091505b5080516122455760405162461bcd60e51b815260206004820152603260248201527f4552433732313a207472616e7366657220746f206e6f6e20455243373231526560448201527131b2b4bb32b91034b6b83632b6b2b73a32b960711b6064820152608401610857565b805181602001fd5b6001600160e01b031916630a85bd0160e11b149050611b49565b506001949350505050565b6000807a184f03e93ff9f4daa797ed6e38ed64bf6a1f01000000000000000083106122bb577a184f03e93ff9f4daa797ed6e38ed64bf6a1f010000000000000000830492506040015b6d04ee2d6d415b85acef810000000083106122e7576d04ee2d6d415b85acef8100000000830492506020015b662386f26fc10000831061230557662386f26fc10000830492506010015b6305f5e100831061231d576305f5e100830492506008015b612710831061233157612710830492506004015b60648310612343576064830492506002015b600a83106107075760010192915050565b6001600160a01b0382166123aa5760405162461bcd60e51b815260206004820181905260248201527f4552433732313a206d696e7420746f20746865207a65726f20616464726573736044820152606401610857565b6000818152600260205260409020546001600160a01b03161561240f5760405162461bcd60e51b815260206004820152601c60248201527f4552433732313a20746f6b656e20616c7265616479206d696e746564000000006044820152606401610857565b61241d600083836001612014565b6000818152600260205260409020546001600160a01b0316156124825760405162461bcd60e51b815260206004820152601c60248201527f4552433732313a20746f6b656e20616c7265616479206d696e746564000000006044820152606401610857565b6001600160a01b038216600081815260036020908152604080832080546001019055848352600290915280822080546001600160a01b0319168417905551839291907fddf252ad1be2c89b69c2b068fc378daa952ba7f163c4a11628f55a4df523b3ef908290a45050565b8280546124f990612bf1565b90600052602060002090601f01602090048101928261251b5760008555612561565b82601f1061253457805160ff1916838001178555612561565b82800160010185558215612561579182015b82811115612561578251825591602001919060010190612546565b5061256d929150612571565b5090565b5b8082111561256d5760008155600101612572565b600067ffffffffffffffff808411156125a1576125a1612c7f565b604051601f8501601f19908116603f011681019082821181831017156125c9576125c9612c7f565b816040528093508581528686860111156125e257600080fd5b858560208301376000602087830101525050509392505050565b80356001600160a01b038116811461261357600080fd5b919050565b600082601f83011261262957600080fd5b61263883833560208501612586565b9392505050565b60006020828403121561265157600080fd5b612638826125fc565b6000806040838503121561266d57600080fd5b612676836125fc565b9150612684602084016125fc565b90509250929050565b6000806000606084860312156126a257600080fd5b6126ab846125fc565b92506126b9602085016125fc565b9150604084013590509250925092565b600080600080608085870312156126df57600080fd5b6126e8856125fc565b93506126f6602086016125fc565b925060408501359150606085013567ffffffffffffffff81111561271957600080fd5b8501601f8101871361272a57600080fd5b61273987823560208401612586565b91505092959194509250565b6000806040838503121561275857600080fd5b612761836125fc565b9150602083013561277181612c95565b809150509250929050565b6000806040838503121561278f57600080fd5b612798836125fc565b946020939093013593505050565b600080600080608085870312156127bc57600080fd5b6127c5856125fc565b9350602085013592506127da604086016125fc565b9396929550929360600135925050565b6000602082840312156127fc57600080fd5b815161263881612c95565b60006020828403121561281957600080fd5b813561263881612ca3565b60006020828403121561283657600080fd5b815161263881612ca3565b60006020828403121561285357600080fd5b813567ffffffffffffffff81111561286a57600080fd5b611b4984828501612618565b6000806000806000806000806000806101408b8d03121561289657600080fd5b8a3567ffffffffffffffff808211156128ae57600080fd5b6128ba8e838f01612618565b9b506128c860208e016125fc565b9a5060408d01359150808211156128de57600080fd5b6128ea8e838f01612618565b995060608d013591508082111561290057600080fd5b61290c8e838f01612618565b985060808d013591508082111561292257600080fd5b61292e8e838f01612618565b975060a08d013591508082111561294457600080fd5b506129518d828e01612618565b95505060c08b0135935060e08b013592506101008b013591506101208b013590509295989b9194979a5092959850565b60006020828403121561299357600080fd5b5035919050565b6000602082840312156129ac57600080fd5b5051919050565b600081518084526129cb816020860160208601612bc5565b601f01601f19169290920160200192915050565b600081516129f1818560208601612bc5565b9290920192915050565b600080845481600182811c915080831680612a1757607f831692505b6020808410821415612a3757634e487b7160e01b86526022600452602486fd5b818015612a4b5760018114612a5c57612a89565b60ff19861689528489019650612a89565b60008b81526020902060005b86811015612a815781548b820152908501908301612a68565b505084890196505b505050505050612ac5612a9c82866129df565b7f2e6a736f6e000000000000000000000000000000000000000000000000000000815260050190565b95945050505050565b60006001600160a01b03808716835280861660208401525083604083015260806060830152612b0060808301846129b3565b9695505050505050565b60208152600061263860208301846129b3565b608081526000612b3060808301876129b3565b6001600160a01b03959095166020830152506040810192909252606090910152919050565b60008219821115612b6857612b68612c69565b500190565b600082612b8a57634e487b7160e01b600052601260045260246000fd5b500490565b6000816000190483118215151615612ba957612ba9612c69565b500290565b600082821015612bc057612bc0612c69565b500390565b60005b83811015612be0578181015183820152602001612bc8565b8381111561168a5750506000910152565b600181811c90821680612c0557607f821691505b60208210811415612c2657634e487b7160e01b600052602260045260246000fd5b50919050565b600061ffff80831681811415612c4457612c44612c69565b6001019392505050565b6000600019821415612c6257612c62612c69565b5060010190565b634e487b7160e01b600052601160045260246000fd5b634e487b7160e01b600052604160045260246000fd5b8015158114610e7d57600080fd5b6001600160e01b031981168114610e7d57600080fdfea26469706673582212202bae55125673d983937bfabbd977aef62264051696d9499cd94e0e8412834d2364736f6c6343000807003368747470733a2f2f676174657761792e70696e6174612e636c6f75642f697066732f516d50574c6777476b4b597938736b4c4d365948345053544659656b6b483657344d39546a526d736f47644d6b6d",
  "linkReferences": {},
  "deployedLinkReferences": {}
}