{
  "_format": "hh-sol-artifact-1",
  "contractName": "NotesNFT",
  "sourceName": "contracts/NotesNFT.sol",
  "abi": [
    {
      "inputs": [
        {
          "internalType": "string",
          "name": "_name",
          "type": "string"
        },
        {
          "internalType": "string",
          "name": "_symbol",
          "type": "string"
        },
        {
          "internalType": "address",
          "name": "_usdcAddress",
          "type": "address"
        },
        {
          "internalType": "address",
          "name": "_manager",
          "type": "address"
        }
      ],
      "stateMutability": "nonpayable",
      "type": "constructor"
    },
    {
      "anonymous": false,
      "inputs": [
        {
          "indexed": true,
          "internalType": "address",
          "name": "owner",
          "type": "address"
        },
        {
          "indexed": true,
          "internalType": "address",
          "name": "approved",
          "type": "address"
        },
        {
          "indexed": true,
          "internalType": "uint256",
          "name": "tokenId",
          "type": "uint256"
        }
      ],
      "name": "Approval",
      "type": "event"
    },
    {
      "anonymous": false,
      "inputs": [
        {
          "indexed": true,
          "internalType": "address",
          "name": "owner",
          "type": "address"
        },
        {
          "indexed": true,
          "internalType": "address",
          "name": "operator",
          "type": "address"
        },
        {
          "indexed": false,
          "internalType": "bool",
          "name": "approved",
          "type": "bool"
        }
      ],
      "name": "ApprovalForAll",
      "type": "event"
    },
    {
      "anonymous": false,
      "inputs": [
        {
          "indexed": false,
          "internalType": "address",
          "name": "influencer",
          "type": "address"
        },
        {
          "indexed": false,
          "internalType": "uint256",
          "name": "amount",
          "type": "uint256"
        }
      ],
      "name": "InfluencerWithdrawl",
      "type": "event"
    },
    {
      "anonymous": false,
      "inputs": [
        {
          "indexed": false,
          "internalType": "string",
          "name": "_artistName",
          "type": "string"
        },
        {
          "indexed": false,
          "internalType": "address",
          "name": "_artistAddress",
          "type": "address"
        },
        {
          "indexed": false,
          "internalType": "uint256",
          "name": "_price",
          "type": "uint256"
        },
        {
          "indexed": false,
          "internalType": "uint256",
          "name": "_numberOfTokens",
          "type": "uint256"
        }
      ],
      "name": "NotesNFTInitialized",
      "type": "event"
    },
    {
      "anonymous": false,
      "inputs": [
        {
          "indexed": false,
          "internalType": "address",
          "name": "_to",
          "type": "address"
        },
        {
          "indexed": false,
          "internalType": "uint256",
          "name": "_tokenId",
          "type": "uint256"
        },
        {
          "indexed": false,
          "internalType": "uint256",
          "name": "_price",
          "type": "uint256"
        }
      ],
      "name": "NotesNFTMinted",
      "type": "event"
    },
    {
      "anonymous": false,
      "inputs": [
        {
          "indexed": true,
          "internalType": "address",
          "name": "previousOwner",
          "type": "address"
        },
        {
          "indexed": true,
          "internalType": "address",
          "name": "newOwner",
          "type": "address"
        }
      ],
      "name": "OwnershipTransferred",
      "type": "event"
    },
    {
      "anonymous": false,
      "inputs": [
        {
          "indexed": true,
          "internalType": "address",
          "name": "from",
          "type": "address"
        },
        {
          "indexed": true,
          "internalType": "address",
          "name": "to",
          "type": "address"
        },
        {
          "indexed": true,
          "internalType": "uint256",
          "name": "tokenId",
          "type": "uint256"
        }
      ],
      "name": "Transfer",
      "type": "event"
    },
    {
      "inputs": [],
      "name": "USDC",
      "outputs": [
        {
          "internalType": "contract ERC20",
          "name": "",
          "type": "address"
        }
      ],
      "stateMutability": "view",
      "type": "function"
    },
    {
      "inputs": [
        {
          "internalType": "address",
          "name": "to",
          "type": "address"
        },
        {
          "internalType": "uint256",
          "name": "tokenId",
          "type": "uint256"
        }
      ],
      "name": "approve",
      "outputs": [],
      "stateMutability": "nonpayable",
      "type": "function"
    },
    {
      "inputs": [],
      "name": "artistName",
      "outputs": [
        {
          "internalType": "string",
          "name": "",
          "type": "string"
        }
      ],
      "stateMutability": "view",
      "type": "function"
    },
    {
      "inputs": [
        {
          "internalType": "address",
          "name": "owner",
          "type": "address"
        }
      ],
      "name": "balanceOf",
      "outputs": [
        {
          "internalType": "uint256",
          "name": "",
          "type": "uint256"
        }
      ],
      "stateMutability": "view",
      "type": "function"
    },
    {
      "inputs": [],
      "name": "baseURI",
      "outputs": [
        {
          "internalType": "string",
          "name": "",
          "type": "string"
        }
      ],
      "stateMutability": "view",
      "type": "function"
    },
    {
      "inputs": [],
      "name": "chartmetricSongId",
      "outputs": [
        {
          "internalType": "string",
          "name": "",
          "type": "string"
        }
      ],
      "stateMutability": "view",
      "type": "function"
    },
    {
      "inputs": [],
      "name": "defaultURI",
      "outputs": [
        {
          "internalType": "string",
          "name": "",
          "type": "string"
        }
      ],
      "stateMutability": "view",
      "type": "function"
    },
    {
      "inputs": [
        {
          "internalType": "uint256",
          "name": "tokenId",
          "type": "uint256"
        }
      ],
      "name": "getApproved",
      "outputs": [
        {
          "internalType": "address",
          "name": "",
          "type": "address"
        }
      ],
      "stateMutability": "view",
      "type": "function"
    },
    {
      "inputs": [],
      "name": "influencerOne",
      "outputs": [
        {
          "internalType": "address",
          "name": "",
          "type": "address"
        }
      ],
      "stateMutability": "view",
      "type": "function"
    },
    {
      "inputs": [],
      "name": "influencerOneBalance",
      "outputs": [
        {
          "internalType": "uint256",
          "name": "",
          "type": "uint256"
        }
      ],
      "stateMutability": "view",
      "type": "function"
    },
    {
      "inputs": [],
      "name": "influencerOneShare",
      "outputs": [
        {
          "internalType": "uint256",
          "name": "",
          "type": "uint256"
        }
      ],
      "stateMutability": "view",
      "type": "function"
    },
    {
      "inputs": [],
      "name": "influencerTwo",
      "outputs": [
        {
          "internalType": "address",
          "name": "",
          "type": "address"
        }
      ],
      "stateMutability": "view",
      "type": "function"
    },
    {
      "inputs": [],
      "name": "influencerTwoBalance",
      "outputs": [
        {
          "internalType": "uint256",
          "name": "",
          "type": "uint256"
        }
      ],
      "stateMutability": "view",
      "type": "function"
    },
    {
      "inputs": [],
      "name": "influencerTwoShare",
      "outputs": [
        {
          "internalType": "uint256",
          "name": "",
          "type": "uint256"
        }
      ],
      "stateMutability": "view",
      "type": "function"
    },
    {
      "inputs": [
        {
          "internalType": "string",
          "name": "_artistName",
          "type": "string"
        },
        {
          "internalType": "address",
          "name": "_artistAddress",
          "type": "address"
        },
        {
          "internalType": "string",
          "name": "_youtubeSongId",
          "type": "string"
        },
        {
          "internalType": "string",
          "name": "_soundchartsSongId",
          "type": "string"
        },
        {
          "internalType": "string",
          "name": "_songstatsSongId",
          "type": "string"
        },
        {
          "internalType": "string",
          "name": "_chartmetricSongId",
          "type": "string"
        },
        {
          "internalType": "uint256",
          "name": "_price",
          "type": "uint256"
        },
        {
          "internalType": "uint256",
          "name": "_numberOfTokens",
          "type": "uint256"
        },
        {
          "internalType": "uint256",
          "name": "_spotifyStreamCount",
          "type": "uint256"
        },
        {
          "internalType": "uint256",
          "name": "_youtubeViewsCount",
          "type": "uint256"
        }
      ],
      "name": "initialize",
      "outputs": [],
      "stateMutability": "nonpayable",
      "type": "function"
    },
    {
      "inputs": [
        {
          "internalType": "address",
          "name": "owner",
          "type": "address"
        },
        {
          "internalType": "address",
          "name": "operator",
          "type": "address"
        }
      ],
      "name": "isApprovedForAll",
      "outputs": [
        {
          "internalType": "bool",
          "name": "",
          "type": "bool"
        }
      ],
      "stateMutability": "view",
      "type": "function"
    },
    {
      "inputs": [],
      "name": "issuerAddress",
      "outputs": [
        {
          "internalType": "address",
          "name": "",
          "type": "address"
        }
      ],
      "stateMutability": "view",
      "type": "function"
    },
    {
      "inputs": [
        {
          "internalType": "uint256",
          "name": "_spotifyStreamCount",
          "type": "uint256"
        }
      ],
      "name": "latestSpotifyStreamCountFulFill",
      "outputs": [],
      "stateMutability": "nonpayable",
      "type": "function"
    },
    {
      "inputs": [
        {
          "internalType": "uint256",
          "name": "_youtubeViewsCount",
          "type": "uint256"
        }
      ],
      "name": "latestYoutubeViewsCountFulFill",
      "outputs": [],
      "stateMutability": "nonpayable",
      "type": "function"
    },
    {
      "inputs": [],
      "name": "manager",
      "outputs": [
        {
          "internalType": "address",
          "name": "",
          "type": "address"
        }
      ],
      "stateMutability": "view",
      "type": "function"
    },
    {
      "inputs": [
        {
          "internalType": "address",
          "name": "to",
          "type": "address"
        },
        {
          "internalType": "uint256",
          "name": "_amount",
          "type": "uint256"
        }
      ],
      "name": "mintBonds",
      "outputs": [],
      "stateMutability": "nonpayable",
      "type": "function"
    },
    {
      "inputs": [],
      "name": "name",
      "outputs": [
        {
          "internalType": "string",
          "name": "",
          "type": "string"
        }
      ],
      "stateMutability": "view",
      "type": "function"
    },
    {
      "inputs": [],
      "name": "numberOfTokens",
      "outputs": [
        {
          "internalType": "uint256",
          "name": "",
          "type": "uint256"
        }
      ],
      "stateMutability": "view",
      "type": "function"
    },
    {
      "inputs": [],
      "name": "owner",
      "outputs": [
        {
          "internalType": "address",
          "name": "",
          "type": "address"
        }
      ],
      "stateMutability": "view",
      "type": "function"
    },
    {
      "inputs": [
        {
          "internalType": "uint256",
          "name": "tokenId",
          "type": "uint256"
        }
      ],
      "name": "ownerOf",
      "outputs": [
        {
          "internalType": "address",
          "name": "",
          "type": "address"
        }
      ],
      "stateMutability": "view",
      "type": "function"
    },
    {
      "inputs": [],
      "name": "price",
      "outputs": [
        {
          "internalType": "uint256",
          "name": "",
          "type": "uint256"
        }
      ],
      "stateMutability": "view",
      "type": "function"
    },
    {
      "inputs": [],
      "name": "renounceOwnership",
      "outputs": [],
      "stateMutability": "nonpayable",
      "type": "function"
    },
    {
      "inputs": [
        {
          "internalType": "address",
          "name": "from",
          "type": "address"
        },
        {
          "internalType": "address",
          "name": "to",
          "type": "address"
        },
        {
          "internalType": "uint256",
          "name": "tokenId",
          "type": "uint256"
        }
      ],
      "name": "safeTransferFrom",
      "outputs": [],
      "stateMutability": "nonpayable",
      "type": "function"
    },
    {
      "inputs": [
        {
          "internalType": "address",
          "name": "from",
          "type": "address"
        },
        {
          "internalType": "address",
          "name": "to",
          "type": "address"
        },
        {
          "internalType": "uint256",
          "name": "tokenId",
          "type": "uint256"
        },
        {
          "internalType": "bytes",
          "name": "data",
          "type": "bytes"
        }
      ],
      "name": "safeTransferFrom",
      "outputs": [],
      "stateMutability": "nonpayable",
      "type": "function"
    },
    {
      "inputs": [
        {
          "internalType": "address",
          "name": "operator",
          "type": "address"
        },
        {
          "internalType": "bool",
          "name": "approved",
          "type": "bool"
        }
      ],
      "name": "setApprovalForAll",
      "outputs": [],
      "stateMutability": "nonpayable",
      "type": "function"
    },
    {
      "inputs": [
        {
          "internalType": "string",
          "name": "uri",
          "type": "string"
        }
      ],
      "name": "setBaseURI",
      "outputs": [],
      "stateMutability": "nonpayable",
      "type": "function"
    },
    {
      "inputs": [
        {
          "internalType": "address",
          "name": "_manager",
          "type": "address"
        }
      ],
      "name": "setManager",
      "outputs": [],
      "stateMutability": "nonpayable",
      "type": "function"
    },
    {
      "inputs": [
        {
          "internalType": "address",
          "name": "_influencerOne",
          "type": "address"
        },
        {
          "internalType": "uint256",
          "name": "_influencerOneShare",
          "type": "uint256"
        },
        {
          "internalType": "address",
          "name": "_influencerTwo",
          "type": "address"
        },
        {
          "internalType": "uint256",
          "name": "_influencerTwoShare",
          "type": "uint256"
        }
      ],
      "name": "setupInfluencers",
      "outputs": [],
      "stateMutability": "nonpayable",
      "type": "function"
    },
    {
      "inputs": [],
      "name": "songstatsSongId",
      "outputs": [
        {
          "internalType": "string",
          "name": "",
          "type": "string"
        }
      ],
      "stateMutability": "view",
      "type": "function"
    },
    {
      "inputs": [],
      "name": "soundchartsSongId",
      "outputs": [
        {
          "internalType": "string",
          "name": "",
          "type": "string"
        }
      ],
      "stateMutability": "view",
      "type": "function"
    },
    {
      "inputs": [],
      "name": "spotifyStreamCount",
      "outputs": [
        {
          "internalType": "uint256",
          "name": "",
          "type": "uint256"
        }
      ],
      "stateMutability": "view",
      "type": "function"
    },
    {
      "inputs": [
        {
          "internalType": "bytes4",
          "name": "interfaceId",
          "type": "bytes4"
        }
      ],
      "name": "supportsInterface",
      "outputs": [
        {
          "internalType": "bool",
          "name": "",
          "type": "bool"
        }
      ],
      "stateMutability": "view",
      "type": "function"
    },
    {
      "inputs": [],
      "name": "symbol",
      "outputs": [
        {
          "internalType": "string",
          "name": "",
          "type": "string"
        }
      ],
      "stateMutability": "view",
      "type": "function"
    },
    {
      "inputs": [
        {
          "internalType": "uint256",
          "name": "tokenId",
          "type": "uint256"
        }
      ],
      "name": "tokenURI",
      "outputs": [
        {
          "internalType": "string",
          "name": "",
          "type": "string"
        }
      ],
      "stateMutability": "view",
      "type": "function"
    },
    {
      "inputs": [],
      "name": "totalSupply",
      "outputs": [
        {
          "internalType": "uint256",
          "name": "",
          "type": "uint256"
        }
      ],
      "stateMutability": "view",
      "type": "function"
    },
    {
      "inputs": [
        {
          "internalType": "address",
          "name": "from",
          "type": "address"
        },
        {
          "internalType": "address",
          "name": "to",
          "type": "address"
        },
        {
          "internalType": "uint256",
          "name": "tokenId",
          "type": "uint256"
        }
      ],
      "name": "transferFrom",
      "outputs": [],
      "stateMutability": "nonpayable",
      "type": "function"
    },
    {
      "inputs": [
        {
          "internalType": "address",
          "name": "newOwner",
          "type": "address"
        }
      ],
      "name": "transferOwnership",
      "outputs": [],
      "stateMutability": "nonpayable",
      "type": "function"
    },
    {
      "inputs": [],
      "name": "withdraw",
      "outputs": [],
      "stateMutability": "nonpayable",
      "type": "function"
    },
    {
      "inputs": [],
      "name": "withdrawForInfluencerOne",
      "outputs": [],
      "stateMutability": "nonpayable",
      "type": "function"
    },
    {
      "inputs": [],
      "name": "withdrawForInfluencerTwo",
      "outputs": [],
      "stateMutability": "nonpayable",
      "type": "function"
    },
    {
      "inputs": [],
      "name": "youtubeSongId",
      "outputs": [
        {
          "internalType": "string",
          "name": "",
          "type": "string"
        }
      ],
      "stateMutability": "view",
      "type": "function"
    },
    {
      "inputs": [],
      "name": "youtubeViewsCount",
      "outputs": [
        {
          "internalType": "uint256",
          "name": "",
          "type": "uint256"
        }
      ],
      "stateMutability": "view",
      "type": "function"
    }
  ],
  "bytecode": "0x60e060405260356080818152906200305360a0398051620000299160189160209091019062000131565b503480156200003757600080fd5b5060405162003088380380620030888339810160408190526200005a91620002ab565b8351849084906200007390600090602085019062000131565b5080516200008990600190602084019062000131565b505050620000a6620000a0620000db60201b60201c565b620000df565b601b80546001600160a01b039384166001600160a01b031991821617909155601a8054929093169116179055506200038d9050565b3390565b600680546001600160a01b038381166001600160a01b0319831681179093556040519116919082907f8be0079c531659141344cd1fd0a4f28419497f9722a3daafe3b4186f6b6457e090600090a35050565b8280546200013f906200033a565b90600052602060002090601f016020900481019282620001635760008555620001ae565b82601f106200017e57805160ff1916838001178555620001ae565b82800160010185558215620001ae579182015b82811115620001ae57825182559160200191906001019062000191565b50620001bc929150620001c0565b5090565b5b80821115620001bc5760008155600101620001c1565b80516001600160a01b0381168114620001ef57600080fd5b919050565b600082601f8301126200020657600080fd5b81516001600160401b038082111562000223576200022362000377565b604051601f8301601f19908116603f011681019082821181831017156200024e576200024e62000377565b816040528381526020925086838588010111156200026b57600080fd5b600091505b838210156200028f578582018301518183018401529082019062000270565b83821115620002a15760008385830101525b9695505050505050565b60008060008060808587031215620002c257600080fd5b84516001600160401b0380821115620002da57600080fd5b620002e888838901620001f4565b95506020870151915080821115620002ff57600080fd5b506200030e87828801620001f4565b9350506200031f60408601620001d7565b91506200032f60608601620001d7565b905092959194509250565b600181811c908216806200034f57607f821691505b602082108114156200037157634e487b7160e01b600052602260045260246000fd5b50919050565b634e487b7160e01b600052604160045260246000fd5b612cb6806200039d6000396000f3fe608060405234801561001057600080fd5b50600436106103155760003560e01c8063746e6e84116101a7578063ba33e46a116100ee578063d7f8d26211610097578063e985e9c511610071578063e985e9c5146105fa578063f2fde38b14610636578063f9f16ef21461064957600080fd5b8063d7f8d262146105d5578063e4148f98146105e8578063e5b4a455146105f157600080fd5b8063c87b56dd116100c8578063c87b56dd146105a7578063cfaea979146105ba578063d0ebdbe7146105c257600080fd5b8063ba33e46a14610578578063ba3d9e901461058b578063bc9320431461059457600080fd5b8063a035b1fe11610150578063a63234e01161012a578063a63234e01461053f578063a85374e114610552578063b88d4fde1461056557600080fd5b8063a035b1fe1461051b578063a22cb46514610524578063a48220091461053757600080fd5b8063940150371161018157806394015037146104c557806394ed1f3c146104cd57806395d89b411461051357600080fd5b8063746e6e841461048e57806389a30271146104a15780638da5cb5b146104b457600080fd5b8063462c84dc1161026b578063634e8b1b116102145780636e86e697116101ee5780636e86e6971461046b57806370a0823114610473578063715018a61461048657600080fd5b8063634e8b1b146104475780636352211e146104505780636c0360eb1461046357600080fd5b80635293c336116102455780635293c3361461042457806355f804b31461042c5780635b2f515b1461043f57600080fd5b8063462c84dc14610400578063481c6a75146104085780634d5130d51461041b57600080fd5b806323b872dd116102cd5780633a367a67116102a75780633a367a67146103dd5780633ccfd60b146103e557806342842e0e146103ed57600080fd5b806323b872dd146103ae578063270dc4cf146103c157806335eec026146103d457600080fd5b8063081812fc116102fe578063081812fc14610357578063095ea7b31461038257806318160ddd1461039757600080fd5b806301ffc9a71461031a57806306fdde0314610342575b600080fd5b61032d6103283660046127ce565b610652565b60405190151581526020015b60405180910390f35b61034a6106ef565b6040516103399190612ad1565b61036a610365366004612948565b610781565b6040516001600160a01b039091168152602001610339565b610395610390366004612743565b6107a8565b005b6103a060075481565b604051908152602001610339565b6103956103bc366004612654565b6108df565b60125461036a906001600160a01b031681565b6103a060175481565b61034a610956565b6103956109e4565b6103956103fb366004612654565b610bdc565b610395610bf7565b601a5461036a906001600160a01b031681565b6103a060105481565b61034a610e7d565b61039561043a366004612808565b610e8a565b61034a610f1f565b6103a0600f5481565b61036a61045e366004612948565b610f2c565b61034a610f91565b61034a610f9e565b6103a0610481366004612606565b610fab565b610395611045565b60135461036a906001600160a01b031681565b601b5461036a906001600160a01b031681565b6006546001600160a01b031661036a565b61034a611059565b6103956104db36600461276d565b601280546001600160a01b039586166001600160a01b0319918216179091556013805493909516921691909117909255601455601555565b61034a611066565b6103a060115481565b61039561053236600461270c565b611075565b610395611080565b600e5461036a906001600160a01b031681565b610395610560366004612743565b611306565b610395610573366004612690565b6115f4565b610395610586366004612948565b601055565b6103a060165481565b6103956105a2366004612948565b600f55565b61034a6105b5366004612948565b611672565b61034a6117b0565b6103956105d0366004612606565b6117bd565b6103956105e336600461283d565b61185d565b6103a060145481565b6103a060155481565b61032d610608366004612621565b6001600160a01b03918216600090815260056020908152604080832093909416825291909152205460ff1690565b610395610644366004612606565b61193a565b6103a0600d5481565b60006001600160e01b031982167f80ac58cd0000000000000000000000000000000000000000000000000000000014806106b557506001600160e01b031982167f5b5e139f00000000000000000000000000000000000000000000000000000000145b806106e957507f01ffc9a7000000000000000000000000000000000000000000000000000000006001600160e01b03198316145b92915050565b6060600080546106fe90612bb8565b80601f016020809104026020016040519081016040528092919081815260200182805461072a90612bb8565b80156107775780601f1061074c57610100808354040283529160200191610777565b820191906000526020600020905b81548152906001019060200180831161075a57829003601f168201915b5050505050905090565b600061078c826119c7565b506000908152600460205260409020546001600160a01b031690565b60006107b382610f2c565b9050806001600160a01b0316836001600160a01b031614156108425760405162461bcd60e51b815260206004820152602160248201527f4552433732313a20617070726f76616c20746f2063757272656e74206f776e6560448201527f720000000000000000000000000000000000000000000000000000000000000060648201526084015b60405180910390fd5b336001600160a01b038216148061085e575061085e8133610608565b6108d05760405162461bcd60e51b815260206004820152603d60248201527f4552433732313a20617070726f76652063616c6c6572206973206e6f7420746f60448201527f6b656e206f776e6572206f7220617070726f76656420666f7220616c6c0000006064820152608401610839565b6108da8383611a2b565b505050565b6108e93382611a99565b61094b5760405162461bcd60e51b815260206004820152602d60248201527f4552433732313a2063616c6c6572206973206e6f7420746f6b656e206f776e6560448201526c1c881bdc88185c1c1c9bdd9959609a1b6064820152608401610839565b6108da838383611b18565b6018805461096390612bb8565b80601f016020809104026020016040519081016040528092919081815260200182805461098f90612bb8565b80156109dc5780601f106109b1576101008083540402835291602001916109dc565b820191906000526020600020905b8154815290600101906020018083116109bf57829003601f168201915b505050505081565b336109f76006546001600160a01b031690565b6001600160a01b03161480610a165750601a546001600160a01b031633145b610a625760405162461bcd60e51b815260206004820181905260248201527f43616c6c6572206e6565647320746f204f776e6572206f72204d616e616765726044820152606401610839565b600e546001600160a01b0316610aba5760405162461bcd60e51b815260206004820152601560248201527f4e554c4c20416464726573732050726f766964656400000000000000000000006044820152606401610839565b601b54600e546040517f70a082310000000000000000000000000000000000000000000000000000000081523060048201526001600160a01b039283169263a9059cbb92169083906370a082319060240160206040518083038186803b158015610b2357600080fd5b505afa158015610b37573d6000803e3d6000fd5b505050506040513d601f19601f82011682018060405250810190610b5b9190612961565b6040516001600160e01b031960e085901b1681526001600160a01b0390921660048301526024820152604401602060405180830381600087803b158015610ba157600080fd5b505af1158015610bb5573d6000803e3d6000fd5b505050506040513d601f19601f82011682018060405250810190610bd991906127b1565b50565b6108da838383604051806020016040528060008152506115f4565b33610c0a6006546001600160a01b031690565b6001600160a01b03161480610c295750601a546001600160a01b031633145b80610c3e5750600e546001600160a01b031633145b610c9d5760405162461bcd60e51b815260206004820152602a60248201527f43616c6c6572206e6565647320746f204f776e6572206f72204d616e61676572604482015269081bdc88105c9d1a5cdd60b21b6064820152608401610839565b6012546001600160a01b031615801590610cb8575060145415155b610d2a5760405162461bcd60e51b815260206004820152602260248201527f496e76616c69642064657461696c7320666f7220496e666c75656e636572204f60448201527f6e650000000000000000000000000000000000000000000000000000000000006064820152608401610839565b601654610d9f5760405162461bcd60e51b815260206004820152602660248201527f4e6f2062616c616e636520617661696c61626c6520666f7220496e666c75656e60448201527f6365724f6e6500000000000000000000000000000000000000000000000000006064820152608401610839565b601b5460125460165460405163a9059cbb60e01b81526001600160a01b039283166004820152602481019190915291169063a9059cbb90604401602060405180830381600087803b158015610df357600080fd5b505af1158015610e07573d6000803e3d6000fd5b505050506040513d601f19601f82011682018060405250810190610e2b91906127b1565b50601254601654604080516001600160a01b03909316835260208301919091527f95f5504e897ce86491a7d95f5b32a60f558cbc3d6dbdbd8d0178aa1e671828fd910160405180910390a16000601655565b600b805461096390612bb8565b33610e9d6006546001600160a01b031690565b6001600160a01b03161480610ebc5750601a546001600160a01b031633145b610f085760405162461bcd60e51b815260206004820181905260248201527f43616c6c6572206e6565647320746f204f776e6572206f72204d616e616765726044820152606401610839565b8051610f1b9060199060208401906124b4565b5050565b6008805461096390612bb8565b6000818152600260205260408120546001600160a01b0316806106e95760405162461bcd60e51b815260206004820152601860248201527f4552433732313a20696e76616c696420746f6b656e20494400000000000000006044820152606401610839565b6019805461096390612bb8565b600c805461096390612bb8565b60006001600160a01b0382166110295760405162461bcd60e51b815260206004820152602960248201527f4552433732313a2061646472657373207a65726f206973206e6f74206120766160448201527f6c6964206f776e657200000000000000000000000000000000000000000000006064820152608401610839565b506001600160a01b031660009081526003602052604090205490565b61104d611d1e565b6110576000611d78565b565b6009805461096390612bb8565b6060600180546106fe90612bb8565b610f1b338383611dca565b336110936006546001600160a01b031690565b6001600160a01b031614806110b25750601a546001600160a01b031633145b806110c75750600e546001600160a01b031633145b6111265760405162461bcd60e51b815260206004820152602a60248201527f43616c6c6572206e6565647320746f204f776e6572206f72204d616e61676572604482015269081bdc88105c9d1a5cdd60b21b6064820152608401610839565b6013546001600160a01b031615801590611141575060155415155b6111b35760405162461bcd60e51b815260206004820152602260248201527f496e76616c69642064657461696c7320666f7220496e666c75656e636572205460448201527f776f0000000000000000000000000000000000000000000000000000000000006064820152608401610839565b6017546112285760405162461bcd60e51b815260206004820152602660248201527f4e6f2062616c616e636520617661696c61626c6520666f7220496e666c75656e60448201527f63657254776f00000000000000000000000000000000000000000000000000006064820152608401610839565b601b5460135460175460405163a9059cbb60e01b81526001600160a01b039283166004820152602481019190915291169063a9059cbb90604401602060405180830381600087803b15801561127c57600080fd5b505af1158015611290573d6000803e3d6000fd5b505050506040513d601f19601f820116820180604052508101906112b491906127b1565b50601354601754604080516001600160a01b03909316835260208301919091527f95f5504e897ce86491a7d95f5b32a60f558cbc3d6dbdbd8d0178aa1e671828fd910160405180910390a16000601755565b601b546040517fdd62ed3e0000000000000000000000000000000000000000000000000000000081526001600160a01b038481166004830152306024830152600092169063dd62ed3e9060440160206040518083038186803b15801561136b57600080fd5b505afa15801561137f573d6000803e3d6000fd5b505050506040513d601f19601f820116820180604052508101906113a39190612961565b9050818110156113f55760405162461bcd60e51b815260206004820152601f60248201527f496e73756666696369656e7420617070726f76616c20666f722066756e6473006044820152606401610839565b81600d546011546114069190612b56565b146114535760405162461bcd60e51b815260206004820152601760248201527f496e73756666696369656e742046756e64732053656e740000000000000000006044820152606401610839565b601b546040517f23b872dd0000000000000000000000000000000000000000000000000000000081526001600160a01b03858116600483015230602483015260448201859052909116906323b872dd90606401602060405180830381600087803b1580156114c057600080fd5b505af11580156114d4573d6000803e3d6000fd5b505050506040513d601f19601f820116820180604052508101906114f891906127b1565b5060005b600d548161ffff16101561158c5761151684600754611e99565b600754601154604080516001600160a01b038816815260208101939093528201527f114158aff522a4b710d00e11312e60bc1621371f7bca18e8e81c8102d57f2aa09060600160405180910390a16007805490600061157483612c15565b9190505550808061158490612bf3565b9150506114fc565b506127106014548361159e9190612b56565b6115a89190612b34565b601660008282546115b99190612b1c565b9091555050601554612710906115cf9084612b56565b6115d99190612b34565b601760008282546115ea9190612b1c565b9091555050505050565b6115fe3383611a99565b6116605760405162461bcd60e51b815260206004820152602d60248201527f4552433732313a2063616c6c6572206973206e6f7420746f6b656e206f776e6560448201526c1c881bdc88185c1c1c9bdd9959609a1b6064820152608401610839565b61166c84848484611eb3565b50505050565b6000818152600260205260409020546060906001600160a01b03166116d95760405162461bcd60e51b815260206004820152601560248201527f546f6b656e20646f6573206e6f742065786973747300000000000000000000006044820152606401610839565b6000601980546116e890612bb8565b90501161177f57601880546116fc90612bb8565b80601f016020809104026020016040519081016040528092919081815260200182805461172890612bb8565b80156117755780601f1061174a57610100808354040283529160200191611775565b820191906000526020600020905b81548152906001019060200180831161175857829003601f168201915b50505050506106e9565b601961178a83611f31565b60405160200161179b9291906129c2565b60405160208183030381529060405292915050565b600a805461096390612bb8565b336117d06006546001600160a01b031690565b6001600160a01b031614806117ef5750601a546001600160a01b031633145b61183b5760405162461bcd60e51b815260206004820181905260248201527f43616c6c6572206e6565647320746f204f776e6572206f72204d616e616765726044820152606401610839565b601a80546001600160a01b0319166001600160a01b0392909216919091179055565b89516118709060089060208d01906124b4565b5087516118849060099060208b01906124b4565b50865161189890600a9060208a01906124b4565b5085516118ac90600b9060208901906124b4565b5084516118c090600c9060208801906124b4565b50600d839055600e80546001600160a01b0319166001600160a01b038b161790556011849055600f82905560108190556040517f44505ce8dae151974db87a0521d28c7834bd23f89f37a2f585df080b97fcf8d090611926908c908c9088908890612ae4565b60405180910390a150505050505050505050565b611942611d1e565b6001600160a01b0381166119be5760405162461bcd60e51b815260206004820152602660248201527f4f776e61626c653a206e6577206f776e657220697320746865207a65726f206160448201527f64647265737300000000000000000000000000000000000000000000000000006064820152608401610839565b610bd981611d78565b6000818152600260205260409020546001600160a01b0316610bd95760405162461bcd60e51b815260206004820152601860248201527f4552433732313a20696e76616c696420746f6b656e20494400000000000000006044820152606401610839565b600081815260046020526040902080546001600160a01b0319166001600160a01b0384169081179091558190611a6082610f2c565b6001600160a01b03167f8c5be1e5ebec7d5bd14f71427d1e84f3dd0314c0f7b2291e5b200ac8c7c3b92560405160405180910390a45050565b600080611aa583610f2c565b9050806001600160a01b0316846001600160a01b03161480611aec57506001600160a01b0380821660009081526005602090815260408083209388168352929052205460ff165b80611b105750836001600160a01b0316611b0584610781565b6001600160a01b0316145b949350505050565b826001600160a01b0316611b2b82610f2c565b6001600160a01b031614611b8f5760405162461bcd60e51b815260206004820152602560248201527f4552433732313a207472616e736665722066726f6d20696e636f72726563742060448201526437bbb732b960d91b6064820152608401610839565b6001600160a01b038216611c0a5760405162461bcd60e51b8152602060048201526024808201527f4552433732313a207472616e7366657220746f20746865207a65726f2061646460448201527f72657373000000000000000000000000000000000000000000000000000000006064820152608401610839565b611c178383836001611fdb565b826001600160a01b0316611c2a82610f2c565b6001600160a01b031614611c8e5760405162461bcd60e51b815260206004820152602560248201527f4552433732313a207472616e736665722066726f6d20696e636f72726563742060448201526437bbb732b960d91b6064820152608401610839565b600081815260046020908152604080832080546001600160a01b03199081169091556001600160a01b0387811680865260038552838620805460001901905590871680865283862080546001019055868652600290945282852080549092168417909155905184937fddf252ad1be2c89b69c2b068fc378daa952ba7f163c4a11628f55a4df523b3ef91a4505050565b6006546001600160a01b031633146110575760405162461bcd60e51b815260206004820181905260248201527f4f776e61626c653a2063616c6c6572206973206e6f7420746865206f776e65726044820152606401610839565b600680546001600160a01b038381166001600160a01b0319831681179093556040519116919082907f8be0079c531659141344cd1fd0a4f28419497f9722a3daafe3b4186f6b6457e090600090a35050565b816001600160a01b0316836001600160a01b03161415611e2c5760405162461bcd60e51b815260206004820152601960248201527f4552433732313a20617070726f766520746f2063616c6c6572000000000000006044820152606401610839565b6001600160a01b03838116600081815260056020908152604080832094871680845294825291829020805460ff191686151590811790915591519182527f17307eab39ab6107e8899845ad3d59bd9653f200f220920489ca2b5937696c31910160405180910390a3505050565b610f1b828260405180602001604052806000815250612063565b611ebe848484611b18565b611eca848484846120e1565b61166c5760405162461bcd60e51b815260206004820152603260248201527f4552433732313a207472616e7366657220746f206e6f6e20455243373231526560448201527131b2b4bb32b91034b6b83632b6b2b73a32b960711b6064820152608401610839565b60606000611f3e83612239565b600101905060008167ffffffffffffffff811115611f5e57611f5e612c46565b6040519080825280601f01601f191660200182016040528015611f88576020820181803683370190505b5090508181016020015b600019017f3031323334353637383961626364656600000000000000000000000000000000600a86061a8153600a8504945084611fce57611fd3565b611f92565b509392505050565b600181111561166c576001600160a01b03841615612021576001600160a01b0384166000908152600360205260408120805483929061201b908490612b75565b90915550505b6001600160a01b0383161561166c576001600160a01b03831660009081526003602052604081208054839290612058908490612b1c565b909155505050505050565b61206d838361231b565b61207a60008484846120e1565b6108da5760405162461bcd60e51b815260206004820152603260248201527f4552433732313a207472616e7366657220746f206e6f6e20455243373231526560448201527131b2b4bb32b91034b6b83632b6b2b73a32b960711b6064820152608401610839565b60006001600160a01b0384163b1561222e57604051630a85bd0160e11b81526001600160a01b0385169063150b7a0290612125903390899088908890600401612a95565b602060405180830381600087803b15801561213f57600080fd5b505af192505050801561216f575060408051601f3d908101601f1916820190925261216c918101906127eb565b60015b612214573d80801561219d576040519150601f19603f3d011682016040523d82523d6000602084013e6121a2565b606091505b50805161220c5760405162461bcd60e51b815260206004820152603260248201527f4552433732313a207472616e7366657220746f206e6f6e20455243373231526560448201527131b2b4bb32b91034b6b83632b6b2b73a32b960711b6064820152608401610839565b805181602001fd5b6001600160e01b031916630a85bd0160e11b149050611b10565b506001949350505050565b6000807a184f03e93ff9f4daa797ed6e38ed64bf6a1f0100000000000000008310612282577a184f03e93ff9f4daa797ed6e38ed64bf6a1f010000000000000000830492506040015b6d04ee2d6d415b85acef810000000083106122ae576d04ee2d6d415b85acef8100000000830492506020015b662386f26fc1000083106122cc57662386f26fc10000830492506010015b6305f5e10083106122e4576305f5e100830492506008015b61271083106122f857612710830492506004015b6064831061230a576064830492506002015b600a83106106e95760010192915050565b6001600160a01b0382166123715760405162461bcd60e51b815260206004820181905260248201527f4552433732313a206d696e7420746f20746865207a65726f20616464726573736044820152606401610839565b6000818152600260205260409020546001600160a01b0316156123d65760405162461bcd60e51b815260206004820152601c60248201527f4552433732313a20746f6b656e20616c7265616479206d696e746564000000006044820152606401610839565b6123e4600083836001611fdb565b6000818152600260205260409020546001600160a01b0316156124495760405162461bcd60e51b815260206004820152601c60248201527f4552433732313a20746f6b656e20616c7265616479206d696e746564000000006044820152606401610839565b6001600160a01b038216600081815260036020908152604080832080546001019055848352600290915280822080546001600160a01b0319168417905551839291907fddf252ad1be2c89b69c2b068fc378daa952ba7f163c4a11628f55a4df523b3ef908290a45050565b8280546124c090612bb8565b90600052602060002090601f0160209004810192826124e25760008555612528565b82601f106124fb57805160ff1916838001178555612528565b82800160010185558215612528579182015b8281111561252857825182559160200191906001019061250d565b50612534929150612538565b5090565b5b808211156125345760008155600101612539565b600067ffffffffffffffff8084111561256857612568612c46565b604051601f8501601f19908116603f0116810190828211818310171561259057612590612c46565b816040528093508581528686860111156125a957600080fd5b858560208301376000602087830101525050509392505050565b80356001600160a01b03811681146125da57600080fd5b919050565b600082601f8301126125f057600080fd5b6125ff8383356020850161254d565b9392505050565b60006020828403121561261857600080fd5b6125ff826125c3565b6000806040838503121561263457600080fd5b61263d836125c3565b915061264b602084016125c3565b90509250929050565b60008060006060848603121561266957600080fd5b612672846125c3565b9250612680602085016125c3565b9150604084013590509250925092565b600080600080608085870312156126a657600080fd5b6126af856125c3565b93506126bd602086016125c3565b925060408501359150606085013567ffffffffffffffff8111156126e057600080fd5b8501601f810187136126f157600080fd5b6127008782356020840161254d565b91505092959194509250565b6000806040838503121561271f57600080fd5b612728836125c3565b9150602083013561273881612c5c565b809150509250929050565b6000806040838503121561275657600080fd5b61275f836125c3565b946020939093013593505050565b6000806000806080858703121561278357600080fd5b61278c856125c3565b9350602085013592506127a1604086016125c3565b9396929550929360600135925050565b6000602082840312156127c357600080fd5b81516125ff81612c5c565b6000602082840312156127e057600080fd5b81356125ff81612c6a565b6000602082840312156127fd57600080fd5b81516125ff81612c6a565b60006020828403121561281a57600080fd5b813567ffffffffffffffff81111561283157600080fd5b611b10848285016125df565b6000806000806000806000806000806101408b8d03121561285d57600080fd5b8a3567ffffffffffffffff8082111561287557600080fd5b6128818e838f016125df565b9b5061288f60208e016125c3565b9a5060408d01359150808211156128a557600080fd5b6128b18e838f016125df565b995060608d01359150808211156128c757600080fd5b6128d38e838f016125df565b985060808d01359150808211156128e957600080fd5b6128f58e838f016125df565b975060a08d013591508082111561290b57600080fd5b506129188d828e016125df565b95505060c08b0135935060e08b013592506101008b013591506101208b013590509295989b9194979a5092959850565b60006020828403121561295a57600080fd5b5035919050565b60006020828403121561297357600080fd5b5051919050565b60008151808452612992816020860160208601612b8c565b601f01601f19169290920160200192915050565b600081516129b8818560208601612b8c565b9290920192915050565b600080845481600182811c9150808316806129de57607f831692505b60208084108214156129fe57634e487b7160e01b86526022600452602486fd5b818015612a125760018114612a2357612a50565b60ff19861689528489019650612a50565b60008b81526020902060005b86811015612a485781548b820152908501908301612a2f565b505084890196505b505050505050612a8c612a6382866129a6565b7f2e6a736f6e000000000000000000000000000000000000000000000000000000815260050190565b95945050505050565b60006001600160a01b03808716835280861660208401525083604083015260806060830152612ac7608083018461297a565b9695505050505050565b6020815260006125ff602083018461297a565b608081526000612af7608083018761297a565b6001600160a01b03959095166020830152506040810192909252606090910152919050565b60008219821115612b2f57612b2f612c30565b500190565b600082612b5157634e487b7160e01b600052601260045260246000fd5b500490565b6000816000190483118215151615612b7057612b70612c30565b500290565b600082821015612b8757612b87612c30565b500390565b60005b83811015612ba7578181015183820152602001612b8f565b8381111561166c5750506000910152565b600181811c90821680612bcc57607f821691505b60208210811415612bed57634e487b7160e01b600052602260045260246000fd5b50919050565b600061ffff80831681811415612c0b57612c0b612c30565b6001019392505050565b6000600019821415612c2957612c29612c30565b5060010190565b634e487b7160e01b600052601160045260246000fd5b634e487b7160e01b600052604160045260246000fd5b8015158114610bd957600080fd5b6001600160e01b031981168114610bd957600080fdfea2646970667358221220bf997027925236fbd5d4b19169dbdc9efda12a5e87b3eea20b82961eff2dcd5964736f6c63430008070033697066733a2f2f516d554e594d6f724c59397931356559595a44587854626451504158577143334d774d6d344a74757a3753737841",
  "linkReferences": {},
  "deployedLinkReferences": {}
}