{
  "_format": "hh-sol-artifact-1",
  "contractName": "RatingEngine",
  "sourceName": "contracts/RatingEngine.sol",
  "abi": [
    {
      "anonymous": false,
      "inputs": [
        {
          "indexed": true,
          "internalType": "address",
          "name": "previousOwner",
          "type": "address"
        },
        {
          "indexed": true,
          "internalType": "address",
          "name": "newOwner",
          "type": "address"
        }
      ],
      "name": "OwnershipTransferred",
      "type": "event"
    },
    {
      "inputs": [],
      "name": "getRating",
      "outputs": [
        {
          "internalType": "string",
          "name": "",
          "type": "string"
        }
      ],
      "stateMutability": "view",
      "type": "function"
    },
    {
      "inputs": [],
      "name": "owner",
      "outputs": [
        {
          "internalType": "address",
          "name": "",
          "type": "address"
        }
      ],
      "stateMutability": "view",
      "type": "function"
    },
    {
      "inputs": [],
      "name": "renounceOwnership",
      "outputs": [],
      "stateMutability": "nonpayable",
      "type": "function"
    },
    {
      "inputs": [],
      "name": "riskPremium",
      "outputs": [
        {
          "internalType": "uint256",
          "name": "",
          "type": "uint256"
        }
      ],
      "stateMutability": "view",
      "type": "function"
    },
    {
      "inputs": [
        {
          "internalType": "uint256",
          "name": "_riskPremium",
          "type": "uint256"
        }
      ],
      "name": "setRiskPremium",
      "outputs": [],
      "stateMutability": "nonpayable",
      "type": "function"
    },
    {
      "inputs": [
        {
          "internalType": "address",
          "name": "newOwner",
          "type": "address"
        }
      ],
      "name": "transferOwnership",
      "outputs": [],
      "stateMutability": "nonpayable",
      "type": "function"
    }
  ],
  "bytecode": "0x608060405234801561001057600080fd5b5061002d61002261003260201b60201c565b61003a60201b60201c565b6100fe565b600033905090565b60008060009054906101000a900473ffffffffffffffffffffffffffffffffffffffff169050816000806101000a81548173ffffffffffffffffffffffffffffffffffffffff021916908373ffffffffffffffffffffffffffffffffffffffff1602179055508173ffffffffffffffffffffffffffffffffffffffff168173ffffffffffffffffffffffffffffffffffffffff167f8be0079c531659141344cd1fd0a4f28419497f9722a3daafe3b4186f6b6457e060405160405180910390a35050565b61076a8061010d6000396000f3fe608060405234801561001057600080fd5b50600436106100625760003560e01c806305cf8d5d146100675780633e8b83c814610085578063715018a6146100a35780638da5cb5b146100ad578063a117d729146100cb578063f2fde38b146100e7575b600080fd5b61006f610103565b60405161007c9190610575565b60405180910390f35b61008d610140565b60405161009a91906105d7565b60405180910390f35b6100ab610146565b005b6100b56101ce565b6040516100c2919061055a565b60405180910390f35b6100e560048036038101906100e09190610494565b6101f7565b005b61010160048036038101906100fc919061046b565b61027d565b005b60606040518060400160405280600381526020017f4242420000000000000000000000000000000000000000000000000000000000815250905090565b60015481565b61014e610375565b73ffffffffffffffffffffffffffffffffffffffff1661016c6101ce565b73ffffffffffffffffffffffffffffffffffffffff16146101c2576040517f08c379a00000000000000000000000000000000000000000000000000000000081526004016101b9906105b7565b60405180910390fd5b6101cc600061037d565b565b60008060009054906101000a900473ffffffffffffffffffffffffffffffffffffffff16905090565b6101ff610375565b73ffffffffffffffffffffffffffffffffffffffff1661021d6101ce565b73ffffffffffffffffffffffffffffffffffffffff1614610273576040517f08c379a000000000000000000000000000000000000000000000000000000000815260040161026a906105b7565b60405180910390fd5b8060018190555050565b610285610375565b73ffffffffffffffffffffffffffffffffffffffff166102a36101ce565b73ffffffffffffffffffffffffffffffffffffffff16146102f9576040517f08c379a00000000000000000000000000000000000000000000000000000000081526004016102f0906105b7565b60405180910390fd5b600073ffffffffffffffffffffffffffffffffffffffff168173ffffffffffffffffffffffffffffffffffffffff161415610369576040517f08c379a000000000000000000000000000000000000000000000000000000000815260040161036090610597565b60405180910390fd5b6103728161037d565b50565b600033905090565b60008060009054906101000a900473ffffffffffffffffffffffffffffffffffffffff169050816000806101000a81548173ffffffffffffffffffffffffffffffffffffffff021916908373ffffffffffffffffffffffffffffffffffffffff1602179055508173ffffffffffffffffffffffffffffffffffffffff168173ffffffffffffffffffffffffffffffffffffffff167f8be0079c531659141344cd1fd0a4f28419497f9722a3daafe3b4186f6b6457e060405160405180910390a35050565b60008135905061045081610706565b92915050565b6000813590506104658161071d565b92915050565b60006020828403121561047d57600080fd5b600061048b84828501610441565b91505092915050565b6000602082840312156104a657600080fd5b60006104b484828501610456565b91505092915050565b6104c68161060e565b82525050565b60006104d7826105f2565b6104e181856105fd565b93506104f181856020860161064a565b6104fa8161067d565b840191505092915050565b60006105126026836105fd565b915061051d8261068e565b604082019050919050565b60006105356020836105fd565b9150610540826106dd565b602082019050919050565b61055481610640565b82525050565b600060208201905061056f60008301846104bd565b92915050565b6000602082019050818103600083015261058f81846104cc565b905092915050565b600060208201905081810360008301526105b081610505565b9050919050565b600060208201905081810360008301526105d081610528565b9050919050565b60006020820190506105ec600083018461054b565b92915050565b600081519050919050565b600082825260208201905092915050565b600061061982610620565b9050919050565b600073ffffffffffffffffffffffffffffffffffffffff82169050919050565b6000819050919050565b60005b8381101561066857808201518184015260208101905061064d565b83811115610677576000848401525b50505050565b6000601f19601f8301169050919050565b7f4f776e61626c653a206e6577206f776e657220697320746865207a65726f206160008201527f6464726573730000000000000000000000000000000000000000000000000000602082015250565b7f4f776e61626c653a2063616c6c6572206973206e6f7420746865206f776e6572600082015250565b61070f8161060e565b811461071a57600080fd5b50565b61072681610640565b811461073157600080fd5b5056fea2646970667358221220ebb6cd8138fe1d2ec1f7c3b56763889f979bdbb2a3c77223af992f5e2c4c287364736f6c63430008040033",
  "linkReferences": {},
  "deployedLinkReferences": {}
}