{
  "_format": "hh-sol-artifact-1",
  "contractName": "RatingEngine",
  "sourceName": "contracts/RatingEngine.sol",
  "abi": [
    {
      "anonymous": false,
      "inputs": [
        {
          "indexed": true,
          "internalType": "address",
          "name": "previousOwner",
          "type": "address"
        },
        {
          "indexed": true,
          "internalType": "address",
          "name": "newOwner",
          "type": "address"
        }
      ],
      "name": "OwnershipTransferred",
      "type": "event"
    },
    {
      "inputs": [],
      "name": "PRECISION",
      "outputs": [
        {
          "internalType": "uint256",
          "name": "",
          "type": "uint256"
        }
      ],
      "stateMutability": "view",
      "type": "function"
    },
    {
      "inputs": [
        {
          "internalType": "address",
          "name": "_assetPoolAddress",
          "type": "address"
        },
        {
          "internalType": "uint256",
          "name": "_couponRate",
          "type": "uint256"
        }
      ],
      "name": "allocateRatingByAssetPoolAddress",
      "outputs": [
        {
          "internalType": "string",
          "name": "",
          "type": "string"
        }
      ],
      "stateMutability": "view",
      "type": "function"
    },
    {
      "inputs": [
        {
          "internalType": "uint256",
          "name": "_spotifyListeners",
          "type": "uint256"
        },
        {
          "internalType": "uint256",
          "name": "_youtubesubscribers",
          "type": "uint256"
        }
      ],
      "name": "calculateMedian",
      "outputs": [
        {
          "internalType": "uint256",
          "name": "median",
          "type": "uint256"
        }
      ],
      "stateMutability": "pure",
      "type": "function"
    },
    {
      "inputs": [
        {
          "internalType": "uint256",
          "name": "_meadianListeners",
          "type": "uint256"
        },
        {
          "internalType": "bool",
          "name": "_isOvercollateralized",
          "type": "bool"
        },
        {
          "internalType": "bool",
          "name": "_isCollateralUpToDate",
          "type": "bool"
        },
        {
          "internalType": "uint256",
          "name": "_numberOfQuarterDelayed",
          "type": "uint256"
        }
      ],
      "name": "calculateRating",
      "outputs": [
        {
          "internalType": "string",
          "name": "",
          "type": "string"
        }
      ],
      "stateMutability": "pure",
      "type": "function"
    },
    {
      "inputs": [],
      "name": "owner",
      "outputs": [
        {
          "internalType": "address",
          "name": "",
          "type": "address"
        }
      ],
      "stateMutability": "view",
      "type": "function"
    },
    {
      "inputs": [
        {
          "internalType": "bool",
          "name": "_isOvercollateralized",
          "type": "bool"
        },
        {
          "internalType": "bool",
          "name": "_isCollateralUpToDate",
          "type": "bool"
        },
        {
          "internalType": "uint256",
          "name": "_numberOfQuarterDelayed",
          "type": "uint256"
        }
      ],
      "name": "ratingForTier1Category",
      "outputs": [
        {
          "internalType": "string",
          "name": "",
          "type": "string"
        }
      ],
      "stateMutability": "pure",
      "type": "function"
    },
    {
      "inputs": [
        {
          "internalType": "bool",
          "name": "_isOvercollateralized",
          "type": "bool"
        },
        {
          "internalType": "bool",
          "name": "_isCollateralUpToDate",
          "type": "bool"
        },
        {
          "internalType": "uint256",
          "name": "_numberOfQuarterDelayed",
          "type": "uint256"
        }
      ],
      "name": "ratingForTier2Category",
      "outputs": [
        {
          "internalType": "string",
          "name": "",
          "type": "string"
        }
      ],
      "stateMutability": "pure",
      "type": "function"
    },
    {
      "inputs": [
        {
          "internalType": "bool",
          "name": "_isOvercollateralized",
          "type": "bool"
        },
        {
          "internalType": "bool",
          "name": "_isCollateralUpToDate",
          "type": "bool"
        },
        {
          "internalType": "uint256",
          "name": "_numberOfQuarterDelayed",
          "type": "uint256"
        }
      ],
      "name": "ratingForTier3Category",
      "outputs": [
        {
          "internalType": "string",
          "name": "",
          "type": "string"
        }
      ],
      "stateMutability": "pure",
      "type": "function"
    },
    {
      "inputs": [],
      "name": "renounceOwnership",
      "outputs": [],
      "stateMutability": "nonpayable",
      "type": "function"
    },
    {
      "inputs": [],
      "name": "riskPremium",
      "outputs": [
        {
          "internalType": "uint256",
          "name": "",
          "type": "uint256"
        }
      ],
      "stateMutability": "view",
      "type": "function"
    },
    {
      "inputs": [
        {
          "internalType": "uint256",
          "name": "_riskPremium",
          "type": "uint256"
        }
      ],
      "name": "setRiskPremium",
      "outputs": [],
      "stateMutability": "nonpayable",
      "type": "function"
    },
    {
      "inputs": [
        {
          "internalType": "address",
          "name": "newOwner",
          "type": "address"
        }
      ],
      "name": "transferOwnership",
      "outputs": [],
      "stateMutability": "nonpayable",
      "type": "function"
    }
  ],
  "bytecode": "0x608060405234801561001057600080fd5b5061002d61002261003260201b60201c565b61003a60201b60201c565b6100fe565b600033905090565b60008060009054906101000a900473ffffffffffffffffffffffffffffffffffffffff169050816000806101000a81548173ffffffffffffffffffffffffffffffffffffffff021916908373ffffffffffffffffffffffffffffffffffffffff1602179055508173ffffffffffffffffffffffffffffffffffffffff168173ffffffffffffffffffffffffffffffffffffffff167f8be0079c531659141344cd1fd0a4f28419497f9722a3daafe3b4186f6b6457e060405160405180910390a35050565b61149d8061010d6000396000f3fe608060405234801561001057600080fd5b50600436106100b45760003560e01c80639fa25472116100715780639fa254721461018f578063a117d729146101bf578063aaf5eb68146101db578063f2fde38b146101f9578063f841af4214610215578063fe75511b14610245576100b4565b80633e8b83c8146100b95780635e469aec146100d75780636e21505414610107578063715018a61461013757806374992282146101415780638da5cb5b14610171575b600080fd5b6100c1610275565b6040516100ce9190611174565b60405180910390f35b6100f160048036038101906100ec9190610f1a565b61027b565b6040516100fe9190611112565b60405180910390f35b610121600480360381019061011c9190610f1a565b610389565b60405161012e9190611112565b60405180910390f35b61013f610497565b005b61015b6004803603810190610156919061101e565b61051f565b6040516101689190611174565b60405180910390f35b610179610541565b60405161018691906110f7565b60405180910390f35b6101a960048036038101906101a49190610f1a565b61056a565b6040516101b69190611112565b60405180910390f35b6101d960048036038101906101d49190610f69565b610678565b005b6101e36106fe565b6040516101f09190611174565b60405180910390f35b610213600480360381019061020e9190610e8c565b61070a565b005b61022f600480360381019061022a9190610fbb565b610802565b60405161023c9190611112565b60405180910390f35b61025f600480360381019061025a9190610ede565b6108b9565b60405161026c9190611112565b60405180910390f35b60015481565b606083156102c0576040518060400160405280600181526020017f41000000000000000000000000000000000000000000000000000000000000008152509050610382565b8215610303576040518060400160405280600181526020017f49000000000000000000000000000000000000000000000000000000000000008152509050610382565b6001821415610349576040518060400160405280600181526020017f55000000000000000000000000000000000000000000000000000000000000008152509050610382565b6040518060400160405280600181526020017f520000000000000000000000000000000000000000000000000000000000000081525090505b9392505050565b606083156103ce576040518060400160405280600281526020017f41410000000000000000000000000000000000000000000000000000000000008152509050610490565b8215610411576040518060400160405280600281526020017f49490000000000000000000000000000000000000000000000000000000000008152509050610490565b6001821415610457576040518060400160405280600281526020017f55550000000000000000000000000000000000000000000000000000000000008152509050610490565b6040518060400160405280600181526020017f520000000000000000000000000000000000000000000000000000000000000081525090505b9392505050565b61049f610cc5565b73ffffffffffffffffffffffffffffffffffffffff166104bd610541565b73ffffffffffffffffffffffffffffffffffffffff1614610513576040517f08c379a000000000000000000000000000000000000000000000000000000000815260040161050a90611154565b60405180910390fd5b61051d6000610ccd565b565b60006002828461052f91906111ab565b6105399190611201565b905092915050565b60008060009054906101000a900473ffffffffffffffffffffffffffffffffffffffff16905090565b606083156105af576040518060400160405280600381526020017f41414100000000000000000000000000000000000000000000000000000000008152509050610671565b82156105f2576040518060400160405280600381526020017f49494900000000000000000000000000000000000000000000000000000000008152509050610671565b6001821415610638576040518060400160405280600381526020017f55555500000000000000000000000000000000000000000000000000000000008152509050610671565b6040518060400160405280600181526020017f520000000000000000000000000000000000000000000000000000000000000081525090505b9392505050565b610680610cc5565b73ffffffffffffffffffffffffffffffffffffffff1661069e610541565b73ffffffffffffffffffffffffffffffffffffffff16146106f4576040517f08c379a00000000000000000000000000000000000000000000000000000000081526004016106eb90611154565b60405180910390fd5b8060018190555050565b670de0b6b3a764000081565b610712610cc5565b73ffffffffffffffffffffffffffffffffffffffff16610730610541565b73ffffffffffffffffffffffffffffffffffffffff1614610786576040517f08c379a000000000000000000000000000000000000000000000000000000000815260040161077d90611154565b60405180910390fd5b600073ffffffffffffffffffffffffffffffffffffffff168173ffffffffffffffffffffffffffffffffffffffff1614156107f6576040517f08c379a00000000000000000000000000000000000000000000000000000000081526004016107ed90611134565b60405180910390fd5b6107ff81610ccd565b50565b6060624c4b4085106108205761081984848461056a565b90506108b1565b6207a12085101580156108365750624c4b3f8511155b1561084d57610846848484610389565b90506108b1565b6000851015801561086157506207a11f8511155b156108785761087184848461027b565b90506108b1565b6040518060400160405280600181526020017f520000000000000000000000000000000000000000000000000000000000000081525090505b949350505050565b6060600083905060008173ffffffffffffffffffffffffffffffffffffffff16635bf8633a6040518163ffffffff1660e01b815260040160206040518083038186803b15801561090857600080fd5b505afa15801561091c573d6000803e3d6000fd5b505050506040513d601f19601f820116820180604052508101906109409190610eb5565b90506000610a488273ffffffffffffffffffffffffffffffffffffffff1663f681dd186040518163ffffffff1660e01b815260040160206040518083038186803b15801561098d57600080fd5b505afa1580156109a1573d6000803e3d6000fd5b505050506040513d601f19601f820116820180604052508101906109c59190610f92565b8373ffffffffffffffffffffffffffffffffffffffff1663c397f88f6040518163ffffffff1660e01b815260040160206040518083038186803b158015610a0b57600080fd5b505afa158015610a1f573d6000803e3d6000fd5b505050506040513d601f19601f82011682018060405250810190610a439190610f92565b61051f565b905060008673ffffffffffffffffffffffffffffffffffffffff1631905060008473ffffffffffffffffffffffffffffffffffffffff1663d2d5862c6040518163ffffffff1660e01b815260040160206040518083038186803b158015610aae57600080fd5b505afa158015610ac2573d6000803e3d6000fd5b505050506040513d601f19601f82011682018060405250810190610ae69190610f92565b90506000610b7282898873ffffffffffffffffffffffffffffffffffffffff16639b9bf60a6040518163ffffffff1660e01b815260040160206040518083038186803b158015610b3557600080fd5b505afa158015610b49573d6000803e3d6000fd5b505050506040513d601f19601f82011682018060405250810190610b6d9190610f92565b610d91565b82610b7d91906111ab565b90506000610b8b8483610dde565b90506000438873ffffffffffffffffffffffffffffffffffffffff1663d5fb191b6040518163ffffffff1660e01b815260040160206040518083038186803b158015610bd657600080fd5b505afa158015610bea573d6000803e3d6000fd5b505050506040513d601f19601f82011682018060405250810190610c0e9190610f92565b119050600081610ca357610c9e8973ffffffffffffffffffffffffffffffffffffffff1663d5fb191b6040518163ffffffff1660e01b815260040160206040518083038186803b158015610c6157600080fd5b505afa158015610c75573d6000803e3d6000fd5b505050506040513d601f19601f82011682018060405250810190610c999190610f92565b610dec565b610ca6565b60005b9050610cb487848484610802565b995050505050505050505092915050565b600033905090565b60008060009054906101000a900473ffffffffffffffffffffffffffffffffffffffff169050816000806101000a81548173ffffffffffffffffffffffffffffffffffffffff021916908373ffffffffffffffffffffffffffffffffffffffff1602179055508173ffffffffffffffffffffffffffffffffffffffff168173ffffffffffffffffffffffffffffffffffffffff167f8be0079c531659141344cd1fd0a4f28419497f9722a3daafe3b4186f6b6457e060405160405180910390a35050565b6000816004670de0b6b3a76400006064610dab9190611232565b8587610db79190611232565b610dc19190611201565b610dcb9190611201565b610dd59190611232565b90509392505050565b600081831015905092915050565b6000808243610dfb919061128c565b905060006207e900905080821115610e14576002610e17565b60015b60ff1692505050919050565b600081359050610e3281611422565b92915050565b600081519050610e4781611422565b92915050565b600081359050610e5c81611439565b92915050565b600081359050610e7181611450565b92915050565b600081519050610e8681611450565b92915050565b600060208284031215610e9e57600080fd5b6000610eac84828501610e23565b91505092915050565b600060208284031215610ec757600080fd5b6000610ed584828501610e38565b91505092915050565b60008060408385031215610ef157600080fd5b6000610eff85828601610e23565b9250506020610f1085828601610e62565b9150509250929050565b600080600060608486031215610f2f57600080fd5b6000610f3d86828701610e4d565b9350506020610f4e86828701610e4d565b9250506040610f5f86828701610e62565b9150509250925092565b600060208284031215610f7b57600080fd5b6000610f8984828501610e62565b91505092915050565b600060208284031215610fa457600080fd5b6000610fb284828501610e77565b91505092915050565b60008060008060808587031215610fd157600080fd5b6000610fdf87828801610e62565b9450506020610ff087828801610e4d565b935050604061100187828801610e4d565b925050606061101287828801610e62565b91505092959194509250565b6000806040838503121561103157600080fd5b600061103f85828601610e62565b925050602061105085828601610e62565b9150509250929050565b611063816112c0565b82525050565b60006110748261118f565b61107e818561119a565b935061108e818560208601611308565b61109781611399565b840191505092915050565b60006110af60268361119a565b91506110ba826113aa565b604082019050919050565b60006110d260208361119a565b91506110dd826113f9565b602082019050919050565b6110f1816112fe565b82525050565b600060208201905061110c600083018461105a565b92915050565b6000602082019050818103600083015261112c8184611069565b905092915050565b6000602082019050818103600083015261114d816110a2565b9050919050565b6000602082019050818103600083015261116d816110c5565b9050919050565b600060208201905061118960008301846110e8565b92915050565b600081519050919050565b600082825260208201905092915050565b60006111b6826112fe565b91506111c1836112fe565b9250827fffffffffffffffffffffffffffffffffffffffffffffffffffffffffffffffff038211156111f6576111f561133b565b5b828201905092915050565b600061120c826112fe565b9150611217836112fe565b9250826112275761122661136a565b5b828204905092915050565b600061123d826112fe565b9150611248836112fe565b9250817fffffffffffffffffffffffffffffffffffffffffffffffffffffffffffffffff04831182151516156112815761128061133b565b5b828202905092915050565b6000611297826112fe565b91506112a2836112fe565b9250828210156112b5576112b461133b565b5b828203905092915050565b60006112cb826112de565b9050919050565b60008115159050919050565b600073ffffffffffffffffffffffffffffffffffffffff82169050919050565b6000819050919050565b60005b8381101561132657808201518184015260208101905061130b565b83811115611335576000848401525b50505050565b7f4e487b7100000000000000000000000000000000000000000000000000000000600052601160045260246000fd5b7f4e487b7100000000000000000000000000000000000000000000000000000000600052601260045260246000fd5b6000601f19601f8301169050919050565b7f4f776e61626c653a206e6577206f776e657220697320746865207a65726f206160008201527f6464726573730000000000000000000000000000000000000000000000000000602082015250565b7f4f776e61626c653a2063616c6c6572206973206e6f7420746865206f776e6572600082015250565b61142b816112c0565b811461143657600080fd5b50565b611442816112d2565b811461144d57600080fd5b50565b611459816112fe565b811461146457600080fd5b5056fea2646970667358221220855fbc36f106e4b20d37ed80f89f8986530bd1b7b21ea2e0c476f414d61520ac64736f6c63430008040033",
  "linkReferences": {},
  "deployedLinkReferences": {}
}